{
	"contracts/SimpleMemeToken.sol": {
		"SimpleMemeToken": {
			"abi": [
				{
					"inputs": [
						{
							"internalType": "address",
							"name": "_feeWallet",
							"type": "address"
						}
					],
					"stateMutability": "nonpayable",
					"type": "constructor"
				},
				{
					"anonymous": false,
					"inputs": [
						{
							"indexed": true,
							"internalType": "address",
							"name": "owner",
							"type": "address"
						},
						{
							"indexed": true,
							"internalType": "address",
							"name": "spender",
							"type": "address"
						},
						{
							"indexed": false,
							"internalType": "uint256",
							"name": "value",
							"type": "uint256"
						}
					],
					"name": "Approval",
					"type": "event"
				},
				{
					"anonymous": false,
					"inputs": [
						{
							"indexed": true,
							"internalType": "address",
							"name": "to",
							"type": "address"
						},
						{
							"indexed": false,
							"internalType": "uint256",
							"name": "amount",
							"type": "uint256"
						}
					],
					"name": "FeesWithdrawn",
					"type": "event"
				},
				{
					"anonymous": false,
					"inputs": [
						{
							"indexed": true,
							"internalType": "address",
							"name": "provider",
							"type": "address"
						},
						{
							"indexed": false,
							"internalType": "uint256",
							"name": "tokenAmount",
							"type": "uint256"
						},
						{
							"indexed": false,
							"internalType": "uint256",
							"name": "ethAmount",
							"type": "uint256"
						},
						{
							"indexed": false,
							"internalType": "uint256",
							"name": "shares",
							"type": "uint256"
						}
					],
					"name": "LiquidityAdded",
					"type": "event"
				},
				{
					"anonymous": false,
					"inputs": [
						{
							"indexed": true,
							"internalType": "address",
							"name": "provider",
							"type": "address"
						},
						{
							"indexed": false,
							"internalType": "uint256",
							"name": "tokenAmount",
							"type": "uint256"
						},
						{
							"indexed": false,
							"internalType": "uint256",
							"name": "ethAmount",
							"type": "uint256"
						},
						{
							"indexed": false,
							"internalType": "uint256",
							"name": "shares",
							"type": "uint256"
						}
					],
					"name": "LiquidityRemoved",
					"type": "event"
				},
				{
					"anonymous": false,
					"inputs": [
						{
							"indexed": true,
							"internalType": "address",
							"name": "from",
							"type": "address"
						},
						{
							"indexed": false,
							"internalType": "uint256",
							"name": "amount",
							"type": "uint256"
						}
					],
					"name": "TaxCollected",
					"type": "event"
				},
				{
					"anonymous": false,
					"inputs": [
						{
							"indexed": true,
							"internalType": "address",
							"name": "from",
							"type": "address"
						},
						{
							"indexed": true,
							"internalType": "address",
							"name": "to",
							"type": "address"
						},
						{
							"indexed": false,
							"internalType": "uint256",
							"name": "value",
							"type": "uint256"
						}
					],
					"name": "Transfer",
					"type": "event"
				},
				{
					"inputs": [
						{
							"internalType": "uint256",
							"name": "tokenAmount",
							"type": "uint256"
						}
					],
					"name": "addLiquidity",
					"outputs": [],
					"stateMutability": "payable",
					"type": "function"
				},
				{
					"inputs": [
						{
							"internalType": "address",
							"name": "",
							"type": "address"
						},
						{
							"internalType": "address",
							"name": "",
							"type": "address"
						}
					],
					"name": "allowance",
					"outputs": [
						{
							"internalType": "uint256",
							"name": "",
							"type": "uint256"
						}
					],
					"stateMutability": "view",
					"type": "function"
				},
				{
					"inputs": [
						{
							"internalType": "address",
							"name": "spender",
							"type": "address"
						},
						{
							"internalType": "uint256",
							"name": "amount",
							"type": "uint256"
						}
					],
					"name": "approve",
					"outputs": [
						{
							"internalType": "bool",
							"name": "",
							"type": "bool"
						}
					],
					"stateMutability": "nonpayable",
					"type": "function"
				},
				{
					"inputs": [
						{
							"internalType": "address",
							"name": "",
							"type": "address"
						}
					],
					"name": "balanceOf",
					"outputs": [
						{
							"internalType": "uint256",
							"name": "",
							"type": "uint256"
						}
					],
					"stateMutability": "view",
					"type": "function"
				},
				{
					"inputs": [],
					"name": "buyTaxRate",
					"outputs": [
						{
							"internalType": "uint256",
							"name": "",
							"type": "uint256"
						}
					],
					"stateMutability": "view",
					"type": "function"
				},
				{
					"inputs": [],
					"name": "buyTokens",
					"outputs": [],
					"stateMutability": "payable",
					"type": "function"
				},
				{
					"inputs": [],
					"name": "collectedFees",
					"outputs": [
						{
							"internalType": "uint256",
							"name": "",
							"type": "uint256"
						}
					],
					"stateMutability": "view",
					"type": "function"
				},
				{
					"inputs": [
						{
							"internalType": "address",
							"name": "",
							"type": "address"
						}
					],
					"name": "dailyTxCount",
					"outputs": [
						{
							"internalType": "uint256",
							"name": "",
							"type": "uint256"
						}
					],
					"stateMutability": "view",
					"type": "function"
				},
				{
					"inputs": [],
					"name": "decimals",
					"outputs": [
						{
							"internalType": "uint8",
							"name": "",
							"type": "uint8"
						}
					],
					"stateMutability": "view",
					"type": "function"
				},
				{
					"inputs": [],
					"name": "feeWallet",
					"outputs": [
						{
							"internalType": "address",
							"name": "",
							"type": "address"
						}
					],
					"stateMutability": "view",
					"type": "function"
				},
				{
					"inputs": [
						{
							"internalType": "address",
							"name": "user",
							"type": "address"
						}
					],
					"name": "getRemainingDailyTx",
					"outputs": [
						{
							"internalType": "uint256",
							"name": "",
							"type": "uint256"
						}
					],
					"stateMutability": "view",
					"type": "function"
				},
				{
					"inputs": [],
					"name": "getTokenPrice",
					"outputs": [
						{
							"internalType": "uint256",
							"name": "",
							"type": "uint256"
						}
					],
					"stateMutability": "view",
					"type": "function"
				},
				{
					"inputs": [
						{
							"internalType": "address",
							"name": "user",
							"type": "address"
						}
					],
					"name": "getUserLiquidityValue",
					"outputs": [
						{
							"internalType": "uint256",
							"name": "tokenAmount",
							"type": "uint256"
						},
						{
							"internalType": "uint256",
							"name": "ethAmount",
							"type": "uint256"
						}
					],
					"stateMutability": "view",
					"type": "function"
				},
				{
					"inputs": [
						{
							"internalType": "address",
							"name": "",
							"type": "address"
						}
					],
					"name": "isExcluded",
					"outputs": [
						{
							"internalType": "bool",
							"name": "",
							"type": "bool"
						}
					],
					"stateMutability": "view",
					"type": "function"
				},
				{
					"inputs": [
						{
							"internalType": "address",
							"name": "",
							"type": "address"
						}
					],
					"name": "lastTxDate",
					"outputs": [
						{
							"internalType": "uint256",
							"name": "",
							"type": "uint256"
						}
					],
					"stateMutability": "view",
					"type": "function"
				},
				{
					"inputs": [],
					"name": "liquidityETH",
					"outputs": [
						{
							"internalType": "uint256",
							"name": "",
							"type": "uint256"
						}
					],
					"stateMutability": "view",
					"type": "function"
				},
				{
					"inputs": [
						{
							"internalType": "address",
							"name": "",
							"type": "address"
						}
					],
					"name": "liquidityShares",
					"outputs": [
						{
							"internalType": "uint256",
							"name": "",
							"type": "uint256"
						}
					],
					"stateMutability": "view",
					"type": "function"
				},
				{
					"inputs": [],
					"name": "liquidityTokens",
					"outputs": [
						{
							"internalType": "uint256",
							"name": "",
							"type": "uint256"
						}
					],
					"stateMutability": "view",
					"type": "function"
				},
				{
					"inputs": [],
					"name": "maxDailyTx",
					"outputs": [
						{
							"internalType": "uint256",
							"name": "",
							"type": "uint256"
						}
					],
					"stateMutability": "view",
					"type": "function"
				},
				{
					"inputs": [],
					"name": "maxTxAmount",
					"outputs": [
						{
							"internalType": "uint256",
							"name": "",
							"type": "uint256"
						}
					],
					"stateMutability": "view",
					"type": "function"
				},
				{
					"inputs": [],
					"name": "maxWalletAmount",
					"outputs": [
						{
							"internalType": "uint256",
							"name": "",
							"type": "uint256"
						}
					],
					"stateMutability": "view",
					"type": "function"
				},
				{
					"inputs": [],
					"name": "name",
					"outputs": [
						{
							"internalType": "string",
							"name": "",
							"type": "string"
						}
					],
					"stateMutability": "view",
					"type": "function"
				},
				{
					"inputs": [],
					"name": "owner",
					"outputs": [
						{
							"internalType": "address",
							"name": "",
							"type": "address"
						}
					],
					"stateMutability": "view",
					"type": "function"
				},
				{
					"inputs": [
						{
							"internalType": "uint256",
							"name": "shares",
							"type": "uint256"
						}
					],
					"name": "removeLiquidity",
					"outputs": [],
					"stateMutability": "nonpayable",
					"type": "function"
				},
				{
					"inputs": [],
					"name": "sellTaxRate",
					"outputs": [
						{
							"internalType": "uint256",
							"name": "",
							"type": "uint256"
						}
					],
					"stateMutability": "view",
					"type": "function"
				},
				{
					"inputs": [
						{
							"internalType": "uint256",
							"name": "tokenAmount",
							"type": "uint256"
						}
					],
					"name": "sellTokens",
					"outputs": [],
					"stateMutability": "nonpayable",
					"type": "function"
				},
				{
					"inputs": [
						{
							"internalType": "address",
							"name": "account",
							"type": "address"
						},
						{
							"internalType": "bool",
							"name": "excluded",
							"type": "bool"
						}
					],
					"name": "setExcluded",
					"outputs": [],
					"stateMutability": "nonpayable",
					"type": "function"
				},
				{
					"inputs": [
						{
							"internalType": "address",
							"name": "newFeeWallet",
							"type": "address"
						}
					],
					"name": "setFeeWallet",
					"outputs": [],
					"stateMutability": "nonpayable",
					"type": "function"
				},
				{
					"inputs": [
						{
							"internalType": "uint256",
							"name": "_maxTx",
							"type": "uint256"
						},
						{
							"internalType": "uint256",
							"name": "_maxWallet",
							"type": "uint256"
						}
					],
					"name": "setLimits",
					"outputs": [],
					"stateMutability": "nonpayable",
					"type": "function"
				},
				{
					"inputs": [
						{
							"internalType": "uint256",
							"name": "_maxDaily",
							"type": "uint256"
						}
					],
					"name": "setMaxDailyTx",
					"outputs": [],
					"stateMutability": "nonpayable",
					"type": "function"
				},
				{
					"inputs": [
						{
							"internalType": "uint256",
							"name": "_buyTax",
							"type": "uint256"
						},
						{
							"internalType": "uint256",
							"name": "_sellTax",
							"type": "uint256"
						},
						{
							"internalType": "uint256",
							"name": "_transferTax",
							"type": "uint256"
						}
					],
					"name": "setTaxRates",
					"outputs": [],
					"stateMutability": "nonpayable",
					"type": "function"
				},
				{
					"inputs": [],
					"name": "symbol",
					"outputs": [
						{
							"internalType": "string",
							"name": "",
							"type": "string"
						}
					],
					"stateMutability": "view",
					"type": "function"
				},
				{
					"inputs": [],
					"name": "totalLiquidityShares",
					"outputs": [
						{
							"internalType": "uint256",
							"name": "",
							"type": "uint256"
						}
					],
					"stateMutability": "view",
					"type": "function"
				},
				{
					"inputs": [],
					"name": "totalSupply",
					"outputs": [
						{
							"internalType": "uint256",
							"name": "",
							"type": "uint256"
						}
					],
					"stateMutability": "view",
					"type": "function"
				},
				{
					"inputs": [
						{
							"internalType": "address",
							"name": "to",
							"type": "address"
						},
						{
							"internalType": "uint256",
							"name": "amount",
							"type": "uint256"
						}
					],
					"name": "transfer",
					"outputs": [
						{
							"internalType": "bool",
							"name": "",
							"type": "bool"
						}
					],
					"stateMutability": "nonpayable",
					"type": "function"
				},
				{
					"inputs": [
						{
							"internalType": "address",
							"name": "from",
							"type": "address"
						},
						{
							"internalType": "address",
							"name": "to",
							"type": "address"
						},
						{
							"internalType": "uint256",
							"name": "amount",
							"type": "uint256"
						}
					],
					"name": "transferFrom",
					"outputs": [
						{
							"internalType": "bool",
							"name": "",
							"type": "bool"
						}
					],
					"stateMutability": "nonpayable",
					"type": "function"
				},
				{
					"inputs": [
						{
							"internalType": "address",
							"name": "newOwner",
							"type": "address"
						}
					],
					"name": "transferOwnership",
					"outputs": [],
					"stateMutability": "nonpayable",
					"type": "function"
				},
				{
					"inputs": [],
					"name": "transferTaxRate",
					"outputs": [
						{
							"internalType": "uint256",
							"name": "",
							"type": "uint256"
						}
					],
					"stateMutability": "view",
					"type": "function"
				},
				{
					"inputs": [],
					"name": "withdrawFees",
					"outputs": [],
					"stateMutability": "nonpayable",
					"type": "function"
				},
				{
					"stateMutability": "payable",
					"type": "receive"
				}
			],
			"devdoc": {
				"details": "适合初学者学习区块链开发",
				"kind": "dev",
				"methods": {
					"addLiquidity(uint256)": {
						"details": "用户提供代币和ETH,获得流动性份额",
						"params": {
							"tokenAmount": "提供的代币数量"
						}
					},
					"approve(address,uint256)": {
						"params": {
							"amount": "授权数量",
							"spender": "被授权的地址"
						},
						"returns": {
							"_0": "是否成功"
						}
					},
					"buyTokens()": {
						"details": "用户发送ETH,从池中获得代币"
					},
					"constructor": {
						"params": {
							"_feeWallet": "接收税费的钱包地址"
						}
					},
					"getRemainingDailyTx(address)": {
						"params": {
							"user": "用户地址"
						},
						"returns": {
							"_0": "剩余次数"
						}
					},
					"getTokenPrice()": {
						"returns": {
							"_0": "价格(以wei为单位)"
						}
					},
					"getUserLiquidityValue(address)": {
						"params": {
							"user": "用户地址"
						},
						"returns": {
							"ethAmount": "可取回的ETH数量",
							"tokenAmount": "可取回的代币数量"
						}
					},
					"removeLiquidity(uint256)": {
						"details": "用户销毁流动性份额,取回代币和ETH",
						"params": {
							"shares": "要移除的份额数量"
						}
					},
					"sellTokens(uint256)": {
						"details": "用户发送代币,从池中获得ETH",
						"params": {
							"tokenAmount": "要卖出的代币数量"
						}
					},
					"setExcluded(address,bool)": {
						"params": {
							"account": "地址",
							"excluded": "是否加入白名单"
						}
					},
					"setFeeWallet(address)": {
						"params": {
							"newFeeWallet": "新的税费钱包地址"
						}
					},
					"setLimits(uint256,uint256)": {
						"params": {
							"_maxTx": "单笔最大交易额",
							"_maxWallet": "钱包最大持有量"
						}
					},
					"setMaxDailyTx(uint256)": {
						"params": {
							"_maxDaily": "每日最大交易次数"
						}
					},
					"setTaxRates(uint256,uint256,uint256)": {
						"params": {
							"_buyTax": "买入税",
							"_sellTax": "卖出税",
							"_transferTax": "转账税"
						}
					},
					"transfer(address,uint256)": {
						"params": {
							"amount": "转账数量",
							"to": "接收者地址"
						},
						"returns": {
							"_0": "是否成功"
						}
					},
					"transferFrom(address,address,uint256)": {
						"params": {
							"amount": "转账数量",
							"from": "发送者地址",
							"to": "接收者地址"
						},
						"returns": {
							"_0": "是否成功"
						}
					},
					"transferOwnership(address)": {
						"params": {
							"newOwner": "新所有者地址"
						}
					},
					"withdrawFees()": {
						"details": "将税费发送到税费钱包"
					}
				},
				"title": "SimpleMemeToken - 简化版Meme代币合约(学习用)",
				"version": 1
			},
			"evm": {
				"assembly": "    /* \"contracts/SimpleMemeToken.sol\":258:18048  contract SimpleMemeToken {... */\n  mstore(0x40, 0x80)\n    /* \"contracts/SimpleMemeToken.sol\":351:384  string public name = \"SimpleMeme\" */\n  mload(0x40)\n  dup1\n  0x40\n  add\n  0x40\n  mstore\n  dup1\n  0x0a\n  dup2\n  mstore\n  0x20\n  add\n  0x53696d706c654d656d6500000000000000000000000000000000000000000000\n  dup2\n  mstore\n  pop\n  0x00\n  swap1\n  dup2\n  tag_1\n  swap2\n  swap1\n  tag_2\n  jump\t// in\ntag_1:\n  pop\n    /* \"contracts/SimpleMemeToken.sol\":416:446  string public symbol = \"SMEME\" */\n  mload(0x40)\n  dup1\n  0x40\n  add\n  0x40\n  mstore\n  dup1\n  0x05\n  dup2\n  mstore\n  0x20\n  add\n  0x534d454d45000000000000000000000000000000000000000000000000000000\n  dup2\n  mstore\n  pop\n  0x01\n  swap1\n  dup2\n  tag_3\n  swap2\n  swap1\n  tag_2\n  jump\t// in\ntag_3:\n  pop\n    /* \"contracts/SimpleMemeToken.sol\":505:507  18 */\n  0x12\n    /* \"contracts/SimpleMemeToken.sol\":481:507  uint8 public decimals = 18 */\n  0x02\n  exp(0x0100, 0x00)\n  dup2\n  sload\n  dup2\n  0xff\n  mul\n  not\n  and\n  swap1\n  dup4\n  0xff\n  and\n  mul\n  or\n  swap1\n  sstore\n  pop\n    /* \"contracts/SimpleMemeToken.sol\":575:591  1000000 * 10**18 */\n  0xd3c21bcecceda1000000\n    /* \"contracts/SimpleMemeToken.sol\":546:591  uint256 public totalSupply = 1000000 * 10**18 */\n  0x03\n  sstore\n    /* \"contracts/SimpleMemeToken.sol\":1101:1102  5 */\n  0x05\n    /* \"contracts/SimpleMemeToken.sol\":1073:1102  uint256 public buyTaxRate = 5 */\n  0x06\n  sstore\n    /* \"contracts/SimpleMemeToken.sol\":1158:1159  8 */\n  0x08\n    /* \"contracts/SimpleMemeToken.sol\":1129:1159  uint256 public sellTaxRate = 8 */\n  0x07\n  sstore\n    /* \"contracts/SimpleMemeToken.sol\":1218:1219  2 */\n  0x02\n    /* \"contracts/SimpleMemeToken.sol\":1185:1219  uint256 public transferTaxRate = 2 */\n  0x08\n  sstore\n    /* \"contracts/SimpleMemeToken.sol\":1941:1955  10000 * 10**18 */\n  0x021e19e0c9bab2400000\n    /* \"contracts/SimpleMemeToken.sol\":1912:1955  uint256 public maxTxAmount = 10000 * 10**18 */\n  0x0f\n  sstore\n    /* \"contracts/SimpleMemeToken.sol\":2043:2057  20000 * 10**18 */\n  0x043c33c1937564800000\n    /* \"contracts/SimpleMemeToken.sol\":2010:2057  uint256 public maxWalletAmount = 20000 * 10**18 */\n  0x10\n  sstore\n    /* \"contracts/SimpleMemeToken.sol\":2303:2305  10 */\n  0x0a\n    /* \"contracts/SimpleMemeToken.sol\":2275:2305  uint256 public maxDailyTx = 10 */\n  0x13\n  sstore\n    /* \"contracts/SimpleMemeToken.sol\":3546:4044  constructor(address _feeWallet) {... */\n  callvalue\n  dup1\n  iszero\n  tag_4\n  jumpi\n  revert(0x00, 0x00)\ntag_4:\n  pop\n  mload(0x40)\n  sub(codesize, bytecodeSize)\n  dup1\n  bytecodeSize\n  dup4\n  codecopy\n  dup2\n  dup2\n  add\n  0x40\n  mstore\n  dup2\n  add\n  swap1\n  tag_5\n  swap2\n  swap1\n  tag_6\n  jump\t// in\ntag_5:\n    /* \"contracts/SimpleMemeToken.sol\":3596:3606  msg.sender */\n  caller\n    /* \"contracts/SimpleMemeToken.sol\":3588:3593  owner */\n  0x15\n  0x00\n    /* \"contracts/SimpleMemeToken.sol\":3588:3606  owner = msg.sender */\n  0x0100\n  exp\n  dup2\n  sload\n  dup2\n  0xffffffffffffffffffffffffffffffffffffffff\n  mul\n  not\n  and\n  swap1\n  dup4\n  0xffffffffffffffffffffffffffffffffffffffff\n  and\n  mul\n  or\n  swap1\n  sstore\n  pop\n    /* \"contracts/SimpleMemeToken.sol\":3684:3694  _feeWallet */\n  dup1\n    /* \"contracts/SimpleMemeToken.sol\":3672:3681  feeWallet */\n  0x09\n  0x00\n    /* \"contracts/SimpleMemeToken.sol\":3672:3694  feeWallet = _feeWallet */\n  0x0100\n  exp\n  dup2\n  sload\n  dup2\n  0xffffffffffffffffffffffffffffffffffffffff\n  mul\n  not\n  and\n  swap1\n  dup4\n  0xffffffffffffffffffffffffffffffffffffffff\n  and\n  mul\n  or\n  swap1\n  sstore\n  pop\n    /* \"contracts/SimpleMemeToken.sol\":3765:3776  totalSupply */\n  sload(0x03)\n    /* \"contracts/SimpleMemeToken.sol\":3741:3750  balanceOf */\n  0x04\n    /* \"contracts/SimpleMemeToken.sol\":3741:3762  balanceOf[msg.sender] */\n  0x00\n    /* \"contracts/SimpleMemeToken.sol\":3751:3761  msg.sender */\n  caller\n    /* \"contracts/SimpleMemeToken.sol\":3741:3762  balanceOf[msg.sender] */\n  0xffffffffffffffffffffffffffffffffffffffff\n  and\n  0xffffffffffffffffffffffffffffffffffffffff\n  and\n  dup2\n  mstore\n  0x20\n  add\n  swap1\n  dup2\n  mstore\n  0x20\n  add\n  0x00\n  keccak256\n    /* \"contracts/SimpleMemeToken.sol\":3741:3776  balanceOf[msg.sender] = totalSupply */\n  dup2\n  swap1\n  sstore\n  pop\n    /* \"contracts/SimpleMemeToken.sol\":3850:3854  true */\n  0x01\n    /* \"contracts/SimpleMemeToken.sol\":3825:3835  isExcluded */\n  0x14\n    /* \"contracts/SimpleMemeToken.sol\":3825:3847  isExcluded[msg.sender] */\n  0x00\n    /* \"contracts/SimpleMemeToken.sol\":3836:3846  msg.sender */\n  caller\n    /* \"contracts/SimpleMemeToken.sol\":3825:3847  isExcluded[msg.sender] */\n  0xffffffffffffffffffffffffffffffffffffffff\n  and\n  0xffffffffffffffffffffffffffffffffffffffff\n  and\n  dup2\n  mstore\n  0x20\n  add\n  swap1\n  dup2\n  mstore\n  0x20\n  add\n  0x00\n  keccak256\n  0x00\n    /* \"contracts/SimpleMemeToken.sol\":3825:3854  isExcluded[msg.sender] = true */\n  0x0100\n  exp\n  dup2\n  sload\n  dup2\n  0xff\n  mul\n  not\n  and\n  swap1\n  dup4\n  iszero\n  iszero\n  mul\n  or\n  swap1\n  sstore\n  pop\n    /* \"contracts/SimpleMemeToken.sol\":3928:3932  true */\n  0x01\n    /* \"contracts/SimpleMemeToken.sol\":3900:3910  isExcluded */\n  0x14\n    /* \"contracts/SimpleMemeToken.sol\":3900:3925  isExcluded[address(this)] */\n  0x00\n    /* \"contracts/SimpleMemeToken.sol\":3919:3923  this */\n  address\n    /* \"contracts/SimpleMemeToken.sol\":3900:3925  isExcluded[address(this)] */\n  0xffffffffffffffffffffffffffffffffffffffff\n  and\n  0xffffffffffffffffffffffffffffffffffffffff\n  and\n  dup2\n  mstore\n  0x20\n  add\n  swap1\n  dup2\n  mstore\n  0x20\n  add\n  0x00\n  keccak256\n  0x00\n    /* \"contracts/SimpleMemeToken.sol\":3900:3932  isExcluded[address(this)] = true */\n  0x0100\n  exp\n  dup2\n  sload\n  dup2\n  0xff\n  mul\n  not\n  and\n  swap1\n  dup4\n  iszero\n  iszero\n  mul\n  or\n  swap1\n  sstore\n  pop\n    /* \"contracts/SimpleMemeToken.sol\":4013:4023  msg.sender */\n  caller\n    /* \"contracts/SimpleMemeToken.sol\":3992:4037  Transfer(address(0), msg.sender, totalSupply) */\n  0xffffffffffffffffffffffffffffffffffffffff\n  and\n    /* \"contracts/SimpleMemeToken.sol\":4009:4010  0 */\n  0x00\n    /* \"contracts/SimpleMemeToken.sol\":3992:4037  Transfer(address(0), msg.sender, totalSupply) */\n  0xffffffffffffffffffffffffffffffffffffffff\n  and\n  0xddf252ad1be2c89b69c2b068fc378daa952ba7f163c4a11628f55a4df523b3ef\n    /* \"contracts/SimpleMemeToken.sol\":4025:4036  totalSupply */\n  sload(0x03)\n    /* \"contracts/SimpleMemeToken.sol\":3992:4037  Transfer(address(0), msg.sender, totalSupply) */\n  mload(0x40)\n  tag_9\n  swap2\n  swap1\n  tag_10\n  jump\t// in\ntag_9:\n  mload(0x40)\n  dup1\n  swap2\n  sub\n  swap1\n  log3\n    /* \"contracts/SimpleMemeToken.sol\":3546:4044  constructor(address _feeWallet) {... */\n  pop\n    /* \"contracts/SimpleMemeToken.sol\":258:18048  contract SimpleMemeToken {... */\n  jump(tag_11)\n    /* \"#utility.yul\":7:106   */\ntag_12:\n    /* \"#utility.yul\":59:65   */\n  0x00\n    /* \"#utility.yul\":93:98   */\n  dup2\n    /* \"#utility.yul\":87:99   */\n  mload\n    /* \"#utility.yul\":77:99   */\n  swap1\n  pop\n    /* \"#utility.yul\":7:106   */\n  swap2\n  swap1\n  pop\n  jump\t// out\n    /* \"#utility.yul\":112:292   */\ntag_13:\n    /* \"#utility.yul\":160:237   */\n  0x4e487b7100000000000000000000000000000000000000000000000000000000\n    /* \"#utility.yul\":157:158   */\n  0x00\n    /* \"#utility.yul\":150:238   */\n  mstore\n    /* \"#utility.yul\":257:261   */\n  0x41\n    /* \"#utility.yul\":254:255   */\n  0x04\n    /* \"#utility.yul\":247:262   */\n  mstore\n    /* \"#utility.yul\":281:285   */\n  0x24\n    /* \"#utility.yul\":278:279   */\n  0x00\n    /* \"#utility.yul\":271:286   */\n  revert\n    /* \"#utility.yul\":298:478   */\ntag_14:\n    /* \"#utility.yul\":346:423   */\n  0x4e487b7100000000000000000000000000000000000000000000000000000000\n    /* \"#utility.yul\":343:344   */\n  0x00\n    /* \"#utility.yul\":336:424   */\n  mstore\n    /* \"#utility.yul\":443:447   */\n  0x22\n    /* \"#utility.yul\":440:441   */\n  0x04\n    /* \"#utility.yul\":433:448   */\n  mstore\n    /* \"#utility.yul\":467:471   */\n  0x24\n    /* \"#utility.yul\":464:465   */\n  0x00\n    /* \"#utility.yul\":457:472   */\n  revert\n    /* \"#utility.yul\":484:804   */\ntag_15:\n    /* \"#utility.yul\":528:534   */\n  0x00\n    /* \"#utility.yul\":565:566   */\n  0x02\n    /* \"#utility.yul\":559:563   */\n  dup3\n    /* \"#utility.yul\":555:567   */\n  div\n    /* \"#utility.yul\":545:567   */\n  swap1\n  pop\n    /* \"#utility.yul\":612:613   */\n  0x01\n    /* \"#utility.yul\":606:610   */\n  dup3\n    /* \"#utility.yul\":602:614   */\n  and\n    /* \"#utility.yul\":633:651   */\n  dup1\n    /* \"#utility.yul\":623:704   */\n  tag_45\n  jumpi\n    /* \"#utility.yul\":689:693   */\n  0x7f\n    /* \"#utility.yul\":681:687   */\n  dup3\n    /* \"#utility.yul\":677:694   */\n  and\n    /* \"#utility.yul\":667:694   */\n  swap2\n  pop\n    /* \"#utility.yul\":623:704   */\ntag_45:\n    /* \"#utility.yul\":751:753   */\n  0x20\n    /* \"#utility.yul\":743:749   */\n  dup3\n    /* \"#utility.yul\":740:754   */\n  lt\n    /* \"#utility.yul\":720:738   */\n  dup2\n    /* \"#utility.yul\":717:755   */\n  sub\n    /* \"#utility.yul\":714:798   */\n  tag_46\n  jumpi\n    /* \"#utility.yul\":770:788   */\n  tag_47\n  tag_14\n  jump\t// in\ntag_47:\n    /* \"#utility.yul\":714:798   */\ntag_46:\n    /* \"#utility.yul\":535:804   */\n  pop\n    /* \"#utility.yul\":484:804   */\n  swap2\n  swap1\n  pop\n  jump\t// out\n    /* \"#utility.yul\":810:951   */\ntag_16:\n    /* \"#utility.yul\":859:863   */\n  0x00\n    /* \"#utility.yul\":882:885   */\n  dup2\n    /* \"#utility.yul\":874:885   */\n  swap1\n  pop\n    /* \"#utility.yul\":905:908   */\n  dup2\n    /* \"#utility.yul\":902:903   */\n  0x00\n    /* \"#utility.yul\":895:909   */\n  mstore\n    /* \"#utility.yul\":939:943   */\n  0x20\n    /* \"#utility.yul\":936:937   */\n  0x00\n    /* \"#utility.yul\":926:944   */\n  keccak256\n    /* \"#utility.yul\":918:944   */\n  swap1\n  pop\n    /* \"#utility.yul\":810:951   */\n  swap2\n  swap1\n  pop\n  jump\t// out\n    /* \"#utility.yul\":957:1050   */\ntag_17:\n    /* \"#utility.yul\":994:1000   */\n  0x00\n    /* \"#utility.yul\":1041:1043   */\n  0x20\n    /* \"#utility.yul\":1036:1038   */\n  0x1f\n    /* \"#utility.yul\":1029:1034   */\n  dup4\n    /* \"#utility.yul\":1025:1039   */\n  add\n    /* \"#utility.yul\":1021:1044   */\n  div\n    /* \"#utility.yul\":1011:1044   */\n  swap1\n  pop\n    /* \"#utility.yul\":957:1050   */\n  swap2\n  swap1\n  pop\n  jump\t// out\n    /* \"#utility.yul\":1056:1163   */\ntag_18:\n    /* \"#utility.yul\":1100:1108   */\n  0x00\n    /* \"#utility.yul\":1150:1155   */\n  dup3\n    /* \"#utility.yul\":1144:1148   */\n  dup3\n    /* \"#utility.yul\":1140:1156   */\n  shl\n    /* \"#utility.yul\":1119:1156   */\n  swap1\n  pop\n    /* \"#utility.yul\":1056:1163   */\n  swap3\n  swap2\n  pop\n  pop\n  jump\t// out\n    /* \"#utility.yul\":1169:1562   */\ntag_19:\n    /* \"#utility.yul\":1238:1244   */\n  0x00\n    /* \"#utility.yul\":1288:1289   */\n  0x08\n    /* \"#utility.yul\":1276:1286   */\n  dup4\n    /* \"#utility.yul\":1272:1290   */\n  mul\n    /* \"#utility.yul\":1311:1408   */\n  tag_52\n    /* \"#utility.yul\":1341:1407   */\n  0xffffffffffffffffffffffffffffffffffffffffffffffffffffffffffffffff\n    /* \"#utility.yul\":1330:1339   */\n  dup3\n    /* \"#utility.yul\":1311:1408   */\n  tag_18\n  jump\t// in\ntag_52:\n    /* \"#utility.yul\":1429:1468   */\n  tag_53\n    /* \"#utility.yul\":1459:1467   */\n  dup7\n    /* \"#utility.yul\":1448:1457   */\n  dup4\n    /* \"#utility.yul\":1429:1468   */\n  tag_18\n  jump\t// in\ntag_53:\n    /* \"#utility.yul\":1417:1468   */\n  swap6\n  pop\n    /* \"#utility.yul\":1501:1505   */\n  dup1\n    /* \"#utility.yul\":1497:1506   */\n  not\n    /* \"#utility.yul\":1490:1495   */\n  dup5\n    /* \"#utility.yul\":1486:1507   */\n  and\n    /* \"#utility.yul\":1477:1507   */\n  swap4\n  pop\n    /* \"#utility.yul\":1550:1554   */\n  dup1\n    /* \"#utility.yul\":1540:1548   */\n  dup7\n    /* \"#utility.yul\":1536:1555   */\n  and\n    /* \"#utility.yul\":1529:1534   */\n  dup5\n    /* \"#utility.yul\":1526:1556   */\n  or\n    /* \"#utility.yul\":1516:1556   */\n  swap3\n  pop\n    /* \"#utility.yul\":1245:1562   */\n  pop\n  pop\n    /* \"#utility.yul\":1169:1562   */\n  swap4\n  swap3\n  pop\n  pop\n  pop\n  jump\t// out\n    /* \"#utility.yul\":1568:1645   */\ntag_20:\n    /* \"#utility.yul\":1605:1612   */\n  0x00\n    /* \"#utility.yul\":1634:1639   */\n  dup2\n    /* \"#utility.yul\":1623:1639   */\n  swap1\n  pop\n    /* \"#utility.yul\":1568:1645   */\n  swap2\n  swap1\n  pop\n  jump\t// out\n    /* \"#utility.yul\":1651:1711   */\ntag_21:\n    /* \"#utility.yul\":1679:1682   */\n  0x00\n    /* \"#utility.yul\":1700:1705   */\n  dup2\n    /* \"#utility.yul\":1693:1705   */\n  swap1\n  pop\n    /* \"#utility.yul\":1651:1711   */\n  swap2\n  swap1\n  pop\n  jump\t// out\n    /* \"#utility.yul\":1717:1859   */\ntag_22:\n    /* \"#utility.yul\":1767:1776   */\n  0x00\n    /* \"#utility.yul\":1800:1853   */\n  tag_57\n    /* \"#utility.yul\":1818:1852   */\n  tag_58\n    /* \"#utility.yul\":1827:1851   */\n  tag_59\n    /* \"#utility.yul\":1845:1850   */\n  dup5\n    /* \"#utility.yul\":1827:1851   */\n  tag_20\n  jump\t// in\ntag_59:\n    /* \"#utility.yul\":1818:1852   */\n  tag_21\n  jump\t// in\ntag_58:\n    /* \"#utility.yul\":1800:1853   */\n  tag_20\n  jump\t// in\ntag_57:\n    /* \"#utility.yul\":1787:1853   */\n  swap1\n  pop\n    /* \"#utility.yul\":1717:1859   */\n  swap2\n  swap1\n  pop\n  jump\t// out\n    /* \"#utility.yul\":1865:1940   */\ntag_23:\n    /* \"#utility.yul\":1908:1911   */\n  0x00\n    /* \"#utility.yul\":1929:1934   */\n  dup2\n    /* \"#utility.yul\":1922:1934   */\n  swap1\n  pop\n    /* \"#utility.yul\":1865:1940   */\n  swap2\n  swap1\n  pop\n  jump\t// out\n    /* \"#utility.yul\":1946:2215   */\ntag_24:\n    /* \"#utility.yul\":2056:2095   */\n  tag_62\n    /* \"#utility.yul\":2087:2094   */\n  dup4\n    /* \"#utility.yul\":2056:2095   */\n  tag_22\n  jump\t// in\ntag_62:\n    /* \"#utility.yul\":2117:2208   */\n  tag_63\n    /* \"#utility.yul\":2166:2207   */\n  tag_64\n    /* \"#utility.yul\":2190:2206   */\n  dup3\n    /* \"#utility.yul\":2166:2207   */\n  tag_23\n  jump\t// in\ntag_64:\n    /* \"#utility.yul\":2158:2164   */\n  dup5\n    /* \"#utility.yul\":2151:2155   */\n  dup5\n    /* \"#utility.yul\":2145:2156   */\n  sload\n    /* \"#utility.yul\":2117:2208   */\n  tag_19\n  jump\t// in\ntag_63:\n    /* \"#utility.yul\":2111:2115   */\n  dup3\n    /* \"#utility.yul\":2104:2209   */\n  sstore\n    /* \"#utility.yul\":2022:2215   */\n  pop\n    /* \"#utility.yul\":1946:2215   */\n  pop\n  pop\n  pop\n  jump\t// out\n    /* \"#utility.yul\":2221:2294   */\ntag_25:\n    /* \"#utility.yul\":2266:2269   */\n  0x00\n    /* \"#utility.yul\":2287:2288   */\n  0x00\n    /* \"#utility.yul\":2280:2288   */\n  swap1\n  pop\n    /* \"#utility.yul\":2221:2294   */\n  swap1\n  jump\t// out\n    /* \"#utility.yul\":2300:2489   */\ntag_26:\n    /* \"#utility.yul\":2377:2409   */\n  tag_67\n  tag_25\n  jump\t// in\ntag_67:\n    /* \"#utility.yul\":2418:2483   */\n  tag_68\n    /* \"#utility.yul\":2476:2482   */\n  dup2\n    /* \"#utility.yul\":2468:2474   */\n  dup5\n    /* \"#utility.yul\":2462:2466   */\n  dup5\n    /* \"#utility.yul\":2418:2483   */\n  tag_24\n  jump\t// in\ntag_68:\n    /* \"#utility.yul\":2353:2489   */\n  pop\n    /* \"#utility.yul\":2300:2489   */\n  pop\n  pop\n  jump\t// out\n    /* \"#utility.yul\":2495:2681   */\ntag_27:\n    /* \"#utility.yul\":2555:2675   */\ntag_70:\n    /* \"#utility.yul\":2572:2575   */\n  dup2\n    /* \"#utility.yul\":2565:2570   */\n  dup2\n    /* \"#utility.yul\":2562:2576   */\n  lt\n    /* \"#utility.yul\":2555:2675   */\n  iszero\n  tag_72\n  jumpi\n    /* \"#utility.yul\":2626:2665   */\n  tag_73\n    /* \"#utility.yul\":2663:2664   */\n  0x00\n    /* \"#utility.yul\":2656:2661   */\n  dup3\n    /* \"#utility.yul\":2626:2665   */\n  tag_26\n  jump\t// in\ntag_73:\n    /* \"#utility.yul\":2599:2600   */\n  0x01\n    /* \"#utility.yul\":2592:2597   */\n  dup2\n    /* \"#utility.yul\":2588:2601   */\n  add\n    /* \"#utility.yul\":2579:2601   */\n  swap1\n  pop\n    /* \"#utility.yul\":2555:2675   */\n  jump(tag_70)\ntag_72:\n    /* \"#utility.yul\":2495:2681   */\n  pop\n  pop\n  jump\t// out\n    /* \"#utility.yul\":2687:3230   */\ntag_28:\n    /* \"#utility.yul\":2788:2790   */\n  0x1f\n    /* \"#utility.yul\":2783:2786   */\n  dup3\n    /* \"#utility.yul\":2780:2791   */\n  gt\n    /* \"#utility.yul\":2777:3223   */\n  iszero\n  tag_75\n  jumpi\n    /* \"#utility.yul\":2822:2860   */\n  tag_76\n    /* \"#utility.yul\":2854:2859   */\n  dup2\n    /* \"#utility.yul\":2822:2860   */\n  tag_16\n  jump\t// in\ntag_76:\n    /* \"#utility.yul\":2906:2935   */\n  tag_77\n    /* \"#utility.yul\":2924:2934   */\n  dup5\n    /* \"#utility.yul\":2906:2935   */\n  tag_17\n  jump\t// in\ntag_77:\n    /* \"#utility.yul\":2896:2904   */\n  dup2\n    /* \"#utility.yul\":2892:2936   */\n  add\n    /* \"#utility.yul\":3089:3091   */\n  0x20\n    /* \"#utility.yul\":3077:3087   */\n  dup6\n    /* \"#utility.yul\":3074:3092   */\n  lt\n    /* \"#utility.yul\":3071:3120   */\n  iszero\n  tag_78\n  jumpi\n    /* \"#utility.yul\":3110:3118   */\n  dup2\n    /* \"#utility.yul\":3095:3118   */\n  swap1\n  pop\n    /* \"#utility.yul\":3071:3120   */\ntag_78:\n    /* \"#utility.yul\":3133:3213   */\n  tag_79\n    /* \"#utility.yul\":3189:3211   */\n  tag_80\n    /* \"#utility.yul\":3207:3210   */\n  dup6\n    /* \"#utility.yul\":3189:3211   */\n  tag_17\n  jump\t// in\ntag_80:\n    /* \"#utility.yul\":3179:3187   */\n  dup4\n    /* \"#utility.yul\":3175:3212   */\n  add\n    /* \"#utility.yul\":3162:3173   */\n  dup3\n    /* \"#utility.yul\":3133:3213   */\n  tag_27\n  jump\t// in\ntag_79:\n    /* \"#utility.yul\":2792:3223   */\n  pop\n  pop\n    /* \"#utility.yul\":2777:3223   */\ntag_75:\n    /* \"#utility.yul\":2687:3230   */\n  pop\n  pop\n  pop\n  jump\t// out\n    /* \"#utility.yul\":3236:3353   */\ntag_29:\n    /* \"#utility.yul\":3290:3298   */\n  0x00\n    /* \"#utility.yul\":3340:3345   */\n  dup3\n    /* \"#utility.yul\":3334:3338   */\n  dup3\n    /* \"#utility.yul\":3330:3346   */\n  shr\n    /* \"#utility.yul\":3309:3346   */\n  swap1\n  pop\n    /* \"#utility.yul\":3236:3353   */\n  swap3\n  swap2\n  pop\n  pop\n  jump\t// out\n    /* \"#utility.yul\":3359:3528   */\ntag_30:\n    /* \"#utility.yul\":3403:3409   */\n  0x00\n    /* \"#utility.yul\":3436:3487   */\n  tag_83\n    /* \"#utility.yul\":3484:3485   */\n  0x00\n    /* \"#utility.yul\":3480:3486   */\n  not\n    /* \"#utility.yul\":3472:3477   */\n  dup5\n    /* \"#utility.yul\":3469:3470   */\n  0x08\n    /* \"#utility.yul\":3465:3478   */\n  mul\n    /* \"#utility.yul\":3436:3487   */\n  tag_29\n  jump\t// in\ntag_83:\n    /* \"#utility.yul\":3432:3488   */\n  not\n    /* \"#utility.yul\":3517:3521   */\n  dup1\n    /* \"#utility.yul\":3511:3515   */\n  dup4\n    /* \"#utility.yul\":3507:3522   */\n  and\n    /* \"#utility.yul\":3497:3522   */\n  swap2\n  pop\n    /* \"#utility.yul\":3410:3528   */\n  pop\n    /* \"#utility.yul\":3359:3528   */\n  swap3\n  swap2\n  pop\n  pop\n  jump\t// out\n    /* \"#utility.yul\":3533:3828   */\ntag_31:\n    /* \"#utility.yul\":3609:3613   */\n  0x00\n    /* \"#utility.yul\":3755:3784   */\n  tag_85\n    /* \"#utility.yul\":3780:3783   */\n  dup4\n    /* \"#utility.yul\":3774:3778   */\n  dup4\n    /* \"#utility.yul\":3755:3784   */\n  tag_30\n  jump\t// in\ntag_85:\n    /* \"#utility.yul\":3747:3784   */\n  swap2\n  pop\n    /* \"#utility.yul\":3817:3820   */\n  dup3\n    /* \"#utility.yul\":3814:3815   */\n  0x02\n    /* \"#utility.yul\":3810:3821   */\n  mul\n    /* \"#utility.yul\":3804:3808   */\n  dup3\n    /* \"#utility.yul\":3801:3822   */\n  or\n    /* \"#utility.yul\":3793:3822   */\n  swap1\n  pop\n    /* \"#utility.yul\":3533:3828   */\n  swap3\n  swap2\n  pop\n  pop\n  jump\t// out\n    /* \"#utility.yul\":3833:5228   */\ntag_2:\n    /* \"#utility.yul\":3950:3987   */\n  tag_87\n    /* \"#utility.yul\":3983:3986   */\n  dup3\n    /* \"#utility.yul\":3950:3987   */\n  tag_12\n  jump\t// in\ntag_87:\n    /* \"#utility.yul\":4052:4070   */\n  0xffffffffffffffff\n    /* \"#utility.yul\":4044:4050   */\n  dup2\n    /* \"#utility.yul\":4041:4071   */\n  gt\n    /* \"#utility.yul\":4038:4094   */\n  iszero\n  tag_88\n  jumpi\n    /* \"#utility.yul\":4074:4092   */\n  tag_89\n  tag_13\n  jump\t// in\ntag_89:\n    /* \"#utility.yul\":4038:4094   */\ntag_88:\n    /* \"#utility.yul\":4118:4156   */\n  tag_90\n    /* \"#utility.yul\":4150:4154   */\n  dup3\n    /* \"#utility.yul\":4144:4155   */\n  sload\n    /* \"#utility.yul\":4118:4156   */\n  tag_15\n  jump\t// in\ntag_90:\n    /* \"#utility.yul\":4203:4270   */\n  tag_91\n    /* \"#utility.yul\":4263:4269   */\n  dup3\n    /* \"#utility.yul\":4255:4261   */\n  dup3\n    /* \"#utility.yul\":4249:4253   */\n  dup6\n    /* \"#utility.yul\":4203:4270   */\n  tag_28\n  jump\t// in\ntag_91:\n    /* \"#utility.yul\":4297:4298   */\n  0x00\n    /* \"#utility.yul\":4321:4325   */\n  0x20\n    /* \"#utility.yul\":4308:4325   */\n  swap1\n  pop\n    /* \"#utility.yul\":4353:4355   */\n  0x1f\n    /* \"#utility.yul\":4345:4351   */\n  dup4\n    /* \"#utility.yul\":4342:4356   */\n  gt\n    /* \"#utility.yul\":4370:4371   */\n  0x01\n    /* \"#utility.yul\":4365:4983   */\n  dup2\n  eq\n  tag_93\n  jumpi\n    /* \"#utility.yul\":5027:5028   */\n  0x00\n    /* \"#utility.yul\":5044:5050   */\n  dup5\n    /* \"#utility.yul\":5041:5118   */\n  iszero\n  tag_94\n  jumpi\n    /* \"#utility.yul\":5093:5102   */\n  dup3\n    /* \"#utility.yul\":5088:5091   */\n  dup8\n    /* \"#utility.yul\":5084:5103   */\n  add\n    /* \"#utility.yul\":5078:5104   */\n  mload\n    /* \"#utility.yul\":5069:5104   */\n  swap1\n  pop\n    /* \"#utility.yul\":5041:5118   */\ntag_94:\n    /* \"#utility.yul\":5144:5211   */\n  tag_95\n    /* \"#utility.yul\":5204:5210   */\n  dup6\n    /* \"#utility.yul\":5197:5202   */\n  dup3\n    /* \"#utility.yul\":5144:5211   */\n  tag_31\n  jump\t// in\ntag_95:\n    /* \"#utility.yul\":5138:5142   */\n  dup7\n    /* \"#utility.yul\":5131:5212   */\n  sstore\n    /* \"#utility.yul\":5000:5222   */\n  pop\n    /* \"#utility.yul\":4335:5222   */\n  jump(tag_92)\n    /* \"#utility.yul\":4365:4983   */\ntag_93:\n    /* \"#utility.yul\":4417:4421   */\n  0x1f\n    /* \"#utility.yul\":4413:4422   */\n  not\n    /* \"#utility.yul\":4405:4411   */\n  dup5\n    /* \"#utility.yul\":4401:4423   */\n  and\n    /* \"#utility.yul\":4451:4488   */\n  tag_96\n    /* \"#utility.yul\":4483:4487   */\n  dup7\n    /* \"#utility.yul\":4451:4488   */\n  tag_16\n  jump\t// in\ntag_96:\n    /* \"#utility.yul\":4510:4511   */\n  0x00\n    /* \"#utility.yul\":4524:4732   */\ntag_97:\n    /* \"#utility.yul\":4538:4545   */\n  dup3\n    /* \"#utility.yul\":4535:4536   */\n  dup2\n    /* \"#utility.yul\":4532:4546   */\n  lt\n    /* \"#utility.yul\":4524:4732   */\n  iszero\n  tag_99\n  jumpi\n    /* \"#utility.yul\":4617:4626   */\n  dup5\n    /* \"#utility.yul\":4612:4615   */\n  dup10\n    /* \"#utility.yul\":4608:4627   */\n  add\n    /* \"#utility.yul\":4602:4628   */\n  mload\n    /* \"#utility.yul\":4594:4600   */\n  dup3\n    /* \"#utility.yul\":4587:4629   */\n  sstore\n    /* \"#utility.yul\":4668:4669   */\n  0x01\n    /* \"#utility.yul\":4660:4666   */\n  dup3\n    /* \"#utility.yul\":4656:4670   */\n  add\n    /* \"#utility.yul\":4646:4670   */\n  swap2\n  pop\n    /* \"#utility.yul\":4715:4717   */\n  0x20\n    /* \"#utility.yul\":4704:4713   */\n  dup6\n    /* \"#utility.yul\":4700:4718   */\n  add\n    /* \"#utility.yul\":4687:4718   */\n  swap5\n  pop\n    /* \"#utility.yul\":4561:4565   */\n  0x20\n    /* \"#utility.yul\":4558:4559   */\n  dup2\n    /* \"#utility.yul\":4554:4566   */\n  add\n    /* \"#utility.yul\":4549:4566   */\n  swap1\n  pop\n    /* \"#utility.yul\":4524:4732   */\n  jump(tag_97)\ntag_99:\n    /* \"#utility.yul\":4760:4766   */\n  dup7\n    /* \"#utility.yul\":4751:4758   */\n  dup4\n    /* \"#utility.yul\":4748:4767   */\n  lt\n    /* \"#utility.yul\":4745:4924   */\n  iszero\n  tag_100\n  jumpi\n    /* \"#utility.yul\":4818:4827   */\n  dup5\n    /* \"#utility.yul\":4813:4816   */\n  dup10\n    /* \"#utility.yul\":4809:4828   */\n  add\n    /* \"#utility.yul\":4803:4829   */\n  mload\n    /* \"#utility.yul\":4861:4909   */\n  tag_101\n    /* \"#utility.yul\":4903:4907   */\n  0x1f\n    /* \"#utility.yul\":4895:4901   */\n  dup10\n    /* \"#utility.yul\":4891:4908   */\n  and\n    /* \"#utility.yul\":4880:4889   */\n  dup3\n    /* \"#utility.yul\":4861:4909   */\n  tag_30\n  jump\t// in\ntag_101:\n    /* \"#utility.yul\":4853:4859   */\n  dup4\n    /* \"#utility.yul\":4846:4910   */\n  sstore\n    /* \"#utility.yul\":4768:4924   */\n  pop\n    /* \"#utility.yul\":4745:4924   */\ntag_100:\n    /* \"#utility.yul\":4970:4971   */\n  0x01\n    /* \"#utility.yul\":4966:4967   */\n  0x02\n    /* \"#utility.yul\":4958:4964   */\n  dup9\n    /* \"#utility.yul\":4954:4968   */\n  mul\n    /* \"#utility.yul\":4950:4972   */\n  add\n    /* \"#utility.yul\":4944:4948   */\n  dup9\n    /* \"#utility.yul\":4937:4973   */\n  sstore\n    /* \"#utility.yul\":4372:4983   */\n  pop\n  pop\n  pop\n    /* \"#utility.yul\":4335:5222   */\ntag_92:\n  pop\n    /* \"#utility.yul\":3925:5228   */\n  pop\n  pop\n  pop\n    /* \"#utility.yul\":3833:5228   */\n  pop\n  pop\n  jump\t// out\n    /* \"#utility.yul\":5315:5432   */\ntag_33:\n    /* \"#utility.yul\":5424:5425   */\n  0x00\n    /* \"#utility.yul\":5421:5422   */\n  0x00\n    /* \"#utility.yul\":5414:5426   */\n  revert\n    /* \"#utility.yul\":5561:5687   */\ntag_35:\n    /* \"#utility.yul\":5598:5605   */\n  0x00\n    /* \"#utility.yul\":5638:5680   */\n  0xffffffffffffffffffffffffffffffffffffffff\n    /* \"#utility.yul\":5631:5636   */\n  dup3\n    /* \"#utility.yul\":5627:5681   */\n  and\n    /* \"#utility.yul\":5616:5681   */\n  swap1\n  pop\n    /* \"#utility.yul\":5561:5687   */\n  swap2\n  swap1\n  pop\n  jump\t// out\n    /* \"#utility.yul\":5693:5789   */\ntag_36:\n    /* \"#utility.yul\":5730:5737   */\n  0x00\n    /* \"#utility.yul\":5759:5783   */\n  tag_107\n    /* \"#utility.yul\":5777:5782   */\n  dup3\n    /* \"#utility.yul\":5759:5783   */\n  tag_35\n  jump\t// in\ntag_107:\n    /* \"#utility.yul\":5748:5783   */\n  swap1\n  pop\n    /* \"#utility.yul\":5693:5789   */\n  swap2\n  swap1\n  pop\n  jump\t// out\n    /* \"#utility.yul\":5795:5917   */\ntag_37:\n    /* \"#utility.yul\":5868:5892   */\n  tag_109\n    /* \"#utility.yul\":5886:5891   */\n  dup2\n    /* \"#utility.yul\":5868:5892   */\n  tag_36\n  jump\t// in\ntag_109:\n    /* \"#utility.yul\":5861:5866   */\n  dup2\n    /* \"#utility.yul\":5858:5893   */\n  eq\n    /* \"#utility.yul\":5848:5911   */\n  tag_110\n  jumpi\n    /* \"#utility.yul\":5907:5908   */\n  0x00\n    /* \"#utility.yul\":5904:5905   */\n  0x00\n    /* \"#utility.yul\":5897:5909   */\n  revert\n    /* \"#utility.yul\":5848:5911   */\ntag_110:\n    /* \"#utility.yul\":5795:5917   */\n  pop\n  jump\t// out\n    /* \"#utility.yul\":5923:6066   */\ntag_38:\n    /* \"#utility.yul\":5980:5985   */\n  0x00\n    /* \"#utility.yul\":6011:6017   */\n  dup2\n    /* \"#utility.yul\":6005:6018   */\n  mload\n    /* \"#utility.yul\":5996:6018   */\n  swap1\n  pop\n    /* \"#utility.yul\":6027:6060   */\n  tag_112\n    /* \"#utility.yul\":6054:6059   */\n  dup2\n    /* \"#utility.yul\":6027:6060   */\n  tag_37\n  jump\t// in\ntag_112:\n    /* \"#utility.yul\":5923:6066   */\n  swap3\n  swap2\n  pop\n  pop\n  jump\t// out\n    /* \"#utility.yul\":6072:6423   */\ntag_6:\n    /* \"#utility.yul\":6142:6148   */\n  0x00\n    /* \"#utility.yul\":6191:6193   */\n  0x20\n    /* \"#utility.yul\":6179:6188   */\n  dup3\n    /* \"#utility.yul\":6170:6177   */\n  dup5\n    /* \"#utility.yul\":6166:6189   */\n  sub\n    /* \"#utility.yul\":6162:6194   */\n  slt\n    /* \"#utility.yul\":6159:6278   */\n  iszero\n  tag_114\n  jumpi\n    /* \"#utility.yul\":6197:6276   */\n  tag_115\n  tag_33\n  jump\t// in\ntag_115:\n    /* \"#utility.yul\":6159:6278   */\ntag_114:\n    /* \"#utility.yul\":6317:6318   */\n  0x00\n    /* \"#utility.yul\":6342:6406   */\n  tag_116\n    /* \"#utility.yul\":6398:6405   */\n  dup5\n    /* \"#utility.yul\":6389:6395   */\n  dup3\n    /* \"#utility.yul\":6378:6387   */\n  dup6\n    /* \"#utility.yul\":6374:6396   */\n  add\n    /* \"#utility.yul\":6342:6406   */\n  tag_38\n  jump\t// in\ntag_116:\n    /* \"#utility.yul\":6332:6406   */\n  swap2\n  pop\n    /* \"#utility.yul\":6288:6416   */\n  pop\n    /* \"#utility.yul\":6072:6423   */\n  swap3\n  swap2\n  pop\n  pop\n  jump\t// out\n    /* \"#utility.yul\":6429:6547   */\ntag_39:\n    /* \"#utility.yul\":6516:6540   */\n  tag_118\n    /* \"#utility.yul\":6534:6539   */\n  dup2\n    /* \"#utility.yul\":6516:6540   */\n  tag_20\n  jump\t// in\ntag_118:\n    /* \"#utility.yul\":6511:6514   */\n  dup3\n    /* \"#utility.yul\":6504:6541   */\n  mstore\n    /* \"#utility.yul\":6429:6547   */\n  pop\n  pop\n  jump\t// out\n    /* \"#utility.yul\":6553:6775   */\ntag_10:\n    /* \"#utility.yul\":6646:6650   */\n  0x00\n    /* \"#utility.yul\":6684:6686   */\n  0x20\n    /* \"#utility.yul\":6673:6682   */\n  dup3\n    /* \"#utility.yul\":6669:6687   */\n  add\n    /* \"#utility.yul\":6661:6687   */\n  swap1\n  pop\n    /* \"#utility.yul\":6697:6768   */\n  tag_120\n    /* \"#utility.yul\":6765:6766   */\n  0x00\n    /* \"#utility.yul\":6754:6763   */\n  dup4\n    /* \"#utility.yul\":6750:6767   */\n  add\n    /* \"#utility.yul\":6741:6747   */\n  dup5\n    /* \"#utility.yul\":6697:6768   */\n  tag_39\n  jump\t// in\ntag_120:\n    /* \"#utility.yul\":6553:6775   */\n  swap3\n  swap2\n  pop\n  pop\n  jump\t// out\n    /* \"contracts/SimpleMemeToken.sol\":258:18048  contract SimpleMemeToken {... */\ntag_11:\n  dataSize(sub_0)\n  dup1\n  dataOffset(sub_0)\n  0x00\n  codecopy\n  0x00\n  return\nstop\n\nsub_0: assembly {\n        /* \"contracts/SimpleMemeToken.sol\":258:18048  contract SimpleMemeToken {... */\n      mstore(0x40, 0x80)\n      jumpi(tag_1, lt(calldatasize, 0x04))\n      shr(0xe0, calldataload(0x00))\n      dup1\n      0x8c0b5e22\n      gt\n      tag_42\n      jumpi\n      dup1\n      0xa9059cbb\n      gt\n      tag_43\n      jumpi\n      dup1\n      0xd0febe4c\n      gt\n      tag_44\n      jumpi\n      dup1\n      0xd0febe4c\n      eq\n      tag_37\n      jumpi\n      dup1\n      0xdd62ed3e\n      eq\n      tag_38\n      jumpi\n      dup1\n      0xef35e2ec\n      eq\n      tag_39\n      jumpi\n      dup1\n      0xf25f4b56\n      eq\n      tag_40\n      jumpi\n      dup1\n      0xf2fde38b\n      eq\n      tag_41\n      jumpi\n      jump(tag_2)\n    tag_44:\n      dup1\n      0xa9059cbb\n      eq\n      tag_32\n      jumpi\n      dup1\n      0xaa4bde28\n      eq\n      tag_33\n      jumpi\n      dup1\n      0xb65d08b0\n      eq\n      tag_34\n      jumpi\n      dup1\n      0xc4590d3f\n      eq\n      tag_35\n      jumpi\n      dup1\n      0xcba0e996\n      eq\n      tag_36\n      jumpi\n      jump(tag_2)\n    tag_43:\n      dup1\n      0x95d89b41\n      gt\n      tag_45\n      jumpi\n      dup1\n      0x95d89b41\n      eq\n      tag_27\n      jumpi\n      dup1\n      0x9c8f9f23\n      eq\n      tag_28\n      jumpi\n      dup1\n      0x9ce1a56b\n      eq\n      tag_29\n      jumpi\n      dup1\n      0x9db4aa04\n      eq\n      tag_30\n      jumpi\n      dup1\n      0xa19d9700\n      eq\n      tag_31\n      jumpi\n      jump(tag_2)\n    tag_45:\n      dup1\n      0x8c0b5e22\n      eq\n      tag_22\n      jumpi\n      dup1\n      0x8da5cb5b\n      eq\n      tag_23\n      jumpi\n      dup1\n      0x9003adfe\n      eq\n      tag_24\n      jumpi\n      dup1\n      0x90d49b9d\n      eq\n      tag_25\n      jumpi\n      dup1\n      0x95097030\n      eq\n      tag_26\n      jumpi\n      jump(tag_2)\n    tag_42:\n      dup1\n      0x476343ee\n      gt\n      tag_46\n      jumpi\n      dup1\n      0x691f224f\n      gt\n      tag_47\n      jumpi\n      dup1\n      0x691f224f\n      eq\n      tag_17\n      jumpi\n      dup1\n      0x6c11bcd3\n      eq\n      tag_18\n      jumpi\n      dup1\n      0x70a08231\n      eq\n      tag_19\n      jumpi\n      dup1\n      0x7f055afe\n      eq\n      tag_20\n      jumpi\n      dup1\n      0x87cd5b20\n      eq\n      tag_21\n      jumpi\n      jump(tag_2)\n    tag_47:\n      dup1\n      0x476343ee\n      eq\n      tag_12\n      jumpi\n      dup1\n      0x4b8ce602\n      eq\n      tag_13\n      jumpi\n      dup1\n      0x4b94f50e\n      eq\n      tag_14\n      jumpi\n      dup1\n      0x51c6590a\n      eq\n      tag_15\n      jumpi\n      dup1\n      0x5d61451a\n      eq\n      tag_16\n      jumpi\n      jump(tag_2)\n    tag_46:\n      dup1\n      0x23b872dd\n      gt\n      tag_48\n      jumpi\n      dup1\n      0x23b872dd\n      eq\n      tag_7\n      jumpi\n      dup1\n      0x24024efd\n      eq\n      tag_8\n      jumpi\n      dup1\n      0x2836be24\n      eq\n      tag_9\n      jumpi\n      dup1\n      0x313ce567\n      eq\n      tag_10\n      jumpi\n      dup1\n      0x39253114\n      eq\n      tag_11\n      jumpi\n      jump(tag_2)\n    tag_48:\n      dup1\n      0x06fdde03\n      eq\n      tag_3\n      jumpi\n      dup1\n      0x095ea7b3\n      eq\n      tag_4\n      jumpi\n      dup1\n      0x18160ddd\n      eq\n      tag_5\n      jumpi\n      dup1\n      0x20ecc78e\n      eq\n      tag_6\n      jumpi\n      jump(tag_2)\n    tag_1:\n      jumpi(tag_2, calldatasize)\n      stop\n    tag_2:\n      revert(0x00, 0x00)\n        /* \"contracts/SimpleMemeToken.sol\":351:384  string public name = \"SimpleMeme\" */\n    tag_3:\n      callvalue\n      dup1\n      iszero\n      tag_51\n      jumpi\n      revert(0x00, 0x00)\n    tag_51:\n      pop\n      tag_52\n      tag_53\n      jump\t// in\n    tag_52:\n      mload(0x40)\n      tag_54\n      swap2\n      swap1\n      tag_55\n      jump\t// in\n    tag_54:\n      mload(0x40)\n      dup1\n      swap2\n      sub\n      swap1\n      return\n        /* \"contracts/SimpleMemeToken.sol\":13819:14096  function approve(address spender, uint256 amount) public returns (bool) {... */\n    tag_4:\n      callvalue\n      dup1\n      iszero\n      tag_56\n      jumpi\n      revert(0x00, 0x00)\n    tag_56:\n      pop\n      tag_57\n      0x04\n      dup1\n      calldatasize\n      sub\n      dup2\n      add\n      swap1\n      tag_58\n      swap2\n      swap1\n      tag_59\n      jump\t// in\n    tag_58:\n      tag_60\n      jump\t// in\n    tag_57:\n      mload(0x40)\n      tag_61\n      swap2\n      swap1\n      tag_62\n      jump\t// in\n    tag_61:\n      mload(0x40)\n      dup1\n      swap2\n      sub\n      swap1\n      return\n        /* \"contracts/SimpleMemeToken.sol\":546:591  uint256 public totalSupply = 1000000 * 10**18 */\n    tag_5:\n      callvalue\n      dup1\n      iszero\n      tag_63\n      jumpi\n      revert(0x00, 0x00)\n    tag_63:\n      pop\n      tag_64\n      tag_65\n      jump\t// in\n    tag_64:\n      mload(0x40)\n      tag_66\n      swap2\n      swap1\n      tag_67\n      jump\t// in\n    tag_66:\n      mload(0x40)\n      dup1\n      swap2\n      sub\n      swap1\n      return\n        /* \"contracts/SimpleMemeToken.sol\":2275:2305  uint256 public maxDailyTx = 10 */\n    tag_6:\n      callvalue\n      dup1\n      iszero\n      tag_68\n      jumpi\n      revert(0x00, 0x00)\n    tag_68:\n      pop\n      tag_69\n      tag_70\n      jump\t// in\n    tag_69:\n      mload(0x40)\n      tag_71\n      swap2\n      swap1\n      tag_67\n      jump\t// in\n    tag_71:\n      mload(0x40)\n      dup1\n      swap2\n      sub\n      swap1\n      return\n        /* \"contracts/SimpleMemeToken.sol\":4609:4975  function transferFrom(address from, address to, uint256 amount) public returns (bool) {... */\n    tag_7:\n      callvalue\n      dup1\n      iszero\n      tag_72\n      jumpi\n      revert(0x00, 0x00)\n    tag_72:\n      pop\n      tag_73\n      0x04\n      dup1\n      calldatasize\n      sub\n      dup2\n      add\n      swap1\n      tag_74\n      swap2\n      swap1\n      tag_75\n      jump\t// in\n    tag_74:\n      tag_76\n      jump\t// in\n    tag_73:\n      mload(0x40)\n      tag_77\n      swap2\n      swap1\n      tag_62\n      jump\t// in\n    tag_77:\n      mload(0x40)\n      dup1\n      swap2\n      sub\n      swap1\n      return\n        /* \"contracts/SimpleMemeToken.sol\":1129:1159  uint256 public sellTaxRate = 8 */\n    tag_8:\n      callvalue\n      dup1\n      iszero\n      tag_78\n      jumpi\n      revert(0x00, 0x00)\n    tag_78:\n      pop\n      tag_79\n      tag_80\n      jump\t// in\n    tag_79:\n      mload(0x40)\n      tag_81\n      swap2\n      swap1\n      tag_67\n      jump\t// in\n    tag_81:\n      mload(0x40)\n      dup1\n      swap2\n      sub\n      swap1\n      return\n        /* \"contracts/SimpleMemeToken.sol\":15608:15725  function setExcluded(address account, bool excluded) public onlyOwner {... */\n    tag_9:\n      callvalue\n      dup1\n      iszero\n      tag_82\n      jumpi\n      revert(0x00, 0x00)\n    tag_82:\n      pop\n      tag_83\n      0x04\n      dup1\n      calldatasize\n      sub\n      dup2\n      add\n      swap1\n      tag_84\n      swap2\n      swap1\n      tag_85\n      jump\t// in\n    tag_84:\n      tag_86\n      jump\t// in\n    tag_83:\n      stop\n        /* \"contracts/SimpleMemeToken.sol\":481:507  uint8 public decimals = 18 */\n    tag_10:\n      callvalue\n      dup1\n      iszero\n      tag_87\n      jumpi\n      revert(0x00, 0x00)\n    tag_87:\n      pop\n      tag_88\n      tag_89\n      jump\t// in\n    tag_88:\n      mload(0x40)\n      tag_90\n      swap2\n      swap1\n      tag_91\n      jump\t// in\n    tag_90:\n      mload(0x40)\n      dup1\n      swap2\n      sub\n      swap1\n      return\n        /* \"contracts/SimpleMemeToken.sol\":14306:14735  function setTaxRates(uint256 _buyTax, uint256 _sellTax, uint256 _transferTax) public onlyOwner {... */\n    tag_11:\n      callvalue\n      dup1\n      iszero\n      tag_92\n      jumpi\n      revert(0x00, 0x00)\n    tag_92:\n      pop\n      tag_93\n      0x04\n      dup1\n      calldatasize\n      sub\n      dup2\n      add\n      swap1\n      tag_94\n      swap2\n      swap1\n      tag_95\n      jump\t// in\n    tag_94:\n      tag_96\n      jump\t// in\n    tag_93:\n      stop\n        /* \"contracts/SimpleMemeToken.sol\":15831:16220  function withdrawFees() public onlyOwner {... */\n    tag_12:\n      callvalue\n      dup1\n      iszero\n      tag_97\n      jumpi\n      revert(0x00, 0x00)\n    tag_97:\n      pop\n      tag_98\n      tag_99\n      jump\t// in\n    tag_98:\n      stop\n        /* \"contracts/SimpleMemeToken.sol\":1499:1529  uint256 public liquidityTokens */\n    tag_13:\n      callvalue\n      dup1\n      iszero\n      tag_100\n      jumpi\n      revert(0x00, 0x00)\n    tag_100:\n      pop\n      tag_101\n      tag_102\n      jump\t// in\n    tag_101:\n      mload(0x40)\n      tag_103\n      swap2\n      swap1\n      tag_67\n      jump\t// in\n    tag_103:\n      mload(0x40)\n      dup1\n      swap2\n      sub\n      swap1\n      return\n        /* \"contracts/SimpleMemeToken.sol\":13405:13569  function getTokenPrice() public view returns (uint256) {... */\n    tag_14:\n      callvalue\n      dup1\n      iszero\n      tag_104\n      jumpi\n      revert(0x00, 0x00)\n    tag_104:\n      pop\n      tag_105\n      tag_106\n      jump\t// in\n    tag_105:\n      mload(0x40)\n      tag_107\n      swap2\n      swap1\n      tag_67\n      jump\t// in\n    tag_107:\n      mload(0x40)\n      dup1\n      swap2\n      sub\n      swap1\n      return\n        /* \"contracts/SimpleMemeToken.sol\":7828:9164  function addLiquidity(uint256 tokenAmount) public payable {... */\n    tag_15:\n      tag_108\n      0x04\n      dup1\n      calldatasize\n      sub\n      dup2\n      add\n      swap1\n      tag_109\n      swap2\n      swap1\n      tag_110\n      jump\t// in\n    tag_109:\n      tag_111\n      jump\t// in\n    tag_108:\n      stop\n        /* \"contracts/SimpleMemeToken.sol\":16947:17380  function getRemainingDailyTx(address user) public view returns (uint256) {... */\n    tag_16:\n      callvalue\n      dup1\n      iszero\n      tag_112\n      jumpi\n      revert(0x00, 0x00)\n    tag_112:\n      pop\n      tag_113\n      0x04\n      dup1\n      calldatasize\n      sub\n      dup2\n      add\n      swap1\n      tag_114\n      swap2\n      swap1\n      tag_115\n      jump\t// in\n    tag_114:\n      tag_116\n      jump\t// in\n    tag_113:\n      mload(0x40)\n      tag_117\n      swap2\n      swap1\n      tag_67\n      jump\t// in\n    tag_117:\n      mload(0x40)\n      dup1\n      swap2\n      sub\n      swap1\n      return\n        /* \"contracts/SimpleMemeToken.sol\":1073:1102  uint256 public buyTaxRate = 5 */\n    tag_17:\n      callvalue\n      dup1\n      iszero\n      tag_118\n      jumpi\n      revert(0x00, 0x00)\n    tag_118:\n      pop\n      tag_119\n      tag_120\n      jump\t// in\n    tag_119:\n      mload(0x40)\n      tag_121\n      swap2\n      swap1\n      tag_67\n      jump\t// in\n    tag_121:\n      mload(0x40)\n      dup1\n      swap2\n      sub\n      swap1\n      return\n        /* \"contracts/SimpleMemeToken.sol\":11928:13282  function sellTokens(uint256 tokenAmount) public {... */\n    tag_18:\n      callvalue\n      dup1\n      iszero\n      tag_122\n      jumpi\n      revert(0x00, 0x00)\n    tag_122:\n      pop\n      tag_123\n      0x04\n      dup1\n      calldatasize\n      sub\n      dup2\n      add\n      swap1\n      tag_124\n      swap2\n      swap1\n      tag_110\n      jump\t// in\n    tag_124:\n      tag_125\n      jump\t// in\n    tag_123:\n      stop\n        /* \"contracts/SimpleMemeToken.sol\":734:778  mapping(address => uint256) public balanceOf */\n    tag_19:\n      callvalue\n      dup1\n      iszero\n      tag_126\n      jumpi\n      revert(0x00, 0x00)\n    tag_126:\n      pop\n      tag_127\n      0x04\n      dup1\n      calldatasize\n      sub\n      dup2\n      add\n      swap1\n      tag_128\n      swap2\n      swap1\n      tag_115\n      jump\t// in\n    tag_128:\n      tag_129\n      jump\t// in\n    tag_127:\n      mload(0x40)\n      tag_130\n      swap2\n      swap1\n      tag_67\n      jump\t// in\n    tag_130:\n      mload(0x40)\n      dup1\n      swap2\n      sub\n      swap1\n      return\n        /* \"contracts/SimpleMemeToken.sol\":15327:15477  function setMaxDailyTx(uint256 _maxDaily) public onlyOwner {... */\n    tag_20:\n      callvalue\n      dup1\n      iszero\n      tag_131\n      jumpi\n      revert(0x00, 0x00)\n    tag_131:\n      pop\n      tag_132\n      0x04\n      dup1\n      calldatasize\n      sub\n      dup2\n      add\n      swap1\n      tag_133\n      swap2\n      swap1\n      tag_110\n      jump\t// in\n    tag_133:\n      tag_134\n      jump\t// in\n    tag_132:\n      stop\n        /* \"contracts/SimpleMemeToken.sol\":1754:1789  uint256 public totalLiquidityShares */\n    tag_21:\n      callvalue\n      dup1\n      iszero\n      tag_135\n      jumpi\n      revert(0x00, 0x00)\n    tag_135:\n      pop\n      tag_136\n      tag_137\n      jump\t// in\n    tag_136:\n      mload(0x40)\n      tag_138\n      swap2\n      swap1\n      tag_67\n      jump\t// in\n    tag_138:\n      mload(0x40)\n      dup1\n      swap2\n      sub\n      swap1\n      return\n        /* \"contracts/SimpleMemeToken.sol\":1912:1955  uint256 public maxTxAmount = 10000 * 10**18 */\n    tag_22:\n      callvalue\n      dup1\n      iszero\n      tag_139\n      jumpi\n      revert(0x00, 0x00)\n    tag_139:\n      pop\n      tag_140\n      tag_141\n      jump\t// in\n    tag_140:\n      mload(0x40)\n      tag_142\n      swap2\n      swap1\n      tag_67\n      jump\t// in\n    tag_142:\n      mload(0x40)\n      dup1\n      swap2\n      sub\n      swap1\n      return\n        /* \"contracts/SimpleMemeToken.sol\":2555:2575  address public owner */\n    tag_23:\n      callvalue\n      dup1\n      iszero\n      tag_143\n      jumpi\n      revert(0x00, 0x00)\n    tag_143:\n      pop\n      tag_144\n      tag_145\n      jump\t// in\n    tag_144:\n      mload(0x40)\n      tag_146\n      swap2\n      swap1\n      tag_147\n      jump\t// in\n    tag_146:\n      mload(0x40)\n      dup1\n      swap2\n      sub\n      swap1\n      return\n        /* \"contracts/SimpleMemeToken.sol\":1343:1371  uint256 public collectedFees */\n    tag_24:\n      callvalue\n      dup1\n      iszero\n      tag_148\n      jumpi\n      revert(0x00, 0x00)\n    tag_148:\n      pop\n      tag_149\n      tag_150\n      jump\t// in\n    tag_149:\n      mload(0x40)\n      tag_151\n      swap2\n      swap1\n      tag_67\n      jump\t// in\n    tag_151:\n      mload(0x40)\n      dup1\n      swap2\n      sub\n      swap1\n      return\n        /* \"contracts/SimpleMemeToken.sol\":16338:16504  function setFeeWallet(address newFeeWallet) public onlyOwner {... */\n    tag_25:\n      callvalue\n      dup1\n      iszero\n      tag_152\n      jumpi\n      revert(0x00, 0x00)\n    tag_152:\n      pop\n      tag_153\n      0x04\n      dup1\n      calldatasize\n      sub\n      dup2\n      add\n      swap1\n      tag_154\n      swap2\n      swap1\n      tag_115\n      jump\t// in\n    tag_154:\n      tag_155\n      jump\t// in\n    tag_153:\n      stop\n        /* \"contracts/SimpleMemeToken.sol\":1564:1591  uint256 public liquidityETH */\n    tag_26:\n      callvalue\n      dup1\n      iszero\n      tag_156\n      jumpi\n      revert(0x00, 0x00)\n    tag_156:\n      pop\n      tag_157\n      tag_158\n      jump\t// in\n    tag_157:\n      mload(0x40)\n      tag_159\n      swap2\n      swap1\n      tag_67\n      jump\t// in\n    tag_159:\n      mload(0x40)\n      dup1\n      swap2\n      sub\n      swap1\n      return\n        /* \"contracts/SimpleMemeToken.sol\":416:446  string public symbol = \"SMEME\" */\n    tag_27:\n      callvalue\n      dup1\n      iszero\n      tag_160\n      jumpi\n      revert(0x00, 0x00)\n    tag_160:\n      pop\n      tag_161\n      tag_162\n      jump\t// in\n    tag_161:\n      mload(0x40)\n      tag_163\n      swap2\n      swap1\n      tag_55\n      jump\t// in\n    tag_163:\n      mload(0x40)\n      dup1\n      swap2\n      sub\n      swap1\n      return\n        /* \"contracts/SimpleMemeToken.sol\":9326:10454  function removeLiquidity(uint256 shares) public {... */\n    tag_28:\n      callvalue\n      dup1\n      iszero\n      tag_164\n      jumpi\n      revert(0x00, 0x00)\n    tag_164:\n      pop\n      tag_165\n      0x04\n      dup1\n      calldatasize\n      sub\n      dup2\n      add\n      swap1\n      tag_166\n      swap2\n      swap1\n      tag_110\n      jump\t// in\n    tag_166:\n      tag_167\n      jump\t// in\n    tag_165:\n      stop\n        /* \"contracts/SimpleMemeToken.sol\":2115:2162  mapping(address => uint256) public dailyTxCount */\n    tag_29:\n      callvalue\n      dup1\n      iszero\n      tag_168\n      jumpi\n      revert(0x00, 0x00)\n    tag_168:\n      pop\n      tag_169\n      0x04\n      dup1\n      calldatasize\n      sub\n      dup2\n      add\n      swap1\n      tag_170\n      swap2\n      swap1\n      tag_115\n      jump\t// in\n    tag_170:\n      tag_171\n      jump\t// in\n    tag_169:\n      mload(0x40)\n      tag_172\n      swap2\n      swap1\n      tag_67\n      jump\t// in\n    tag_172:\n      mload(0x40)\n      dup1\n      swap2\n      sub\n      swap1\n      return\n        /* \"contracts/SimpleMemeToken.sol\":1670:1720  mapping(address => uint256) public liquidityShares */\n    tag_30:\n      callvalue\n      dup1\n      iszero\n      tag_173\n      jumpi\n      revert(0x00, 0x00)\n    tag_173:\n      pop\n      tag_174\n      0x04\n      dup1\n      calldatasize\n      sub\n      dup2\n      add\n      swap1\n      tag_175\n      swap2\n      swap1\n      tag_115\n      jump\t// in\n    tag_175:\n      tag_176\n      jump\t// in\n    tag_174:\n      mload(0x40)\n      tag_177\n      swap2\n      swap1\n      tag_67\n      jump\t// in\n    tag_177:\n      mload(0x40)\n      dup1\n      swap2\n      sub\n      swap1\n      return\n        /* \"contracts/SimpleMemeToken.sol\":2195:2240  mapping(address => uint256) public lastTxDate */\n    tag_31:\n      callvalue\n      dup1\n      iszero\n      tag_178\n      jumpi\n      revert(0x00, 0x00)\n    tag_178:\n      pop\n      tag_179\n      0x04\n      dup1\n      calldatasize\n      sub\n      dup2\n      add\n      swap1\n      tag_180\n      swap2\n      swap1\n      tag_115\n      jump\t// in\n    tag_180:\n      tag_181\n      jump\t// in\n    tag_179:\n      mload(0x40)\n      tag_182\n      swap2\n      swap1\n      tag_67\n      jump\t// in\n    tag_182:\n      mload(0x40)\n      dup1\n      swap2\n      sub\n      swap1\n      return\n        /* \"contracts/SimpleMemeToken.sol\":4288:4413  function transfer(address to, uint256 amount) public returns (bool) {... */\n    tag_32:\n      callvalue\n      dup1\n      iszero\n      tag_183\n      jumpi\n      revert(0x00, 0x00)\n    tag_183:\n      pop\n      tag_184\n      0x04\n      dup1\n      calldatasize\n      sub\n      dup2\n      add\n      swap1\n      tag_185\n      swap2\n      swap1\n      tag_59\n      jump\t// in\n    tag_185:\n      tag_186\n      jump\t// in\n    tag_184:\n      mload(0x40)\n      tag_187\n      swap2\n      swap1\n      tag_62\n      jump\t// in\n    tag_187:\n      mload(0x40)\n      dup1\n      swap2\n      sub\n      swap1\n      return\n        /* \"contracts/SimpleMemeToken.sol\":2010:2057  uint256 public maxWalletAmount = 20000 * 10**18 */\n    tag_33:\n      callvalue\n      dup1\n      iszero\n      tag_188\n      jumpi\n      revert(0x00, 0x00)\n    tag_188:\n      pop\n      tag_189\n      tag_190\n      jump\t// in\n    tag_189:\n      mload(0x40)\n      tag_191\n      swap2\n      swap1\n      tag_67\n      jump\t// in\n    tag_191:\n      mload(0x40)\n      dup1\n      swap2\n      sub\n      swap1\n      return\n        /* \"contracts/SimpleMemeToken.sol\":1185:1219  uint256 public transferTaxRate = 2 */\n    tag_34:\n      callvalue\n      dup1\n      iszero\n      tag_192\n      jumpi\n      revert(0x00, 0x00)\n    tag_192:\n      pop\n      tag_193\n      tag_194\n      jump\t// in\n    tag_193:\n      mload(0x40)\n      tag_195\n      swap2\n      swap1\n      tag_67\n      jump\t// in\n    tag_195:\n      mload(0x40)\n      dup1\n      swap2\n      sub\n      swap1\n      return\n        /* \"contracts/SimpleMemeToken.sol\":14885:15206  function setLimits(uint256 _maxTx, uint256 _maxWallet) public onlyOwner {... */\n    tag_35:\n      callvalue\n      dup1\n      iszero\n      tag_196\n      jumpi\n      revert(0x00, 0x00)\n    tag_196:\n      pop\n      tag_197\n      0x04\n      dup1\n      calldatasize\n      sub\n      dup2\n      add\n      swap1\n      tag_198\n      swap2\n      swap1\n      tag_199\n      jump\t// in\n    tag_198:\n      tag_200\n      jump\t// in\n    tag_197:\n      stop\n        /* \"contracts/SimpleMemeToken.sol\":2448:2490  mapping(address => bool) public isExcluded */\n    tag_36:\n      callvalue\n      dup1\n      iszero\n      tag_201\n      jumpi\n      revert(0x00, 0x00)\n    tag_201:\n      pop\n      tag_202\n      0x04\n      dup1\n      calldatasize\n      sub\n      dup2\n      add\n      swap1\n      tag_203\n      swap2\n      swap1\n      tag_115\n      jump\t// in\n    tag_203:\n      tag_204\n      jump\t// in\n    tag_202:\n      mload(0x40)\n      tag_205\n      swap2\n      swap1\n      tag_62\n      jump\t// in\n    tag_205:\n      mload(0x40)\n      dup1\n      swap2\n      sub\n      swap1\n      return\n        /* \"contracts/SimpleMemeToken.sol\":10576:11755  function buyTokens() public payable {... */\n    tag_37:\n      tag_206\n      tag_207\n      jump\t// in\n    tag_206:\n      stop\n        /* \"contracts/SimpleMemeToken.sol\":910:974  mapping(address => mapping(address => uint256)) public allowance */\n    tag_38:\n      callvalue\n      dup1\n      iszero\n      tag_208\n      jumpi\n      revert(0x00, 0x00)\n    tag_208:\n      pop\n      tag_209\n      0x04\n      dup1\n      calldatasize\n      sub\n      dup2\n      add\n      swap1\n      tag_210\n      swap2\n      swap1\n      tag_211\n      jump\t// in\n    tag_210:\n      tag_212\n      jump\t// in\n    tag_209:\n      mload(0x40)\n      tag_213\n      swap2\n      swap1\n      tag_67\n      jump\t// in\n    tag_213:\n      mload(0x40)\n      dup1\n      swap2\n      sub\n      swap1\n      return\n        /* \"contracts/SimpleMemeToken.sol\":17589:17990  function getUserLiquidityValue(address user) public view returns (uint256 tokenAmount, uint256 ethAmount) {... */\n    tag_39:\n      callvalue\n      dup1\n      iszero\n      tag_214\n      jumpi\n      revert(0x00, 0x00)\n    tag_214:\n      pop\n      tag_215\n      0x04\n      dup1\n      calldatasize\n      sub\n      dup2\n      add\n      swap1\n      tag_216\n      swap2\n      swap1\n      tag_115\n      jump\t// in\n    tag_216:\n      tag_217\n      jump\t// in\n    tag_215:\n      mload(0x40)\n      tag_218\n      swap3\n      swap2\n      swap1\n      tag_219\n      jump\t// in\n    tag_218:\n      mload(0x40)\n      dup1\n      swap2\n      sub\n      swap1\n      return\n        /* \"contracts/SimpleMemeToken.sol\":1272:1296  address public feeWallet */\n    tag_40:\n      callvalue\n      dup1\n      iszero\n      tag_220\n      jumpi\n      revert(0x00, 0x00)\n    tag_220:\n      pop\n      tag_221\n      tag_222\n      jump\t// in\n    tag_221:\n      mload(0x40)\n      tag_223\n      swap2\n      swap1\n      tag_147\n      jump\t// in\n    tag_223:\n      mload(0x40)\n      dup1\n      swap2\n      sub\n      swap1\n      return\n        /* \"contracts/SimpleMemeToken.sol\":16603:16758  function transferOwnership(address newOwner) public onlyOwner {... */\n    tag_41:\n      callvalue\n      dup1\n      iszero\n      tag_224\n      jumpi\n      revert(0x00, 0x00)\n    tag_224:\n      pop\n      tag_225\n      0x04\n      dup1\n      calldatasize\n      sub\n      dup2\n      add\n      swap1\n      tag_226\n      swap2\n      swap1\n      tag_115\n      jump\t// in\n    tag_226:\n      tag_227\n      jump\t// in\n    tag_225:\n      stop\n        /* \"contracts/SimpleMemeToken.sol\":351:384  string public name = \"SimpleMeme\" */\n    tag_53:\n      0x00\n      dup1\n      sload\n      tag_228\n      swap1\n      tag_229\n      jump\t// in\n    tag_228:\n      dup1\n      0x1f\n      add\n      0x20\n      dup1\n      swap2\n      div\n      mul\n      0x20\n      add\n      mload(0x40)\n      swap1\n      dup2\n      add\n      0x40\n      mstore\n      dup1\n      swap3\n      swap2\n      swap1\n      dup2\n      dup2\n      mstore\n      0x20\n      add\n      dup3\n      dup1\n      sload\n      tag_230\n      swap1\n      tag_229\n      jump\t// in\n    tag_230:\n      dup1\n      iszero\n      tag_231\n      jumpi\n      dup1\n      0x1f\n      lt\n      tag_232\n      jumpi\n      0x0100\n      dup1\n      dup4\n      sload\n      div\n      mul\n      dup4\n      mstore\n      swap2\n      0x20\n      add\n      swap2\n      jump(tag_231)\n    tag_232:\n      dup3\n      add\n      swap2\n      swap1\n      0x00\n      mstore\n      keccak256(0x00, 0x20)\n      swap1\n    tag_233:\n      dup2\n      sload\n      dup2\n      mstore\n      swap1\n      0x01\n      add\n      swap1\n      0x20\n      add\n      dup1\n      dup4\n      gt\n      tag_233\n      jumpi\n      dup3\n      swap1\n      sub\n      0x1f\n      and\n      dup3\n      add\n      swap2\n    tag_231:\n      pop\n      pop\n      pop\n      pop\n      pop\n      dup2\n      jump\t// out\n        /* \"contracts/SimpleMemeToken.sol\":13819:14096  function approve(address spender, uint256 amount) public returns (bool) {... */\n    tag_60:\n        /* \"contracts/SimpleMemeToken.sol\":13885:13889  bool */\n      0x00\n        /* \"contracts/SimpleMemeToken.sol\":13928:13929  0 */\n      0x00\n        /* \"contracts/SimpleMemeToken.sol\":13909:13930  spender != address(0) */\n      0xffffffffffffffffffffffffffffffffffffffff\n      and\n        /* \"contracts/SimpleMemeToken.sol\":13909:13916  spender */\n      dup4\n        /* \"contracts/SimpleMemeToken.sol\":13909:13930  spender != address(0) */\n      0xffffffffffffffffffffffffffffffffffffffff\n      and\n      sub\n        /* \"contracts/SimpleMemeToken.sol\":13901:13958  require(spender != address(0), \"Approve to zero address\") */\n      tag_235\n      jumpi\n      mload(0x40)\n      0x08c379a000000000000000000000000000000000000000000000000000000000\n      dup2\n      mstore\n      0x04\n      add\n      tag_236\n      swap1\n      tag_237\n      jump\t// in\n    tag_236:\n      mload(0x40)\n      dup1\n      swap2\n      sub\n      swap1\n      revert\n    tag_235:\n        /* \"contracts/SimpleMemeToken.sol\":14010:14016  amount */\n      dup2\n        /* \"contracts/SimpleMemeToken.sol\":13977:13986  allowance */\n      0x05\n        /* \"contracts/SimpleMemeToken.sol\":13977:13998  allowance[msg.sender] */\n      0x00\n        /* \"contracts/SimpleMemeToken.sol\":13987:13997  msg.sender */\n      caller\n        /* \"contracts/SimpleMemeToken.sol\":13977:13998  allowance[msg.sender] */\n      0xffffffffffffffffffffffffffffffffffffffff\n      and\n      0xffffffffffffffffffffffffffffffffffffffff\n      and\n      dup2\n      mstore\n      0x20\n      add\n      swap1\n      dup2\n      mstore\n      0x20\n      add\n      0x00\n      keccak256\n        /* \"contracts/SimpleMemeToken.sol\":13977:14007  allowance[msg.sender][spender] */\n      0x00\n        /* \"contracts/SimpleMemeToken.sol\":13999:14006  spender */\n      dup6\n        /* \"contracts/SimpleMemeToken.sol\":13977:14007  allowance[msg.sender][spender] */\n      0xffffffffffffffffffffffffffffffffffffffff\n      and\n      0xffffffffffffffffffffffffffffffffffffffff\n      and\n      dup2\n      mstore\n      0x20\n      add\n      swap1\n      dup2\n      mstore\n      0x20\n      add\n      0x00\n      keccak256\n        /* \"contracts/SimpleMemeToken.sol\":13977:14016  allowance[msg.sender][spender] = amount */\n      dup2\n      swap1\n      sstore\n      pop\n        /* \"contracts/SimpleMemeToken.sol\":14052:14059  spender */\n      dup3\n        /* \"contracts/SimpleMemeToken.sol\":14031:14068  Approval(msg.sender, spender, amount) */\n      0xffffffffffffffffffffffffffffffffffffffff\n      and\n        /* \"contracts/SimpleMemeToken.sol\":14040:14050  msg.sender */\n      caller\n        /* \"contracts/SimpleMemeToken.sol\":14031:14068  Approval(msg.sender, spender, amount) */\n      0xffffffffffffffffffffffffffffffffffffffff\n      and\n      0x8c5be1e5ebec7d5bd14f71427d1e84f3dd0314c0f7b2291e5b200ac8c7c3b925\n        /* \"contracts/SimpleMemeToken.sol\":14061:14067  amount */\n      dup5\n        /* \"contracts/SimpleMemeToken.sol\":14031:14068  Approval(msg.sender, spender, amount) */\n      mload(0x40)\n      tag_238\n      swap2\n      swap1\n      tag_67\n      jump\t// in\n    tag_238:\n      mload(0x40)\n      dup1\n      swap2\n      sub\n      swap1\n      log3\n        /* \"contracts/SimpleMemeToken.sol\":14085:14089  true */\n      0x01\n        /* \"contracts/SimpleMemeToken.sol\":14078:14089  return true */\n      swap1\n      pop\n        /* \"contracts/SimpleMemeToken.sol\":13819:14096  function approve(address spender, uint256 amount) public returns (bool) {... */\n      swap3\n      swap2\n      pop\n      pop\n      jump\t// out\n        /* \"contracts/SimpleMemeToken.sol\":546:591  uint256 public totalSupply = 1000000 * 10**18 */\n    tag_65:\n      sload(0x03)\n      dup2\n      jump\t// out\n        /* \"contracts/SimpleMemeToken.sol\":2275:2305  uint256 public maxDailyTx = 10 */\n    tag_70:\n      sload(0x13)\n      dup2\n      jump\t// out\n        /* \"contracts/SimpleMemeToken.sol\":4609:4975  function transferFrom(address from, address to, uint256 amount) public returns (bool) {... */\n    tag_76:\n        /* \"contracts/SimpleMemeToken.sol\":4689:4693  bool */\n      0x00\n        /* \"contracts/SimpleMemeToken.sol\":4774:4780  amount */\n      dup2\n        /* \"contracts/SimpleMemeToken.sol\":4743:4752  allowance */\n      0x05\n        /* \"contracts/SimpleMemeToken.sol\":4743:4758  allowance[from] */\n      0x00\n        /* \"contracts/SimpleMemeToken.sol\":4753:4757  from */\n      dup7\n        /* \"contracts/SimpleMemeToken.sol\":4743:4758  allowance[from] */\n      0xffffffffffffffffffffffffffffffffffffffff\n      and\n      0xffffffffffffffffffffffffffffffffffffffff\n      and\n      dup2\n      mstore\n      0x20\n      add\n      swap1\n      dup2\n      mstore\n      0x20\n      add\n      0x00\n      keccak256\n        /* \"contracts/SimpleMemeToken.sol\":4743:4770  allowance[from][msg.sender] */\n      0x00\n        /* \"contracts/SimpleMemeToken.sol\":4759:4769  msg.sender */\n      caller\n        /* \"contracts/SimpleMemeToken.sol\":4743:4770  allowance[from][msg.sender] */\n      0xffffffffffffffffffffffffffffffffffffffff\n      and\n      0xffffffffffffffffffffffffffffffffffffffff\n      and\n      dup2\n      mstore\n      0x20\n      add\n      swap1\n      dup2\n      mstore\n      0x20\n      add\n      0x00\n      keccak256\n      sload\n        /* \"contracts/SimpleMemeToken.sol\":4743:4780  allowance[from][msg.sender] >= amount */\n      lt\n      iszero\n        /* \"contracts/SimpleMemeToken.sol\":4735:4805  require(allowance[from][msg.sender] >= amount, \"Allowance not enough\") */\n      tag_240\n      jumpi\n      mload(0x40)\n      0x08c379a000000000000000000000000000000000000000000000000000000000\n      dup2\n      mstore\n      0x04\n      add\n      tag_241\n      swap1\n      tag_242\n      jump\t// in\n    tag_241:\n      mload(0x40)\n      dup1\n      swap2\n      sub\n      swap1\n      revert\n    tag_240:\n        /* \"contracts/SimpleMemeToken.sol\":4885:4891  amount */\n      dup2\n        /* \"contracts/SimpleMemeToken.sol\":4854:4863  allowance */\n      0x05\n        /* \"contracts/SimpleMemeToken.sol\":4854:4869  allowance[from] */\n      0x00\n        /* \"contracts/SimpleMemeToken.sol\":4864:4868  from */\n      dup7\n        /* \"contracts/SimpleMemeToken.sol\":4854:4869  allowance[from] */\n      0xffffffffffffffffffffffffffffffffffffffff\n      and\n      0xffffffffffffffffffffffffffffffffffffffff\n      and\n      dup2\n      mstore\n      0x20\n      add\n      swap1\n      dup2\n      mstore\n      0x20\n      add\n      0x00\n      keccak256\n        /* \"contracts/SimpleMemeToken.sol\":4854:4881  allowance[from][msg.sender] */\n      0x00\n        /* \"contracts/SimpleMemeToken.sol\":4870:4880  msg.sender */\n      caller\n        /* \"contracts/SimpleMemeToken.sol\":4854:4881  allowance[from][msg.sender] */\n      0xffffffffffffffffffffffffffffffffffffffff\n      and\n      0xffffffffffffffffffffffffffffffffffffffff\n      and\n      dup2\n      mstore\n      0x20\n      add\n      swap1\n      dup2\n      mstore\n      0x20\n      add\n      0x00\n      keccak256\n      0x00\n        /* \"contracts/SimpleMemeToken.sol\":4854:4891  allowance[from][msg.sender] -= amount */\n      dup3\n      dup3\n      sload\n      tag_243\n      swap2\n      swap1\n      tag_244\n      jump\t// in\n    tag_243:\n      swap3\n      pop\n      pop\n      dup2\n      swap1\n      sstore\n      pop\n        /* \"contracts/SimpleMemeToken.sol\":4941:4968  _transfer(from, to, amount) */\n      tag_245\n        /* \"contracts/SimpleMemeToken.sol\":4951:4955  from */\n      dup5\n        /* \"contracts/SimpleMemeToken.sol\":4957:4959  to */\n      dup5\n        /* \"contracts/SimpleMemeToken.sol\":4961:4967  amount */\n      dup5\n        /* \"contracts/SimpleMemeToken.sol\":4941:4950  _transfer */\n      tag_246\n        /* \"contracts/SimpleMemeToken.sol\":4941:4968  _transfer(from, to, amount) */\n      jump\t// in\n    tag_245:\n        /* \"contracts/SimpleMemeToken.sol\":4934:4968  return _transfer(from, to, amount) */\n      swap1\n      pop\n        /* \"contracts/SimpleMemeToken.sol\":4609:4975  function transferFrom(address from, address to, uint256 amount) public returns (bool) {... */\n      swap4\n      swap3\n      pop\n      pop\n      pop\n      jump\t// out\n        /* \"contracts/SimpleMemeToken.sol\":1129:1159  uint256 public sellTaxRate = 8 */\n    tag_80:\n      sload(0x07)\n      dup2\n      jump\t// out\n        /* \"contracts/SimpleMemeToken.sol\":15608:15725  function setExcluded(address account, bool excluded) public onlyOwner {... */\n    tag_86:\n        /* \"contracts/SimpleMemeToken.sol\":3332:3337  owner */\n      0x15\n      0x00\n      swap1\n      sload\n      swap1\n      0x0100\n      exp\n      swap1\n      div\n      0xffffffffffffffffffffffffffffffffffffffff\n      and\n        /* \"contracts/SimpleMemeToken.sol\":3318:3337  msg.sender == owner */\n      0xffffffffffffffffffffffffffffffffffffffff\n      and\n        /* \"contracts/SimpleMemeToken.sol\":3318:3328  msg.sender */\n      caller\n        /* \"contracts/SimpleMemeToken.sol\":3318:3337  msg.sender == owner */\n      0xffffffffffffffffffffffffffffffffffffffff\n      and\n      eq\n        /* \"contracts/SimpleMemeToken.sol\":3310:3361  require(msg.sender == owner, \"Only owner can call\") */\n      tag_248\n      jumpi\n      mload(0x40)\n      0x08c379a000000000000000000000000000000000000000000000000000000000\n      dup2\n      mstore\n      0x04\n      add\n      tag_249\n      swap1\n      tag_250\n      jump\t// in\n    tag_249:\n      mload(0x40)\n      dup1\n      swap2\n      sub\n      swap1\n      revert\n    tag_248:\n        /* \"contracts/SimpleMemeToken.sol\":15710:15718  excluded */\n      dup1\n        /* \"contracts/SimpleMemeToken.sol\":15688:15698  isExcluded */\n      0x14\n        /* \"contracts/SimpleMemeToken.sol\":15688:15707  isExcluded[account] */\n      0x00\n        /* \"contracts/SimpleMemeToken.sol\":15699:15706  account */\n      dup5\n        /* \"contracts/SimpleMemeToken.sol\":15688:15707  isExcluded[account] */\n      0xffffffffffffffffffffffffffffffffffffffff\n      and\n      0xffffffffffffffffffffffffffffffffffffffff\n      and\n      dup2\n      mstore\n      0x20\n      add\n      swap1\n      dup2\n      mstore\n      0x20\n      add\n      0x00\n      keccak256\n      0x00\n        /* \"contracts/SimpleMemeToken.sol\":15688:15718  isExcluded[account] = excluded */\n      0x0100\n      exp\n      dup2\n      sload\n      dup2\n      0xff\n      mul\n      not\n      and\n      swap1\n      dup4\n      iszero\n      iszero\n      mul\n      or\n      swap1\n      sstore\n      pop\n        /* \"contracts/SimpleMemeToken.sol\":15608:15725  function setExcluded(address account, bool excluded) public onlyOwner {... */\n      pop\n      pop\n      jump\t// out\n        /* \"contracts/SimpleMemeToken.sol\":481:507  uint8 public decimals = 18 */\n    tag_89:\n      0x02\n      0x00\n      swap1\n      sload\n      swap1\n      0x0100\n      exp\n      swap1\n      div\n      0xff\n      and\n      dup2\n      jump\t// out\n        /* \"contracts/SimpleMemeToken.sol\":14306:14735  function setTaxRates(uint256 _buyTax, uint256 _sellTax, uint256 _transferTax) public onlyOwner {... */\n    tag_96:\n        /* \"contracts/SimpleMemeToken.sol\":3332:3337  owner */\n      0x15\n      0x00\n      swap1\n      sload\n      swap1\n      0x0100\n      exp\n      swap1\n      div\n      0xffffffffffffffffffffffffffffffffffffffff\n      and\n        /* \"contracts/SimpleMemeToken.sol\":3318:3337  msg.sender == owner */\n      0xffffffffffffffffffffffffffffffffffffffff\n      and\n        /* \"contracts/SimpleMemeToken.sol\":3318:3328  msg.sender */\n      caller\n        /* \"contracts/SimpleMemeToken.sol\":3318:3337  msg.sender == owner */\n      0xffffffffffffffffffffffffffffffffffffffff\n      and\n      eq\n        /* \"contracts/SimpleMemeToken.sol\":3310:3361  require(msg.sender == owner, \"Only owner can call\") */\n      tag_253\n      jumpi\n      mload(0x40)\n      0x08c379a000000000000000000000000000000000000000000000000000000000\n      dup2\n      mstore\n      0x04\n      add\n      tag_254\n      swap1\n      tag_250\n      jump\t// in\n    tag_254:\n      mload(0x40)\n      dup1\n      swap2\n      sub\n      swap1\n      revert\n    tag_253:\n        /* \"contracts/SimpleMemeToken.sol\":14430:14432  20 */\n      0x14\n        /* \"contracts/SimpleMemeToken.sol\":14419:14426  _buyTax */\n      dup4\n        /* \"contracts/SimpleMemeToken.sol\":14419:14432  _buyTax <= 20 */\n      gt\n      iszero\n        /* \"contracts/SimpleMemeToken.sol\":14411:14453  require(_buyTax <= 20, \"Buy tax too high\") */\n      tag_256\n      jumpi\n      mload(0x40)\n      0x08c379a000000000000000000000000000000000000000000000000000000000\n      dup2\n      mstore\n      0x04\n      add\n      tag_257\n      swap1\n      tag_258\n      jump\t// in\n    tag_257:\n      mload(0x40)\n      dup1\n      swap2\n      sub\n      swap1\n      revert\n    tag_256:\n        /* \"contracts/SimpleMemeToken.sol\":14501:14503  20 */\n      0x14\n        /* \"contracts/SimpleMemeToken.sol\":14489:14497  _sellTax */\n      dup3\n        /* \"contracts/SimpleMemeToken.sol\":14489:14503  _sellTax <= 20 */\n      gt\n      iszero\n        /* \"contracts/SimpleMemeToken.sol\":14481:14525  require(_sellTax <= 20, \"Sell tax too high\") */\n      tag_259\n      jumpi\n      mload(0x40)\n      0x08c379a000000000000000000000000000000000000000000000000000000000\n      dup2\n      mstore\n      0x04\n      add\n      tag_260\n      swap1\n      tag_261\n      jump\t// in\n    tag_260:\n      mload(0x40)\n      dup1\n      swap2\n      sub\n      swap1\n      revert\n    tag_259:\n        /* \"contracts/SimpleMemeToken.sol\":14575:14577  10 */\n      0x0a\n        /* \"contracts/SimpleMemeToken.sol\":14559:14571  _transferTax */\n      dup2\n        /* \"contracts/SimpleMemeToken.sol\":14559:14577  _transferTax <= 10 */\n      gt\n      iszero\n        /* \"contracts/SimpleMemeToken.sol\":14551:14603  require(_transferTax <= 10, \"Transfer tax too high\") */\n      tag_262\n      jumpi\n      mload(0x40)\n      0x08c379a000000000000000000000000000000000000000000000000000000000\n      dup2\n      mstore\n      0x04\n      add\n      tag_263\n      swap1\n      tag_264\n      jump\t// in\n    tag_263:\n      mload(0x40)\n      dup1\n      swap2\n      sub\n      swap1\n      revert\n    tag_262:\n        /* \"contracts/SimpleMemeToken.sol\":14649:14656  _buyTax */\n      dup3\n        /* \"contracts/SimpleMemeToken.sol\":14636:14646  buyTaxRate */\n      0x06\n        /* \"contracts/SimpleMemeToken.sol\":14636:14656  buyTaxRate = _buyTax */\n      dup2\n      swap1\n      sstore\n      pop\n        /* \"contracts/SimpleMemeToken.sol\":14680:14688  _sellTax */\n      dup2\n        /* \"contracts/SimpleMemeToken.sol\":14666:14677  sellTaxRate */\n      0x07\n        /* \"contracts/SimpleMemeToken.sol\":14666:14688  sellTaxRate = _sellTax */\n      dup2\n      swap1\n      sstore\n      pop\n        /* \"contracts/SimpleMemeToken.sol\":14716:14728  _transferTax */\n      dup1\n        /* \"contracts/SimpleMemeToken.sol\":14698:14713  transferTaxRate */\n      0x08\n        /* \"contracts/SimpleMemeToken.sol\":14698:14728  transferTaxRate = _transferTax */\n      dup2\n      swap1\n      sstore\n      pop\n        /* \"contracts/SimpleMemeToken.sol\":14306:14735  function setTaxRates(uint256 _buyTax, uint256 _sellTax, uint256 _transferTax) public onlyOwner {... */\n      pop\n      pop\n      pop\n      jump\t// out\n        /* \"contracts/SimpleMemeToken.sol\":15831:16220  function withdrawFees() public onlyOwner {... */\n    tag_99:\n        /* \"contracts/SimpleMemeToken.sol\":3332:3337  owner */\n      0x15\n      0x00\n      swap1\n      sload\n      swap1\n      0x0100\n      exp\n      swap1\n      div\n      0xffffffffffffffffffffffffffffffffffffffff\n      and\n        /* \"contracts/SimpleMemeToken.sol\":3318:3337  msg.sender == owner */\n      0xffffffffffffffffffffffffffffffffffffffff\n      and\n        /* \"contracts/SimpleMemeToken.sol\":3318:3328  msg.sender */\n      caller\n        /* \"contracts/SimpleMemeToken.sol\":3318:3337  msg.sender == owner */\n      0xffffffffffffffffffffffffffffffffffffffff\n      and\n      eq\n        /* \"contracts/SimpleMemeToken.sol\":3310:3361  require(msg.sender == owner, \"Only owner can call\") */\n      tag_266\n      jumpi\n      mload(0x40)\n      0x08c379a000000000000000000000000000000000000000000000000000000000\n      dup2\n      mstore\n      0x04\n      add\n      tag_267\n      swap1\n      tag_250\n      jump\t// in\n    tag_267:\n      mload(0x40)\n      dup1\n      swap2\n      sub\n      swap1\n      revert\n    tag_266:\n        /* \"contracts/SimpleMemeToken.sol\":15906:15907  0 */\n      0x00\n        /* \"contracts/SimpleMemeToken.sol\":15890:15903  collectedFees */\n      sload(0x0a)\n        /* \"contracts/SimpleMemeToken.sol\":15890:15907  collectedFees > 0 */\n      gt\n        /* \"contracts/SimpleMemeToken.sol\":15882:15931  require(collectedFees > 0, \"No fees to withdraw\") */\n      tag_269\n      jumpi\n      mload(0x40)\n      0x08c379a000000000000000000000000000000000000000000000000000000000\n      dup2\n      mstore\n      0x04\n      add\n      tag_270\n      swap1\n      tag_271\n      jump\t// in\n    tag_270:\n      mload(0x40)\n      dup1\n      swap2\n      sub\n      swap1\n      revert\n    tag_269:\n        /* \"contracts/SimpleMemeToken.sol\":15950:15964  uint256 amount */\n      0x00\n        /* \"contracts/SimpleMemeToken.sol\":15967:15980  collectedFees */\n      sload(0x0a)\n        /* \"contracts/SimpleMemeToken.sol\":15950:15980  uint256 amount = collectedFees */\n      swap1\n      pop\n        /* \"contracts/SimpleMemeToken.sol\":16006:16007  0 */\n      0x00\n        /* \"contracts/SimpleMemeToken.sol\":15990:16003  collectedFees */\n      0x0a\n        /* \"contracts/SimpleMemeToken.sol\":15990:16007  collectedFees = 0 */\n      dup2\n      swap1\n      sstore\n      pop\n        /* \"contracts/SimpleMemeToken.sol\":16054:16060  amount */\n      dup1\n        /* \"contracts/SimpleMemeToken.sol\":16026:16035  balanceOf */\n      0x04\n        /* \"contracts/SimpleMemeToken.sol\":16026:16050  balanceOf[address(this)] */\n      0x00\n        /* \"contracts/SimpleMemeToken.sol\":16044:16048  this */\n      address\n        /* \"contracts/SimpleMemeToken.sol\":16026:16050  balanceOf[address(this)] */\n      0xffffffffffffffffffffffffffffffffffffffff\n      and\n      0xffffffffffffffffffffffffffffffffffffffff\n      and\n      dup2\n      mstore\n      0x20\n      add\n      swap1\n      dup2\n      mstore\n      0x20\n      add\n      0x00\n      keccak256\n      0x00\n        /* \"contracts/SimpleMemeToken.sol\":16026:16060  balanceOf[address(this)] -= amount */\n      dup3\n      dup3\n      sload\n      tag_272\n      swap2\n      swap1\n      tag_244\n      jump\t// in\n    tag_272:\n      swap3\n      pop\n      pop\n      dup2\n      swap1\n      sstore\n      pop\n        /* \"contracts/SimpleMemeToken.sol\":16094:16100  amount */\n      dup1\n        /* \"contracts/SimpleMemeToken.sol\":16070:16079  balanceOf */\n      0x04\n        /* \"contracts/SimpleMemeToken.sol\":16070:16090  balanceOf[feeWallet] */\n      0x00\n        /* \"contracts/SimpleMemeToken.sol\":16080:16089  feeWallet */\n      0x09\n      0x00\n      swap1\n      sload\n      swap1\n      0x0100\n      exp\n      swap1\n      div\n      0xffffffffffffffffffffffffffffffffffffffff\n      and\n        /* \"contracts/SimpleMemeToken.sol\":16070:16090  balanceOf[feeWallet] */\n      0xffffffffffffffffffffffffffffffffffffffff\n      and\n      0xffffffffffffffffffffffffffffffffffffffff\n      and\n      dup2\n      mstore\n      0x20\n      add\n      swap1\n      dup2\n      mstore\n      0x20\n      add\n      0x00\n      keccak256\n      0x00\n        /* \"contracts/SimpleMemeToken.sol\":16070:16100  balanceOf[feeWallet] += amount */\n      dup3\n      dup3\n      sload\n      tag_273\n      swap2\n      swap1\n      tag_274\n      jump\t// in\n    tag_273:\n      swap3\n      pop\n      pop\n      dup2\n      swap1\n      sstore\n      pop\n        /* \"contracts/SimpleMemeToken.sol\":16148:16157  feeWallet */\n      0x09\n      0x00\n      swap1\n      sload\n      swap1\n      0x0100\n      exp\n      swap1\n      div\n      0xffffffffffffffffffffffffffffffffffffffff\n      and\n        /* \"contracts/SimpleMemeToken.sol\":16124:16166  Transfer(address(this), feeWallet, amount) */\n      0xffffffffffffffffffffffffffffffffffffffff\n      and\n        /* \"contracts/SimpleMemeToken.sol\":16141:16145  this */\n      address\n        /* \"contracts/SimpleMemeToken.sol\":16124:16166  Transfer(address(this), feeWallet, amount) */\n      0xffffffffffffffffffffffffffffffffffffffff\n      and\n      0xddf252ad1be2c89b69c2b068fc378daa952ba7f163c4a11628f55a4df523b3ef\n        /* \"contracts/SimpleMemeToken.sol\":16159:16165  amount */\n      dup4\n        /* \"contracts/SimpleMemeToken.sol\":16124:16166  Transfer(address(this), feeWallet, amount) */\n      mload(0x40)\n      tag_275\n      swap2\n      swap1\n      tag_67\n      jump\t// in\n    tag_275:\n      mload(0x40)\n      dup1\n      swap2\n      sub\n      swap1\n      log3\n        /* \"contracts/SimpleMemeToken.sol\":16195:16204  feeWallet */\n      0x09\n      0x00\n      swap1\n      sload\n      swap1\n      0x0100\n      exp\n      swap1\n      div\n      0xffffffffffffffffffffffffffffffffffffffff\n      and\n        /* \"contracts/SimpleMemeToken.sol\":16181:16213  FeesWithdrawn(feeWallet, amount) */\n      0xffffffffffffffffffffffffffffffffffffffff\n      and\n      0xc0819c13be868895eb93e40eaceb96de976442fa1d404e5c55f14bb65a8c489a\n        /* \"contracts/SimpleMemeToken.sol\":16206:16212  amount */\n      dup3\n        /* \"contracts/SimpleMemeToken.sol\":16181:16213  FeesWithdrawn(feeWallet, amount) */\n      mload(0x40)\n      tag_276\n      swap2\n      swap1\n      tag_67\n      jump\t// in\n    tag_276:\n      mload(0x40)\n      dup1\n      swap2\n      sub\n      swap1\n      log2\n        /* \"contracts/SimpleMemeToken.sol\":15872:16220  {... */\n      pop\n        /* \"contracts/SimpleMemeToken.sol\":15831:16220  function withdrawFees() public onlyOwner {... */\n      jump\t// out\n        /* \"contracts/SimpleMemeToken.sol\":1499:1529  uint256 public liquidityTokens */\n    tag_102:\n      sload(0x0b)\n      dup2\n      jump\t// out\n        /* \"contracts/SimpleMemeToken.sol\":13405:13569  function getTokenPrice() public view returns (uint256) {... */\n    tag_106:\n        /* \"contracts/SimpleMemeToken.sol\":13451:13458  uint256 */\n      0x00\n        /* \"contracts/SimpleMemeToken.sol\":13493:13494  0 */\n      0x00\n        /* \"contracts/SimpleMemeToken.sol\":13474:13489  liquidityTokens */\n      sload(0x0b)\n        /* \"contracts/SimpleMemeToken.sol\":13474:13494  liquidityTokens == 0 */\n      sub\n        /* \"contracts/SimpleMemeToken.sol\":13470:13504  if (liquidityTokens == 0) return 0 */\n      tag_278\n      jumpi\n        /* \"contracts/SimpleMemeToken.sol\":13503:13504  0 */\n      0x00\n        /* \"contracts/SimpleMemeToken.sol\":13496:13504  return 0 */\n      swap1\n      pop\n      jump(tag_277)\n        /* \"contracts/SimpleMemeToken.sol\":13470:13504  if (liquidityTokens == 0) return 0 */\n    tag_278:\n        /* \"contracts/SimpleMemeToken.sol\":13547:13562  liquidityTokens */\n      sload(0x0b)\n        /* \"contracts/SimpleMemeToken.sol\":13537:13543  10**18 */\n      0x0de0b6b3a7640000\n        /* \"contracts/SimpleMemeToken.sol\":13522:13534  liquidityETH */\n      sload(0x0c)\n        /* \"contracts/SimpleMemeToken.sol\":13522:13543  liquidityETH * 10**18 */\n      tag_279\n      swap2\n      swap1\n      tag_280\n      jump\t// in\n    tag_279:\n        /* \"contracts/SimpleMemeToken.sol\":13521:13562  (liquidityETH * 10**18) / liquidityTokens */\n      tag_281\n      swap2\n      swap1\n      tag_282\n      jump\t// in\n    tag_281:\n        /* \"contracts/SimpleMemeToken.sol\":13514:13562  return (liquidityETH * 10**18) / liquidityTokens */\n      swap1\n      pop\n        /* \"contracts/SimpleMemeToken.sol\":13405:13569  function getTokenPrice() public view returns (uint256) {... */\n    tag_277:\n      swap1\n      jump\t// out\n        /* \"contracts/SimpleMemeToken.sol\":7828:9164  function addLiquidity(uint256 tokenAmount) public payable {... */\n    tag_111:\n        /* \"contracts/SimpleMemeToken.sol\":7918:7919  0 */\n      0x00\n        /* \"contracts/SimpleMemeToken.sol\":7904:7915  tokenAmount */\n      dup2\n        /* \"contracts/SimpleMemeToken.sol\":7904:7919  tokenAmount > 0 */\n      gt\n        /* \"contracts/SimpleMemeToken.sol\":7896:7959  require(tokenAmount > 0, \"Token amount must be greater than 0\") */\n      tag_284\n      jumpi\n      mload(0x40)\n      0x08c379a000000000000000000000000000000000000000000000000000000000\n      dup2\n      mstore\n      0x04\n      add\n      tag_285\n      swap1\n      tag_286\n      jump\t// in\n    tag_285:\n      mload(0x40)\n      dup1\n      swap2\n      sub\n      swap1\n      revert\n    tag_284:\n        /* \"contracts/SimpleMemeToken.sol\":7989:7990  0 */\n      0x00\n        /* \"contracts/SimpleMemeToken.sol\":7977:7986  msg.value */\n      callvalue\n        /* \"contracts/SimpleMemeToken.sol\":7977:7990  msg.value > 0 */\n      gt\n        /* \"contracts/SimpleMemeToken.sol\":7969:8028  require(msg.value > 0, \"ETH amount must be greater than 0\") */\n      tag_287\n      jumpi\n      mload(0x40)\n      0x08c379a000000000000000000000000000000000000000000000000000000000\n      dup2\n      mstore\n      0x04\n      add\n      tag_288\n      swap1\n      tag_289\n      jump\t// in\n    tag_288:\n      mload(0x40)\n      dup1\n      swap2\n      sub\n      swap1\n      revert\n    tag_287:\n        /* \"contracts/SimpleMemeToken.sol\":8071:8082  tokenAmount */\n      dup1\n        /* \"contracts/SimpleMemeToken.sol\":8046:8055  balanceOf */\n      0x04\n        /* \"contracts/SimpleMemeToken.sol\":8046:8067  balanceOf[msg.sender] */\n      0x00\n        /* \"contracts/SimpleMemeToken.sol\":8056:8066  msg.sender */\n      caller\n        /* \"contracts/SimpleMemeToken.sol\":8046:8067  balanceOf[msg.sender] */\n      0xffffffffffffffffffffffffffffffffffffffff\n      and\n      0xffffffffffffffffffffffffffffffffffffffff\n      and\n      dup2\n      mstore\n      0x20\n      add\n      swap1\n      dup2\n      mstore\n      0x20\n      add\n      0x00\n      keccak256\n      sload\n        /* \"contracts/SimpleMemeToken.sol\":8046:8082  balanceOf[msg.sender] >= tokenAmount */\n      lt\n      iszero\n        /* \"contracts/SimpleMemeToken.sol\":8038:8104  require(balanceOf[msg.sender] >= tokenAmount, \"Not enough tokens\") */\n      tag_290\n      jumpi\n      mload(0x40)\n      0x08c379a000000000000000000000000000000000000000000000000000000000\n      dup2\n      mstore\n      0x04\n      add\n      tag_291\n      swap1\n      tag_292\n      jump\t// in\n    tag_291:\n      mload(0x40)\n      dup1\n      swap2\n      sub\n      swap1\n      revert\n    tag_290:\n        /* \"contracts/SimpleMemeToken.sol\":8123:8137  uint256 shares */\n      0x00\n        /* \"contracts/SimpleMemeToken.sol\":8140:8141  0 */\n      0x00\n        /* \"contracts/SimpleMemeToken.sol\":8123:8141  uint256 shares = 0 */\n      swap1\n      pop\n        /* \"contracts/SimpleMemeToken.sol\":8227:8228  0 */\n      0x00\n        /* \"contracts/SimpleMemeToken.sol\":8203:8223  totalLiquidityShares */\n      sload(0x0e)\n        /* \"contracts/SimpleMemeToken.sol\":8203:8228  totalLiquidityShares == 0 */\n      sub\n        /* \"contracts/SimpleMemeToken.sol\":8199:8550  if (totalLiquidityShares == 0) {... */\n      tag_293\n      jumpi\n        /* \"contracts/SimpleMemeToken.sol\":8327:8338  tokenAmount */\n      dup2\n        /* \"contracts/SimpleMemeToken.sol\":8318:8338  shares = tokenAmount */\n      swap1\n      pop\n        /* \"contracts/SimpleMemeToken.sol\":8199:8550  if (totalLiquidityShares == 0) {... */\n      jump(tag_294)\n    tag_293:\n        /* \"contracts/SimpleMemeToken.sol\":8524:8539  liquidityTokens */\n      sload(0x0b)\n        /* \"contracts/SimpleMemeToken.sol\":8500:8520  totalLiquidityShares */\n      sload(0x0e)\n        /* \"contracts/SimpleMemeToken.sol\":8486:8497  tokenAmount */\n      dup4\n        /* \"contracts/SimpleMemeToken.sol\":8486:8520  tokenAmount * totalLiquidityShares */\n      tag_295\n      swap2\n      swap1\n      tag_280\n      jump\t// in\n    tag_295:\n        /* \"contracts/SimpleMemeToken.sol\":8485:8539  (tokenAmount * totalLiquidityShares) / liquidityTokens */\n      tag_296\n      swap2\n      swap1\n      tag_282\n      jump\t// in\n    tag_296:\n        /* \"contracts/SimpleMemeToken.sol\":8476:8539  shares = (tokenAmount * totalLiquidityShares) / liquidityTokens */\n      swap1\n      pop\n        /* \"contracts/SimpleMemeToken.sol\":8199:8550  if (totalLiquidityShares == 0) {... */\n    tag_294:\n        /* \"contracts/SimpleMemeToken.sol\":8585:8586  0 */\n      0x00\n        /* \"contracts/SimpleMemeToken.sol\":8576:8582  shares */\n      dup2\n        /* \"contracts/SimpleMemeToken.sol\":8576:8586  shares > 0 */\n      gt\n        /* \"contracts/SimpleMemeToken.sol\":8568:8620  require(shares > 0, \"Shares must be greater than 0\") */\n      tag_297\n      jumpi\n      mload(0x40)\n      0x08c379a000000000000000000000000000000000000000000000000000000000\n      dup2\n      mstore\n      0x04\n      add\n      tag_298\n      swap1\n      tag_299\n      jump\t// in\n    tag_298:\n      mload(0x40)\n      dup1\n      swap2\n      sub\n      swap1\n      revert\n    tag_297:\n        /* \"contracts/SimpleMemeToken.sol\":8697:8708  tokenAmount */\n      dup2\n        /* \"contracts/SimpleMemeToken.sol\":8672:8681  balanceOf */\n      0x04\n        /* \"contracts/SimpleMemeToken.sol\":8672:8693  balanceOf[msg.sender] */\n      0x00\n        /* \"contracts/SimpleMemeToken.sol\":8682:8692  msg.sender */\n      caller\n        /* \"contracts/SimpleMemeToken.sol\":8672:8693  balanceOf[msg.sender] */\n      0xffffffffffffffffffffffffffffffffffffffff\n      and\n      0xffffffffffffffffffffffffffffffffffffffff\n      and\n      dup2\n      mstore\n      0x20\n      add\n      swap1\n      dup2\n      mstore\n      0x20\n      add\n      0x00\n      keccak256\n      0x00\n        /* \"contracts/SimpleMemeToken.sol\":8672:8708  balanceOf[msg.sender] -= tokenAmount */\n      dup3\n      dup3\n      sload\n      tag_300\n      swap2\n      swap1\n      tag_244\n      jump\t// in\n    tag_300:\n      swap3\n      pop\n      pop\n      dup2\n      swap1\n      sstore\n      pop\n        /* \"contracts/SimpleMemeToken.sol\":8746:8757  tokenAmount */\n      dup2\n        /* \"contracts/SimpleMemeToken.sol\":8718:8727  balanceOf */\n      0x04\n        /* \"contracts/SimpleMemeToken.sol\":8718:8742  balanceOf[address(this)] */\n      0x00\n        /* \"contracts/SimpleMemeToken.sol\":8736:8740  this */\n      address\n        /* \"contracts/SimpleMemeToken.sol\":8718:8742  balanceOf[address(this)] */\n      0xffffffffffffffffffffffffffffffffffffffff\n      and\n      0xffffffffffffffffffffffffffffffffffffffff\n      and\n      dup2\n      mstore\n      0x20\n      add\n      swap1\n      dup2\n      mstore\n      0x20\n      add\n      0x00\n      keccak256\n      0x00\n        /* \"contracts/SimpleMemeToken.sol\":8718:8757  balanceOf[address(this)] += tokenAmount */\n      dup3\n      dup3\n      sload\n      tag_301\n      swap2\n      swap1\n      tag_274\n      jump\t// in\n    tag_301:\n      swap3\n      pop\n      pop\n      dup2\n      swap1\n      sstore\n      pop\n        /* \"contracts/SimpleMemeToken.sol\":8825:8836  tokenAmount */\n      dup2\n        /* \"contracts/SimpleMemeToken.sol\":8806:8821  liquidityTokens */\n      0x0b\n      0x00\n        /* \"contracts/SimpleMemeToken.sol\":8806:8836  liquidityTokens += tokenAmount */\n      dup3\n      dup3\n      sload\n      tag_302\n      swap2\n      swap1\n      tag_274\n      jump\t// in\n    tag_302:\n      swap3\n      pop\n      pop\n      dup2\n      swap1\n      sstore\n      pop\n        /* \"contracts/SimpleMemeToken.sol\":8862:8871  msg.value */\n      callvalue\n        /* \"contracts/SimpleMemeToken.sol\":8846:8858  liquidityETH */\n      0x0c\n      0x00\n        /* \"contracts/SimpleMemeToken.sol\":8846:8871  liquidityETH += msg.value */\n      dup3\n      dup3\n      sload\n      tag_303\n      swap2\n      swap1\n      tag_274\n      jump\t// in\n    tag_303:\n      swap3\n      pop\n      pop\n      dup2\n      swap1\n      sstore\n      pop\n        /* \"contracts/SimpleMemeToken.sol\":8966:8972  shares */\n      dup1\n        /* \"contracts/SimpleMemeToken.sol\":8935:8950  liquidityShares */\n      0x0d\n        /* \"contracts/SimpleMemeToken.sol\":8935:8962  liquidityShares[msg.sender] */\n      0x00\n        /* \"contracts/SimpleMemeToken.sol\":8951:8961  msg.sender */\n      caller\n        /* \"contracts/SimpleMemeToken.sol\":8935:8962  liquidityShares[msg.sender] */\n      0xffffffffffffffffffffffffffffffffffffffff\n      and\n      0xffffffffffffffffffffffffffffffffffffffff\n      and\n      dup2\n      mstore\n      0x20\n      add\n      swap1\n      dup2\n      mstore\n      0x20\n      add\n      0x00\n      keccak256\n      0x00\n        /* \"contracts/SimpleMemeToken.sol\":8935:8972  liquidityShares[msg.sender] += shares */\n      dup3\n      dup3\n      sload\n      tag_304\n      swap2\n      swap1\n      tag_274\n      jump\t// in\n    tag_304:\n      swap3\n      pop\n      pop\n      dup2\n      swap1\n      sstore\n      pop\n        /* \"contracts/SimpleMemeToken.sol\":9006:9012  shares */\n      dup1\n        /* \"contracts/SimpleMemeToken.sol\":8982:9002  totalLiquidityShares */\n      0x0e\n      0x00\n        /* \"contracts/SimpleMemeToken.sol\":8982:9012  totalLiquidityShares += shares */\n      dup3\n      dup3\n      sload\n      tag_305\n      swap2\n      swap1\n      tag_274\n      jump\t// in\n    tag_305:\n      swap3\n      pop\n      pop\n      dup2\n      swap1\n      sstore\n      pop\n        /* \"contracts/SimpleMemeToken.sol\":9051:9061  msg.sender */\n      caller\n        /* \"contracts/SimpleMemeToken.sol\":9036:9094  LiquidityAdded(msg.sender, tokenAmount, msg.value, shares) */\n      0xffffffffffffffffffffffffffffffffffffffff\n      and\n      0x64b83944e79c3ce8d4c297411de637c3e102d064677aac0c163976ebdcd6f50e\n        /* \"contracts/SimpleMemeToken.sol\":9063:9074  tokenAmount */\n      dup4\n        /* \"contracts/SimpleMemeToken.sol\":9076:9085  msg.value */\n      callvalue\n        /* \"contracts/SimpleMemeToken.sol\":9087:9093  shares */\n      dup5\n        /* \"contracts/SimpleMemeToken.sol\":9036:9094  LiquidityAdded(msg.sender, tokenAmount, msg.value, shares) */\n      mload(0x40)\n      tag_306\n      swap4\n      swap3\n      swap2\n      swap1\n      tag_307\n      jump\t// in\n    tag_306:\n      mload(0x40)\n      dup1\n      swap2\n      sub\n      swap1\n      log2\n        /* \"contracts/SimpleMemeToken.sol\":9138:9142  this */\n      address\n        /* \"contracts/SimpleMemeToken.sol\":9109:9157  Transfer(msg.sender, address(this), tokenAmount) */\n      0xffffffffffffffffffffffffffffffffffffffff\n      and\n        /* \"contracts/SimpleMemeToken.sol\":9118:9128  msg.sender */\n      caller\n        /* \"contracts/SimpleMemeToken.sol\":9109:9157  Transfer(msg.sender, address(this), tokenAmount) */\n      0xffffffffffffffffffffffffffffffffffffffff\n      and\n      0xddf252ad1be2c89b69c2b068fc378daa952ba7f163c4a11628f55a4df523b3ef\n        /* \"contracts/SimpleMemeToken.sol\":9145:9156  tokenAmount */\n      dup5\n        /* \"contracts/SimpleMemeToken.sol\":9109:9157  Transfer(msg.sender, address(this), tokenAmount) */\n      mload(0x40)\n      tag_308\n      swap2\n      swap1\n      tag_67\n      jump\t// in\n    tag_308:\n      mload(0x40)\n      dup1\n      swap2\n      sub\n      swap1\n      log3\n        /* \"contracts/SimpleMemeToken.sol\":7886:9164  {... */\n      pop\n        /* \"contracts/SimpleMemeToken.sol\":7828:9164  function addLiquidity(uint256 tokenAmount) public payable {... */\n      pop\n      jump\t// out\n        /* \"contracts/SimpleMemeToken.sol\":16947:17380  function getRemainingDailyTx(address user) public view returns (uint256) {... */\n    tag_116:\n        /* \"contracts/SimpleMemeToken.sol\":17011:17018  uint256 */\n      0x00\n        /* \"contracts/SimpleMemeToken.sol\":17030:17043  uint256 today */\n      0x00\n        /* \"contracts/SimpleMemeToken.sol\":17064:17070  1 days */\n      0x015180\n        /* \"contracts/SimpleMemeToken.sol\":17046:17061  block.timestamp */\n      timestamp\n        /* \"contracts/SimpleMemeToken.sol\":17046:17070  block.timestamp / 1 days */\n      tag_310\n      swap2\n      swap1\n      tag_282\n      jump\t// in\n    tag_310:\n        /* \"contracts/SimpleMemeToken.sol\":17030:17070  uint256 today = block.timestamp / 1 days */\n      swap1\n      pop\n        /* \"contracts/SimpleMemeToken.sol\":17112:17117  today */\n      dup1\n        /* \"contracts/SimpleMemeToken.sol\":17093:17103  lastTxDate */\n      0x12\n        /* \"contracts/SimpleMemeToken.sol\":17093:17109  lastTxDate[user] */\n      0x00\n        /* \"contracts/SimpleMemeToken.sol\":17104:17108  user */\n      dup6\n        /* \"contracts/SimpleMemeToken.sol\":17093:17109  lastTxDate[user] */\n      0xffffffffffffffffffffffffffffffffffffffff\n      and\n      0xffffffffffffffffffffffffffffffffffffffff\n      and\n      dup2\n      mstore\n      0x20\n      add\n      swap1\n      dup2\n      mstore\n      0x20\n      add\n      0x00\n      keccak256\n      sload\n        /* \"contracts/SimpleMemeToken.sol\":17093:17117  lastTxDate[user] < today */\n      lt\n        /* \"contracts/SimpleMemeToken.sol\":17089:17197  if (lastTxDate[user] < today) {... */\n      iszero\n      tag_311\n      jumpi\n        /* \"contracts/SimpleMemeToken.sol\":17140:17150  maxDailyTx */\n      sload(0x13)\n        /* \"contracts/SimpleMemeToken.sol\":17133:17150  return maxDailyTx */\n      swap2\n      pop\n      pop\n      jump(tag_309)\n        /* \"contracts/SimpleMemeToken.sol\":17089:17197  if (lastTxDate[user] < today) {... */\n    tag_311:\n        /* \"contracts/SimpleMemeToken.sol\":17241:17251  maxDailyTx */\n      sload(0x13)\n        /* \"contracts/SimpleMemeToken.sol\":17219:17231  dailyTxCount */\n      0x11\n        /* \"contracts/SimpleMemeToken.sol\":17219:17237  dailyTxCount[user] */\n      0x00\n        /* \"contracts/SimpleMemeToken.sol\":17232:17236  user */\n      dup6\n        /* \"contracts/SimpleMemeToken.sol\":17219:17237  dailyTxCount[user] */\n      0xffffffffffffffffffffffffffffffffffffffff\n      and\n      0xffffffffffffffffffffffffffffffffffffffff\n      and\n      dup2\n      mstore\n      0x20\n      add\n      swap1\n      dup2\n      mstore\n      0x20\n      add\n      0x00\n      keccak256\n      sload\n        /* \"contracts/SimpleMemeToken.sol\":17219:17251  dailyTxCount[user] >= maxDailyTx */\n      lt\n        /* \"contracts/SimpleMemeToken.sol\":17215:17300  if (dailyTxCount[user] >= maxDailyTx) {... */\n      tag_312\n      jumpi\n        /* \"contracts/SimpleMemeToken.sol\":17274:17275  0 */\n      0x00\n        /* \"contracts/SimpleMemeToken.sol\":17267:17275  return 0 */\n      swap2\n      pop\n      pop\n      jump(tag_309)\n        /* \"contracts/SimpleMemeToken.sol\":17215:17300  if (dailyTxCount[user] >= maxDailyTx) {... */\n    tag_312:\n        /* \"contracts/SimpleMemeToken.sol\":17338:17350  dailyTxCount */\n      0x11\n        /* \"contracts/SimpleMemeToken.sol\":17338:17356  dailyTxCount[user] */\n      0x00\n        /* \"contracts/SimpleMemeToken.sol\":17351:17355  user */\n      dup5\n        /* \"contracts/SimpleMemeToken.sol\":17338:17356  dailyTxCount[user] */\n      0xffffffffffffffffffffffffffffffffffffffff\n      and\n      0xffffffffffffffffffffffffffffffffffffffff\n      and\n      dup2\n      mstore\n      0x20\n      add\n      swap1\n      dup2\n      mstore\n      0x20\n      add\n      0x00\n      keccak256\n      sload\n        /* \"contracts/SimpleMemeToken.sol\":17325:17335  maxDailyTx */\n      sload(0x13)\n        /* \"contracts/SimpleMemeToken.sol\":17325:17356  maxDailyTx - dailyTxCount[user] */\n      tag_313\n      swap2\n      swap1\n      tag_244\n      jump\t// in\n    tag_313:\n        /* \"contracts/SimpleMemeToken.sol\":17318:17356  return maxDailyTx - dailyTxCount[user] */\n      swap2\n      pop\n      pop\n        /* \"contracts/SimpleMemeToken.sol\":16947:17380  function getRemainingDailyTx(address user) public view returns (uint256) {... */\n    tag_309:\n      swap2\n      swap1\n      pop\n      jump\t// out\n        /* \"contracts/SimpleMemeToken.sol\":1073:1102  uint256 public buyTaxRate = 5 */\n    tag_120:\n      sload(0x06)\n      dup2\n      jump\t// out\n        /* \"contracts/SimpleMemeToken.sol\":11928:13282  function sellTokens(uint256 tokenAmount) public {... */\n    tag_125:\n        /* \"contracts/SimpleMemeToken.sol\":12008:12009  0 */\n      0x00\n        /* \"contracts/SimpleMemeToken.sol\":11994:12005  tokenAmount */\n      dup2\n        /* \"contracts/SimpleMemeToken.sol\":11994:12009  tokenAmount > 0 */\n      gt\n        /* \"contracts/SimpleMemeToken.sol\":11986:12043  require(tokenAmount > 0, \"Amount must be greater than 0\") */\n      tag_315\n      jumpi\n      mload(0x40)\n      0x08c379a000000000000000000000000000000000000000000000000000000000\n      dup2\n      mstore\n      0x04\n      add\n      tag_316\n      swap1\n      tag_317\n      jump\t// in\n    tag_316:\n      mload(0x40)\n      dup1\n      swap2\n      sub\n      swap1\n      revert\n    tag_315:\n        /* \"contracts/SimpleMemeToken.sol\":12086:12097  tokenAmount */\n      dup1\n        /* \"contracts/SimpleMemeToken.sol\":12061:12070  balanceOf */\n      0x04\n        /* \"contracts/SimpleMemeToken.sol\":12061:12082  balanceOf[msg.sender] */\n      0x00\n        /* \"contracts/SimpleMemeToken.sol\":12071:12081  msg.sender */\n      caller\n        /* \"contracts/SimpleMemeToken.sol\":12061:12082  balanceOf[msg.sender] */\n      0xffffffffffffffffffffffffffffffffffffffff\n      and\n      0xffffffffffffffffffffffffffffffffffffffff\n      and\n      dup2\n      mstore\n      0x20\n      add\n      swap1\n      dup2\n      mstore\n      0x20\n      add\n      0x00\n      keccak256\n      sload\n        /* \"contracts/SimpleMemeToken.sol\":12061:12097  balanceOf[msg.sender] >= tokenAmount */\n      lt\n      iszero\n        /* \"contracts/SimpleMemeToken.sol\":12053:12119  require(balanceOf[msg.sender] >= tokenAmount, \"Not enough tokens\") */\n      tag_318\n      jumpi\n      mload(0x40)\n      0x08c379a000000000000000000000000000000000000000000000000000000000\n      dup2\n      mstore\n      0x04\n      add\n      tag_319\n      swap1\n      tag_292\n      jump\t// in\n    tag_319:\n      mload(0x40)\n      dup1\n      swap2\n      sub\n      swap1\n      revert\n    tag_318:\n        /* \"contracts/SimpleMemeToken.sol\":12155:12156  0 */\n      0x00\n        /* \"contracts/SimpleMemeToken.sol\":12137:12152  liquidityTokens */\n      sload(0x0b)\n        /* \"contracts/SimpleMemeToken.sol\":12137:12156  liquidityTokens > 0 */\n      gt\n        /* \"contracts/SimpleMemeToken.sol\":12137:12176  liquidityTokens > 0 && liquidityETH > 0 */\n      dup1\n      iszero\n      tag_320\n      jumpi\n      pop\n        /* \"contracts/SimpleMemeToken.sol\":12175:12176  0 */\n      0x00\n        /* \"contracts/SimpleMemeToken.sol\":12160:12172  liquidityETH */\n      sload(0x0c)\n        /* \"contracts/SimpleMemeToken.sol\":12160:12176  liquidityETH > 0 */\n      gt\n        /* \"contracts/SimpleMemeToken.sol\":12137:12176  liquidityTokens > 0 && liquidityETH > 0 */\n    tag_320:\n        /* \"contracts/SimpleMemeToken.sol\":12129:12193  require(liquidityTokens > 0 && liquidityETH > 0, \"No liquidity\") */\n      tag_321\n      jumpi\n      mload(0x40)\n      0x08c379a000000000000000000000000000000000000000000000000000000000\n      dup2\n      mstore\n      0x04\n      add\n      tag_322\n      swap1\n      tag_323\n      jump\t// in\n    tag_322:\n      mload(0x40)\n      dup1\n      swap2\n      sub\n      swap1\n      revert\n    tag_321:\n        /* \"contracts/SimpleMemeToken.sol\":12239:12250  uint256 tax */\n      0x00\n        /* \"contracts/SimpleMemeToken.sol\":12283:12286  100 */\n      0x64\n        /* \"contracts/SimpleMemeToken.sol\":12268:12279  sellTaxRate */\n      sload(0x07)\n        /* \"contracts/SimpleMemeToken.sol\":12254:12265  tokenAmount */\n      dup4\n        /* \"contracts/SimpleMemeToken.sol\":12254:12279  tokenAmount * sellTaxRate */\n      tag_324\n      swap2\n      swap1\n      tag_280\n      jump\t// in\n    tag_324:\n        /* \"contracts/SimpleMemeToken.sol\":12253:12286  (tokenAmount * sellTaxRate) / 100 */\n      tag_325\n      swap2\n      swap1\n      tag_282\n      jump\t// in\n    tag_325:\n        /* \"contracts/SimpleMemeToken.sol\":12239:12286  uint256 tax = (tokenAmount * sellTaxRate) / 100 */\n      swap1\n      pop\n        /* \"contracts/SimpleMemeToken.sol\":12296:12318  uint256 tokensAfterTax */\n      0x00\n        /* \"contracts/SimpleMemeToken.sol\":12335:12338  tax */\n      dup2\n        /* \"contracts/SimpleMemeToken.sol\":12321:12332  tokenAmount */\n      dup4\n        /* \"contracts/SimpleMemeToken.sol\":12321:12338  tokenAmount - tax */\n      tag_326\n      swap2\n      swap1\n      tag_244\n      jump\t// in\n    tag_326:\n        /* \"contracts/SimpleMemeToken.sol\":12296:12338  uint256 tokensAfterTax = tokenAmount - tax */\n      swap1\n      pop\n        /* \"contracts/SimpleMemeToken.sol\":12408:12417  uint256 k */\n      0x00\n        /* \"contracts/SimpleMemeToken.sol\":12438:12450  liquidityETH */\n      sload(0x0c)\n        /* \"contracts/SimpleMemeToken.sol\":12420:12435  liquidityTokens */\n      sload(0x0b)\n        /* \"contracts/SimpleMemeToken.sol\":12420:12450  liquidityTokens * liquidityETH */\n      tag_327\n      swap2\n      swap1\n      tag_280\n      jump\t// in\n    tag_327:\n        /* \"contracts/SimpleMemeToken.sol\":12408:12450  uint256 k = liquidityTokens * liquidityETH */\n      swap1\n      pop\n        /* \"contracts/SimpleMemeToken.sol\":12460:12486  uint256 newLiquidityTokens */\n      0x00\n        /* \"contracts/SimpleMemeToken.sol\":12507:12521  tokensAfterTax */\n      dup3\n        /* \"contracts/SimpleMemeToken.sol\":12489:12504  liquidityTokens */\n      sload(0x0b)\n        /* \"contracts/SimpleMemeToken.sol\":12489:12521  liquidityTokens + tokensAfterTax */\n      tag_328\n      swap2\n      swap1\n      tag_274\n      jump\t// in\n    tag_328:\n        /* \"contracts/SimpleMemeToken.sol\":12460:12521  uint256 newLiquidityTokens = liquidityTokens + tokensAfterTax */\n      swap1\n      pop\n        /* \"contracts/SimpleMemeToken.sol\":12531:12554  uint256 newLiquidityETH */\n      0x00\n        /* \"contracts/SimpleMemeToken.sol\":12561:12579  newLiquidityTokens */\n      dup2\n        /* \"contracts/SimpleMemeToken.sol\":12557:12558  k */\n      dup4\n        /* \"contracts/SimpleMemeToken.sol\":12557:12579  k / newLiquidityTokens */\n      tag_329\n      swap2\n      swap1\n      tag_282\n      jump\t// in\n    tag_329:\n        /* \"contracts/SimpleMemeToken.sol\":12531:12579  uint256 newLiquidityETH = k / newLiquidityTokens */\n      swap1\n      pop\n        /* \"contracts/SimpleMemeToken.sol\":12589:12606  uint256 ethAmount */\n      0x00\n        /* \"contracts/SimpleMemeToken.sol\":12624:12639  newLiquidityETH */\n      dup2\n        /* \"contracts/SimpleMemeToken.sol\":12609:12621  liquidityETH */\n      sload(0x0c)\n        /* \"contracts/SimpleMemeToken.sol\":12609:12639  liquidityETH - newLiquidityETH */\n      tag_330\n      swap2\n      swap1\n      tag_244\n      jump\t// in\n    tag_330:\n        /* \"contracts/SimpleMemeToken.sol\":12589:12639  uint256 ethAmount = liquidityETH - newLiquidityETH */\n      swap1\n      pop\n        /* \"contracts/SimpleMemeToken.sol\":12678:12679  0 */\n      0x00\n        /* \"contracts/SimpleMemeToken.sol\":12666:12675  ethAmount */\n      dup2\n        /* \"contracts/SimpleMemeToken.sol\":12666:12679  ethAmount > 0 */\n      gt\n        /* \"contracts/SimpleMemeToken.sol\":12658:12704  require(ethAmount > 0, \"ETH amount too small\") */\n      tag_331\n      jumpi\n      mload(0x40)\n      0x08c379a000000000000000000000000000000000000000000000000000000000\n      dup2\n      mstore\n      0x04\n      add\n      tag_332\n      swap1\n      tag_333\n      jump\t// in\n    tag_332:\n      mload(0x40)\n      dup1\n      swap2\n      sub\n      swap1\n      revert\n    tag_331:\n        /* \"contracts/SimpleMemeToken.sol\":12747:12756  ethAmount */\n      dup1\n        /* \"contracts/SimpleMemeToken.sol\":12722:12743  address(this).balance */\n      selfbalance\n        /* \"contracts/SimpleMemeToken.sol\":12722:12756  address(this).balance >= ethAmount */\n      lt\n      iszero\n        /* \"contracts/SimpleMemeToken.sol\":12714:12783  require(address(this).balance >= ethAmount, \"Not enough ETH in pool\") */\n      tag_334\n      jumpi\n      mload(0x40)\n      0x08c379a000000000000000000000000000000000000000000000000000000000\n      dup2\n      mstore\n      0x04\n      add\n      tag_335\n      swap1\n      tag_336\n      jump\t// in\n    tag_335:\n      mload(0x40)\n      dup1\n      swap2\n      sub\n      swap1\n      revert\n    tag_334:\n        /* \"contracts/SimpleMemeToken.sol\":12850:12868  newLiquidityTokens */\n      dup3\n        /* \"contracts/SimpleMemeToken.sol\":12832:12847  liquidityTokens */\n      0x0b\n        /* \"contracts/SimpleMemeToken.sol\":12832:12868  liquidityTokens = newLiquidityTokens */\n      dup2\n      swap1\n      sstore\n      pop\n        /* \"contracts/SimpleMemeToken.sol\":12893:12908  newLiquidityETH */\n      dup2\n        /* \"contracts/SimpleMemeToken.sol\":12878:12890  liquidityETH */\n      0x0c\n        /* \"contracts/SimpleMemeToken.sol\":12878:12908  liquidityETH = newLiquidityETH */\n      dup2\n      swap1\n      sstore\n      pop\n        /* \"contracts/SimpleMemeToken.sol\":12990:13001  tokenAmount */\n      dup7\n        /* \"contracts/SimpleMemeToken.sol\":12965:12974  balanceOf */\n      0x04\n        /* \"contracts/SimpleMemeToken.sol\":12965:12986  balanceOf[msg.sender] */\n      0x00\n        /* \"contracts/SimpleMemeToken.sol\":12975:12985  msg.sender */\n      caller\n        /* \"contracts/SimpleMemeToken.sol\":12965:12986  balanceOf[msg.sender] */\n      0xffffffffffffffffffffffffffffffffffffffff\n      and\n      0xffffffffffffffffffffffffffffffffffffffff\n      and\n      dup2\n      mstore\n      0x20\n      add\n      swap1\n      dup2\n      mstore\n      0x20\n      add\n      0x00\n      keccak256\n      0x00\n        /* \"contracts/SimpleMemeToken.sol\":12965:13001  balanceOf[msg.sender] -= tokenAmount */\n      dup3\n      dup3\n      sload\n      tag_337\n      swap2\n      swap1\n      tag_244\n      jump\t// in\n    tag_337:\n      swap3\n      pop\n      pop\n      dup2\n      swap1\n      sstore\n      pop\n        /* \"contracts/SimpleMemeToken.sol\":13039:13050  tokenAmount */\n      dup7\n        /* \"contracts/SimpleMemeToken.sol\":13011:13020  balanceOf */\n      0x04\n        /* \"contracts/SimpleMemeToken.sol\":13011:13035  balanceOf[address(this)] */\n      0x00\n        /* \"contracts/SimpleMemeToken.sol\":13029:13033  this */\n      address\n        /* \"contracts/SimpleMemeToken.sol\":13011:13035  balanceOf[address(this)] */\n      0xffffffffffffffffffffffffffffffffffffffff\n      and\n      0xffffffffffffffffffffffffffffffffffffffff\n      and\n      dup2\n      mstore\n      0x20\n      add\n      swap1\n      dup2\n      mstore\n      0x20\n      add\n      0x00\n      keccak256\n      0x00\n        /* \"contracts/SimpleMemeToken.sol\":13011:13050  balanceOf[address(this)] += tokenAmount */\n      dup3\n      dup3\n      sload\n      tag_338\n      swap2\n      swap1\n      tag_274\n      jump\t// in\n    tag_338:\n      swap3\n      pop\n      pop\n      dup2\n      swap1\n      sstore\n      pop\n        /* \"contracts/SimpleMemeToken.sol\":13077:13080  tax */\n      dup6\n        /* \"contracts/SimpleMemeToken.sol\":13060:13073  collectedFees */\n      0x0a\n      0x00\n        /* \"contracts/SimpleMemeToken.sol\":13060:13080  collectedFees += tax */\n      dup3\n      dup3\n      sload\n      tag_339\n      swap2\n      swap1\n      tag_274\n      jump\t// in\n    tag_339:\n      swap3\n      pop\n      pop\n      dup2\n      swap1\n      sstore\n      pop\n        /* \"contracts/SimpleMemeToken.sol\":13128:13138  msg.sender */\n      caller\n        /* \"contracts/SimpleMemeToken.sol\":13120:13148  payable(msg.sender).transfer */\n      0xffffffffffffffffffffffffffffffffffffffff\n      and\n        /* \"contracts/SimpleMemeToken.sol\":13120:13159  payable(msg.sender).transfer(ethAmount) */\n      0x08fc\n        /* \"contracts/SimpleMemeToken.sol\":13149:13158  ethAmount */\n      dup3\n        /* \"contracts/SimpleMemeToken.sol\":13120:13159  payable(msg.sender).transfer(ethAmount) */\n      swap1\n      dup2\n      iszero\n      mul\n      swap1\n      mload(0x40)\n      0x00\n      mload(0x40)\n      dup1\n      dup4\n      sub\n      dup2\n      dup6\n      dup9\n      dup9\n      call\n      swap4\n      pop\n      pop\n      pop\n      pop\n      iszero\n      dup1\n      iszero\n      tag_341\n      jumpi\n      returndatacopy(0x00, 0x00, returndatasize)\n      revert(0x00, returndatasize)\n    tag_341:\n      pop\n        /* \"contracts/SimpleMemeToken.sol\":13212:13216  this */\n      address\n        /* \"contracts/SimpleMemeToken.sol\":13183:13231  Transfer(msg.sender, address(this), tokenAmount) */\n      0xffffffffffffffffffffffffffffffffffffffff\n      and\n        /* \"contracts/SimpleMemeToken.sol\":13192:13202  msg.sender */\n      caller\n        /* \"contracts/SimpleMemeToken.sol\":13183:13231  Transfer(msg.sender, address(this), tokenAmount) */\n      0xffffffffffffffffffffffffffffffffffffffff\n      and\n      0xddf252ad1be2c89b69c2b068fc378daa952ba7f163c4a11628f55a4df523b3ef\n        /* \"contracts/SimpleMemeToken.sol\":13219:13230  tokenAmount */\n      dup10\n        /* \"contracts/SimpleMemeToken.sol\":13183:13231  Transfer(msg.sender, address(this), tokenAmount) */\n      mload(0x40)\n      tag_342\n      swap2\n      swap1\n      tag_67\n      jump\t// in\n    tag_342:\n      mload(0x40)\n      dup1\n      swap2\n      sub\n      swap1\n      log3\n        /* \"contracts/SimpleMemeToken.sol\":13259:13269  msg.sender */\n      caller\n        /* \"contracts/SimpleMemeToken.sol\":13246:13275  TaxCollected(msg.sender, tax) */\n      0xffffffffffffffffffffffffffffffffffffffff\n      and\n      0x7f1b726f82f7a14636a7a5932448f1bce683188520ba3150fd8423989353ebf2\n        /* \"contracts/SimpleMemeToken.sol\":13271:13274  tax */\n      dup8\n        /* \"contracts/SimpleMemeToken.sol\":13246:13275  TaxCollected(msg.sender, tax) */\n      mload(0x40)\n      tag_343\n      swap2\n      swap1\n      tag_67\n      jump\t// in\n    tag_343:\n      mload(0x40)\n      dup1\n      swap2\n      sub\n      swap1\n      log2\n        /* \"contracts/SimpleMemeToken.sol\":11976:13282  {... */\n      pop\n      pop\n      pop\n      pop\n      pop\n      pop\n        /* \"contracts/SimpleMemeToken.sol\":11928:13282  function sellTokens(uint256 tokenAmount) public {... */\n      pop\n      jump\t// out\n        /* \"contracts/SimpleMemeToken.sol\":734:778  mapping(address => uint256) public balanceOf */\n    tag_129:\n      mstore(0x20, 0x04)\n      dup1\n      0x00\n      mstore\n      keccak256(0x00, 0x40)\n      0x00\n      swap2\n      pop\n      swap1\n      pop\n      sload\n      dup2\n      jump\t// out\n        /* \"contracts/SimpleMemeToken.sol\":15327:15477  function setMaxDailyTx(uint256 _maxDaily) public onlyOwner {... */\n    tag_134:\n        /* \"contracts/SimpleMemeToken.sol\":3332:3337  owner */\n      0x15\n      0x00\n      swap1\n      sload\n      swap1\n      0x0100\n      exp\n      swap1\n      div\n      0xffffffffffffffffffffffffffffffffffffffff\n      and\n        /* \"contracts/SimpleMemeToken.sol\":3318:3337  msg.sender == owner */\n      0xffffffffffffffffffffffffffffffffffffffff\n      and\n        /* \"contracts/SimpleMemeToken.sol\":3318:3328  msg.sender */\n      caller\n        /* \"contracts/SimpleMemeToken.sol\":3318:3337  msg.sender == owner */\n      0xffffffffffffffffffffffffffffffffffffffff\n      and\n      eq\n        /* \"contracts/SimpleMemeToken.sol\":3310:3361  require(msg.sender == owner, \"Only owner can call\") */\n      tag_345\n      jumpi\n      mload(0x40)\n      0x08c379a000000000000000000000000000000000000000000000000000000000\n      dup2\n      mstore\n      0x04\n      add\n      tag_346\n      swap1\n      tag_250\n      jump\t// in\n    tag_346:\n      mload(0x40)\n      dup1\n      swap2\n      sub\n      swap1\n      revert\n    tag_345:\n        /* \"contracts/SimpleMemeToken.sol\":15417:15418  5 */\n      0x05\n        /* \"contracts/SimpleMemeToken.sol\":15404:15413  _maxDaily */\n      dup2\n        /* \"contracts/SimpleMemeToken.sol\":15404:15418  _maxDaily >= 5 */\n      lt\n      iszero\n        /* \"contracts/SimpleMemeToken.sol\":15396:15438  require(_maxDaily >= 5, \"Too restrictive\") */\n      tag_348\n      jumpi\n      mload(0x40)\n      0x08c379a000000000000000000000000000000000000000000000000000000000\n      dup2\n      mstore\n      0x04\n      add\n      tag_349\n      swap1\n      tag_350\n      jump\t// in\n    tag_349:\n      mload(0x40)\n      dup1\n      swap2\n      sub\n      swap1\n      revert\n    tag_348:\n        /* \"contracts/SimpleMemeToken.sol\":15461:15470  _maxDaily */\n      dup1\n        /* \"contracts/SimpleMemeToken.sol\":15448:15458  maxDailyTx */\n      0x13\n        /* \"contracts/SimpleMemeToken.sol\":15448:15470  maxDailyTx = _maxDaily */\n      dup2\n      swap1\n      sstore\n      pop\n        /* \"contracts/SimpleMemeToken.sol\":15327:15477  function setMaxDailyTx(uint256 _maxDaily) public onlyOwner {... */\n      pop\n      jump\t// out\n        /* \"contracts/SimpleMemeToken.sol\":1754:1789  uint256 public totalLiquidityShares */\n    tag_137:\n      sload(0x0e)\n      dup2\n      jump\t// out\n        /* \"contracts/SimpleMemeToken.sol\":1912:1955  uint256 public maxTxAmount = 10000 * 10**18 */\n    tag_141:\n      sload(0x0f)\n      dup2\n      jump\t// out\n        /* \"contracts/SimpleMemeToken.sol\":2555:2575  address public owner */\n    tag_145:\n      0x15\n      0x00\n      swap1\n      sload\n      swap1\n      0x0100\n      exp\n      swap1\n      div\n      0xffffffffffffffffffffffffffffffffffffffff\n      and\n      dup2\n      jump\t// out\n        /* \"contracts/SimpleMemeToken.sol\":1343:1371  uint256 public collectedFees */\n    tag_150:\n      sload(0x0a)\n      dup2\n      jump\t// out\n        /* \"contracts/SimpleMemeToken.sol\":16338:16504  function setFeeWallet(address newFeeWallet) public onlyOwner {... */\n    tag_155:\n        /* \"contracts/SimpleMemeToken.sol\":3332:3337  owner */\n      0x15\n      0x00\n      swap1\n      sload\n      swap1\n      0x0100\n      exp\n      swap1\n      div\n      0xffffffffffffffffffffffffffffffffffffffff\n      and\n        /* \"contracts/SimpleMemeToken.sol\":3318:3337  msg.sender == owner */\n      0xffffffffffffffffffffffffffffffffffffffff\n      and\n        /* \"contracts/SimpleMemeToken.sol\":3318:3328  msg.sender */\n      caller\n        /* \"contracts/SimpleMemeToken.sol\":3318:3337  msg.sender == owner */\n      0xffffffffffffffffffffffffffffffffffffffff\n      and\n      eq\n        /* \"contracts/SimpleMemeToken.sol\":3310:3361  require(msg.sender == owner, \"Only owner can call\") */\n      tag_352\n      jumpi\n      mload(0x40)\n      0x08c379a000000000000000000000000000000000000000000000000000000000\n      dup2\n      mstore\n      0x04\n      add\n      tag_353\n      swap1\n      tag_250\n      jump\t// in\n    tag_353:\n      mload(0x40)\n      dup1\n      swap2\n      sub\n      swap1\n      revert\n    tag_352:\n        /* \"contracts/SimpleMemeToken.sol\":16441:16442  0 */\n      0x00\n        /* \"contracts/SimpleMemeToken.sol\":16417:16443  newFeeWallet != address(0) */\n      0xffffffffffffffffffffffffffffffffffffffff\n      and\n        /* \"contracts/SimpleMemeToken.sol\":16417:16429  newFeeWallet */\n      dup2\n        /* \"contracts/SimpleMemeToken.sol\":16417:16443  newFeeWallet != address(0) */\n      0xffffffffffffffffffffffffffffffffffffffff\n      and\n      sub\n        /* \"contracts/SimpleMemeToken.sol\":16409:16463  require(newFeeWallet != address(0), \"Invalid address\") */\n      tag_355\n      jumpi\n      mload(0x40)\n      0x08c379a000000000000000000000000000000000000000000000000000000000\n      dup2\n      mstore\n      0x04\n      add\n      tag_356\n      swap1\n      tag_357\n      jump\t// in\n    tag_356:\n      mload(0x40)\n      dup1\n      swap2\n      sub\n      swap1\n      revert\n    tag_355:\n        /* \"contracts/SimpleMemeToken.sol\":16485:16497  newFeeWallet */\n      dup1\n        /* \"contracts/SimpleMemeToken.sol\":16473:16482  feeWallet */\n      0x09\n      0x00\n        /* \"contracts/SimpleMemeToken.sol\":16473:16497  feeWallet = newFeeWallet */\n      0x0100\n      exp\n      dup2\n      sload\n      dup2\n      0xffffffffffffffffffffffffffffffffffffffff\n      mul\n      not\n      and\n      swap1\n      dup4\n      0xffffffffffffffffffffffffffffffffffffffff\n      and\n      mul\n      or\n      swap1\n      sstore\n      pop\n        /* \"contracts/SimpleMemeToken.sol\":16338:16504  function setFeeWallet(address newFeeWallet) public onlyOwner {... */\n      pop\n      jump\t// out\n        /* \"contracts/SimpleMemeToken.sol\":1564:1591  uint256 public liquidityETH */\n    tag_158:\n      sload(0x0c)\n      dup2\n      jump\t// out\n        /* \"contracts/SimpleMemeToken.sol\":416:446  string public symbol = \"SMEME\" */\n    tag_162:\n      0x01\n      dup1\n      sload\n      tag_358\n      swap1\n      tag_229\n      jump\t// in\n    tag_358:\n      dup1\n      0x1f\n      add\n      0x20\n      dup1\n      swap2\n      div\n      mul\n      0x20\n      add\n      mload(0x40)\n      swap1\n      dup2\n      add\n      0x40\n      mstore\n      dup1\n      swap3\n      swap2\n      swap1\n      dup2\n      dup2\n      mstore\n      0x20\n      add\n      dup3\n      dup1\n      sload\n      tag_359\n      swap1\n      tag_229\n      jump\t// in\n    tag_359:\n      dup1\n      iszero\n      tag_360\n      jumpi\n      dup1\n      0x1f\n      lt\n      tag_361\n      jumpi\n      0x0100\n      dup1\n      dup4\n      sload\n      div\n      mul\n      dup4\n      mstore\n      swap2\n      0x20\n      add\n      swap2\n      jump(tag_360)\n    tag_361:\n      dup3\n      add\n      swap2\n      swap1\n      0x00\n      mstore\n      keccak256(0x00, 0x20)\n      swap1\n    tag_362:\n      dup2\n      sload\n      dup2\n      mstore\n      swap1\n      0x01\n      add\n      swap1\n      0x20\n      add\n      dup1\n      dup4\n      gt\n      tag_362\n      jumpi\n      dup3\n      swap1\n      sub\n      0x1f\n      and\n      dup3\n      add\n      swap2\n    tag_360:\n      pop\n      pop\n      pop\n      pop\n      pop\n      dup2\n      jump\t// out\n        /* \"contracts/SimpleMemeToken.sol\":9326:10454  function removeLiquidity(uint256 shares) public {... */\n    tag_167:\n        /* \"contracts/SimpleMemeToken.sol\":9401:9402  0 */\n      0x00\n        /* \"contracts/SimpleMemeToken.sol\":9392:9398  shares */\n      dup2\n        /* \"contracts/SimpleMemeToken.sol\":9392:9402  shares > 0 */\n      gt\n        /* \"contracts/SimpleMemeToken.sol\":9384:9436  require(shares > 0, \"Shares must be greater than 0\") */\n      tag_364\n      jumpi\n      mload(0x40)\n      0x08c379a000000000000000000000000000000000000000000000000000000000\n      dup2\n      mstore\n      0x04\n      add\n      tag_365\n      swap1\n      tag_299\n      jump\t// in\n    tag_365:\n      mload(0x40)\n      dup1\n      swap2\n      sub\n      swap1\n      revert\n    tag_364:\n        /* \"contracts/SimpleMemeToken.sol\":9485:9491  shares */\n      dup1\n        /* \"contracts/SimpleMemeToken.sol\":9454:9469  liquidityShares */\n      0x0d\n        /* \"contracts/SimpleMemeToken.sol\":9454:9481  liquidityShares[msg.sender] */\n      0x00\n        /* \"contracts/SimpleMemeToken.sol\":9470:9480  msg.sender */\n      caller\n        /* \"contracts/SimpleMemeToken.sol\":9454:9481  liquidityShares[msg.sender] */\n      0xffffffffffffffffffffffffffffffffffffffff\n      and\n      0xffffffffffffffffffffffffffffffffffffffff\n      and\n      dup2\n      mstore\n      0x20\n      add\n      swap1\n      dup2\n      mstore\n      0x20\n      add\n      0x00\n      keccak256\n      sload\n        /* \"contracts/SimpleMemeToken.sol\":9454:9491  liquidityShares[msg.sender] >= shares */\n      lt\n      iszero\n        /* \"contracts/SimpleMemeToken.sol\":9446:9513  require(liquidityShares[msg.sender] >= shares, \"Not enough shares\") */\n      tag_366\n      jumpi\n      mload(0x40)\n      0x08c379a000000000000000000000000000000000000000000000000000000000\n      dup2\n      mstore\n      0x04\n      add\n      tag_367\n      swap1\n      tag_368\n      jump\t// in\n    tag_367:\n      mload(0x40)\n      dup1\n      swap2\n      sub\n      swap1\n      revert\n    tag_366:\n        /* \"contracts/SimpleMemeToken.sol\":9554:9555  0 */\n      0x00\n        /* \"contracts/SimpleMemeToken.sol\":9531:9551  totalLiquidityShares */\n      sload(0x0e)\n        /* \"contracts/SimpleMemeToken.sol\":9531:9555  totalLiquidityShares > 0 */\n      gt\n        /* \"contracts/SimpleMemeToken.sol\":9523:9572  require(totalLiquidityShares > 0, \"No liquidity\") */\n      tag_369\n      jumpi\n      mload(0x40)\n      0x08c379a000000000000000000000000000000000000000000000000000000000\n      dup2\n      mstore\n      0x04\n      add\n      tag_370\n      swap1\n      tag_323\n      jump\t// in\n    tag_370:\n      mload(0x40)\n      dup1\n      swap2\n      sub\n      swap1\n      revert\n    tag_369:\n        /* \"contracts/SimpleMemeToken.sol\":9642:9661  uint256 tokenAmount */\n      0x00\n        /* \"contracts/SimpleMemeToken.sol\":9693:9713  totalLiquidityShares */\n      sload(0x0e)\n        /* \"contracts/SimpleMemeToken.sol\":9674:9689  liquidityTokens */\n      sload(0x0b)\n        /* \"contracts/SimpleMemeToken.sol\":9665:9671  shares */\n      dup4\n        /* \"contracts/SimpleMemeToken.sol\":9665:9689  shares * liquidityTokens */\n      tag_371\n      swap2\n      swap1\n      tag_280\n      jump\t// in\n    tag_371:\n        /* \"contracts/SimpleMemeToken.sol\":9664:9713  (shares * liquidityTokens) / totalLiquidityShares */\n      tag_372\n      swap2\n      swap1\n      tag_282\n      jump\t// in\n    tag_372:\n        /* \"contracts/SimpleMemeToken.sol\":9642:9713  uint256 tokenAmount = (shares * liquidityTokens) / totalLiquidityShares */\n      swap1\n      pop\n        /* \"contracts/SimpleMemeToken.sol\":9723:9740  uint256 ethAmount */\n      0x00\n        /* \"contracts/SimpleMemeToken.sol\":9769:9789  totalLiquidityShares */\n      sload(0x0e)\n        /* \"contracts/SimpleMemeToken.sol\":9753:9765  liquidityETH */\n      sload(0x0c)\n        /* \"contracts/SimpleMemeToken.sol\":9744:9750  shares */\n      dup5\n        /* \"contracts/SimpleMemeToken.sol\":9744:9765  shares * liquidityETH */\n      tag_373\n      swap2\n      swap1\n      tag_280\n      jump\t// in\n    tag_373:\n        /* \"contracts/SimpleMemeToken.sol\":9743:9789  (shares * liquidityETH) / totalLiquidityShares */\n      tag_374\n      swap2\n      swap1\n      tag_282\n      jump\t// in\n    tag_374:\n        /* \"contracts/SimpleMemeToken.sol\":9723:9789  uint256 ethAmount = (shares * liquidityETH) / totalLiquidityShares */\n      swap1\n      pop\n        /* \"contracts/SimpleMemeToken.sol\":9830:9831  0 */\n      0x00\n        /* \"contracts/SimpleMemeToken.sol\":9816:9827  tokenAmount */\n      dup3\n        /* \"contracts/SimpleMemeToken.sol\":9816:9831  tokenAmount > 0 */\n      gt\n        /* \"contracts/SimpleMemeToken.sol\":9816:9848  tokenAmount > 0 && ethAmount > 0 */\n      dup1\n      iszero\n      tag_375\n      jumpi\n      pop\n        /* \"contracts/SimpleMemeToken.sol\":9847:9848  0 */\n      0x00\n        /* \"contracts/SimpleMemeToken.sol\":9835:9844  ethAmount */\n      dup2\n        /* \"contracts/SimpleMemeToken.sol\":9835:9848  ethAmount > 0 */\n      gt\n        /* \"contracts/SimpleMemeToken.sol\":9816:9848  tokenAmount > 0 && ethAmount > 0 */\n    tag_375:\n        /* \"contracts/SimpleMemeToken.sol\":9808:9883  require(tokenAmount > 0 && ethAmount > 0, \"Amounts must be greater than 0\") */\n      tag_376\n      jumpi\n      mload(0x40)\n      0x08c379a000000000000000000000000000000000000000000000000000000000\n      dup2\n      mstore\n      0x04\n      add\n      tag_377\n      swap1\n      tag_378\n      jump\t// in\n    tag_377:\n      mload(0x40)\n      dup1\n      swap2\n      sub\n      swap1\n      revert\n    tag_376:\n        /* \"contracts/SimpleMemeToken.sol\":9951:9962  tokenAmount */\n      dup2\n        /* \"contracts/SimpleMemeToken.sol\":9932:9947  liquidityTokens */\n      0x0b\n      0x00\n        /* \"contracts/SimpleMemeToken.sol\":9932:9962  liquidityTokens -= tokenAmount */\n      dup3\n      dup3\n      sload\n      tag_379\n      swap2\n      swap1\n      tag_244\n      jump\t// in\n    tag_379:\n      swap3\n      pop\n      pop\n      dup2\n      swap1\n      sstore\n      pop\n        /* \"contracts/SimpleMemeToken.sol\":9988:9997  ethAmount */\n      dup1\n        /* \"contracts/SimpleMemeToken.sol\":9972:9984  liquidityETH */\n      0x0c\n      0x00\n        /* \"contracts/SimpleMemeToken.sol\":9972:9997  liquidityETH -= ethAmount */\n      dup3\n      dup3\n      sload\n      tag_380\n      swap2\n      swap1\n      tag_244\n      jump\t// in\n    tag_380:\n      swap3\n      pop\n      pop\n      dup2\n      swap1\n      sstore\n      pop\n        /* \"contracts/SimpleMemeToken.sol\":10071:10077  shares */\n      dup3\n        /* \"contracts/SimpleMemeToken.sol\":10040:10055  liquidityShares */\n      0x0d\n        /* \"contracts/SimpleMemeToken.sol\":10040:10067  liquidityShares[msg.sender] */\n      0x00\n        /* \"contracts/SimpleMemeToken.sol\":10056:10066  msg.sender */\n      caller\n        /* \"contracts/SimpleMemeToken.sol\":10040:10067  liquidityShares[msg.sender] */\n      0xffffffffffffffffffffffffffffffffffffffff\n      and\n      0xffffffffffffffffffffffffffffffffffffffff\n      and\n      dup2\n      mstore\n      0x20\n      add\n      swap1\n      dup2\n      mstore\n      0x20\n      add\n      0x00\n      keccak256\n      0x00\n        /* \"contracts/SimpleMemeToken.sol\":10040:10077  liquidityShares[msg.sender] -= shares */\n      dup3\n      dup3\n      sload\n      tag_381\n      swap2\n      swap1\n      tag_244\n      jump\t// in\n    tag_381:\n      swap3\n      pop\n      pop\n      dup2\n      swap1\n      sstore\n      pop\n        /* \"contracts/SimpleMemeToken.sol\":10111:10117  shares */\n      dup3\n        /* \"contracts/SimpleMemeToken.sol\":10087:10107  totalLiquidityShares */\n      0x0e\n      0x00\n        /* \"contracts/SimpleMemeToken.sol\":10087:10117  totalLiquidityShares -= shares */\n      dup3\n      dup3\n      sload\n      tag_382\n      swap2\n      swap1\n      tag_244\n      jump\t// in\n    tag_382:\n      swap3\n      pop\n      pop\n      dup2\n      swap1\n      sstore\n      pop\n        /* \"contracts/SimpleMemeToken.sol\":10194:10205  tokenAmount */\n      dup2\n        /* \"contracts/SimpleMemeToken.sol\":10166:10175  balanceOf */\n      0x04\n        /* \"contracts/SimpleMemeToken.sol\":10166:10190  balanceOf[address(this)] */\n      0x00\n        /* \"contracts/SimpleMemeToken.sol\":10184:10188  this */\n      address\n        /* \"contracts/SimpleMemeToken.sol\":10166:10190  balanceOf[address(this)] */\n      0xffffffffffffffffffffffffffffffffffffffff\n      and\n      0xffffffffffffffffffffffffffffffffffffffff\n      and\n      dup2\n      mstore\n      0x20\n      add\n      swap1\n      dup2\n      mstore\n      0x20\n      add\n      0x00\n      keccak256\n      0x00\n        /* \"contracts/SimpleMemeToken.sol\":10166:10205  balanceOf[address(this)] -= tokenAmount */\n      dup3\n      dup3\n      sload\n      tag_383\n      swap2\n      swap1\n      tag_244\n      jump\t// in\n    tag_383:\n      swap3\n      pop\n      pop\n      dup2\n      swap1\n      sstore\n      pop\n        /* \"contracts/SimpleMemeToken.sol\":10240:10251  tokenAmount */\n      dup2\n        /* \"contracts/SimpleMemeToken.sol\":10215:10224  balanceOf */\n      0x04\n        /* \"contracts/SimpleMemeToken.sol\":10215:10236  balanceOf[msg.sender] */\n      0x00\n        /* \"contracts/SimpleMemeToken.sol\":10225:10235  msg.sender */\n      caller\n        /* \"contracts/SimpleMemeToken.sol\":10215:10236  balanceOf[msg.sender] */\n      0xffffffffffffffffffffffffffffffffffffffff\n      and\n      0xffffffffffffffffffffffffffffffffffffffff\n      and\n      dup2\n      mstore\n      0x20\n      add\n      swap1\n      dup2\n      mstore\n      0x20\n      add\n      0x00\n      keccak256\n      0x00\n        /* \"contracts/SimpleMemeToken.sol\":10215:10251  balanceOf[msg.sender] += tokenAmount */\n      dup3\n      dup3\n      sload\n      tag_384\n      swap2\n      swap1\n      tag_274\n      jump\t// in\n    tag_384:\n      swap3\n      pop\n      pop\n      dup2\n      swap1\n      sstore\n      pop\n        /* \"contracts/SimpleMemeToken.sol\":10269:10279  msg.sender */\n      caller\n        /* \"contracts/SimpleMemeToken.sol\":10261:10289  payable(msg.sender).transfer */\n      0xffffffffffffffffffffffffffffffffffffffff\n      and\n        /* \"contracts/SimpleMemeToken.sol\":10261:10300  payable(msg.sender).transfer(ethAmount) */\n      0x08fc\n        /* \"contracts/SimpleMemeToken.sol\":10290:10299  ethAmount */\n      dup3\n        /* \"contracts/SimpleMemeToken.sol\":10261:10300  payable(msg.sender).transfer(ethAmount) */\n      swap1\n      dup2\n      iszero\n      mul\n      swap1\n      mload(0x40)\n      0x00\n      mload(0x40)\n      dup1\n      dup4\n      sub\n      dup2\n      dup6\n      dup9\n      dup9\n      call\n      swap4\n      pop\n      pop\n      pop\n      pop\n      iszero\n      dup1\n      iszero\n      tag_386\n      jumpi\n      returndatacopy(0x00, 0x00, returndatasize)\n      revert(0x00, returndatasize)\n    tag_386:\n      pop\n        /* \"contracts/SimpleMemeToken.sol\":10341:10351  msg.sender */\n      caller\n        /* \"contracts/SimpleMemeToken.sol\":10324:10384  LiquidityRemoved(msg.sender, tokenAmount, ethAmount, shares) */\n      0xffffffffffffffffffffffffffffffffffffffff\n      and\n      0x1dc8bb69df2b8e91fbdcbfcf93d951b3f0000f085a95fe3f7946d6161439245d\n        /* \"contracts/SimpleMemeToken.sol\":10353:10364  tokenAmount */\n      dup4\n        /* \"contracts/SimpleMemeToken.sol\":10366:10375  ethAmount */\n      dup4\n        /* \"contracts/SimpleMemeToken.sol\":10377:10383  shares */\n      dup7\n        /* \"contracts/SimpleMemeToken.sol\":10324:10384  LiquidityRemoved(msg.sender, tokenAmount, ethAmount, shares) */\n      mload(0x40)\n      tag_387\n      swap4\n      swap3\n      swap2\n      swap1\n      tag_307\n      jump\t// in\n    tag_387:\n      mload(0x40)\n      dup1\n      swap2\n      sub\n      swap1\n      log2\n        /* \"contracts/SimpleMemeToken.sol\":10423:10433  msg.sender */\n      caller\n        /* \"contracts/SimpleMemeToken.sol\":10399:10447  Transfer(address(this), msg.sender, tokenAmount) */\n      0xffffffffffffffffffffffffffffffffffffffff\n      and\n        /* \"contracts/SimpleMemeToken.sol\":10416:10420  this */\n      address\n        /* \"contracts/SimpleMemeToken.sol\":10399:10447  Transfer(address(this), msg.sender, tokenAmount) */\n      0xffffffffffffffffffffffffffffffffffffffff\n      and\n      0xddf252ad1be2c89b69c2b068fc378daa952ba7f163c4a11628f55a4df523b3ef\n        /* \"contracts/SimpleMemeToken.sol\":10435:10446  tokenAmount */\n      dup5\n        /* \"contracts/SimpleMemeToken.sol\":10399:10447  Transfer(address(this), msg.sender, tokenAmount) */\n      mload(0x40)\n      tag_388\n      swap2\n      swap1\n      tag_67\n      jump\t// in\n    tag_388:\n      mload(0x40)\n      dup1\n      swap2\n      sub\n      swap1\n      log3\n        /* \"contracts/SimpleMemeToken.sol\":9374:10454  {... */\n      pop\n      pop\n        /* \"contracts/SimpleMemeToken.sol\":9326:10454  function removeLiquidity(uint256 shares) public {... */\n      pop\n      jump\t// out\n        /* \"contracts/SimpleMemeToken.sol\":2115:2162  mapping(address => uint256) public dailyTxCount */\n    tag_171:\n      mstore(0x20, 0x11)\n      dup1\n      0x00\n      mstore\n      keccak256(0x00, 0x40)\n      0x00\n      swap2\n      pop\n      swap1\n      pop\n      sload\n      dup2\n      jump\t// out\n        /* \"contracts/SimpleMemeToken.sol\":1670:1720  mapping(address => uint256) public liquidityShares */\n    tag_176:\n      mstore(0x20, 0x0d)\n      dup1\n      0x00\n      mstore\n      keccak256(0x00, 0x40)\n      0x00\n      swap2\n      pop\n      swap1\n      pop\n      sload\n      dup2\n      jump\t// out\n        /* \"contracts/SimpleMemeToken.sol\":2195:2240  mapping(address => uint256) public lastTxDate */\n    tag_181:\n      mstore(0x20, 0x12)\n      dup1\n      0x00\n      mstore\n      keccak256(0x00, 0x40)\n      0x00\n      swap2\n      pop\n      swap1\n      pop\n      sload\n      dup2\n      jump\t// out\n        /* \"contracts/SimpleMemeToken.sol\":4288:4413  function transfer(address to, uint256 amount) public returns (bool) {... */\n    tag_186:\n        /* \"contracts/SimpleMemeToken.sol\":4350:4354  bool */\n      0x00\n        /* \"contracts/SimpleMemeToken.sol\":4373:4406  _transfer(msg.sender, to, amount) */\n      tag_390\n        /* \"contracts/SimpleMemeToken.sol\":4383:4393  msg.sender */\n      caller\n        /* \"contracts/SimpleMemeToken.sol\":4395:4397  to */\n      dup5\n        /* \"contracts/SimpleMemeToken.sol\":4399:4405  amount */\n      dup5\n        /* \"contracts/SimpleMemeToken.sol\":4373:4382  _transfer */\n      tag_246\n        /* \"contracts/SimpleMemeToken.sol\":4373:4406  _transfer(msg.sender, to, amount) */\n      jump\t// in\n    tag_390:\n        /* \"contracts/SimpleMemeToken.sol\":4366:4406  return _transfer(msg.sender, to, amount) */\n      swap1\n      pop\n        /* \"contracts/SimpleMemeToken.sol\":4288:4413  function transfer(address to, uint256 amount) public returns (bool) {... */\n      swap3\n      swap2\n      pop\n      pop\n      jump\t// out\n        /* \"contracts/SimpleMemeToken.sol\":2010:2057  uint256 public maxWalletAmount = 20000 * 10**18 */\n    tag_190:\n      sload(0x10)\n      dup2\n      jump\t// out\n        /* \"contracts/SimpleMemeToken.sol\":1185:1219  uint256 public transferTaxRate = 2 */\n    tag_194:\n      sload(0x08)\n      dup2\n      jump\t// out\n        /* \"contracts/SimpleMemeToken.sol\":14885:15206  function setLimits(uint256 _maxTx, uint256 _maxWallet) public onlyOwner {... */\n    tag_200:\n        /* \"contracts/SimpleMemeToken.sol\":3332:3337  owner */\n      0x15\n      0x00\n      swap1\n      sload\n      swap1\n      0x0100\n      exp\n      swap1\n      div\n      0xffffffffffffffffffffffffffffffffffffffff\n      and\n        /* \"contracts/SimpleMemeToken.sol\":3318:3337  msg.sender == owner */\n      0xffffffffffffffffffffffffffffffffffffffff\n      and\n        /* \"contracts/SimpleMemeToken.sol\":3318:3328  msg.sender */\n      caller\n        /* \"contracts/SimpleMemeToken.sol\":3318:3337  msg.sender == owner */\n      0xffffffffffffffffffffffffffffffffffffffff\n      and\n      eq\n        /* \"contracts/SimpleMemeToken.sol\":3310:3361  require(msg.sender == owner, \"Only owner can call\") */\n      tag_392\n      jumpi\n      mload(0x40)\n      0x08c379a000000000000000000000000000000000000000000000000000000000\n      dup2\n      mstore\n      0x04\n      add\n      tag_393\n      swap1\n      tag_250\n      jump\t// in\n    tag_393:\n      mload(0x40)\n      dup1\n      swap2\n      sub\n      swap1\n      revert\n    tag_392:\n        /* \"contracts/SimpleMemeToken.sol\":14999:15003  1000 */\n      0x03e8\n        /* \"contracts/SimpleMemeToken.sol\":14985:14996  totalSupply */\n      sload(0x03)\n        /* \"contracts/SimpleMemeToken.sol\":14985:15003  totalSupply / 1000 */\n      tag_395\n      swap2\n      swap1\n      tag_282\n      jump\t// in\n    tag_395:\n        /* \"contracts/SimpleMemeToken.sol\":14975:14981  _maxTx */\n      dup3\n        /* \"contracts/SimpleMemeToken.sol\":14975:15003  _maxTx >= totalSupply / 1000 */\n      lt\n      iszero\n        /* \"contracts/SimpleMemeToken.sol\":14967:15022  require(_maxTx >= totalSupply / 1000, \"Max tx too low\") */\n      tag_396\n      jumpi\n      mload(0x40)\n      0x08c379a000000000000000000000000000000000000000000000000000000000\n      dup2\n      mstore\n      0x04\n      add\n      tag_397\n      swap1\n      tag_398\n      jump\t// in\n    tag_397:\n      mload(0x40)\n      dup1\n      swap2\n      sub\n      swap1\n      revert\n    tag_396:\n        /* \"contracts/SimpleMemeToken.sol\":15083:15086  100 */\n      0x64\n        /* \"contracts/SimpleMemeToken.sol\":15069:15080  totalSupply */\n      sload(0x03)\n        /* \"contracts/SimpleMemeToken.sol\":15069:15086  totalSupply / 100 */\n      tag_399\n      swap2\n      swap1\n      tag_282\n      jump\t// in\n    tag_399:\n        /* \"contracts/SimpleMemeToken.sol\":15055:15065  _maxWallet */\n      dup2\n        /* \"contracts/SimpleMemeToken.sol\":15055:15086  _maxWallet >= totalSupply / 100 */\n      lt\n      iszero\n        /* \"contracts/SimpleMemeToken.sol\":15047:15109  require(_maxWallet >= totalSupply / 100, \"Max wallet too low\") */\n      tag_400\n      jumpi\n      mload(0x40)\n      0x08c379a000000000000000000000000000000000000000000000000000000000\n      dup2\n      mstore\n      0x04\n      add\n      tag_401\n      swap1\n      tag_402\n      jump\t// in\n    tag_401:\n      mload(0x40)\n      dup1\n      swap2\n      sub\n      swap1\n      revert\n    tag_400:\n        /* \"contracts/SimpleMemeToken.sol\":15155:15161  _maxTx */\n      dup2\n        /* \"contracts/SimpleMemeToken.sol\":15141:15152  maxTxAmount */\n      0x0f\n        /* \"contracts/SimpleMemeToken.sol\":15141:15161  maxTxAmount = _maxTx */\n      dup2\n      swap1\n      sstore\n      pop\n        /* \"contracts/SimpleMemeToken.sol\":15189:15199  _maxWallet */\n      dup1\n        /* \"contracts/SimpleMemeToken.sol\":15171:15186  maxWalletAmount */\n      0x10\n        /* \"contracts/SimpleMemeToken.sol\":15171:15199  maxWalletAmount = _maxWallet */\n      dup2\n      swap1\n      sstore\n      pop\n        /* \"contracts/SimpleMemeToken.sol\":14885:15206  function setLimits(uint256 _maxTx, uint256 _maxWallet) public onlyOwner {... */\n      pop\n      pop\n      jump\t// out\n        /* \"contracts/SimpleMemeToken.sol\":2448:2490  mapping(address => bool) public isExcluded */\n    tag_204:\n      mstore(0x20, 0x14)\n      dup1\n      0x00\n      mstore\n      keccak256(0x00, 0x40)\n      0x00\n      swap2\n      pop\n      sload\n      swap1\n      0x0100\n      exp\n      swap1\n      div\n      0xff\n      and\n      dup2\n      jump\t// out\n        /* \"contracts/SimpleMemeToken.sol\":10576:11755  function buyTokens() public payable {... */\n    tag_207:\n        /* \"contracts/SimpleMemeToken.sol\":10642:10643  0 */\n      0x00\n        /* \"contracts/SimpleMemeToken.sol\":10630:10639  msg.value */\n      callvalue\n        /* \"contracts/SimpleMemeToken.sol\":10630:10643  msg.value > 0 */\n      gt\n        /* \"contracts/SimpleMemeToken.sol\":10622:10661  require(msg.value > 0, \"Must send ETH\") */\n      tag_404\n      jumpi\n      mload(0x40)\n      0x08c379a000000000000000000000000000000000000000000000000000000000\n      dup2\n      mstore\n      0x04\n      add\n      tag_405\n      swap1\n      tag_406\n      jump\t// in\n    tag_405:\n      mload(0x40)\n      dup1\n      swap2\n      sub\n      swap1\n      revert\n    tag_404:\n        /* \"contracts/SimpleMemeToken.sol\":10697:10698  0 */\n      0x00\n        /* \"contracts/SimpleMemeToken.sol\":10679:10694  liquidityTokens */\n      sload(0x0b)\n        /* \"contracts/SimpleMemeToken.sol\":10679:10698  liquidityTokens > 0 */\n      gt\n        /* \"contracts/SimpleMemeToken.sol\":10679:10718  liquidityTokens > 0 && liquidityETH > 0 */\n      dup1\n      iszero\n      tag_407\n      jumpi\n      pop\n        /* \"contracts/SimpleMemeToken.sol\":10717:10718  0 */\n      0x00\n        /* \"contracts/SimpleMemeToken.sol\":10702:10714  liquidityETH */\n      sload(0x0c)\n        /* \"contracts/SimpleMemeToken.sol\":10702:10718  liquidityETH > 0 */\n      gt\n        /* \"contracts/SimpleMemeToken.sol\":10679:10718  liquidityTokens > 0 && liquidityETH > 0 */\n    tag_407:\n        /* \"contracts/SimpleMemeToken.sol\":10671:10735  require(liquidityTokens > 0 && liquidityETH > 0, \"No liquidity\") */\n      tag_408\n      jumpi\n      mload(0x40)\n      0x08c379a000000000000000000000000000000000000000000000000000000000\n      dup2\n      mstore\n      0x04\n      add\n      tag_409\n      swap1\n      tag_323\n      jump\t// in\n    tag_409:\n      mload(0x40)\n      dup1\n      swap2\n      sub\n      swap1\n      revert\n    tag_408:\n        /* \"contracts/SimpleMemeToken.sol\":10885:10894  uint256 k */\n      0x00\n        /* \"contracts/SimpleMemeToken.sol\":10915:10927  liquidityETH */\n      sload(0x0c)\n        /* \"contracts/SimpleMemeToken.sol\":10897:10912  liquidityTokens */\n      sload(0x0b)\n        /* \"contracts/SimpleMemeToken.sol\":10897:10927  liquidityTokens * liquidityETH */\n      tag_410\n      swap2\n      swap1\n      tag_280\n      jump\t// in\n    tag_410:\n        /* \"contracts/SimpleMemeToken.sol\":10885:10927  uint256 k = liquidityTokens * liquidityETH */\n      swap1\n      pop\n        /* \"contracts/SimpleMemeToken.sol\":10937:10960  uint256 newLiquidityETH */\n      0x00\n        /* \"contracts/SimpleMemeToken.sol\":10978:10987  msg.value */\n      callvalue\n        /* \"contracts/SimpleMemeToken.sol\":10963:10975  liquidityETH */\n      sload(0x0c)\n        /* \"contracts/SimpleMemeToken.sol\":10963:10987  liquidityETH + msg.value */\n      tag_411\n      swap2\n      swap1\n      tag_274\n      jump\t// in\n    tag_411:\n        /* \"contracts/SimpleMemeToken.sol\":10937:10987  uint256 newLiquidityETH = liquidityETH + msg.value */\n      swap1\n      pop\n        /* \"contracts/SimpleMemeToken.sol\":10997:11023  uint256 newLiquidityTokens */\n      0x00\n        /* \"contracts/SimpleMemeToken.sol\":11030:11045  newLiquidityETH */\n      dup2\n        /* \"contracts/SimpleMemeToken.sol\":11026:11027  k */\n      dup4\n        /* \"contracts/SimpleMemeToken.sol\":11026:11045  k / newLiquidityETH */\n      tag_412\n      swap2\n      swap1\n      tag_282\n      jump\t// in\n    tag_412:\n        /* \"contracts/SimpleMemeToken.sol\":10997:11045  uint256 newLiquidityTokens = k / newLiquidityETH */\n      swap1\n      pop\n        /* \"contracts/SimpleMemeToken.sol\":11055:11074  uint256 tokenAmount */\n      0x00\n        /* \"contracts/SimpleMemeToken.sol\":11095:11113  newLiquidityTokens */\n      dup2\n        /* \"contracts/SimpleMemeToken.sol\":11077:11092  liquidityTokens */\n      sload(0x0b)\n        /* \"contracts/SimpleMemeToken.sol\":11077:11113  liquidityTokens - newLiquidityTokens */\n      tag_413\n      swap2\n      swap1\n      tag_244\n      jump\t// in\n    tag_413:\n        /* \"contracts/SimpleMemeToken.sol\":11055:11113  uint256 tokenAmount = liquidityTokens - newLiquidityTokens */\n      swap1\n      pop\n        /* \"contracts/SimpleMemeToken.sol\":11159:11170  uint256 tax */\n      0x00\n        /* \"contracts/SimpleMemeToken.sol\":11202:11205  100 */\n      0x64\n        /* \"contracts/SimpleMemeToken.sol\":11188:11198  buyTaxRate */\n      sload(0x06)\n        /* \"contracts/SimpleMemeToken.sol\":11174:11185  tokenAmount */\n      dup4\n        /* \"contracts/SimpleMemeToken.sol\":11174:11198  tokenAmount * buyTaxRate */\n      tag_414\n      swap2\n      swap1\n      tag_280\n      jump\t// in\n    tag_414:\n        /* \"contracts/SimpleMemeToken.sol\":11173:11205  (tokenAmount * buyTaxRate) / 100 */\n      tag_415\n      swap2\n      swap1\n      tag_282\n      jump\t// in\n    tag_415:\n        /* \"contracts/SimpleMemeToken.sol\":11159:11205  uint256 tax = (tokenAmount * buyTaxRate) / 100 */\n      swap1\n      pop\n        /* \"contracts/SimpleMemeToken.sol\":11215:11237  uint256 tokensAfterTax */\n      0x00\n        /* \"contracts/SimpleMemeToken.sol\":11254:11257  tax */\n      dup2\n        /* \"contracts/SimpleMemeToken.sol\":11240:11251  tokenAmount */\n      dup4\n        /* \"contracts/SimpleMemeToken.sol\":11240:11257  tokenAmount - tax */\n      tag_416\n      swap2\n      swap1\n      tag_244\n      jump\t// in\n    tag_416:\n        /* \"contracts/SimpleMemeToken.sol\":11215:11257  uint256 tokensAfterTax = tokenAmount - tax */\n      swap1\n      pop\n        /* \"contracts/SimpleMemeToken.sol\":11301:11302  0 */\n      0x00\n        /* \"contracts/SimpleMemeToken.sol\":11284:11298  tokensAfterTax */\n      dup2\n        /* \"contracts/SimpleMemeToken.sol\":11284:11302  tokensAfterTax > 0 */\n      gt\n        /* \"contracts/SimpleMemeToken.sol\":11276:11329  require(tokensAfterTax > 0, \"Token amount too small\") */\n      tag_417\n      jumpi\n      mload(0x40)\n      0x08c379a000000000000000000000000000000000000000000000000000000000\n      dup2\n      mstore\n      0x04\n      add\n      tag_418\n      swap1\n      tag_419\n      jump\t// in\n    tag_418:\n      mload(0x40)\n      dup1\n      swap2\n      sub\n      swap1\n      revert\n    tag_417:\n        /* \"contracts/SimpleMemeToken.sol\":11396:11414  newLiquidityTokens */\n      dup4\n        /* \"contracts/SimpleMemeToken.sol\":11378:11393  liquidityTokens */\n      0x0b\n        /* \"contracts/SimpleMemeToken.sol\":11378:11414  liquidityTokens = newLiquidityTokens */\n      dup2\n      swap1\n      sstore\n      pop\n        /* \"contracts/SimpleMemeToken.sol\":11439:11454  newLiquidityETH */\n      dup5\n        /* \"contracts/SimpleMemeToken.sol\":11424:11436  liquidityETH */\n      0x0c\n        /* \"contracts/SimpleMemeToken.sol\":11424:11454  liquidityETH = newLiquidityETH */\n      dup2\n      swap1\n      sstore\n      pop\n        /* \"contracts/SimpleMemeToken.sol\":11539:11550  tokenAmount */\n      dup3\n        /* \"contracts/SimpleMemeToken.sol\":11511:11520  balanceOf */\n      0x04\n        /* \"contracts/SimpleMemeToken.sol\":11511:11535  balanceOf[address(this)] */\n      0x00\n        /* \"contracts/SimpleMemeToken.sol\":11529:11533  this */\n      address\n        /* \"contracts/SimpleMemeToken.sol\":11511:11535  balanceOf[address(this)] */\n      0xffffffffffffffffffffffffffffffffffffffff\n      and\n      0xffffffffffffffffffffffffffffffffffffffff\n      and\n      dup2\n      mstore\n      0x20\n      add\n      swap1\n      dup2\n      mstore\n      0x20\n      add\n      0x00\n      keccak256\n      0x00\n        /* \"contracts/SimpleMemeToken.sol\":11511:11550  balanceOf[address(this)] -= tokenAmount */\n      dup3\n      dup3\n      sload\n      tag_420\n      swap2\n      swap1\n      tag_244\n      jump\t// in\n    tag_420:\n      swap3\n      pop\n      pop\n      dup2\n      swap1\n      sstore\n      pop\n        /* \"contracts/SimpleMemeToken.sol\":11585:11599  tokensAfterTax */\n      dup1\n        /* \"contracts/SimpleMemeToken.sol\":11560:11569  balanceOf */\n      0x04\n        /* \"contracts/SimpleMemeToken.sol\":11560:11581  balanceOf[msg.sender] */\n      0x00\n        /* \"contracts/SimpleMemeToken.sol\":11570:11580  msg.sender */\n      caller\n        /* \"contracts/SimpleMemeToken.sol\":11560:11581  balanceOf[msg.sender] */\n      0xffffffffffffffffffffffffffffffffffffffff\n      and\n      0xffffffffffffffffffffffffffffffffffffffff\n      and\n      dup2\n      mstore\n      0x20\n      add\n      swap1\n      dup2\n      mstore\n      0x20\n      add\n      0x00\n      keccak256\n      0x00\n        /* \"contracts/SimpleMemeToken.sol\":11560:11599  balanceOf[msg.sender] += tokensAfterTax */\n      dup3\n      dup3\n      sload\n      tag_421\n      swap2\n      swap1\n      tag_274\n      jump\t// in\n    tag_421:\n      swap3\n      pop\n      pop\n      dup2\n      swap1\n      sstore\n      pop\n        /* \"contracts/SimpleMemeToken.sol\":11626:11629  tax */\n      dup2\n        /* \"contracts/SimpleMemeToken.sol\":11609:11622  collectedFees */\n      0x0a\n      0x00\n        /* \"contracts/SimpleMemeToken.sol\":11609:11629  collectedFees += tax */\n      dup3\n      dup3\n      sload\n      tag_422\n      swap2\n      swap1\n      tag_274\n      jump\t// in\n    tag_422:\n      swap3\n      pop\n      pop\n      dup2\n      swap1\n      sstore\n      pop\n        /* \"contracts/SimpleMemeToken.sol\":11677:11687  msg.sender */\n      caller\n        /* \"contracts/SimpleMemeToken.sol\":11653:11704  Transfer(address(this), msg.sender, tokensAfterTax) */\n      0xffffffffffffffffffffffffffffffffffffffff\n      and\n        /* \"contracts/SimpleMemeToken.sol\":11670:11674  this */\n      address\n        /* \"contracts/SimpleMemeToken.sol\":11653:11704  Transfer(address(this), msg.sender, tokensAfterTax) */\n      0xffffffffffffffffffffffffffffffffffffffff\n      and\n      0xddf252ad1be2c89b69c2b068fc378daa952ba7f163c4a11628f55a4df523b3ef\n        /* \"contracts/SimpleMemeToken.sol\":11689:11703  tokensAfterTax */\n      dup4\n        /* \"contracts/SimpleMemeToken.sol\":11653:11704  Transfer(address(this), msg.sender, tokensAfterTax) */\n      mload(0x40)\n      tag_423\n      swap2\n      swap1\n      tag_67\n      jump\t// in\n    tag_423:\n      mload(0x40)\n      dup1\n      swap2\n      sub\n      swap1\n      log3\n        /* \"contracts/SimpleMemeToken.sol\":11732:11742  msg.sender */\n      caller\n        /* \"contracts/SimpleMemeToken.sol\":11719:11748  TaxCollected(msg.sender, tax) */\n      0xffffffffffffffffffffffffffffffffffffffff\n      and\n      0x7f1b726f82f7a14636a7a5932448f1bce683188520ba3150fd8423989353ebf2\n        /* \"contracts/SimpleMemeToken.sol\":11744:11747  tax */\n      dup4\n        /* \"contracts/SimpleMemeToken.sol\":11719:11748  TaxCollected(msg.sender, tax) */\n      mload(0x40)\n      tag_424\n      swap2\n      swap1\n      tag_67\n      jump\t// in\n    tag_424:\n      mload(0x40)\n      dup1\n      swap2\n      sub\n      swap1\n      log2\n        /* \"contracts/SimpleMemeToken.sol\":10612:11755  {... */\n      pop\n      pop\n      pop\n      pop\n      pop\n      pop\n        /* \"contracts/SimpleMemeToken.sol\":10576:11755  function buyTokens() public payable {... */\n      jump\t// out\n        /* \"contracts/SimpleMemeToken.sol\":910:974  mapping(address => mapping(address => uint256)) public allowance */\n    tag_212:\n      mstore(0x20, 0x05)\n      dup2\n      0x00\n      mstore\n      mstore(0x20, keccak256(0x00, 0x40))\n      dup1\n      0x00\n      mstore\n      keccak256(0x00, 0x40)\n      0x00\n      swap2\n      pop\n      swap2\n      pop\n      pop\n      sload\n      dup2\n      jump\t// out\n        /* \"contracts/SimpleMemeToken.sol\":17589:17990  function getUserLiquidityValue(address user) public view returns (uint256 tokenAmount, uint256 ethAmount) {... */\n    tag_217:\n        /* \"contracts/SimpleMemeToken.sol\":17655:17674  uint256 tokenAmount */\n      0x00\n        /* \"contracts/SimpleMemeToken.sol\":17676:17693  uint256 ethAmount */\n      0x00\n        /* \"contracts/SimpleMemeToken.sol\":17733:17734  0 */\n      0x00\n        /* \"contracts/SimpleMemeToken.sol\":17709:17729  totalLiquidityShares */\n      sload(0x0e)\n        /* \"contracts/SimpleMemeToken.sol\":17709:17734  totalLiquidityShares == 0 */\n      sub\n        /* \"contracts/SimpleMemeToken.sol\":17705:17774  if (totalLiquidityShares == 0) {... */\n      tag_426\n      jumpi\n        /* \"contracts/SimpleMemeToken.sol\":17758:17759  0 */\n      0x00\n        /* \"contracts/SimpleMemeToken.sol\":17761:17762  0 */\n      0x00\n        /* \"contracts/SimpleMemeToken.sol\":17750:17763  return (0, 0) */\n      swap2\n      pop\n      swap2\n      pop\n      jump(tag_425)\n        /* \"contracts/SimpleMemeToken.sol\":17705:17774  if (totalLiquidityShares == 0) {... */\n    tag_426:\n        /* \"contracts/SimpleMemeToken.sol\":17792:17810  uint256 userShares */\n      0x00\n        /* \"contracts/SimpleMemeToken.sol\":17813:17828  liquidityShares */\n      0x0d\n        /* \"contracts/SimpleMemeToken.sol\":17813:17834  liquidityShares[user] */\n      0x00\n        /* \"contracts/SimpleMemeToken.sol\":17829:17833  user */\n      dup6\n        /* \"contracts/SimpleMemeToken.sol\":17813:17834  liquidityShares[user] */\n      0xffffffffffffffffffffffffffffffffffffffff\n      and\n      0xffffffffffffffffffffffffffffffffffffffff\n      and\n      dup2\n      mstore\n      0x20\n      add\n      swap1\n      dup2\n      mstore\n      0x20\n      add\n      0x00\n      keccak256\n      sload\n        /* \"contracts/SimpleMemeToken.sol\":17792:17834  uint256 userShares = liquidityShares[user] */\n      swap1\n      pop\n        /* \"contracts/SimpleMemeToken.sol\":17891:17911  totalLiquidityShares */\n      sload(0x0e)\n        /* \"contracts/SimpleMemeToken.sol\":17872:17887  liquidityTokens */\n      sload(0x0b)\n        /* \"contracts/SimpleMemeToken.sol\":17859:17869  userShares */\n      dup3\n        /* \"contracts/SimpleMemeToken.sol\":17859:17887  userShares * liquidityTokens */\n      tag_427\n      swap2\n      swap1\n      tag_280\n      jump\t// in\n    tag_427:\n        /* \"contracts/SimpleMemeToken.sol\":17858:17911  (userShares * liquidityTokens) / totalLiquidityShares */\n      tag_428\n      swap2\n      swap1\n      tag_282\n      jump\t// in\n    tag_428:\n        /* \"contracts/SimpleMemeToken.sol\":17844:17911  tokenAmount = (userShares * liquidityTokens) / totalLiquidityShares */\n      swap3\n      pop\n        /* \"contracts/SimpleMemeToken.sol\":17963:17983  totalLiquidityShares */\n      sload(0x0e)\n        /* \"contracts/SimpleMemeToken.sol\":17947:17959  liquidityETH */\n      sload(0x0c)\n        /* \"contracts/SimpleMemeToken.sol\":17934:17944  userShares */\n      dup3\n        /* \"contracts/SimpleMemeToken.sol\":17934:17959  userShares * liquidityETH */\n      tag_429\n      swap2\n      swap1\n      tag_280\n      jump\t// in\n    tag_429:\n        /* \"contracts/SimpleMemeToken.sol\":17933:17983  (userShares * liquidityETH) / totalLiquidityShares */\n      tag_430\n      swap2\n      swap1\n      tag_282\n      jump\t// in\n    tag_430:\n        /* \"contracts/SimpleMemeToken.sol\":17921:17983  ethAmount = (userShares * liquidityETH) / totalLiquidityShares */\n      swap2\n      pop\n        /* \"contracts/SimpleMemeToken.sol\":17695:17990  {... */\n      pop\n        /* \"contracts/SimpleMemeToken.sol\":17589:17990  function getUserLiquidityValue(address user) public view returns (uint256 tokenAmount, uint256 ethAmount) {... */\n    tag_425:\n      swap2\n      pop\n      swap2\n      jump\t// out\n        /* \"contracts/SimpleMemeToken.sol\":1272:1296  address public feeWallet */\n    tag_222:\n      0x09\n      0x00\n      swap1\n      sload\n      swap1\n      0x0100\n      exp\n      swap1\n      div\n      0xffffffffffffffffffffffffffffffffffffffff\n      and\n      dup2\n      jump\t// out\n        /* \"contracts/SimpleMemeToken.sol\":16603:16758  function transferOwnership(address newOwner) public onlyOwner {... */\n    tag_227:\n        /* \"contracts/SimpleMemeToken.sol\":3332:3337  owner */\n      0x15\n      0x00\n      swap1\n      sload\n      swap1\n      0x0100\n      exp\n      swap1\n      div\n      0xffffffffffffffffffffffffffffffffffffffff\n      and\n        /* \"contracts/SimpleMemeToken.sol\":3318:3337  msg.sender == owner */\n      0xffffffffffffffffffffffffffffffffffffffff\n      and\n        /* \"contracts/SimpleMemeToken.sol\":3318:3328  msg.sender */\n      caller\n        /* \"contracts/SimpleMemeToken.sol\":3318:3337  msg.sender == owner */\n      0xffffffffffffffffffffffffffffffffffffffff\n      and\n      eq\n        /* \"contracts/SimpleMemeToken.sol\":3310:3361  require(msg.sender == owner, \"Only owner can call\") */\n      tag_432\n      jumpi\n      mload(0x40)\n      0x08c379a000000000000000000000000000000000000000000000000000000000\n      dup2\n      mstore\n      0x04\n      add\n      tag_433\n      swap1\n      tag_250\n      jump\t// in\n    tag_433:\n      mload(0x40)\n      dup1\n      swap2\n      sub\n      swap1\n      revert\n    tag_432:\n        /* \"contracts/SimpleMemeToken.sol\":16703:16704  0 */\n      0x00\n        /* \"contracts/SimpleMemeToken.sol\":16683:16705  newOwner != address(0) */\n      0xffffffffffffffffffffffffffffffffffffffff\n      and\n        /* \"contracts/SimpleMemeToken.sol\":16683:16691  newOwner */\n      dup2\n        /* \"contracts/SimpleMemeToken.sol\":16683:16705  newOwner != address(0) */\n      0xffffffffffffffffffffffffffffffffffffffff\n      and\n      sub\n        /* \"contracts/SimpleMemeToken.sol\":16675:16725  require(newOwner != address(0), \"Invalid address\") */\n      tag_435\n      jumpi\n      mload(0x40)\n      0x08c379a000000000000000000000000000000000000000000000000000000000\n      dup2\n      mstore\n      0x04\n      add\n      tag_436\n      swap1\n      tag_357\n      jump\t// in\n    tag_436:\n      mload(0x40)\n      dup1\n      swap2\n      sub\n      swap1\n      revert\n    tag_435:\n        /* \"contracts/SimpleMemeToken.sol\":16743:16751  newOwner */\n      dup1\n        /* \"contracts/SimpleMemeToken.sol\":16735:16740  owner */\n      0x15\n      0x00\n        /* \"contracts/SimpleMemeToken.sol\":16735:16751  owner = newOwner */\n      0x0100\n      exp\n      dup2\n      sload\n      dup2\n      0xffffffffffffffffffffffffffffffffffffffff\n      mul\n      not\n      and\n      swap1\n      dup4\n      0xffffffffffffffffffffffffffffffffffffffff\n      and\n      mul\n      or\n      swap1\n      sstore\n      pop\n        /* \"contracts/SimpleMemeToken.sol\":16603:16758  function transferOwnership(address newOwner) public onlyOwner {... */\n      pop\n      jump\t// out\n        /* \"contracts/SimpleMemeToken.sol\":5147:6960  function _transfer(address from, address to, uint256 amount) internal returns (bool) {... */\n    tag_246:\n        /* \"contracts/SimpleMemeToken.sol\":5226:5230  bool */\n      0x00\n        /* \"contracts/SimpleMemeToken.sol\":5266:5267  0 */\n      0x00\n        /* \"contracts/SimpleMemeToken.sol\":5250:5268  from != address(0) */\n      0xffffffffffffffffffffffffffffffffffffffff\n      and\n        /* \"contracts/SimpleMemeToken.sol\":5250:5254  from */\n      dup5\n        /* \"contracts/SimpleMemeToken.sol\":5250:5268  from != address(0) */\n      0xffffffffffffffffffffffffffffffffffffffff\n      and\n      sub\n        /* \"contracts/SimpleMemeToken.sol\":5242:5299  require(from != address(0), \"Transfer from zero address\") */\n      tag_438\n      jumpi\n      mload(0x40)\n      0x08c379a000000000000000000000000000000000000000000000000000000000\n      dup2\n      mstore\n      0x04\n      add\n      tag_439\n      swap1\n      tag_440\n      jump\t// in\n    tag_439:\n      mload(0x40)\n      dup1\n      swap2\n      sub\n      swap1\n      revert\n    tag_438:\n        /* \"contracts/SimpleMemeToken.sol\":5331:5332  0 */\n      0x00\n        /* \"contracts/SimpleMemeToken.sol\":5317:5333  to != address(0) */\n      0xffffffffffffffffffffffffffffffffffffffff\n      and\n        /* \"contracts/SimpleMemeToken.sol\":5317:5319  to */\n      dup4\n        /* \"contracts/SimpleMemeToken.sol\":5317:5333  to != address(0) */\n      0xffffffffffffffffffffffffffffffffffffffff\n      and\n      sub\n        /* \"contracts/SimpleMemeToken.sol\":5309:5362  require(to != address(0), \"Transfer to zero address\") */\n      tag_441\n      jumpi\n      mload(0x40)\n      0x08c379a000000000000000000000000000000000000000000000000000000000\n      dup2\n      mstore\n      0x04\n      add\n      tag_442\n      swap1\n      tag_443\n      jump\t// in\n    tag_442:\n      mload(0x40)\n      dup1\n      swap2\n      sub\n      swap1\n      revert\n    tag_441:\n        /* \"contracts/SimpleMemeToken.sol\":5389:5390  0 */\n      0x00\n        /* \"contracts/SimpleMemeToken.sol\":5380:5386  amount */\n      dup3\n        /* \"contracts/SimpleMemeToken.sol\":5380:5390  amount > 0 */\n      gt\n        /* \"contracts/SimpleMemeToken.sol\":5372:5424  require(amount > 0, \"Amount must be greater than 0\") */\n      tag_444\n      jumpi\n      mload(0x40)\n      0x08c379a000000000000000000000000000000000000000000000000000000000\n      dup2\n      mstore\n      0x04\n      add\n      tag_445\n      swap1\n      tag_317\n      jump\t// in\n    tag_445:\n      mload(0x40)\n      dup1\n      swap2\n      sub\n      swap1\n      revert\n    tag_444:\n        /* \"contracts/SimpleMemeToken.sol\":5461:5467  amount */\n      dup2\n        /* \"contracts/SimpleMemeToken.sol\":5442:5451  balanceOf */\n      0x04\n        /* \"contracts/SimpleMemeToken.sol\":5442:5457  balanceOf[from] */\n      0x00\n        /* \"contracts/SimpleMemeToken.sol\":5452:5456  from */\n      dup7\n        /* \"contracts/SimpleMemeToken.sol\":5442:5457  balanceOf[from] */\n      0xffffffffffffffffffffffffffffffffffffffff\n      and\n      0xffffffffffffffffffffffffffffffffffffffff\n      and\n      dup2\n      mstore\n      0x20\n      add\n      swap1\n      dup2\n      mstore\n      0x20\n      add\n      0x00\n      keccak256\n      sload\n        /* \"contracts/SimpleMemeToken.sol\":5442:5467  balanceOf[from] >= amount */\n      lt\n      iszero\n        /* \"contracts/SimpleMemeToken.sol\":5434:5490  require(balanceOf[from] >= amount, \"Balance not enough\") */\n      tag_446\n      jumpi\n      mload(0x40)\n      0x08c379a000000000000000000000000000000000000000000000000000000000\n      dup2\n      mstore\n      0x04\n      add\n      tag_447\n      swap1\n      tag_448\n      jump\t// in\n    tag_447:\n      mload(0x40)\n      dup1\n      swap2\n      sub\n      swap1\n      revert\n    tag_446:\n        /* \"contracts/SimpleMemeToken.sol\":5561:5571  isExcluded */\n      0x14\n        /* \"contracts/SimpleMemeToken.sol\":5561:5577  isExcluded[from] */\n      0x00\n        /* \"contracts/SimpleMemeToken.sol\":5572:5576  from */\n      dup6\n        /* \"contracts/SimpleMemeToken.sol\":5561:5577  isExcluded[from] */\n      0xffffffffffffffffffffffffffffffffffffffff\n      and\n      0xffffffffffffffffffffffffffffffffffffffff\n      and\n      dup2\n      mstore\n      0x20\n      add\n      swap1\n      dup2\n      mstore\n      0x20\n      add\n      0x00\n      keccak256\n      0x00\n      swap1\n      sload\n      swap1\n      0x0100\n      exp\n      swap1\n      div\n      0xff\n      and\n        /* \"contracts/SimpleMemeToken.sol\":5560:5577  !isExcluded[from] */\n      iszero\n        /* \"contracts/SimpleMemeToken.sol\":5560:5596  !isExcluded[from] && !isExcluded[to] */\n      dup1\n      iszero\n      tag_449\n      jumpi\n      pop\n        /* \"contracts/SimpleMemeToken.sol\":5582:5592  isExcluded */\n      0x14\n        /* \"contracts/SimpleMemeToken.sol\":5582:5596  isExcluded[to] */\n      0x00\n        /* \"contracts/SimpleMemeToken.sol\":5593:5595  to */\n      dup5\n        /* \"contracts/SimpleMemeToken.sol\":5582:5596  isExcluded[to] */\n      0xffffffffffffffffffffffffffffffffffffffff\n      and\n      0xffffffffffffffffffffffffffffffffffffffff\n      and\n      dup2\n      mstore\n      0x20\n      add\n      swap1\n      dup2\n      mstore\n      0x20\n      add\n      0x00\n      keccak256\n      0x00\n      swap1\n      sload\n      swap1\n      0x0100\n      exp\n      swap1\n      div\n      0xff\n      and\n        /* \"contracts/SimpleMemeToken.sol\":5581:5596  !isExcluded[to] */\n      iszero\n        /* \"contracts/SimpleMemeToken.sol\":5560:5596  !isExcluded[from] && !isExcluded[to] */\n    tag_449:\n        /* \"contracts/SimpleMemeToken.sol\":5556:5965  if (!isExcluded[from] && !isExcluded[to]) {... */\n      iszero\n      tag_450\n      jumpi\n        /* \"contracts/SimpleMemeToken.sol\":5670:5681  maxTxAmount */\n      sload(0x0f)\n        /* \"contracts/SimpleMemeToken.sol\":5660:5666  amount */\n      dup3\n        /* \"contracts/SimpleMemeToken.sol\":5660:5681  amount <= maxTxAmount */\n      gt\n      iszero\n        /* \"contracts/SimpleMemeToken.sol\":5652:5716  require(amount <= maxTxAmount, \"Exceeds max transaction amount\") */\n      tag_451\n      jumpi\n      mload(0x40)\n      0x08c379a000000000000000000000000000000000000000000000000000000000\n      dup2\n      mstore\n      0x04\n      add\n      tag_452\n      swap1\n      tag_453\n      jump\t// in\n    tag_452:\n      mload(0x40)\n      dup1\n      swap2\n      sub\n      swap1\n      revert\n    tag_451:\n        /* \"contracts/SimpleMemeToken.sol\":5820:5835  maxWalletAmount */\n      sload(0x10)\n        /* \"contracts/SimpleMemeToken.sol\":5810:5816  amount */\n      dup3\n        /* \"contracts/SimpleMemeToken.sol\":5794:5803  balanceOf */\n      0x04\n        /* \"contracts/SimpleMemeToken.sol\":5794:5807  balanceOf[to] */\n      0x00\n        /* \"contracts/SimpleMemeToken.sol\":5804:5806  to */\n      dup7\n        /* \"contracts/SimpleMemeToken.sol\":5794:5807  balanceOf[to] */\n      0xffffffffffffffffffffffffffffffffffffffff\n      and\n      0xffffffffffffffffffffffffffffffffffffffff\n      and\n      dup2\n      mstore\n      0x20\n      add\n      swap1\n      dup2\n      mstore\n      0x20\n      add\n      0x00\n      keccak256\n      sload\n        /* \"contracts/SimpleMemeToken.sol\":5794:5816  balanceOf[to] + amount */\n      tag_454\n      swap2\n      swap1\n      tag_274\n      jump\t// in\n    tag_454:\n        /* \"contracts/SimpleMemeToken.sol\":5794:5835  balanceOf[to] + amount <= maxWalletAmount */\n      gt\n      iszero\n        /* \"contracts/SimpleMemeToken.sol\":5786:5865  require(balanceOf[to] + amount <= maxWalletAmount, \"Exceeds max wallet amount\") */\n      tag_455\n      jumpi\n      mload(0x40)\n      0x08c379a000000000000000000000000000000000000000000000000000000000\n      dup2\n      mstore\n      0x04\n      add\n      tag_456\n      swap1\n      tag_457\n      jump\t// in\n    tag_456:\n      mload(0x40)\n      dup1\n      swap2\n      sub\n      swap1\n      revert\n    tag_455:\n        /* \"contracts/SimpleMemeToken.sol\":5932:5954  _checkDailyLimit(from) */\n      tag_458\n        /* \"contracts/SimpleMemeToken.sol\":5949:5953  from */\n      dup5\n        /* \"contracts/SimpleMemeToken.sol\":5932:5948  _checkDailyLimit */\n      tag_459\n        /* \"contracts/SimpleMemeToken.sol\":5932:5954  _checkDailyLimit(from) */\n      jump\t// in\n    tag_458:\n        /* \"contracts/SimpleMemeToken.sol\":5556:5965  if (!isExcluded[from] && !isExcluded[to]) {... */\n    tag_450:\n        /* \"contracts/SimpleMemeToken.sol\":6007:6024  uint256 taxAmount */\n      0x00\n        /* \"contracts/SimpleMemeToken.sol\":6027:6028  0 */\n      0x00\n        /* \"contracts/SimpleMemeToken.sol\":6007:6028  uint256 taxAmount = 0 */\n      swap1\n      pop\n        /* \"contracts/SimpleMemeToken.sol\":6038:6060  uint256 amountAfterTax */\n      0x00\n        /* \"contracts/SimpleMemeToken.sol\":6063:6069  amount */\n      dup4\n        /* \"contracts/SimpleMemeToken.sol\":6038:6069  uint256 amountAfterTax = amount */\n      swap1\n      pop\n        /* \"contracts/SimpleMemeToken.sol\":6142:6152  isExcluded */\n      0x14\n        /* \"contracts/SimpleMemeToken.sol\":6142:6158  isExcluded[from] */\n      0x00\n        /* \"contracts/SimpleMemeToken.sol\":6153:6157  from */\n      dup8\n        /* \"contracts/SimpleMemeToken.sol\":6142:6158  isExcluded[from] */\n      0xffffffffffffffffffffffffffffffffffffffff\n      and\n      0xffffffffffffffffffffffffffffffffffffffff\n      and\n      dup2\n      mstore\n      0x20\n      add\n      swap1\n      dup2\n      mstore\n      0x20\n      add\n      0x00\n      keccak256\n      0x00\n      swap1\n      sload\n      swap1\n      0x0100\n      exp\n      swap1\n      div\n      0xff\n      and\n        /* \"contracts/SimpleMemeToken.sol\":6141:6158  !isExcluded[from] */\n      iszero\n        /* \"contracts/SimpleMemeToken.sol\":6141:6177  !isExcluded[from] && !isExcluded[to] */\n      dup1\n      iszero\n      tag_460\n      jumpi\n      pop\n        /* \"contracts/SimpleMemeToken.sol\":6163:6173  isExcluded */\n      0x14\n        /* \"contracts/SimpleMemeToken.sol\":6163:6177  isExcluded[to] */\n      0x00\n        /* \"contracts/SimpleMemeToken.sol\":6174:6176  to */\n      dup7\n        /* \"contracts/SimpleMemeToken.sol\":6163:6177  isExcluded[to] */\n      0xffffffffffffffffffffffffffffffffffffffff\n      and\n      0xffffffffffffffffffffffffffffffffffffffff\n      and\n      dup2\n      mstore\n      0x20\n      add\n      swap1\n      dup2\n      mstore\n      0x20\n      add\n      0x00\n      keccak256\n      0x00\n      swap1\n      sload\n      swap1\n      0x0100\n      exp\n      swap1\n      div\n      0xff\n      and\n        /* \"contracts/SimpleMemeToken.sol\":6162:6177  !isExcluded[to] */\n      iszero\n        /* \"contracts/SimpleMemeToken.sol\":6141:6177  !isExcluded[from] && !isExcluded[to] */\n    tag_460:\n        /* \"contracts/SimpleMemeToken.sol\":6137:6766  if (!isExcluded[from] && !isExcluded[to]) {... */\n      iszero\n      tag_461\n      jumpi\n        /* \"contracts/SimpleMemeToken.sol\":6242:6257  uint256 taxRate */\n      0x00\n        /* \"contracts/SimpleMemeToken.sol\":6260:6275  transferTaxRate */\n      sload(0x08)\n        /* \"contracts/SimpleMemeToken.sol\":6242:6275  uint256 taxRate = transferTaxRate */\n      swap1\n      pop\n        /* \"contracts/SimpleMemeToken.sol\":6455:6458  100 */\n      0x64\n        /* \"contracts/SimpleMemeToken.sol\":6444:6451  taxRate */\n      dup2\n        /* \"contracts/SimpleMemeToken.sol\":6435:6441  amount */\n      dup7\n        /* \"contracts/SimpleMemeToken.sol\":6435:6451  amount * taxRate */\n      tag_462\n      swap2\n      swap1\n      tag_280\n      jump\t// in\n    tag_462:\n        /* \"contracts/SimpleMemeToken.sol\":6434:6458  (amount * taxRate) / 100 */\n      tag_463\n      swap2\n      swap1\n      tag_282\n      jump\t// in\n    tag_463:\n        /* \"contracts/SimpleMemeToken.sol\":6422:6458  taxAmount = (amount * taxRate) / 100 */\n      swap3\n      pop\n        /* \"contracts/SimpleMemeToken.sol\":6498:6507  taxAmount */\n      dup3\n        /* \"contracts/SimpleMemeToken.sol\":6489:6495  amount */\n      dup6\n        /* \"contracts/SimpleMemeToken.sol\":6489:6507  amount - taxAmount */\n      tag_464\n      swap2\n      swap1\n      tag_244\n      jump\t// in\n    tag_464:\n        /* \"contracts/SimpleMemeToken.sol\":6472:6507  amountAfterTax = amount - taxAmount */\n      swap2\n      pop\n        /* \"contracts/SimpleMemeToken.sol\":6587:6588  0 */\n      0x00\n        /* \"contracts/SimpleMemeToken.sol\":6575:6584  taxAmount */\n      dup4\n        /* \"contracts/SimpleMemeToken.sol\":6575:6588  taxAmount > 0 */\n      gt\n        /* \"contracts/SimpleMemeToken.sol\":6571:6756  if (taxAmount > 0) {... */\n      iszero\n      tag_465\n      jumpi\n        /* \"contracts/SimpleMemeToken.sol\":6636:6645  taxAmount */\n      dup3\n        /* \"contracts/SimpleMemeToken.sol\":6608:6617  balanceOf */\n      0x04\n        /* \"contracts/SimpleMemeToken.sol\":6608:6632  balanceOf[address(this)] */\n      0x00\n        /* \"contracts/SimpleMemeToken.sol\":6626:6630  this */\n      address\n        /* \"contracts/SimpleMemeToken.sol\":6608:6632  balanceOf[address(this)] */\n      0xffffffffffffffffffffffffffffffffffffffff\n      and\n      0xffffffffffffffffffffffffffffffffffffffff\n      and\n      dup2\n      mstore\n      0x20\n      add\n      swap1\n      dup2\n      mstore\n      0x20\n      add\n      0x00\n      keccak256\n      0x00\n        /* \"contracts/SimpleMemeToken.sol\":6608:6645  balanceOf[address(this)] += taxAmount */\n      dup3\n      dup3\n      sload\n      tag_466\n      swap2\n      swap1\n      tag_274\n      jump\t// in\n    tag_466:\n      swap3\n      pop\n      pop\n      dup2\n      swap1\n      sstore\n      pop\n        /* \"contracts/SimpleMemeToken.sol\":6680:6689  taxAmount */\n      dup3\n        /* \"contracts/SimpleMemeToken.sol\":6663:6676  collectedFees */\n      0x0a\n      0x00\n        /* \"contracts/SimpleMemeToken.sol\":6663:6689  collectedFees += taxAmount */\n      dup3\n      dup3\n      sload\n      tag_467\n      swap2\n      swap1\n      tag_274\n      jump\t// in\n    tag_467:\n      swap3\n      pop\n      pop\n      dup2\n      swap1\n      sstore\n      pop\n        /* \"contracts/SimpleMemeToken.sol\":6725:6729  from */\n      dup7\n        /* \"contracts/SimpleMemeToken.sol\":6712:6741  TaxCollected(from, taxAmount) */\n      0xffffffffffffffffffffffffffffffffffffffff\n      and\n      0x7f1b726f82f7a14636a7a5932448f1bce683188520ba3150fd8423989353ebf2\n        /* \"contracts/SimpleMemeToken.sol\":6731:6740  taxAmount */\n      dup5\n        /* \"contracts/SimpleMemeToken.sol\":6712:6741  TaxCollected(from, taxAmount) */\n      mload(0x40)\n      tag_468\n      swap2\n      swap1\n      tag_67\n      jump\t// in\n    tag_468:\n      mload(0x40)\n      dup1\n      swap2\n      sub\n      swap1\n      log2\n        /* \"contracts/SimpleMemeToken.sol\":6571:6756  if (taxAmount > 0) {... */\n    tag_465:\n        /* \"contracts/SimpleMemeToken.sol\":6179:6766  {... */\n      pop\n        /* \"contracts/SimpleMemeToken.sol\":6137:6766  if (!isExcluded[from] && !isExcluded[to]) {... */\n    tag_461:\n        /* \"contracts/SimpleMemeToken.sol\":6827:6833  amount */\n      dup4\n        /* \"contracts/SimpleMemeToken.sol\":6808:6817  balanceOf */\n      0x04\n        /* \"contracts/SimpleMemeToken.sol\":6808:6823  balanceOf[from] */\n      0x00\n        /* \"contracts/SimpleMemeToken.sol\":6818:6822  from */\n      dup9\n        /* \"contracts/SimpleMemeToken.sol\":6808:6823  balanceOf[from] */\n      0xffffffffffffffffffffffffffffffffffffffff\n      and\n      0xffffffffffffffffffffffffffffffffffffffff\n      and\n      dup2\n      mstore\n      0x20\n      add\n      swap1\n      dup2\n      mstore\n      0x20\n      add\n      0x00\n      keccak256\n      0x00\n        /* \"contracts/SimpleMemeToken.sol\":6808:6833  balanceOf[from] -= amount */\n      dup3\n      dup3\n      sload\n      tag_469\n      swap2\n      swap1\n      tag_244\n      jump\t// in\n    tag_469:\n      swap3\n      pop\n      pop\n      dup2\n      swap1\n      sstore\n      pop\n        /* \"contracts/SimpleMemeToken.sol\":6860:6874  amountAfterTax */\n      dup1\n        /* \"contracts/SimpleMemeToken.sol\":6843:6852  balanceOf */\n      0x04\n        /* \"contracts/SimpleMemeToken.sol\":6843:6856  balanceOf[to] */\n      0x00\n        /* \"contracts/SimpleMemeToken.sol\":6853:6855  to */\n      dup8\n        /* \"contracts/SimpleMemeToken.sol\":6843:6856  balanceOf[to] */\n      0xffffffffffffffffffffffffffffffffffffffff\n      and\n      0xffffffffffffffffffffffffffffffffffffffff\n      and\n      dup2\n      mstore\n      0x20\n      add\n      swap1\n      dup2\n      mstore\n      0x20\n      add\n      0x00\n      keccak256\n      0x00\n        /* \"contracts/SimpleMemeToken.sol\":6843:6874  balanceOf[to] += amountAfterTax */\n      dup3\n      dup3\n      sload\n      tag_470\n      swap2\n      swap1\n      tag_274\n      jump\t// in\n    tag_470:\n      swap3\n      pop\n      pop\n      dup2\n      swap1\n      sstore\n      pop\n        /* \"contracts/SimpleMemeToken.sol\":6913:6915  to */\n      dup5\n        /* \"contracts/SimpleMemeToken.sol\":6898:6932  Transfer(from, to, amountAfterTax) */\n      0xffffffffffffffffffffffffffffffffffffffff\n      and\n        /* \"contracts/SimpleMemeToken.sol\":6907:6911  from */\n      dup7\n        /* \"contracts/SimpleMemeToken.sol\":6898:6932  Transfer(from, to, amountAfterTax) */\n      0xffffffffffffffffffffffffffffffffffffffff\n      and\n      0xddf252ad1be2c89b69c2b068fc378daa952ba7f163c4a11628f55a4df523b3ef\n        /* \"contracts/SimpleMemeToken.sol\":6917:6931  amountAfterTax */\n      dup4\n        /* \"contracts/SimpleMemeToken.sol\":6898:6932  Transfer(from, to, amountAfterTax) */\n      mload(0x40)\n      tag_471\n      swap2\n      swap1\n      tag_67\n      jump\t// in\n    tag_471:\n      mload(0x40)\n      dup1\n      swap2\n      sub\n      swap1\n      log3\n        /* \"contracts/SimpleMemeToken.sol\":6949:6953  true */\n      0x01\n        /* \"contracts/SimpleMemeToken.sol\":6942:6953  return true */\n      swap3\n      pop\n      pop\n      pop\n        /* \"contracts/SimpleMemeToken.sol\":5147:6960  function _transfer(address from, address to, uint256 amount) internal returns (bool) {... */\n      swap4\n      swap3\n      pop\n      pop\n      pop\n      jump\t// out\n        /* \"contracts/SimpleMemeToken.sol\":7064:7592  function _checkDailyLimit(address user) internal {... */\n    tag_459:\n        /* \"contracts/SimpleMemeToken.sol\":7161:7174  uint256 today */\n      0x00\n        /* \"contracts/SimpleMemeToken.sol\":7195:7201  1 days */\n      0x015180\n        /* \"contracts/SimpleMemeToken.sol\":7177:7192  block.timestamp */\n      timestamp\n        /* \"contracts/SimpleMemeToken.sol\":7177:7201  block.timestamp / 1 days */\n      tag_473\n      swap2\n      swap1\n      tag_282\n      jump\t// in\n    tag_473:\n        /* \"contracts/SimpleMemeToken.sol\":7161:7201  uint256 today = block.timestamp / 1 days */\n      swap1\n      pop\n        /* \"contracts/SimpleMemeToken.sol\":7289:7294  today */\n      dup1\n        /* \"contracts/SimpleMemeToken.sol\":7270:7280  lastTxDate */\n      0x12\n        /* \"contracts/SimpleMemeToken.sol\":7270:7286  lastTxDate[user] */\n      0x00\n        /* \"contracts/SimpleMemeToken.sol\":7281:7285  user */\n      dup5\n        /* \"contracts/SimpleMemeToken.sol\":7270:7286  lastTxDate[user] */\n      0xffffffffffffffffffffffffffffffffffffffff\n      and\n      0xffffffffffffffffffffffffffffffffffffffff\n      and\n      dup2\n      mstore\n      0x20\n      add\n      swap1\n      dup2\n      mstore\n      0x20\n      add\n      0x00\n      keccak256\n      sload\n        /* \"contracts/SimpleMemeToken.sol\":7270:7294  lastTxDate[user] < today */\n      lt\n        /* \"contracts/SimpleMemeToken.sol\":7266:7381  if (lastTxDate[user] < today) {... */\n      iszero\n      tag_474\n      jumpi\n        /* \"contracts/SimpleMemeToken.sol\":7331:7332  0 */\n      0x00\n        /* \"contracts/SimpleMemeToken.sol\":7310:7322  dailyTxCount */\n      0x11\n        /* \"contracts/SimpleMemeToken.sol\":7310:7328  dailyTxCount[user] */\n      0x00\n        /* \"contracts/SimpleMemeToken.sol\":7323:7327  user */\n      dup5\n        /* \"contracts/SimpleMemeToken.sol\":7310:7328  dailyTxCount[user] */\n      0xffffffffffffffffffffffffffffffffffffffff\n      and\n      0xffffffffffffffffffffffffffffffffffffffff\n      and\n      dup2\n      mstore\n      0x20\n      add\n      swap1\n      dup2\n      mstore\n      0x20\n      add\n      0x00\n      keccak256\n        /* \"contracts/SimpleMemeToken.sol\":7310:7332  dailyTxCount[user] = 0 */\n      dup2\n      swap1\n      sstore\n      pop\n        /* \"contracts/SimpleMemeToken.sol\":7365:7370  today */\n      dup1\n        /* \"contracts/SimpleMemeToken.sol\":7346:7356  lastTxDate */\n      0x12\n        /* \"contracts/SimpleMemeToken.sol\":7346:7362  lastTxDate[user] */\n      0x00\n        /* \"contracts/SimpleMemeToken.sol\":7357:7361  user */\n      dup5\n        /* \"contracts/SimpleMemeToken.sol\":7346:7362  lastTxDate[user] */\n      0xffffffffffffffffffffffffffffffffffffffff\n      and\n      0xffffffffffffffffffffffffffffffffffffffff\n      and\n      dup2\n      mstore\n      0x20\n      add\n      swap1\n      dup2\n      mstore\n      0x20\n      add\n      0x00\n      keccak256\n        /* \"contracts/SimpleMemeToken.sol\":7346:7370  lastTxDate[user] = today */\n      dup2\n      swap1\n      sstore\n      pop\n        /* \"contracts/SimpleMemeToken.sol\":7266:7381  if (lastTxDate[user] < today) {... */\n    tag_474:\n        /* \"contracts/SimpleMemeToken.sol\":7470:7480  maxDailyTx */\n      sload(0x13)\n        /* \"contracts/SimpleMemeToken.sol\":7449:7461  dailyTxCount */\n      0x11\n        /* \"contracts/SimpleMemeToken.sol\":7449:7467  dailyTxCount[user] */\n      0x00\n        /* \"contracts/SimpleMemeToken.sol\":7462:7466  user */\n      dup5\n        /* \"contracts/SimpleMemeToken.sol\":7449:7467  dailyTxCount[user] */\n      0xffffffffffffffffffffffffffffffffffffffff\n      and\n      0xffffffffffffffffffffffffffffffffffffffff\n      and\n      dup2\n      mstore\n      0x20\n      add\n      swap1\n      dup2\n      mstore\n      0x20\n      add\n      0x00\n      keccak256\n      sload\n        /* \"contracts/SimpleMemeToken.sol\":7449:7480  dailyTxCount[user] < maxDailyTx */\n      lt\n        /* \"contracts/SimpleMemeToken.sol\":7441:7516  require(dailyTxCount[user] < maxDailyTx, \"Daily transaction limit reached\") */\n      tag_475\n      jumpi\n      mload(0x40)\n      0x08c379a000000000000000000000000000000000000000000000000000000000\n      dup2\n      mstore\n      0x04\n      add\n      tag_476\n      swap1\n      tag_477\n      jump\t// in\n    tag_476:\n      mload(0x40)\n      dup1\n      swap2\n      sub\n      swap1\n      revert\n    tag_475:\n        /* \"contracts/SimpleMemeToken.sol\":7565:7577  dailyTxCount */\n      0x11\n        /* \"contracts/SimpleMemeToken.sol\":7565:7583  dailyTxCount[user] */\n      0x00\n        /* \"contracts/SimpleMemeToken.sol\":7578:7582  user */\n      dup4\n        /* \"contracts/SimpleMemeToken.sol\":7565:7583  dailyTxCount[user] */\n      0xffffffffffffffffffffffffffffffffffffffff\n      and\n      0xffffffffffffffffffffffffffffffffffffffff\n      and\n      dup2\n      mstore\n      0x20\n      add\n      swap1\n      dup2\n      mstore\n      0x20\n      add\n      0x00\n      keccak256\n      0x00\n        /* \"contracts/SimpleMemeToken.sol\":7565:7585  dailyTxCount[user]++ */\n      dup2\n      sload\n      dup1\n      swap3\n      swap2\n      swap1\n      tag_478\n      swap1\n      tag_479\n      jump\t// in\n    tag_478:\n      swap2\n      swap1\n      pop\n      sstore\n      pop\n        /* \"contracts/SimpleMemeToken.sol\":7113:7592  {... */\n      pop\n        /* \"contracts/SimpleMemeToken.sol\":7064:7592  function _checkDailyLimit(address user) internal {... */\n      pop\n      jump\t// out\n        /* \"#utility.yul\":7:106   */\n    tag_480:\n        /* \"#utility.yul\":59:65   */\n      0x00\n        /* \"#utility.yul\":93:98   */\n      dup2\n        /* \"#utility.yul\":87:99   */\n      mload\n        /* \"#utility.yul\":77:99   */\n      swap1\n      pop\n        /* \"#utility.yul\":7:106   */\n      swap2\n      swap1\n      pop\n      jump\t// out\n        /* \"#utility.yul\":112:281   */\n    tag_481:\n        /* \"#utility.yul\":196:207   */\n      0x00\n        /* \"#utility.yul\":230:236   */\n      dup3\n        /* \"#utility.yul\":225:228   */\n      dup3\n        /* \"#utility.yul\":218:237   */\n      mstore\n        /* \"#utility.yul\":270:274   */\n      0x20\n        /* \"#utility.yul\":265:268   */\n      dup3\n        /* \"#utility.yul\":261:275   */\n      add\n        /* \"#utility.yul\":246:275   */\n      swap1\n      pop\n        /* \"#utility.yul\":112:281   */\n      swap3\n      swap2\n      pop\n      pop\n      jump\t// out\n        /* \"#utility.yul\":287:426   */\n    tag_482:\n        /* \"#utility.yul\":376:382   */\n      dup3\n        /* \"#utility.yul\":371:374   */\n      dup2\n        /* \"#utility.yul\":366:369   */\n      dup4\n        /* \"#utility.yul\":360:383   */\n      mcopy\n        /* \"#utility.yul\":417:418   */\n      0x00\n        /* \"#utility.yul\":408:414   */\n      dup4\n        /* \"#utility.yul\":403:406   */\n      dup4\n        /* \"#utility.yul\":399:415   */\n      add\n        /* \"#utility.yul\":392:419   */\n      mstore\n        /* \"#utility.yul\":287:426   */\n      pop\n      pop\n      pop\n      jump\t// out\n        /* \"#utility.yul\":432:534   */\n    tag_483:\n        /* \"#utility.yul\":473:479   */\n      0x00\n        /* \"#utility.yul\":524:526   */\n      0x1f\n        /* \"#utility.yul\":520:527   */\n      not\n        /* \"#utility.yul\":515:517   */\n      0x1f\n        /* \"#utility.yul\":508:513   */\n      dup4\n        /* \"#utility.yul\":504:518   */\n      add\n        /* \"#utility.yul\":500:528   */\n      and\n        /* \"#utility.yul\":490:528   */\n      swap1\n      pop\n        /* \"#utility.yul\":432:534   */\n      swap2\n      swap1\n      pop\n      jump\t// out\n        /* \"#utility.yul\":540:917   */\n    tag_484:\n        /* \"#utility.yul\":628:631   */\n      0x00\n        /* \"#utility.yul\":656:695   */\n      tag_570\n        /* \"#utility.yul\":689:694   */\n      dup3\n        /* \"#utility.yul\":656:695   */\n      tag_480\n      jump\t// in\n    tag_570:\n        /* \"#utility.yul\":711:782   */\n      tag_571\n        /* \"#utility.yul\":775:781   */\n      dup2\n        /* \"#utility.yul\":770:773   */\n      dup6\n        /* \"#utility.yul\":711:782   */\n      tag_481\n      jump\t// in\n    tag_571:\n        /* \"#utility.yul\":704:782   */\n      swap4\n      pop\n        /* \"#utility.yul\":791:856   */\n      tag_572\n        /* \"#utility.yul\":849:855   */\n      dup2\n        /* \"#utility.yul\":844:847   */\n      dup6\n        /* \"#utility.yul\":837:841   */\n      0x20\n        /* \"#utility.yul\":830:835   */\n      dup7\n        /* \"#utility.yul\":826:842   */\n      add\n        /* \"#utility.yul\":791:856   */\n      tag_482\n      jump\t// in\n    tag_572:\n        /* \"#utility.yul\":881:910   */\n      tag_573\n        /* \"#utility.yul\":903:909   */\n      dup2\n        /* \"#utility.yul\":881:910   */\n      tag_483\n      jump\t// in\n    tag_573:\n        /* \"#utility.yul\":876:879   */\n      dup5\n        /* \"#utility.yul\":872:911   */\n      add\n        /* \"#utility.yul\":865:911   */\n      swap2\n      pop\n        /* \"#utility.yul\":632:917   */\n      pop\n        /* \"#utility.yul\":540:917   */\n      swap3\n      swap2\n      pop\n      pop\n      jump\t// out\n        /* \"#utility.yul\":923:1236   */\n    tag_55:\n        /* \"#utility.yul\":1036:1040   */\n      0x00\n        /* \"#utility.yul\":1074:1076   */\n      0x20\n        /* \"#utility.yul\":1063:1072   */\n      dup3\n        /* \"#utility.yul\":1059:1077   */\n      add\n        /* \"#utility.yul\":1051:1077   */\n      swap1\n      pop\n        /* \"#utility.yul\":1123:1132   */\n      dup2\n        /* \"#utility.yul\":1117:1121   */\n      dup2\n        /* \"#utility.yul\":1113:1133   */\n      sub\n        /* \"#utility.yul\":1109:1110   */\n      0x00\n        /* \"#utility.yul\":1098:1107   */\n      dup4\n        /* \"#utility.yul\":1094:1111   */\n      add\n        /* \"#utility.yul\":1087:1134   */\n      mstore\n        /* \"#utility.yul\":1151:1229   */\n      tag_575\n        /* \"#utility.yul\":1224:1228   */\n      dup2\n        /* \"#utility.yul\":1215:1221   */\n      dup5\n        /* \"#utility.yul\":1151:1229   */\n      tag_484\n      jump\t// in\n    tag_575:\n        /* \"#utility.yul\":1143:1229   */\n      swap1\n      pop\n        /* \"#utility.yul\":923:1236   */\n      swap3\n      swap2\n      pop\n      pop\n      jump\t// out\n        /* \"#utility.yul\":1323:1440   */\n    tag_486:\n        /* \"#utility.yul\":1432:1433   */\n      0x00\n        /* \"#utility.yul\":1429:1430   */\n      0x00\n        /* \"#utility.yul\":1422:1434   */\n      revert\n        /* \"#utility.yul\":1569:1695   */\n    tag_488:\n        /* \"#utility.yul\":1606:1613   */\n      0x00\n        /* \"#utility.yul\":1646:1688   */\n      0xffffffffffffffffffffffffffffffffffffffff\n        /* \"#utility.yul\":1639:1644   */\n      dup3\n        /* \"#utility.yul\":1635:1689   */\n      and\n        /* \"#utility.yul\":1624:1689   */\n      swap1\n      pop\n        /* \"#utility.yul\":1569:1695   */\n      swap2\n      swap1\n      pop\n      jump\t// out\n        /* \"#utility.yul\":1701:1797   */\n    tag_489:\n        /* \"#utility.yul\":1738:1745   */\n      0x00\n        /* \"#utility.yul\":1767:1791   */\n      tag_581\n        /* \"#utility.yul\":1785:1790   */\n      dup3\n        /* \"#utility.yul\":1767:1791   */\n      tag_488\n      jump\t// in\n    tag_581:\n        /* \"#utility.yul\":1756:1791   */\n      swap1\n      pop\n        /* \"#utility.yul\":1701:1797   */\n      swap2\n      swap1\n      pop\n      jump\t// out\n        /* \"#utility.yul\":1803:1925   */\n    tag_490:\n        /* \"#utility.yul\":1876:1900   */\n      tag_583\n        /* \"#utility.yul\":1894:1899   */\n      dup2\n        /* \"#utility.yul\":1876:1900   */\n      tag_489\n      jump\t// in\n    tag_583:\n        /* \"#utility.yul\":1869:1874   */\n      dup2\n        /* \"#utility.yul\":1866:1901   */\n      eq\n        /* \"#utility.yul\":1856:1919   */\n      tag_584\n      jumpi\n        /* \"#utility.yul\":1915:1916   */\n      0x00\n        /* \"#utility.yul\":1912:1913   */\n      0x00\n        /* \"#utility.yul\":1905:1917   */\n      revert\n        /* \"#utility.yul\":1856:1919   */\n    tag_584:\n        /* \"#utility.yul\":1803:1925   */\n      pop\n      jump\t// out\n        /* \"#utility.yul\":1931:2070   */\n    tag_491:\n        /* \"#utility.yul\":1977:1982   */\n      0x00\n        /* \"#utility.yul\":2015:2021   */\n      dup2\n        /* \"#utility.yul\":2002:2022   */\n      calldataload\n        /* \"#utility.yul\":1993:2022   */\n      swap1\n      pop\n        /* \"#utility.yul\":2031:2064   */\n      tag_586\n        /* \"#utility.yul\":2058:2063   */\n      dup2\n        /* \"#utility.yul\":2031:2064   */\n      tag_490\n      jump\t// in\n    tag_586:\n        /* \"#utility.yul\":1931:2070   */\n      swap3\n      swap2\n      pop\n      pop\n      jump\t// out\n        /* \"#utility.yul\":2076:2153   */\n    tag_492:\n        /* \"#utility.yul\":2113:2120   */\n      0x00\n        /* \"#utility.yul\":2142:2147   */\n      dup2\n        /* \"#utility.yul\":2131:2147   */\n      swap1\n      pop\n        /* \"#utility.yul\":2076:2153   */\n      swap2\n      swap1\n      pop\n      jump\t// out\n        /* \"#utility.yul\":2159:2281   */\n    tag_493:\n        /* \"#utility.yul\":2232:2256   */\n      tag_589\n        /* \"#utility.yul\":2250:2255   */\n      dup2\n        /* \"#utility.yul\":2232:2256   */\n      tag_492\n      jump\t// in\n    tag_589:\n        /* \"#utility.yul\":2225:2230   */\n      dup2\n        /* \"#utility.yul\":2222:2257   */\n      eq\n        /* \"#utility.yul\":2212:2275   */\n      tag_590\n      jumpi\n        /* \"#utility.yul\":2271:2272   */\n      0x00\n        /* \"#utility.yul\":2268:2269   */\n      0x00\n        /* \"#utility.yul\":2261:2273   */\n      revert\n        /* \"#utility.yul\":2212:2275   */\n    tag_590:\n        /* \"#utility.yul\":2159:2281   */\n      pop\n      jump\t// out\n        /* \"#utility.yul\":2287:2426   */\n    tag_494:\n        /* \"#utility.yul\":2333:2338   */\n      0x00\n        /* \"#utility.yul\":2371:2377   */\n      dup2\n        /* \"#utility.yul\":2358:2378   */\n      calldataload\n        /* \"#utility.yul\":2349:2378   */\n      swap1\n      pop\n        /* \"#utility.yul\":2387:2420   */\n      tag_592\n        /* \"#utility.yul\":2414:2419   */\n      dup2\n        /* \"#utility.yul\":2387:2420   */\n      tag_493\n      jump\t// in\n    tag_592:\n        /* \"#utility.yul\":2287:2426   */\n      swap3\n      swap2\n      pop\n      pop\n      jump\t// out\n        /* \"#utility.yul\":2432:2906   */\n    tag_59:\n        /* \"#utility.yul\":2500:2506   */\n      0x00\n        /* \"#utility.yul\":2508:2514   */\n      0x00\n        /* \"#utility.yul\":2557:2559   */\n      0x40\n        /* \"#utility.yul\":2545:2554   */\n      dup4\n        /* \"#utility.yul\":2536:2543   */\n      dup6\n        /* \"#utility.yul\":2532:2555   */\n      sub\n        /* \"#utility.yul\":2528:2560   */\n      slt\n        /* \"#utility.yul\":2525:2644   */\n      iszero\n      tag_594\n      jumpi\n        /* \"#utility.yul\":2563:2642   */\n      tag_595\n      tag_486\n      jump\t// in\n    tag_595:\n        /* \"#utility.yul\":2525:2644   */\n    tag_594:\n        /* \"#utility.yul\":2683:2684   */\n      0x00\n        /* \"#utility.yul\":2708:2761   */\n      tag_596\n        /* \"#utility.yul\":2753:2760   */\n      dup6\n        /* \"#utility.yul\":2744:2750   */\n      dup3\n        /* \"#utility.yul\":2733:2742   */\n      dup7\n        /* \"#utility.yul\":2729:2751   */\n      add\n        /* \"#utility.yul\":2708:2761   */\n      tag_491\n      jump\t// in\n    tag_596:\n        /* \"#utility.yul\":2698:2761   */\n      swap3\n      pop\n        /* \"#utility.yul\":2654:2771   */\n      pop\n        /* \"#utility.yul\":2810:2812   */\n      0x20\n        /* \"#utility.yul\":2836:2889   */\n      tag_597\n        /* \"#utility.yul\":2881:2888   */\n      dup6\n        /* \"#utility.yul\":2872:2878   */\n      dup3\n        /* \"#utility.yul\":2861:2870   */\n      dup7\n        /* \"#utility.yul\":2857:2879   */\n      add\n        /* \"#utility.yul\":2836:2889   */\n      tag_494\n      jump\t// in\n    tag_597:\n        /* \"#utility.yul\":2826:2889   */\n      swap2\n      pop\n        /* \"#utility.yul\":2781:2899   */\n      pop\n        /* \"#utility.yul\":2432:2906   */\n      swap3\n      pop\n      swap3\n      swap1\n      pop\n      jump\t// out\n        /* \"#utility.yul\":2912:3002   */\n    tag_495:\n        /* \"#utility.yul\":2946:2953   */\n      0x00\n        /* \"#utility.yul\":2989:2994   */\n      dup2\n        /* \"#utility.yul\":2982:2995   */\n      iszero\n        /* \"#utility.yul\":2975:2996   */\n      iszero\n        /* \"#utility.yul\":2964:2996   */\n      swap1\n      pop\n        /* \"#utility.yul\":2912:3002   */\n      swap2\n      swap1\n      pop\n      jump\t// out\n        /* \"#utility.yul\":3008:3117   */\n    tag_496:\n        /* \"#utility.yul\":3089:3110   */\n      tag_600\n        /* \"#utility.yul\":3104:3109   */\n      dup2\n        /* \"#utility.yul\":3089:3110   */\n      tag_495\n      jump\t// in\n    tag_600:\n        /* \"#utility.yul\":3084:3087   */\n      dup3\n        /* \"#utility.yul\":3077:3111   */\n      mstore\n        /* \"#utility.yul\":3008:3117   */\n      pop\n      pop\n      jump\t// out\n        /* \"#utility.yul\":3123:3333   */\n    tag_62:\n        /* \"#utility.yul\":3210:3214   */\n      0x00\n        /* \"#utility.yul\":3248:3250   */\n      0x20\n        /* \"#utility.yul\":3237:3246   */\n      dup3\n        /* \"#utility.yul\":3233:3251   */\n      add\n        /* \"#utility.yul\":3225:3251   */\n      swap1\n      pop\n        /* \"#utility.yul\":3261:3326   */\n      tag_602\n        /* \"#utility.yul\":3323:3324   */\n      0x00\n        /* \"#utility.yul\":3312:3321   */\n      dup4\n        /* \"#utility.yul\":3308:3325   */\n      add\n        /* \"#utility.yul\":3299:3305   */\n      dup5\n        /* \"#utility.yul\":3261:3326   */\n      tag_496\n      jump\t// in\n    tag_602:\n        /* \"#utility.yul\":3123:3333   */\n      swap3\n      swap2\n      pop\n      pop\n      jump\t// out\n        /* \"#utility.yul\":3339:3457   */\n    tag_497:\n        /* \"#utility.yul\":3426:3450   */\n      tag_604\n        /* \"#utility.yul\":3444:3449   */\n      dup2\n        /* \"#utility.yul\":3426:3450   */\n      tag_492\n      jump\t// in\n    tag_604:\n        /* \"#utility.yul\":3421:3424   */\n      dup3\n        /* \"#utility.yul\":3414:3451   */\n      mstore\n        /* \"#utility.yul\":3339:3457   */\n      pop\n      pop\n      jump\t// out\n        /* \"#utility.yul\":3463:3685   */\n    tag_67:\n        /* \"#utility.yul\":3556:3560   */\n      0x00\n        /* \"#utility.yul\":3594:3596   */\n      0x20\n        /* \"#utility.yul\":3583:3592   */\n      dup3\n        /* \"#utility.yul\":3579:3597   */\n      add\n        /* \"#utility.yul\":3571:3597   */\n      swap1\n      pop\n        /* \"#utility.yul\":3607:3678   */\n      tag_606\n        /* \"#utility.yul\":3675:3676   */\n      0x00\n        /* \"#utility.yul\":3664:3673   */\n      dup4\n        /* \"#utility.yul\":3660:3677   */\n      add\n        /* \"#utility.yul\":3651:3657   */\n      dup5\n        /* \"#utility.yul\":3607:3678   */\n      tag_497\n      jump\t// in\n    tag_606:\n        /* \"#utility.yul\":3463:3685   */\n      swap3\n      swap2\n      pop\n      pop\n      jump\t// out\n        /* \"#utility.yul\":3691:4310   */\n    tag_75:\n        /* \"#utility.yul\":3768:3774   */\n      0x00\n        /* \"#utility.yul\":3776:3782   */\n      0x00\n        /* \"#utility.yul\":3784:3790   */\n      0x00\n        /* \"#utility.yul\":3833:3835   */\n      0x60\n        /* \"#utility.yul\":3821:3830   */\n      dup5\n        /* \"#utility.yul\":3812:3819   */\n      dup7\n        /* \"#utility.yul\":3808:3831   */\n      sub\n        /* \"#utility.yul\":3804:3836   */\n      slt\n        /* \"#utility.yul\":3801:3920   */\n      iszero\n      tag_608\n      jumpi\n        /* \"#utility.yul\":3839:3918   */\n      tag_609\n      tag_486\n      jump\t// in\n    tag_609:\n        /* \"#utility.yul\":3801:3920   */\n    tag_608:\n        /* \"#utility.yul\":3959:3960   */\n      0x00\n        /* \"#utility.yul\":3984:4037   */\n      tag_610\n        /* \"#utility.yul\":4029:4036   */\n      dup7\n        /* \"#utility.yul\":4020:4026   */\n      dup3\n        /* \"#utility.yul\":4009:4018   */\n      dup8\n        /* \"#utility.yul\":4005:4027   */\n      add\n        /* \"#utility.yul\":3984:4037   */\n      tag_491\n      jump\t// in\n    tag_610:\n        /* \"#utility.yul\":3974:4037   */\n      swap4\n      pop\n        /* \"#utility.yul\":3930:4047   */\n      pop\n        /* \"#utility.yul\":4086:4088   */\n      0x20\n        /* \"#utility.yul\":4112:4165   */\n      tag_611\n        /* \"#utility.yul\":4157:4164   */\n      dup7\n        /* \"#utility.yul\":4148:4154   */\n      dup3\n        /* \"#utility.yul\":4137:4146   */\n      dup8\n        /* \"#utility.yul\":4133:4155   */\n      add\n        /* \"#utility.yul\":4112:4165   */\n      tag_491\n      jump\t// in\n    tag_611:\n        /* \"#utility.yul\":4102:4165   */\n      swap3\n      pop\n        /* \"#utility.yul\":4057:4175   */\n      pop\n        /* \"#utility.yul\":4214:4216   */\n      0x40\n        /* \"#utility.yul\":4240:4293   */\n      tag_612\n        /* \"#utility.yul\":4285:4292   */\n      dup7\n        /* \"#utility.yul\":4276:4282   */\n      dup3\n        /* \"#utility.yul\":4265:4274   */\n      dup8\n        /* \"#utility.yul\":4261:4283   */\n      add\n        /* \"#utility.yul\":4240:4293   */\n      tag_494\n      jump\t// in\n    tag_612:\n        /* \"#utility.yul\":4230:4293   */\n      swap2\n      pop\n        /* \"#utility.yul\":4185:4303   */\n      pop\n        /* \"#utility.yul\":3691:4310   */\n      swap3\n      pop\n      swap3\n      pop\n      swap3\n      jump\t// out\n        /* \"#utility.yul\":4316:4432   */\n    tag_498:\n        /* \"#utility.yul\":4386:4407   */\n      tag_614\n        /* \"#utility.yul\":4401:4406   */\n      dup2\n        /* \"#utility.yul\":4386:4407   */\n      tag_495\n      jump\t// in\n    tag_614:\n        /* \"#utility.yul\":4379:4384   */\n      dup2\n        /* \"#utility.yul\":4376:4408   */\n      eq\n        /* \"#utility.yul\":4366:4426   */\n      tag_615\n      jumpi\n        /* \"#utility.yul\":4422:4423   */\n      0x00\n        /* \"#utility.yul\":4419:4420   */\n      0x00\n        /* \"#utility.yul\":4412:4424   */\n      revert\n        /* \"#utility.yul\":4366:4426   */\n    tag_615:\n        /* \"#utility.yul\":4316:4432   */\n      pop\n      jump\t// out\n        /* \"#utility.yul\":4438:4571   */\n    tag_499:\n        /* \"#utility.yul\":4481:4486   */\n      0x00\n        /* \"#utility.yul\":4519:4525   */\n      dup2\n        /* \"#utility.yul\":4506:4526   */\n      calldataload\n        /* \"#utility.yul\":4497:4526   */\n      swap1\n      pop\n        /* \"#utility.yul\":4535:4565   */\n      tag_617\n        /* \"#utility.yul\":4559:4564   */\n      dup2\n        /* \"#utility.yul\":4535:4565   */\n      tag_498\n      jump\t// in\n    tag_617:\n        /* \"#utility.yul\":4438:4571   */\n      swap3\n      swap2\n      pop\n      pop\n      jump\t// out\n        /* \"#utility.yul\":4577:5045   */\n    tag_85:\n        /* \"#utility.yul\":4642:4648   */\n      0x00\n        /* \"#utility.yul\":4650:4656   */\n      0x00\n        /* \"#utility.yul\":4699:4701   */\n      0x40\n        /* \"#utility.yul\":4687:4696   */\n      dup4\n        /* \"#utility.yul\":4678:4685   */\n      dup6\n        /* \"#utility.yul\":4674:4697   */\n      sub\n        /* \"#utility.yul\":4670:4702   */\n      slt\n        /* \"#utility.yul\":4667:4786   */\n      iszero\n      tag_619\n      jumpi\n        /* \"#utility.yul\":4705:4784   */\n      tag_620\n      tag_486\n      jump\t// in\n    tag_620:\n        /* \"#utility.yul\":4667:4786   */\n    tag_619:\n        /* \"#utility.yul\":4825:4826   */\n      0x00\n        /* \"#utility.yul\":4850:4903   */\n      tag_621\n        /* \"#utility.yul\":4895:4902   */\n      dup6\n        /* \"#utility.yul\":4886:4892   */\n      dup3\n        /* \"#utility.yul\":4875:4884   */\n      dup7\n        /* \"#utility.yul\":4871:4893   */\n      add\n        /* \"#utility.yul\":4850:4903   */\n      tag_491\n      jump\t// in\n    tag_621:\n        /* \"#utility.yul\":4840:4903   */\n      swap3\n      pop\n        /* \"#utility.yul\":4796:4913   */\n      pop\n        /* \"#utility.yul\":4952:4954   */\n      0x20\n        /* \"#utility.yul\":4978:5028   */\n      tag_622\n        /* \"#utility.yul\":5020:5027   */\n      dup6\n        /* \"#utility.yul\":5011:5017   */\n      dup3\n        /* \"#utility.yul\":5000:5009   */\n      dup7\n        /* \"#utility.yul\":4996:5018   */\n      add\n        /* \"#utility.yul\":4978:5028   */\n      tag_499\n      jump\t// in\n    tag_622:\n        /* \"#utility.yul\":4968:5028   */\n      swap2\n      pop\n        /* \"#utility.yul\":4923:5038   */\n      pop\n        /* \"#utility.yul\":4577:5045   */\n      swap3\n      pop\n      swap3\n      swap1\n      pop\n      jump\t// out\n        /* \"#utility.yul\":5051:5137   */\n    tag_500:\n        /* \"#utility.yul\":5086:5093   */\n      0x00\n        /* \"#utility.yul\":5126:5130   */\n      0xff\n        /* \"#utility.yul\":5119:5124   */\n      dup3\n        /* \"#utility.yul\":5115:5131   */\n      and\n        /* \"#utility.yul\":5104:5131   */\n      swap1\n      pop\n        /* \"#utility.yul\":5051:5137   */\n      swap2\n      swap1\n      pop\n      jump\t// out\n        /* \"#utility.yul\":5143:5255   */\n    tag_501:\n        /* \"#utility.yul\":5226:5248   */\n      tag_625\n        /* \"#utility.yul\":5242:5247   */\n      dup2\n        /* \"#utility.yul\":5226:5248   */\n      tag_500\n      jump\t// in\n    tag_625:\n        /* \"#utility.yul\":5221:5224   */\n      dup3\n        /* \"#utility.yul\":5214:5249   */\n      mstore\n        /* \"#utility.yul\":5143:5255   */\n      pop\n      pop\n      jump\t// out\n        /* \"#utility.yul\":5261:5475   */\n    tag_91:\n        /* \"#utility.yul\":5350:5354   */\n      0x00\n        /* \"#utility.yul\":5388:5390   */\n      0x20\n        /* \"#utility.yul\":5377:5386   */\n      dup3\n        /* \"#utility.yul\":5373:5391   */\n      add\n        /* \"#utility.yul\":5365:5391   */\n      swap1\n      pop\n        /* \"#utility.yul\":5401:5468   */\n      tag_627\n        /* \"#utility.yul\":5465:5466   */\n      0x00\n        /* \"#utility.yul\":5454:5463   */\n      dup4\n        /* \"#utility.yul\":5450:5467   */\n      add\n        /* \"#utility.yul\":5441:5447   */\n      dup5\n        /* \"#utility.yul\":5401:5468   */\n      tag_501\n      jump\t// in\n    tag_627:\n        /* \"#utility.yul\":5261:5475   */\n      swap3\n      swap2\n      pop\n      pop\n      jump\t// out\n        /* \"#utility.yul\":5481:6100   */\n    tag_95:\n        /* \"#utility.yul\":5558:5564   */\n      0x00\n        /* \"#utility.yul\":5566:5572   */\n      0x00\n        /* \"#utility.yul\":5574:5580   */\n      0x00\n        /* \"#utility.yul\":5623:5625   */\n      0x60\n        /* \"#utility.yul\":5611:5620   */\n      dup5\n        /* \"#utility.yul\":5602:5609   */\n      dup7\n        /* \"#utility.yul\":5598:5621   */\n      sub\n        /* \"#utility.yul\":5594:5626   */\n      slt\n        /* \"#utility.yul\":5591:5710   */\n      iszero\n      tag_629\n      jumpi\n        /* \"#utility.yul\":5629:5708   */\n      tag_630\n      tag_486\n      jump\t// in\n    tag_630:\n        /* \"#utility.yul\":5591:5710   */\n    tag_629:\n        /* \"#utility.yul\":5749:5750   */\n      0x00\n        /* \"#utility.yul\":5774:5827   */\n      tag_631\n        /* \"#utility.yul\":5819:5826   */\n      dup7\n        /* \"#utility.yul\":5810:5816   */\n      dup3\n        /* \"#utility.yul\":5799:5808   */\n      dup8\n        /* \"#utility.yul\":5795:5817   */\n      add\n        /* \"#utility.yul\":5774:5827   */\n      tag_494\n      jump\t// in\n    tag_631:\n        /* \"#utility.yul\":5764:5827   */\n      swap4\n      pop\n        /* \"#utility.yul\":5720:5837   */\n      pop\n        /* \"#utility.yul\":5876:5878   */\n      0x20\n        /* \"#utility.yul\":5902:5955   */\n      tag_632\n        /* \"#utility.yul\":5947:5954   */\n      dup7\n        /* \"#utility.yul\":5938:5944   */\n      dup3\n        /* \"#utility.yul\":5927:5936   */\n      dup8\n        /* \"#utility.yul\":5923:5945   */\n      add\n        /* \"#utility.yul\":5902:5955   */\n      tag_494\n      jump\t// in\n    tag_632:\n        /* \"#utility.yul\":5892:5955   */\n      swap3\n      pop\n        /* \"#utility.yul\":5847:5965   */\n      pop\n        /* \"#utility.yul\":6004:6006   */\n      0x40\n        /* \"#utility.yul\":6030:6083   */\n      tag_633\n        /* \"#utility.yul\":6075:6082   */\n      dup7\n        /* \"#utility.yul\":6066:6072   */\n      dup3\n        /* \"#utility.yul\":6055:6064   */\n      dup8\n        /* \"#utility.yul\":6051:6073   */\n      add\n        /* \"#utility.yul\":6030:6083   */\n      tag_494\n      jump\t// in\n    tag_633:\n        /* \"#utility.yul\":6020:6083   */\n      swap2\n      pop\n        /* \"#utility.yul\":5975:6093   */\n      pop\n        /* \"#utility.yul\":5481:6100   */\n      swap3\n      pop\n      swap3\n      pop\n      swap3\n      jump\t// out\n        /* \"#utility.yul\":6106:6435   */\n    tag_110:\n        /* \"#utility.yul\":6165:6171   */\n      0x00\n        /* \"#utility.yul\":6214:6216   */\n      0x20\n        /* \"#utility.yul\":6202:6211   */\n      dup3\n        /* \"#utility.yul\":6193:6200   */\n      dup5\n        /* \"#utility.yul\":6189:6212   */\n      sub\n        /* \"#utility.yul\":6185:6217   */\n      slt\n        /* \"#utility.yul\":6182:6301   */\n      iszero\n      tag_635\n      jumpi\n        /* \"#utility.yul\":6220:6299   */\n      tag_636\n      tag_486\n      jump\t// in\n    tag_636:\n        /* \"#utility.yul\":6182:6301   */\n    tag_635:\n        /* \"#utility.yul\":6340:6341   */\n      0x00\n        /* \"#utility.yul\":6365:6418   */\n      tag_637\n        /* \"#utility.yul\":6410:6417   */\n      dup5\n        /* \"#utility.yul\":6401:6407   */\n      dup3\n        /* \"#utility.yul\":6390:6399   */\n      dup6\n        /* \"#utility.yul\":6386:6408   */\n      add\n        /* \"#utility.yul\":6365:6418   */\n      tag_494\n      jump\t// in\n    tag_637:\n        /* \"#utility.yul\":6355:6418   */\n      swap2\n      pop\n        /* \"#utility.yul\":6311:6428   */\n      pop\n        /* \"#utility.yul\":6106:6435   */\n      swap3\n      swap2\n      pop\n      pop\n      jump\t// out\n        /* \"#utility.yul\":6441:6770   */\n    tag_115:\n        /* \"#utility.yul\":6500:6506   */\n      0x00\n        /* \"#utility.yul\":6549:6551   */\n      0x20\n        /* \"#utility.yul\":6537:6546   */\n      dup3\n        /* \"#utility.yul\":6528:6535   */\n      dup5\n        /* \"#utility.yul\":6524:6547   */\n      sub\n        /* \"#utility.yul\":6520:6552   */\n      slt\n        /* \"#utility.yul\":6517:6636   */\n      iszero\n      tag_639\n      jumpi\n        /* \"#utility.yul\":6555:6634   */\n      tag_640\n      tag_486\n      jump\t// in\n    tag_640:\n        /* \"#utility.yul\":6517:6636   */\n    tag_639:\n        /* \"#utility.yul\":6675:6676   */\n      0x00\n        /* \"#utility.yul\":6700:6753   */\n      tag_641\n        /* \"#utility.yul\":6745:6752   */\n      dup5\n        /* \"#utility.yul\":6736:6742   */\n      dup3\n        /* \"#utility.yul\":6725:6734   */\n      dup6\n        /* \"#utility.yul\":6721:6743   */\n      add\n        /* \"#utility.yul\":6700:6753   */\n      tag_491\n      jump\t// in\n    tag_641:\n        /* \"#utility.yul\":6690:6753   */\n      swap2\n      pop\n        /* \"#utility.yul\":6646:6763   */\n      pop\n        /* \"#utility.yul\":6441:6770   */\n      swap3\n      swap2\n      pop\n      pop\n      jump\t// out\n        /* \"#utility.yul\":6776:6894   */\n    tag_502:\n        /* \"#utility.yul\":6863:6887   */\n      tag_643\n        /* \"#utility.yul\":6881:6886   */\n      dup2\n        /* \"#utility.yul\":6863:6887   */\n      tag_489\n      jump\t// in\n    tag_643:\n        /* \"#utility.yul\":6858:6861   */\n      dup3\n        /* \"#utility.yul\":6851:6888   */\n      mstore\n        /* \"#utility.yul\":6776:6894   */\n      pop\n      pop\n      jump\t// out\n        /* \"#utility.yul\":6900:7122   */\n    tag_147:\n        /* \"#utility.yul\":6993:6997   */\n      0x00\n        /* \"#utility.yul\":7031:7033   */\n      0x20\n        /* \"#utility.yul\":7020:7029   */\n      dup3\n        /* \"#utility.yul\":7016:7034   */\n      add\n        /* \"#utility.yul\":7008:7034   */\n      swap1\n      pop\n        /* \"#utility.yul\":7044:7115   */\n      tag_645\n        /* \"#utility.yul\":7112:7113   */\n      0x00\n        /* \"#utility.yul\":7101:7110   */\n      dup4\n        /* \"#utility.yul\":7097:7114   */\n      add\n        /* \"#utility.yul\":7088:7094   */\n      dup5\n        /* \"#utility.yul\":7044:7115   */\n      tag_502\n      jump\t// in\n    tag_645:\n        /* \"#utility.yul\":6900:7122   */\n      swap3\n      swap2\n      pop\n      pop\n      jump\t// out\n        /* \"#utility.yul\":7128:7602   */\n    tag_199:\n        /* \"#utility.yul\":7196:7202   */\n      0x00\n        /* \"#utility.yul\":7204:7210   */\n      0x00\n        /* \"#utility.yul\":7253:7255   */\n      0x40\n        /* \"#utility.yul\":7241:7250   */\n      dup4\n        /* \"#utility.yul\":7232:7239   */\n      dup6\n        /* \"#utility.yul\":7228:7251   */\n      sub\n        /* \"#utility.yul\":7224:7256   */\n      slt\n        /* \"#utility.yul\":7221:7340   */\n      iszero\n      tag_647\n      jumpi\n        /* \"#utility.yul\":7259:7338   */\n      tag_648\n      tag_486\n      jump\t// in\n    tag_648:\n        /* \"#utility.yul\":7221:7340   */\n    tag_647:\n        /* \"#utility.yul\":7379:7380   */\n      0x00\n        /* \"#utility.yul\":7404:7457   */\n      tag_649\n        /* \"#utility.yul\":7449:7456   */\n      dup6\n        /* \"#utility.yul\":7440:7446   */\n      dup3\n        /* \"#utility.yul\":7429:7438   */\n      dup7\n        /* \"#utility.yul\":7425:7447   */\n      add\n        /* \"#utility.yul\":7404:7457   */\n      tag_494\n      jump\t// in\n    tag_649:\n        /* \"#utility.yul\":7394:7457   */\n      swap3\n      pop\n        /* \"#utility.yul\":7350:7467   */\n      pop\n        /* \"#utility.yul\":7506:7508   */\n      0x20\n        /* \"#utility.yul\":7532:7585   */\n      tag_650\n        /* \"#utility.yul\":7577:7584   */\n      dup6\n        /* \"#utility.yul\":7568:7574   */\n      dup3\n        /* \"#utility.yul\":7557:7566   */\n      dup7\n        /* \"#utility.yul\":7553:7575   */\n      add\n        /* \"#utility.yul\":7532:7585   */\n      tag_494\n      jump\t// in\n    tag_650:\n        /* \"#utility.yul\":7522:7585   */\n      swap2\n      pop\n        /* \"#utility.yul\":7477:7595   */\n      pop\n        /* \"#utility.yul\":7128:7602   */\n      swap3\n      pop\n      swap3\n      swap1\n      pop\n      jump\t// out\n        /* \"#utility.yul\":7608:8082   */\n    tag_211:\n        /* \"#utility.yul\":7676:7682   */\n      0x00\n        /* \"#utility.yul\":7684:7690   */\n      0x00\n        /* \"#utility.yul\":7733:7735   */\n      0x40\n        /* \"#utility.yul\":7721:7730   */\n      dup4\n        /* \"#utility.yul\":7712:7719   */\n      dup6\n        /* \"#utility.yul\":7708:7731   */\n      sub\n        /* \"#utility.yul\":7704:7736   */\n      slt\n        /* \"#utility.yul\":7701:7820   */\n      iszero\n      tag_652\n      jumpi\n        /* \"#utility.yul\":7739:7818   */\n      tag_653\n      tag_486\n      jump\t// in\n    tag_653:\n        /* \"#utility.yul\":7701:7820   */\n    tag_652:\n        /* \"#utility.yul\":7859:7860   */\n      0x00\n        /* \"#utility.yul\":7884:7937   */\n      tag_654\n        /* \"#utility.yul\":7929:7936   */\n      dup6\n        /* \"#utility.yul\":7920:7926   */\n      dup3\n        /* \"#utility.yul\":7909:7918   */\n      dup7\n        /* \"#utility.yul\":7905:7927   */\n      add\n        /* \"#utility.yul\":7884:7937   */\n      tag_491\n      jump\t// in\n    tag_654:\n        /* \"#utility.yul\":7874:7937   */\n      swap3\n      pop\n        /* \"#utility.yul\":7830:7947   */\n      pop\n        /* \"#utility.yul\":7986:7988   */\n      0x20\n        /* \"#utility.yul\":8012:8065   */\n      tag_655\n        /* \"#utility.yul\":8057:8064   */\n      dup6\n        /* \"#utility.yul\":8048:8054   */\n      dup3\n        /* \"#utility.yul\":8037:8046   */\n      dup7\n        /* \"#utility.yul\":8033:8055   */\n      add\n        /* \"#utility.yul\":8012:8065   */\n      tag_491\n      jump\t// in\n    tag_655:\n        /* \"#utility.yul\":8002:8065   */\n      swap2\n      pop\n        /* \"#utility.yul\":7957:8075   */\n      pop\n        /* \"#utility.yul\":7608:8082   */\n      swap3\n      pop\n      swap3\n      swap1\n      pop\n      jump\t// out\n        /* \"#utility.yul\":8088:8420   */\n    tag_219:\n        /* \"#utility.yul\":8209:8213   */\n      0x00\n        /* \"#utility.yul\":8247:8249   */\n      0x40\n        /* \"#utility.yul\":8236:8245   */\n      dup3\n        /* \"#utility.yul\":8232:8250   */\n      add\n        /* \"#utility.yul\":8224:8250   */\n      swap1\n      pop\n        /* \"#utility.yul\":8260:8331   */\n      tag_657\n        /* \"#utility.yul\":8328:8329   */\n      0x00\n        /* \"#utility.yul\":8317:8326   */\n      dup4\n        /* \"#utility.yul\":8313:8330   */\n      add\n        /* \"#utility.yul\":8304:8310   */\n      dup6\n        /* \"#utility.yul\":8260:8331   */\n      tag_497\n      jump\t// in\n    tag_657:\n        /* \"#utility.yul\":8341:8413   */\n      tag_658\n        /* \"#utility.yul\":8409:8411   */\n      0x20\n        /* \"#utility.yul\":8398:8407   */\n      dup4\n        /* \"#utility.yul\":8394:8412   */\n      add\n        /* \"#utility.yul\":8385:8391   */\n      dup5\n        /* \"#utility.yul\":8341:8413   */\n      tag_497\n      jump\t// in\n    tag_658:\n        /* \"#utility.yul\":8088:8420   */\n      swap4\n      swap3\n      pop\n      pop\n      pop\n      jump\t// out\n        /* \"#utility.yul\":8426:8606   */\n    tag_503:\n        /* \"#utility.yul\":8474:8551   */\n      0x4e487b7100000000000000000000000000000000000000000000000000000000\n        /* \"#utility.yul\":8471:8472   */\n      0x00\n        /* \"#utility.yul\":8464:8552   */\n      mstore\n        /* \"#utility.yul\":8571:8575   */\n      0x22\n        /* \"#utility.yul\":8568:8569   */\n      0x04\n        /* \"#utility.yul\":8561:8576   */\n      mstore\n        /* \"#utility.yul\":8595:8599   */\n      0x24\n        /* \"#utility.yul\":8592:8593   */\n      0x00\n        /* \"#utility.yul\":8585:8600   */\n      revert\n        /* \"#utility.yul\":8612:8932   */\n    tag_229:\n        /* \"#utility.yul\":8656:8662   */\n      0x00\n        /* \"#utility.yul\":8693:8694   */\n      0x02\n        /* \"#utility.yul\":8687:8691   */\n      dup3\n        /* \"#utility.yul\":8683:8695   */\n      div\n        /* \"#utility.yul\":8673:8695   */\n      swap1\n      pop\n        /* \"#utility.yul\":8740:8741   */\n      0x01\n        /* \"#utility.yul\":8734:8738   */\n      dup3\n        /* \"#utility.yul\":8730:8742   */\n      and\n        /* \"#utility.yul\":8761:8779   */\n      dup1\n        /* \"#utility.yul\":8751:8832   */\n      tag_661\n      jumpi\n        /* \"#utility.yul\":8817:8821   */\n      0x7f\n        /* \"#utility.yul\":8809:8815   */\n      dup3\n        /* \"#utility.yul\":8805:8822   */\n      and\n        /* \"#utility.yul\":8795:8822   */\n      swap2\n      pop\n        /* \"#utility.yul\":8751:8832   */\n    tag_661:\n        /* \"#utility.yul\":8879:8881   */\n      0x20\n        /* \"#utility.yul\":8871:8877   */\n      dup3\n        /* \"#utility.yul\":8868:8882   */\n      lt\n        /* \"#utility.yul\":8848:8866   */\n      dup2\n        /* \"#utility.yul\":8845:8883   */\n      sub\n        /* \"#utility.yul\":8842:8926   */\n      tag_662\n      jumpi\n        /* \"#utility.yul\":8898:8916   */\n      tag_663\n      tag_503\n      jump\t// in\n    tag_663:\n        /* \"#utility.yul\":8842:8926   */\n    tag_662:\n        /* \"#utility.yul\":8663:8932   */\n      pop\n        /* \"#utility.yul\":8612:8932   */\n      swap2\n      swap1\n      pop\n      jump\t// out\n        /* \"#utility.yul\":8938:9111   */\n    tag_504:\n        /* \"#utility.yul\":9078:9103   */\n      0x417070726f766520746f207a65726f2061646472657373000000000000000000\n        /* \"#utility.yul\":9074:9075   */\n      0x00\n        /* \"#utility.yul\":9066:9072   */\n      dup3\n        /* \"#utility.yul\":9062:9076   */\n      add\n        /* \"#utility.yul\":9055:9104   */\n      mstore\n        /* \"#utility.yul\":8938:9111   */\n      pop\n      jump\t// out\n        /* \"#utility.yul\":9117:9483   */\n    tag_505:\n        /* \"#utility.yul\":9259:9262   */\n      0x00\n        /* \"#utility.yul\":9280:9347   */\n      tag_666\n        /* \"#utility.yul\":9344:9346   */\n      0x17\n        /* \"#utility.yul\":9339:9342   */\n      dup4\n        /* \"#utility.yul\":9280:9347   */\n      tag_481\n      jump\t// in\n    tag_666:\n        /* \"#utility.yul\":9273:9347   */\n      swap2\n      pop\n        /* \"#utility.yul\":9356:9449   */\n      tag_667\n        /* \"#utility.yul\":9445:9448   */\n      dup3\n        /* \"#utility.yul\":9356:9449   */\n      tag_504\n      jump\t// in\n    tag_667:\n        /* \"#utility.yul\":9474:9476   */\n      0x20\n        /* \"#utility.yul\":9469:9472   */\n      dup3\n        /* \"#utility.yul\":9465:9477   */\n      add\n        /* \"#utility.yul\":9458:9477   */\n      swap1\n      pop\n        /* \"#utility.yul\":9117:9483   */\n      swap2\n      swap1\n      pop\n      jump\t// out\n        /* \"#utility.yul\":9489:9908   */\n    tag_237:\n        /* \"#utility.yul\":9655:9659   */\n      0x00\n        /* \"#utility.yul\":9693:9695   */\n      0x20\n        /* \"#utility.yul\":9682:9691   */\n      dup3\n        /* \"#utility.yul\":9678:9696   */\n      add\n        /* \"#utility.yul\":9670:9696   */\n      swap1\n      pop\n        /* \"#utility.yul\":9742:9751   */\n      dup2\n        /* \"#utility.yul\":9736:9740   */\n      dup2\n        /* \"#utility.yul\":9732:9752   */\n      sub\n        /* \"#utility.yul\":9728:9729   */\n      0x00\n        /* \"#utility.yul\":9717:9726   */\n      dup4\n        /* \"#utility.yul\":9713:9730   */\n      add\n        /* \"#utility.yul\":9706:9753   */\n      mstore\n        /* \"#utility.yul\":9770:9901   */\n      tag_669\n        /* \"#utility.yul\":9896:9900   */\n      dup2\n        /* \"#utility.yul\":9770:9901   */\n      tag_505\n      jump\t// in\n    tag_669:\n        /* \"#utility.yul\":9762:9901   */\n      swap1\n      pop\n        /* \"#utility.yul\":9489:9908   */\n      swap2\n      swap1\n      pop\n      jump\t// out\n        /* \"#utility.yul\":9914:10084   */\n    tag_506:\n        /* \"#utility.yul\":10054:10076   */\n      0x416c6c6f77616e6365206e6f7420656e6f756768000000000000000000000000\n        /* \"#utility.yul\":10050:10051   */\n      0x00\n        /* \"#utility.yul\":10042:10048   */\n      dup3\n        /* \"#utility.yul\":10038:10052   */\n      add\n        /* \"#utility.yul\":10031:10077   */\n      mstore\n        /* \"#utility.yul\":9914:10084   */\n      pop\n      jump\t// out\n        /* \"#utility.yul\":10090:10456   */\n    tag_507:\n        /* \"#utility.yul\":10232:10235   */\n      0x00\n        /* \"#utility.yul\":10253:10320   */\n      tag_672\n        /* \"#utility.yul\":10317:10319   */\n      0x14\n        /* \"#utility.yul\":10312:10315   */\n      dup4\n        /* \"#utility.yul\":10253:10320   */\n      tag_481\n      jump\t// in\n    tag_672:\n        /* \"#utility.yul\":10246:10320   */\n      swap2\n      pop\n        /* \"#utility.yul\":10329:10422   */\n      tag_673\n        /* \"#utility.yul\":10418:10421   */\n      dup3\n        /* \"#utility.yul\":10329:10422   */\n      tag_506\n      jump\t// in\n    tag_673:\n        /* \"#utility.yul\":10447:10449   */\n      0x20\n        /* \"#utility.yul\":10442:10445   */\n      dup3\n        /* \"#utility.yul\":10438:10450   */\n      add\n        /* \"#utility.yul\":10431:10450   */\n      swap1\n      pop\n        /* \"#utility.yul\":10090:10456   */\n      swap2\n      swap1\n      pop\n      jump\t// out\n        /* \"#utility.yul\":10462:10881   */\n    tag_242:\n        /* \"#utility.yul\":10628:10632   */\n      0x00\n        /* \"#utility.yul\":10666:10668   */\n      0x20\n        /* \"#utility.yul\":10655:10664   */\n      dup3\n        /* \"#utility.yul\":10651:10669   */\n      add\n        /* \"#utility.yul\":10643:10669   */\n      swap1\n      pop\n        /* \"#utility.yul\":10715:10724   */\n      dup2\n        /* \"#utility.yul\":10709:10713   */\n      dup2\n        /* \"#utility.yul\":10705:10725   */\n      sub\n        /* \"#utility.yul\":10701:10702   */\n      0x00\n        /* \"#utility.yul\":10690:10699   */\n      dup4\n        /* \"#utility.yul\":10686:10703   */\n      add\n        /* \"#utility.yul\":10679:10726   */\n      mstore\n        /* \"#utility.yul\":10743:10874   */\n      tag_675\n        /* \"#utility.yul\":10869:10873   */\n      dup2\n        /* \"#utility.yul\":10743:10874   */\n      tag_507\n      jump\t// in\n    tag_675:\n        /* \"#utility.yul\":10735:10874   */\n      swap1\n      pop\n        /* \"#utility.yul\":10462:10881   */\n      swap2\n      swap1\n      pop\n      jump\t// out\n        /* \"#utility.yul\":10887:11067   */\n    tag_508:\n        /* \"#utility.yul\":10935:11012   */\n      0x4e487b7100000000000000000000000000000000000000000000000000000000\n        /* \"#utility.yul\":10932:10933   */\n      0x00\n        /* \"#utility.yul\":10925:11013   */\n      mstore\n        /* \"#utility.yul\":11032:11036   */\n      0x11\n        /* \"#utility.yul\":11029:11030   */\n      0x04\n        /* \"#utility.yul\":11022:11037   */\n      mstore\n        /* \"#utility.yul\":11056:11060   */\n      0x24\n        /* \"#utility.yul\":11053:11054   */\n      0x00\n        /* \"#utility.yul\":11046:11061   */\n      revert\n        /* \"#utility.yul\":11073:11267   */\n    tag_244:\n        /* \"#utility.yul\":11113:11117   */\n      0x00\n        /* \"#utility.yul\":11133:11153   */\n      tag_678\n        /* \"#utility.yul\":11151:11152   */\n      dup3\n        /* \"#utility.yul\":11133:11153   */\n      tag_492\n      jump\t// in\n    tag_678:\n        /* \"#utility.yul\":11128:11153   */\n      swap2\n      pop\n        /* \"#utility.yul\":11167:11187   */\n      tag_679\n        /* \"#utility.yul\":11185:11186   */\n      dup4\n        /* \"#utility.yul\":11167:11187   */\n      tag_492\n      jump\t// in\n    tag_679:\n        /* \"#utility.yul\":11162:11187   */\n      swap3\n      pop\n        /* \"#utility.yul\":11211:11212   */\n      dup3\n        /* \"#utility.yul\":11208:11209   */\n      dup3\n        /* \"#utility.yul\":11204:11213   */\n      sub\n        /* \"#utility.yul\":11196:11213   */\n      swap1\n      pop\n        /* \"#utility.yul\":11235:11236   */\n      dup2\n        /* \"#utility.yul\":11229:11233   */\n      dup2\n        /* \"#utility.yul\":11226:11237   */\n      gt\n        /* \"#utility.yul\":11223:11260   */\n      iszero\n      tag_680\n      jumpi\n        /* \"#utility.yul\":11240:11258   */\n      tag_681\n      tag_508\n      jump\t// in\n    tag_681:\n        /* \"#utility.yul\":11223:11260   */\n    tag_680:\n        /* \"#utility.yul\":11073:11267   */\n      swap3\n      swap2\n      pop\n      pop\n      jump\t// out\n        /* \"#utility.yul\":11273:11442   */\n    tag_509:\n        /* \"#utility.yul\":11413:11434   */\n      0x4f6e6c79206f776e65722063616e2063616c6c00000000000000000000000000\n        /* \"#utility.yul\":11409:11410   */\n      0x00\n        /* \"#utility.yul\":11401:11407   */\n      dup3\n        /* \"#utility.yul\":11397:11411   */\n      add\n        /* \"#utility.yul\":11390:11435   */\n      mstore\n        /* \"#utility.yul\":11273:11442   */\n      pop\n      jump\t// out\n        /* \"#utility.yul\":11448:11814   */\n    tag_510:\n        /* \"#utility.yul\":11590:11593   */\n      0x00\n        /* \"#utility.yul\":11611:11678   */\n      tag_684\n        /* \"#utility.yul\":11675:11677   */\n      0x13\n        /* \"#utility.yul\":11670:11673   */\n      dup4\n        /* \"#utility.yul\":11611:11678   */\n      tag_481\n      jump\t// in\n    tag_684:\n        /* \"#utility.yul\":11604:11678   */\n      swap2\n      pop\n        /* \"#utility.yul\":11687:11780   */\n      tag_685\n        /* \"#utility.yul\":11776:11779   */\n      dup3\n        /* \"#utility.yul\":11687:11780   */\n      tag_509\n      jump\t// in\n    tag_685:\n        /* \"#utility.yul\":11805:11807   */\n      0x20\n        /* \"#utility.yul\":11800:11803   */\n      dup3\n        /* \"#utility.yul\":11796:11808   */\n      add\n        /* \"#utility.yul\":11789:11808   */\n      swap1\n      pop\n        /* \"#utility.yul\":11448:11814   */\n      swap2\n      swap1\n      pop\n      jump\t// out\n        /* \"#utility.yul\":11820:12239   */\n    tag_250:\n        /* \"#utility.yul\":11986:11990   */\n      0x00\n        /* \"#utility.yul\":12024:12026   */\n      0x20\n        /* \"#utility.yul\":12013:12022   */\n      dup3\n        /* \"#utility.yul\":12009:12027   */\n      add\n        /* \"#utility.yul\":12001:12027   */\n      swap1\n      pop\n        /* \"#utility.yul\":12073:12082   */\n      dup2\n        /* \"#utility.yul\":12067:12071   */\n      dup2\n        /* \"#utility.yul\":12063:12083   */\n      sub\n        /* \"#utility.yul\":12059:12060   */\n      0x00\n        /* \"#utility.yul\":12048:12057   */\n      dup4\n        /* \"#utility.yul\":12044:12061   */\n      add\n        /* \"#utility.yul\":12037:12084   */\n      mstore\n        /* \"#utility.yul\":12101:12232   */\n      tag_687\n        /* \"#utility.yul\":12227:12231   */\n      dup2\n        /* \"#utility.yul\":12101:12232   */\n      tag_510\n      jump\t// in\n    tag_687:\n        /* \"#utility.yul\":12093:12232   */\n      swap1\n      pop\n        /* \"#utility.yul\":11820:12239   */\n      swap2\n      swap1\n      pop\n      jump\t// out\n        /* \"#utility.yul\":12245:12411   */\n    tag_511:\n        /* \"#utility.yul\":12385:12403   */\n      0x4275792074617820746f6f206869676800000000000000000000000000000000\n        /* \"#utility.yul\":12381:12382   */\n      0x00\n        /* \"#utility.yul\":12373:12379   */\n      dup3\n        /* \"#utility.yul\":12369:12383   */\n      add\n        /* \"#utility.yul\":12362:12404   */\n      mstore\n        /* \"#utility.yul\":12245:12411   */\n      pop\n      jump\t// out\n        /* \"#utility.yul\":12417:12783   */\n    tag_512:\n        /* \"#utility.yul\":12559:12562   */\n      0x00\n        /* \"#utility.yul\":12580:12647   */\n      tag_690\n        /* \"#utility.yul\":12644:12646   */\n      0x10\n        /* \"#utility.yul\":12639:12642   */\n      dup4\n        /* \"#utility.yul\":12580:12647   */\n      tag_481\n      jump\t// in\n    tag_690:\n        /* \"#utility.yul\":12573:12647   */\n      swap2\n      pop\n        /* \"#utility.yul\":12656:12749   */\n      tag_691\n        /* \"#utility.yul\":12745:12748   */\n      dup3\n        /* \"#utility.yul\":12656:12749   */\n      tag_511\n      jump\t// in\n    tag_691:\n        /* \"#utility.yul\":12774:12776   */\n      0x20\n        /* \"#utility.yul\":12769:12772   */\n      dup3\n        /* \"#utility.yul\":12765:12777   */\n      add\n        /* \"#utility.yul\":12758:12777   */\n      swap1\n      pop\n        /* \"#utility.yul\":12417:12783   */\n      swap2\n      swap1\n      pop\n      jump\t// out\n        /* \"#utility.yul\":12789:13208   */\n    tag_258:\n        /* \"#utility.yul\":12955:12959   */\n      0x00\n        /* \"#utility.yul\":12993:12995   */\n      0x20\n        /* \"#utility.yul\":12982:12991   */\n      dup3\n        /* \"#utility.yul\":12978:12996   */\n      add\n        /* \"#utility.yul\":12970:12996   */\n      swap1\n      pop\n        /* \"#utility.yul\":13042:13051   */\n      dup2\n        /* \"#utility.yul\":13036:13040   */\n      dup2\n        /* \"#utility.yul\":13032:13052   */\n      sub\n        /* \"#utility.yul\":13028:13029   */\n      0x00\n        /* \"#utility.yul\":13017:13026   */\n      dup4\n        /* \"#utility.yul\":13013:13030   */\n      add\n        /* \"#utility.yul\":13006:13053   */\n      mstore\n        /* \"#utility.yul\":13070:13201   */\n      tag_693\n        /* \"#utility.yul\":13196:13200   */\n      dup2\n        /* \"#utility.yul\":13070:13201   */\n      tag_512\n      jump\t// in\n    tag_693:\n        /* \"#utility.yul\":13062:13201   */\n      swap1\n      pop\n        /* \"#utility.yul\":12789:13208   */\n      swap2\n      swap1\n      pop\n      jump\t// out\n        /* \"#utility.yul\":13214:13381   */\n    tag_513:\n        /* \"#utility.yul\":13354:13373   */\n      0x53656c6c2074617820746f6f2068696768000000000000000000000000000000\n        /* \"#utility.yul\":13350:13351   */\n      0x00\n        /* \"#utility.yul\":13342:13348   */\n      dup3\n        /* \"#utility.yul\":13338:13352   */\n      add\n        /* \"#utility.yul\":13331:13374   */\n      mstore\n        /* \"#utility.yul\":13214:13381   */\n      pop\n      jump\t// out\n        /* \"#utility.yul\":13387:13753   */\n    tag_514:\n        /* \"#utility.yul\":13529:13532   */\n      0x00\n        /* \"#utility.yul\":13550:13617   */\n      tag_696\n        /* \"#utility.yul\":13614:13616   */\n      0x11\n        /* \"#utility.yul\":13609:13612   */\n      dup4\n        /* \"#utility.yul\":13550:13617   */\n      tag_481\n      jump\t// in\n    tag_696:\n        /* \"#utility.yul\":13543:13617   */\n      swap2\n      pop\n        /* \"#utility.yul\":13626:13719   */\n      tag_697\n        /* \"#utility.yul\":13715:13718   */\n      dup3\n        /* \"#utility.yul\":13626:13719   */\n      tag_513\n      jump\t// in\n    tag_697:\n        /* \"#utility.yul\":13744:13746   */\n      0x20\n        /* \"#utility.yul\":13739:13742   */\n      dup3\n        /* \"#utility.yul\":13735:13747   */\n      add\n        /* \"#utility.yul\":13728:13747   */\n      swap1\n      pop\n        /* \"#utility.yul\":13387:13753   */\n      swap2\n      swap1\n      pop\n      jump\t// out\n        /* \"#utility.yul\":13759:14178   */\n    tag_261:\n        /* \"#utility.yul\":13925:13929   */\n      0x00\n        /* \"#utility.yul\":13963:13965   */\n      0x20\n        /* \"#utility.yul\":13952:13961   */\n      dup3\n        /* \"#utility.yul\":13948:13966   */\n      add\n        /* \"#utility.yul\":13940:13966   */\n      swap1\n      pop\n        /* \"#utility.yul\":14012:14021   */\n      dup2\n        /* \"#utility.yul\":14006:14010   */\n      dup2\n        /* \"#utility.yul\":14002:14022   */\n      sub\n        /* \"#utility.yul\":13998:13999   */\n      0x00\n        /* \"#utility.yul\":13987:13996   */\n      dup4\n        /* \"#utility.yul\":13983:14000   */\n      add\n        /* \"#utility.yul\":13976:14023   */\n      mstore\n        /* \"#utility.yul\":14040:14171   */\n      tag_699\n        /* \"#utility.yul\":14166:14170   */\n      dup2\n        /* \"#utility.yul\":14040:14171   */\n      tag_514\n      jump\t// in\n    tag_699:\n        /* \"#utility.yul\":14032:14171   */\n      swap1\n      pop\n        /* \"#utility.yul\":13759:14178   */\n      swap2\n      swap1\n      pop\n      jump\t// out\n        /* \"#utility.yul\":14184:14355   */\n    tag_515:\n        /* \"#utility.yul\":14324:14347   */\n      0x5472616e736665722074617820746f6f20686967680000000000000000000000\n        /* \"#utility.yul\":14320:14321   */\n      0x00\n        /* \"#utility.yul\":14312:14318   */\n      dup3\n        /* \"#utility.yul\":14308:14322   */\n      add\n        /* \"#utility.yul\":14301:14348   */\n      mstore\n        /* \"#utility.yul\":14184:14355   */\n      pop\n      jump\t// out\n        /* \"#utility.yul\":14361:14727   */\n    tag_516:\n        /* \"#utility.yul\":14503:14506   */\n      0x00\n        /* \"#utility.yul\":14524:14591   */\n      tag_702\n        /* \"#utility.yul\":14588:14590   */\n      0x15\n        /* \"#utility.yul\":14583:14586   */\n      dup4\n        /* \"#utility.yul\":14524:14591   */\n      tag_481\n      jump\t// in\n    tag_702:\n        /* \"#utility.yul\":14517:14591   */\n      swap2\n      pop\n        /* \"#utility.yul\":14600:14693   */\n      tag_703\n        /* \"#utility.yul\":14689:14692   */\n      dup3\n        /* \"#utility.yul\":14600:14693   */\n      tag_515\n      jump\t// in\n    tag_703:\n        /* \"#utility.yul\":14718:14720   */\n      0x20\n        /* \"#utility.yul\":14713:14716   */\n      dup3\n        /* \"#utility.yul\":14709:14721   */\n      add\n        /* \"#utility.yul\":14702:14721   */\n      swap1\n      pop\n        /* \"#utility.yul\":14361:14727   */\n      swap2\n      swap1\n      pop\n      jump\t// out\n        /* \"#utility.yul\":14733:15152   */\n    tag_264:\n        /* \"#utility.yul\":14899:14903   */\n      0x00\n        /* \"#utility.yul\":14937:14939   */\n      0x20\n        /* \"#utility.yul\":14926:14935   */\n      dup3\n        /* \"#utility.yul\":14922:14940   */\n      add\n        /* \"#utility.yul\":14914:14940   */\n      swap1\n      pop\n        /* \"#utility.yul\":14986:14995   */\n      dup2\n        /* \"#utility.yul\":14980:14984   */\n      dup2\n        /* \"#utility.yul\":14976:14996   */\n      sub\n        /* \"#utility.yul\":14972:14973   */\n      0x00\n        /* \"#utility.yul\":14961:14970   */\n      dup4\n        /* \"#utility.yul\":14957:14974   */\n      add\n        /* \"#utility.yul\":14950:14997   */\n      mstore\n        /* \"#utility.yul\":15014:15145   */\n      tag_705\n        /* \"#utility.yul\":15140:15144   */\n      dup2\n        /* \"#utility.yul\":15014:15145   */\n      tag_516\n      jump\t// in\n    tag_705:\n        /* \"#utility.yul\":15006:15145   */\n      swap1\n      pop\n        /* \"#utility.yul\":14733:15152   */\n      swap2\n      swap1\n      pop\n      jump\t// out\n        /* \"#utility.yul\":15158:15327   */\n    tag_517:\n        /* \"#utility.yul\":15298:15319   */\n      0x4e6f206665657320746f20776974686472617700000000000000000000000000\n        /* \"#utility.yul\":15294:15295   */\n      0x00\n        /* \"#utility.yul\":15286:15292   */\n      dup3\n        /* \"#utility.yul\":15282:15296   */\n      add\n        /* \"#utility.yul\":15275:15320   */\n      mstore\n        /* \"#utility.yul\":15158:15327   */\n      pop\n      jump\t// out\n        /* \"#utility.yul\":15333:15699   */\n    tag_518:\n        /* \"#utility.yul\":15475:15478   */\n      0x00\n        /* \"#utility.yul\":15496:15563   */\n      tag_708\n        /* \"#utility.yul\":15560:15562   */\n      0x13\n        /* \"#utility.yul\":15555:15558   */\n      dup4\n        /* \"#utility.yul\":15496:15563   */\n      tag_481\n      jump\t// in\n    tag_708:\n        /* \"#utility.yul\":15489:15563   */\n      swap2\n      pop\n        /* \"#utility.yul\":15572:15665   */\n      tag_709\n        /* \"#utility.yul\":15661:15664   */\n      dup3\n        /* \"#utility.yul\":15572:15665   */\n      tag_517\n      jump\t// in\n    tag_709:\n        /* \"#utility.yul\":15690:15692   */\n      0x20\n        /* \"#utility.yul\":15685:15688   */\n      dup3\n        /* \"#utility.yul\":15681:15693   */\n      add\n        /* \"#utility.yul\":15674:15693   */\n      swap1\n      pop\n        /* \"#utility.yul\":15333:15699   */\n      swap2\n      swap1\n      pop\n      jump\t// out\n        /* \"#utility.yul\":15705:16124   */\n    tag_271:\n        /* \"#utility.yul\":15871:15875   */\n      0x00\n        /* \"#utility.yul\":15909:15911   */\n      0x20\n        /* \"#utility.yul\":15898:15907   */\n      dup3\n        /* \"#utility.yul\":15894:15912   */\n      add\n        /* \"#utility.yul\":15886:15912   */\n      swap1\n      pop\n        /* \"#utility.yul\":15958:15967   */\n      dup2\n        /* \"#utility.yul\":15952:15956   */\n      dup2\n        /* \"#utility.yul\":15948:15968   */\n      sub\n        /* \"#utility.yul\":15944:15945   */\n      0x00\n        /* \"#utility.yul\":15933:15942   */\n      dup4\n        /* \"#utility.yul\":15929:15946   */\n      add\n        /* \"#utility.yul\":15922:15969   */\n      mstore\n        /* \"#utility.yul\":15986:16117   */\n      tag_711\n        /* \"#utility.yul\":16112:16116   */\n      dup2\n        /* \"#utility.yul\":15986:16117   */\n      tag_518\n      jump\t// in\n    tag_711:\n        /* \"#utility.yul\":15978:16117   */\n      swap1\n      pop\n        /* \"#utility.yul\":15705:16124   */\n      swap2\n      swap1\n      pop\n      jump\t// out\n        /* \"#utility.yul\":16130:16321   */\n    tag_274:\n        /* \"#utility.yul\":16170:16173   */\n      0x00\n        /* \"#utility.yul\":16189:16209   */\n      tag_713\n        /* \"#utility.yul\":16207:16208   */\n      dup3\n        /* \"#utility.yul\":16189:16209   */\n      tag_492\n      jump\t// in\n    tag_713:\n        /* \"#utility.yul\":16184:16209   */\n      swap2\n      pop\n        /* \"#utility.yul\":16223:16243   */\n      tag_714\n        /* \"#utility.yul\":16241:16242   */\n      dup4\n        /* \"#utility.yul\":16223:16243   */\n      tag_492\n      jump\t// in\n    tag_714:\n        /* \"#utility.yul\":16218:16243   */\n      swap3\n      pop\n        /* \"#utility.yul\":16266:16267   */\n      dup3\n        /* \"#utility.yul\":16263:16264   */\n      dup3\n        /* \"#utility.yul\":16259:16268   */\n      add\n        /* \"#utility.yul\":16252:16268   */\n      swap1\n      pop\n        /* \"#utility.yul\":16287:16290   */\n      dup1\n        /* \"#utility.yul\":16284:16285   */\n      dup3\n        /* \"#utility.yul\":16281:16291   */\n      gt\n        /* \"#utility.yul\":16278:16314   */\n      iszero\n      tag_715\n      jumpi\n        /* \"#utility.yul\":16294:16312   */\n      tag_716\n      tag_508\n      jump\t// in\n    tag_716:\n        /* \"#utility.yul\":16278:16314   */\n    tag_715:\n        /* \"#utility.yul\":16130:16321   */\n      swap3\n      swap2\n      pop\n      pop\n      jump\t// out\n        /* \"#utility.yul\":16327:16737   */\n    tag_280:\n        /* \"#utility.yul\":16367:16374   */\n      0x00\n        /* \"#utility.yul\":16390:16410   */\n      tag_718\n        /* \"#utility.yul\":16408:16409   */\n      dup3\n        /* \"#utility.yul\":16390:16410   */\n      tag_492\n      jump\t// in\n    tag_718:\n        /* \"#utility.yul\":16385:16410   */\n      swap2\n      pop\n        /* \"#utility.yul\":16424:16444   */\n      tag_719\n        /* \"#utility.yul\":16442:16443   */\n      dup4\n        /* \"#utility.yul\":16424:16444   */\n      tag_492\n      jump\t// in\n    tag_719:\n        /* \"#utility.yul\":16419:16444   */\n      swap3\n      pop\n        /* \"#utility.yul\":16479:16480   */\n      dup3\n        /* \"#utility.yul\":16476:16477   */\n      dup3\n        /* \"#utility.yul\":16472:16481   */\n      mul\n        /* \"#utility.yul\":16501:16531   */\n      tag_720\n        /* \"#utility.yul\":16519:16530   */\n      dup2\n        /* \"#utility.yul\":16501:16531   */\n      tag_492\n      jump\t// in\n    tag_720:\n        /* \"#utility.yul\":16490:16531   */\n      swap2\n      pop\n        /* \"#utility.yul\":16680:16681   */\n      dup3\n        /* \"#utility.yul\":16671:16678   */\n      dup3\n        /* \"#utility.yul\":16667:16682   */\n      div\n        /* \"#utility.yul\":16664:16665   */\n      dup5\n        /* \"#utility.yul\":16661:16683   */\n      eq\n        /* \"#utility.yul\":16641:16642   */\n      dup4\n        /* \"#utility.yul\":16634:16643   */\n      iszero\n        /* \"#utility.yul\":16614:16697   */\n      or\n        /* \"#utility.yul\":16591:16730   */\n      tag_721\n      jumpi\n        /* \"#utility.yul\":16710:16728   */\n      tag_722\n      tag_508\n      jump\t// in\n    tag_722:\n        /* \"#utility.yul\":16591:16730   */\n    tag_721:\n        /* \"#utility.yul\":16375:16737   */\n      pop\n        /* \"#utility.yul\":16327:16737   */\n      swap3\n      swap2\n      pop\n      pop\n      jump\t// out\n        /* \"#utility.yul\":16743:16923   */\n    tag_519:\n        /* \"#utility.yul\":16791:16868   */\n      0x4e487b7100000000000000000000000000000000000000000000000000000000\n        /* \"#utility.yul\":16788:16789   */\n      0x00\n        /* \"#utility.yul\":16781:16869   */\n      mstore\n        /* \"#utility.yul\":16888:16892   */\n      0x12\n        /* \"#utility.yul\":16885:16886   */\n      0x04\n        /* \"#utility.yul\":16878:16893   */\n      mstore\n        /* \"#utility.yul\":16912:16916   */\n      0x24\n        /* \"#utility.yul\":16909:16910   */\n      0x00\n        /* \"#utility.yul\":16902:16917   */\n      revert\n        /* \"#utility.yul\":16929:17114   */\n    tag_282:\n        /* \"#utility.yul\":16969:16970   */\n      0x00\n        /* \"#utility.yul\":16986:17006   */\n      tag_725\n        /* \"#utility.yul\":17004:17005   */\n      dup3\n        /* \"#utility.yul\":16986:17006   */\n      tag_492\n      jump\t// in\n    tag_725:\n        /* \"#utility.yul\":16981:17006   */\n      swap2\n      pop\n        /* \"#utility.yul\":17020:17040   */\n      tag_726\n        /* \"#utility.yul\":17038:17039   */\n      dup4\n        /* \"#utility.yul\":17020:17040   */\n      tag_492\n      jump\t// in\n    tag_726:\n        /* \"#utility.yul\":17015:17040   */\n      swap3\n      pop\n        /* \"#utility.yul\":17059:17060   */\n      dup3\n        /* \"#utility.yul\":17049:17084   */\n      tag_727\n      jumpi\n        /* \"#utility.yul\":17064:17082   */\n      tag_728\n      tag_519\n      jump\t// in\n    tag_728:\n        /* \"#utility.yul\":17049:17084   */\n    tag_727:\n        /* \"#utility.yul\":17106:17107   */\n      dup3\n        /* \"#utility.yul\":17103:17104   */\n      dup3\n        /* \"#utility.yul\":17099:17108   */\n      div\n        /* \"#utility.yul\":17094:17108   */\n      swap1\n      pop\n        /* \"#utility.yul\":16929:17114   */\n      swap3\n      swap2\n      pop\n      pop\n      jump\t// out\n        /* \"#utility.yul\":17120:17342   */\n    tag_520:\n        /* \"#utility.yul\":17260:17294   */\n      0x546f6b656e20616d6f756e74206d757374206265206772656174657220746861\n        /* \"#utility.yul\":17256:17257   */\n      0x00\n        /* \"#utility.yul\":17248:17254   */\n      dup3\n        /* \"#utility.yul\":17244:17258   */\n      add\n        /* \"#utility.yul\":17237:17295   */\n      mstore\n        /* \"#utility.yul\":17329:17334   */\n      0x6e20300000000000000000000000000000000000000000000000000000000000\n        /* \"#utility.yul\":17324:17326   */\n      0x20\n        /* \"#utility.yul\":17316:17322   */\n      dup3\n        /* \"#utility.yul\":17312:17327   */\n      add\n        /* \"#utility.yul\":17305:17335   */\n      mstore\n        /* \"#utility.yul\":17120:17342   */\n      pop\n      jump\t// out\n        /* \"#utility.yul\":17348:17714   */\n    tag_521:\n        /* \"#utility.yul\":17490:17493   */\n      0x00\n        /* \"#utility.yul\":17511:17578   */\n      tag_731\n        /* \"#utility.yul\":17575:17577   */\n      0x23\n        /* \"#utility.yul\":17570:17573   */\n      dup4\n        /* \"#utility.yul\":17511:17578   */\n      tag_481\n      jump\t// in\n    tag_731:\n        /* \"#utility.yul\":17504:17578   */\n      swap2\n      pop\n        /* \"#utility.yul\":17587:17680   */\n      tag_732\n        /* \"#utility.yul\":17676:17679   */\n      dup3\n        /* \"#utility.yul\":17587:17680   */\n      tag_520\n      jump\t// in\n    tag_732:\n        /* \"#utility.yul\":17705:17707   */\n      0x40\n        /* \"#utility.yul\":17700:17703   */\n      dup3\n        /* \"#utility.yul\":17696:17708   */\n      add\n        /* \"#utility.yul\":17689:17708   */\n      swap1\n      pop\n        /* \"#utility.yul\":17348:17714   */\n      swap2\n      swap1\n      pop\n      jump\t// out\n        /* \"#utility.yul\":17720:18139   */\n    tag_286:\n        /* \"#utility.yul\":17886:17890   */\n      0x00\n        /* \"#utility.yul\":17924:17926   */\n      0x20\n        /* \"#utility.yul\":17913:17922   */\n      dup3\n        /* \"#utility.yul\":17909:17927   */\n      add\n        /* \"#utility.yul\":17901:17927   */\n      swap1\n      pop\n        /* \"#utility.yul\":17973:17982   */\n      dup2\n        /* \"#utility.yul\":17967:17971   */\n      dup2\n        /* \"#utility.yul\":17963:17983   */\n      sub\n        /* \"#utility.yul\":17959:17960   */\n      0x00\n        /* \"#utility.yul\":17948:17957   */\n      dup4\n        /* \"#utility.yul\":17944:17961   */\n      add\n        /* \"#utility.yul\":17937:17984   */\n      mstore\n        /* \"#utility.yul\":18001:18132   */\n      tag_734\n        /* \"#utility.yul\":18127:18131   */\n      dup2\n        /* \"#utility.yul\":18001:18132   */\n      tag_521\n      jump\t// in\n    tag_734:\n        /* \"#utility.yul\":17993:18132   */\n      swap1\n      pop\n        /* \"#utility.yul\":17720:18139   */\n      swap2\n      swap1\n      pop\n      jump\t// out\n        /* \"#utility.yul\":18145:18365   */\n    tag_522:\n        /* \"#utility.yul\":18285:18319   */\n      0x45544820616d6f756e74206d7573742062652067726561746572207468616e20\n        /* \"#utility.yul\":18281:18282   */\n      0x00\n        /* \"#utility.yul\":18273:18279   */\n      dup3\n        /* \"#utility.yul\":18269:18283   */\n      add\n        /* \"#utility.yul\":18262:18320   */\n      mstore\n        /* \"#utility.yul\":18354:18357   */\n      0x3000000000000000000000000000000000000000000000000000000000000000\n        /* \"#utility.yul\":18349:18351   */\n      0x20\n        /* \"#utility.yul\":18341:18347   */\n      dup3\n        /* \"#utility.yul\":18337:18352   */\n      add\n        /* \"#utility.yul\":18330:18358   */\n      mstore\n        /* \"#utility.yul\":18145:18365   */\n      pop\n      jump\t// out\n        /* \"#utility.yul\":18371:18737   */\n    tag_523:\n        /* \"#utility.yul\":18513:18516   */\n      0x00\n        /* \"#utility.yul\":18534:18601   */\n      tag_737\n        /* \"#utility.yul\":18598:18600   */\n      0x21\n        /* \"#utility.yul\":18593:18596   */\n      dup4\n        /* \"#utility.yul\":18534:18601   */\n      tag_481\n      jump\t// in\n    tag_737:\n        /* \"#utility.yul\":18527:18601   */\n      swap2\n      pop\n        /* \"#utility.yul\":18610:18703   */\n      tag_738\n        /* \"#utility.yul\":18699:18702   */\n      dup3\n        /* \"#utility.yul\":18610:18703   */\n      tag_522\n      jump\t// in\n    tag_738:\n        /* \"#utility.yul\":18728:18730   */\n      0x40\n        /* \"#utility.yul\":18723:18726   */\n      dup3\n        /* \"#utility.yul\":18719:18731   */\n      add\n        /* \"#utility.yul\":18712:18731   */\n      swap1\n      pop\n        /* \"#utility.yul\":18371:18737   */\n      swap2\n      swap1\n      pop\n      jump\t// out\n        /* \"#utility.yul\":18743:19162   */\n    tag_289:\n        /* \"#utility.yul\":18909:18913   */\n      0x00\n        /* \"#utility.yul\":18947:18949   */\n      0x20\n        /* \"#utility.yul\":18936:18945   */\n      dup3\n        /* \"#utility.yul\":18932:18950   */\n      add\n        /* \"#utility.yul\":18924:18950   */\n      swap1\n      pop\n        /* \"#utility.yul\":18996:19005   */\n      dup2\n        /* \"#utility.yul\":18990:18994   */\n      dup2\n        /* \"#utility.yul\":18986:19006   */\n      sub\n        /* \"#utility.yul\":18982:18983   */\n      0x00\n        /* \"#utility.yul\":18971:18980   */\n      dup4\n        /* \"#utility.yul\":18967:18984   */\n      add\n        /* \"#utility.yul\":18960:19007   */\n      mstore\n        /* \"#utility.yul\":19024:19155   */\n      tag_740\n        /* \"#utility.yul\":19150:19154   */\n      dup2\n        /* \"#utility.yul\":19024:19155   */\n      tag_523\n      jump\t// in\n    tag_740:\n        /* \"#utility.yul\":19016:19155   */\n      swap1\n      pop\n        /* \"#utility.yul\":18743:19162   */\n      swap2\n      swap1\n      pop\n      jump\t// out\n        /* \"#utility.yul\":19168:19335   */\n    tag_524:\n        /* \"#utility.yul\":19308:19327   */\n      0x4e6f7420656e6f75676820746f6b656e73000000000000000000000000000000\n        /* \"#utility.yul\":19304:19305   */\n      0x00\n        /* \"#utility.yul\":19296:19302   */\n      dup3\n        /* \"#utility.yul\":19292:19306   */\n      add\n        /* \"#utility.yul\":19285:19328   */\n      mstore\n        /* \"#utility.yul\":19168:19335   */\n      pop\n      jump\t// out\n        /* \"#utility.yul\":19341:19707   */\n    tag_525:\n        /* \"#utility.yul\":19483:19486   */\n      0x00\n        /* \"#utility.yul\":19504:19571   */\n      tag_743\n        /* \"#utility.yul\":19568:19570   */\n      0x11\n        /* \"#utility.yul\":19563:19566   */\n      dup4\n        /* \"#utility.yul\":19504:19571   */\n      tag_481\n      jump\t// in\n    tag_743:\n        /* \"#utility.yul\":19497:19571   */\n      swap2\n      pop\n        /* \"#utility.yul\":19580:19673   */\n      tag_744\n        /* \"#utility.yul\":19669:19672   */\n      dup3\n        /* \"#utility.yul\":19580:19673   */\n      tag_524\n      jump\t// in\n    tag_744:\n        /* \"#utility.yul\":19698:19700   */\n      0x20\n        /* \"#utility.yul\":19693:19696   */\n      dup3\n        /* \"#utility.yul\":19689:19701   */\n      add\n        /* \"#utility.yul\":19682:19701   */\n      swap1\n      pop\n        /* \"#utility.yul\":19341:19707   */\n      swap2\n      swap1\n      pop\n      jump\t// out\n        /* \"#utility.yul\":19713:20132   */\n    tag_292:\n        /* \"#utility.yul\":19879:19883   */\n      0x00\n        /* \"#utility.yul\":19917:19919   */\n      0x20\n        /* \"#utility.yul\":19906:19915   */\n      dup3\n        /* \"#utility.yul\":19902:19920   */\n      add\n        /* \"#utility.yul\":19894:19920   */\n      swap1\n      pop\n        /* \"#utility.yul\":19966:19975   */\n      dup2\n        /* \"#utility.yul\":19960:19964   */\n      dup2\n        /* \"#utility.yul\":19956:19976   */\n      sub\n        /* \"#utility.yul\":19952:19953   */\n      0x00\n        /* \"#utility.yul\":19941:19950   */\n      dup4\n        /* \"#utility.yul\":19937:19954   */\n      add\n        /* \"#utility.yul\":19930:19977   */\n      mstore\n        /* \"#utility.yul\":19994:20125   */\n      tag_746\n        /* \"#utility.yul\":20120:20124   */\n      dup2\n        /* \"#utility.yul\":19994:20125   */\n      tag_525\n      jump\t// in\n    tag_746:\n        /* \"#utility.yul\":19986:20125   */\n      swap1\n      pop\n        /* \"#utility.yul\":19713:20132   */\n      swap2\n      swap1\n      pop\n      jump\t// out\n        /* \"#utility.yul\":20138:20317   */\n    tag_526:\n        /* \"#utility.yul\":20278:20309   */\n      0x536861726573206d7573742062652067726561746572207468616e2030000000\n        /* \"#utility.yul\":20274:20275   */\n      0x00\n        /* \"#utility.yul\":20266:20272   */\n      dup3\n        /* \"#utility.yul\":20262:20276   */\n      add\n        /* \"#utility.yul\":20255:20310   */\n      mstore\n        /* \"#utility.yul\":20138:20317   */\n      pop\n      jump\t// out\n        /* \"#utility.yul\":20323:20689   */\n    tag_527:\n        /* \"#utility.yul\":20465:20468   */\n      0x00\n        /* \"#utility.yul\":20486:20553   */\n      tag_749\n        /* \"#utility.yul\":20550:20552   */\n      0x1d\n        /* \"#utility.yul\":20545:20548   */\n      dup4\n        /* \"#utility.yul\":20486:20553   */\n      tag_481\n      jump\t// in\n    tag_749:\n        /* \"#utility.yul\":20479:20553   */\n      swap2\n      pop\n        /* \"#utility.yul\":20562:20655   */\n      tag_750\n        /* \"#utility.yul\":20651:20654   */\n      dup3\n        /* \"#utility.yul\":20562:20655   */\n      tag_526\n      jump\t// in\n    tag_750:\n        /* \"#utility.yul\":20680:20682   */\n      0x20\n        /* \"#utility.yul\":20675:20678   */\n      dup3\n        /* \"#utility.yul\":20671:20683   */\n      add\n        /* \"#utility.yul\":20664:20683   */\n      swap1\n      pop\n        /* \"#utility.yul\":20323:20689   */\n      swap2\n      swap1\n      pop\n      jump\t// out\n        /* \"#utility.yul\":20695:21114   */\n    tag_299:\n        /* \"#utility.yul\":20861:20865   */\n      0x00\n        /* \"#utility.yul\":20899:20901   */\n      0x20\n        /* \"#utility.yul\":20888:20897   */\n      dup3\n        /* \"#utility.yul\":20884:20902   */\n      add\n        /* \"#utility.yul\":20876:20902   */\n      swap1\n      pop\n        /* \"#utility.yul\":20948:20957   */\n      dup2\n        /* \"#utility.yul\":20942:20946   */\n      dup2\n        /* \"#utility.yul\":20938:20958   */\n      sub\n        /* \"#utility.yul\":20934:20935   */\n      0x00\n        /* \"#utility.yul\":20923:20932   */\n      dup4\n        /* \"#utility.yul\":20919:20936   */\n      add\n        /* \"#utility.yul\":20912:20959   */\n      mstore\n        /* \"#utility.yul\":20976:21107   */\n      tag_752\n        /* \"#utility.yul\":21102:21106   */\n      dup2\n        /* \"#utility.yul\":20976:21107   */\n      tag_527\n      jump\t// in\n    tag_752:\n        /* \"#utility.yul\":20968:21107   */\n      swap1\n      pop\n        /* \"#utility.yul\":20695:21114   */\n      swap2\n      swap1\n      pop\n      jump\t// out\n        /* \"#utility.yul\":21120:21562   */\n    tag_307:\n        /* \"#utility.yul\":21269:21273   */\n      0x00\n        /* \"#utility.yul\":21307:21309   */\n      0x60\n        /* \"#utility.yul\":21296:21305   */\n      dup3\n        /* \"#utility.yul\":21292:21310   */\n      add\n        /* \"#utility.yul\":21284:21310   */\n      swap1\n      pop\n        /* \"#utility.yul\":21320:21391   */\n      tag_754\n        /* \"#utility.yul\":21388:21389   */\n      0x00\n        /* \"#utility.yul\":21377:21386   */\n      dup4\n        /* \"#utility.yul\":21373:21390   */\n      add\n        /* \"#utility.yul\":21364:21370   */\n      dup7\n        /* \"#utility.yul\":21320:21391   */\n      tag_497\n      jump\t// in\n    tag_754:\n        /* \"#utility.yul\":21401:21473   */\n      tag_755\n        /* \"#utility.yul\":21469:21471   */\n      0x20\n        /* \"#utility.yul\":21458:21467   */\n      dup4\n        /* \"#utility.yul\":21454:21472   */\n      add\n        /* \"#utility.yul\":21445:21451   */\n      dup6\n        /* \"#utility.yul\":21401:21473   */\n      tag_497\n      jump\t// in\n    tag_755:\n        /* \"#utility.yul\":21483:21555   */\n      tag_756\n        /* \"#utility.yul\":21551:21553   */\n      0x40\n        /* \"#utility.yul\":21540:21549   */\n      dup4\n        /* \"#utility.yul\":21536:21554   */\n      add\n        /* \"#utility.yul\":21527:21533   */\n      dup5\n        /* \"#utility.yul\":21483:21555   */\n      tag_497\n      jump\t// in\n    tag_756:\n        /* \"#utility.yul\":21120:21562   */\n      swap5\n      swap4\n      pop\n      pop\n      pop\n      pop\n      jump\t// out\n        /* \"#utility.yul\":21568:21747   */\n    tag_528:\n        /* \"#utility.yul\":21708:21739   */\n      0x416d6f756e74206d7573742062652067726561746572207468616e2030000000\n        /* \"#utility.yul\":21704:21705   */\n      0x00\n        /* \"#utility.yul\":21696:21702   */\n      dup3\n        /* \"#utility.yul\":21692:21706   */\n      add\n        /* \"#utility.yul\":21685:21740   */\n      mstore\n        /* \"#utility.yul\":21568:21747   */\n      pop\n      jump\t// out\n        /* \"#utility.yul\":21753:22119   */\n    tag_529:\n        /* \"#utility.yul\":21895:21898   */\n      0x00\n        /* \"#utility.yul\":21916:21983   */\n      tag_759\n        /* \"#utility.yul\":21980:21982   */\n      0x1d\n        /* \"#utility.yul\":21975:21978   */\n      dup4\n        /* \"#utility.yul\":21916:21983   */\n      tag_481\n      jump\t// in\n    tag_759:\n        /* \"#utility.yul\":21909:21983   */\n      swap2\n      pop\n        /* \"#utility.yul\":21992:22085   */\n      tag_760\n        /* \"#utility.yul\":22081:22084   */\n      dup3\n        /* \"#utility.yul\":21992:22085   */\n      tag_528\n      jump\t// in\n    tag_760:\n        /* \"#utility.yul\":22110:22112   */\n      0x20\n        /* \"#utility.yul\":22105:22108   */\n      dup3\n        /* \"#utility.yul\":22101:22113   */\n      add\n        /* \"#utility.yul\":22094:22113   */\n      swap1\n      pop\n        /* \"#utility.yul\":21753:22119   */\n      swap2\n      swap1\n      pop\n      jump\t// out\n        /* \"#utility.yul\":22125:22544   */\n    tag_317:\n        /* \"#utility.yul\":22291:22295   */\n      0x00\n        /* \"#utility.yul\":22329:22331   */\n      0x20\n        /* \"#utility.yul\":22318:22327   */\n      dup3\n        /* \"#utility.yul\":22314:22332   */\n      add\n        /* \"#utility.yul\":22306:22332   */\n      swap1\n      pop\n        /* \"#utility.yul\":22378:22387   */\n      dup2\n        /* \"#utility.yul\":22372:22376   */\n      dup2\n        /* \"#utility.yul\":22368:22388   */\n      sub\n        /* \"#utility.yul\":22364:22365   */\n      0x00\n        /* \"#utility.yul\":22353:22362   */\n      dup4\n        /* \"#utility.yul\":22349:22366   */\n      add\n        /* \"#utility.yul\":22342:22389   */\n      mstore\n        /* \"#utility.yul\":22406:22537   */\n      tag_762\n        /* \"#utility.yul\":22532:22536   */\n      dup2\n        /* \"#utility.yul\":22406:22537   */\n      tag_529\n      jump\t// in\n    tag_762:\n        /* \"#utility.yul\":22398:22537   */\n      swap1\n      pop\n        /* \"#utility.yul\":22125:22544   */\n      swap2\n      swap1\n      pop\n      jump\t// out\n        /* \"#utility.yul\":22550:22712   */\n    tag_530:\n        /* \"#utility.yul\":22690:22704   */\n      0x4e6f206c69717569646974790000000000000000000000000000000000000000\n        /* \"#utility.yul\":22686:22687   */\n      0x00\n        /* \"#utility.yul\":22678:22684   */\n      dup3\n        /* \"#utility.yul\":22674:22688   */\n      add\n        /* \"#utility.yul\":22667:22705   */\n      mstore\n        /* \"#utility.yul\":22550:22712   */\n      pop\n      jump\t// out\n        /* \"#utility.yul\":22718:23084   */\n    tag_531:\n        /* \"#utility.yul\":22860:22863   */\n      0x00\n        /* \"#utility.yul\":22881:22948   */\n      tag_765\n        /* \"#utility.yul\":22945:22947   */\n      0x0c\n        /* \"#utility.yul\":22940:22943   */\n      dup4\n        /* \"#utility.yul\":22881:22948   */\n      tag_481\n      jump\t// in\n    tag_765:\n        /* \"#utility.yul\":22874:22948   */\n      swap2\n      pop\n        /* \"#utility.yul\":22957:23050   */\n      tag_766\n        /* \"#utility.yul\":23046:23049   */\n      dup3\n        /* \"#utility.yul\":22957:23050   */\n      tag_530\n      jump\t// in\n    tag_766:\n        /* \"#utility.yul\":23075:23077   */\n      0x20\n        /* \"#utility.yul\":23070:23073   */\n      dup3\n        /* \"#utility.yul\":23066:23078   */\n      add\n        /* \"#utility.yul\":23059:23078   */\n      swap1\n      pop\n        /* \"#utility.yul\":22718:23084   */\n      swap2\n      swap1\n      pop\n      jump\t// out\n        /* \"#utility.yul\":23090:23509   */\n    tag_323:\n        /* \"#utility.yul\":23256:23260   */\n      0x00\n        /* \"#utility.yul\":23294:23296   */\n      0x20\n        /* \"#utility.yul\":23283:23292   */\n      dup3\n        /* \"#utility.yul\":23279:23297   */\n      add\n        /* \"#utility.yul\":23271:23297   */\n      swap1\n      pop\n        /* \"#utility.yul\":23343:23352   */\n      dup2\n        /* \"#utility.yul\":23337:23341   */\n      dup2\n        /* \"#utility.yul\":23333:23353   */\n      sub\n        /* \"#utility.yul\":23329:23330   */\n      0x00\n        /* \"#utility.yul\":23318:23327   */\n      dup4\n        /* \"#utility.yul\":23314:23331   */\n      add\n        /* \"#utility.yul\":23307:23354   */\n      mstore\n        /* \"#utility.yul\":23371:23502   */\n      tag_768\n        /* \"#utility.yul\":23497:23501   */\n      dup2\n        /* \"#utility.yul\":23371:23502   */\n      tag_531\n      jump\t// in\n    tag_768:\n        /* \"#utility.yul\":23363:23502   */\n      swap1\n      pop\n        /* \"#utility.yul\":23090:23509   */\n      swap2\n      swap1\n      pop\n      jump\t// out\n        /* \"#utility.yul\":23515:23685   */\n    tag_532:\n        /* \"#utility.yul\":23655:23677   */\n      0x45544820616d6f756e7420746f6f20736d616c6c000000000000000000000000\n        /* \"#utility.yul\":23651:23652   */\n      0x00\n        /* \"#utility.yul\":23643:23649   */\n      dup3\n        /* \"#utility.yul\":23639:23653   */\n      add\n        /* \"#utility.yul\":23632:23678   */\n      mstore\n        /* \"#utility.yul\":23515:23685   */\n      pop\n      jump\t// out\n        /* \"#utility.yul\":23691:24057   */\n    tag_533:\n        /* \"#utility.yul\":23833:23836   */\n      0x00\n        /* \"#utility.yul\":23854:23921   */\n      tag_771\n        /* \"#utility.yul\":23918:23920   */\n      0x14\n        /* \"#utility.yul\":23913:23916   */\n      dup4\n        /* \"#utility.yul\":23854:23921   */\n      tag_481\n      jump\t// in\n    tag_771:\n        /* \"#utility.yul\":23847:23921   */\n      swap2\n      pop\n        /* \"#utility.yul\":23930:24023   */\n      tag_772\n        /* \"#utility.yul\":24019:24022   */\n      dup3\n        /* \"#utility.yul\":23930:24023   */\n      tag_532\n      jump\t// in\n    tag_772:\n        /* \"#utility.yul\":24048:24050   */\n      0x20\n        /* \"#utility.yul\":24043:24046   */\n      dup3\n        /* \"#utility.yul\":24039:24051   */\n      add\n        /* \"#utility.yul\":24032:24051   */\n      swap1\n      pop\n        /* \"#utility.yul\":23691:24057   */\n      swap2\n      swap1\n      pop\n      jump\t// out\n        /* \"#utility.yul\":24063:24482   */\n    tag_333:\n        /* \"#utility.yul\":24229:24233   */\n      0x00\n        /* \"#utility.yul\":24267:24269   */\n      0x20\n        /* \"#utility.yul\":24256:24265   */\n      dup3\n        /* \"#utility.yul\":24252:24270   */\n      add\n        /* \"#utility.yul\":24244:24270   */\n      swap1\n      pop\n        /* \"#utility.yul\":24316:24325   */\n      dup2\n        /* \"#utility.yul\":24310:24314   */\n      dup2\n        /* \"#utility.yul\":24306:24326   */\n      sub\n        /* \"#utility.yul\":24302:24303   */\n      0x00\n        /* \"#utility.yul\":24291:24300   */\n      dup4\n        /* \"#utility.yul\":24287:24304   */\n      add\n        /* \"#utility.yul\":24280:24327   */\n      mstore\n        /* \"#utility.yul\":24344:24475   */\n      tag_774\n        /* \"#utility.yul\":24470:24474   */\n      dup2\n        /* \"#utility.yul\":24344:24475   */\n      tag_533\n      jump\t// in\n    tag_774:\n        /* \"#utility.yul\":24336:24475   */\n      swap1\n      pop\n        /* \"#utility.yul\":24063:24482   */\n      swap2\n      swap1\n      pop\n      jump\t// out\n        /* \"#utility.yul\":24488:24660   */\n    tag_534:\n        /* \"#utility.yul\":24628:24652   */\n      0x4e6f7420656e6f7567682045544820696e20706f6f6c00000000000000000000\n        /* \"#utility.yul\":24624:24625   */\n      0x00\n        /* \"#utility.yul\":24616:24622   */\n      dup3\n        /* \"#utility.yul\":24612:24626   */\n      add\n        /* \"#utility.yul\":24605:24653   */\n      mstore\n        /* \"#utility.yul\":24488:24660   */\n      pop\n      jump\t// out\n        /* \"#utility.yul\":24666:25032   */\n    tag_535:\n        /* \"#utility.yul\":24808:24811   */\n      0x00\n        /* \"#utility.yul\":24829:24896   */\n      tag_777\n        /* \"#utility.yul\":24893:24895   */\n      0x16\n        /* \"#utility.yul\":24888:24891   */\n      dup4\n        /* \"#utility.yul\":24829:24896   */\n      tag_481\n      jump\t// in\n    tag_777:\n        /* \"#utility.yul\":24822:24896   */\n      swap2\n      pop\n        /* \"#utility.yul\":24905:24998   */\n      tag_778\n        /* \"#utility.yul\":24994:24997   */\n      dup3\n        /* \"#utility.yul\":24905:24998   */\n      tag_534\n      jump\t// in\n    tag_778:\n        /* \"#utility.yul\":25023:25025   */\n      0x20\n        /* \"#utility.yul\":25018:25021   */\n      dup3\n        /* \"#utility.yul\":25014:25026   */\n      add\n        /* \"#utility.yul\":25007:25026   */\n      swap1\n      pop\n        /* \"#utility.yul\":24666:25032   */\n      swap2\n      swap1\n      pop\n      jump\t// out\n        /* \"#utility.yul\":25038:25457   */\n    tag_336:\n        /* \"#utility.yul\":25204:25208   */\n      0x00\n        /* \"#utility.yul\":25242:25244   */\n      0x20\n        /* \"#utility.yul\":25231:25240   */\n      dup3\n        /* \"#utility.yul\":25227:25245   */\n      add\n        /* \"#utility.yul\":25219:25245   */\n      swap1\n      pop\n        /* \"#utility.yul\":25291:25300   */\n      dup2\n        /* \"#utility.yul\":25285:25289   */\n      dup2\n        /* \"#utility.yul\":25281:25301   */\n      sub\n        /* \"#utility.yul\":25277:25278   */\n      0x00\n        /* \"#utility.yul\":25266:25275   */\n      dup4\n        /* \"#utility.yul\":25262:25279   */\n      add\n        /* \"#utility.yul\":25255:25302   */\n      mstore\n        /* \"#utility.yul\":25319:25450   */\n      tag_780\n        /* \"#utility.yul\":25445:25449   */\n      dup2\n        /* \"#utility.yul\":25319:25450   */\n      tag_535\n      jump\t// in\n    tag_780:\n        /* \"#utility.yul\":25311:25450   */\n      swap1\n      pop\n        /* \"#utility.yul\":25038:25457   */\n      swap2\n      swap1\n      pop\n      jump\t// out\n        /* \"#utility.yul\":25463:25628   */\n    tag_536:\n        /* \"#utility.yul\":25603:25620   */\n      0x546f6f2072657374726963746976650000000000000000000000000000000000\n        /* \"#utility.yul\":25599:25600   */\n      0x00\n        /* \"#utility.yul\":25591:25597   */\n      dup3\n        /* \"#utility.yul\":25587:25601   */\n      add\n        /* \"#utility.yul\":25580:25621   */\n      mstore\n        /* \"#utility.yul\":25463:25628   */\n      pop\n      jump\t// out\n        /* \"#utility.yul\":25634:26000   */\n    tag_537:\n        /* \"#utility.yul\":25776:25779   */\n      0x00\n        /* \"#utility.yul\":25797:25864   */\n      tag_783\n        /* \"#utility.yul\":25861:25863   */\n      0x0f\n        /* \"#utility.yul\":25856:25859   */\n      dup4\n        /* \"#utility.yul\":25797:25864   */\n      tag_481\n      jump\t// in\n    tag_783:\n        /* \"#utility.yul\":25790:25864   */\n      swap2\n      pop\n        /* \"#utility.yul\":25873:25966   */\n      tag_784\n        /* \"#utility.yul\":25962:25965   */\n      dup3\n        /* \"#utility.yul\":25873:25966   */\n      tag_536\n      jump\t// in\n    tag_784:\n        /* \"#utility.yul\":25991:25993   */\n      0x20\n        /* \"#utility.yul\":25986:25989   */\n      dup3\n        /* \"#utility.yul\":25982:25994   */\n      add\n        /* \"#utility.yul\":25975:25994   */\n      swap1\n      pop\n        /* \"#utility.yul\":25634:26000   */\n      swap2\n      swap1\n      pop\n      jump\t// out\n        /* \"#utility.yul\":26006:26425   */\n    tag_350:\n        /* \"#utility.yul\":26172:26176   */\n      0x00\n        /* \"#utility.yul\":26210:26212   */\n      0x20\n        /* \"#utility.yul\":26199:26208   */\n      dup3\n        /* \"#utility.yul\":26195:26213   */\n      add\n        /* \"#utility.yul\":26187:26213   */\n      swap1\n      pop\n        /* \"#utility.yul\":26259:26268   */\n      dup2\n        /* \"#utility.yul\":26253:26257   */\n      dup2\n        /* \"#utility.yul\":26249:26269   */\n      sub\n        /* \"#utility.yul\":26245:26246   */\n      0x00\n        /* \"#utility.yul\":26234:26243   */\n      dup4\n        /* \"#utility.yul\":26230:26247   */\n      add\n        /* \"#utility.yul\":26223:26270   */\n      mstore\n        /* \"#utility.yul\":26287:26418   */\n      tag_786\n        /* \"#utility.yul\":26413:26417   */\n      dup2\n        /* \"#utility.yul\":26287:26418   */\n      tag_537\n      jump\t// in\n    tag_786:\n        /* \"#utility.yul\":26279:26418   */\n      swap1\n      pop\n        /* \"#utility.yul\":26006:26425   */\n      swap2\n      swap1\n      pop\n      jump\t// out\n        /* \"#utility.yul\":26431:26596   */\n    tag_538:\n        /* \"#utility.yul\":26571:26588   */\n      0x496e76616c696420616464726573730000000000000000000000000000000000\n        /* \"#utility.yul\":26567:26568   */\n      0x00\n        /* \"#utility.yul\":26559:26565   */\n      dup3\n        /* \"#utility.yul\":26555:26569   */\n      add\n        /* \"#utility.yul\":26548:26589   */\n      mstore\n        /* \"#utility.yul\":26431:26596   */\n      pop\n      jump\t// out\n        /* \"#utility.yul\":26602:26968   */\n    tag_539:\n        /* \"#utility.yul\":26744:26747   */\n      0x00\n        /* \"#utility.yul\":26765:26832   */\n      tag_789\n        /* \"#utility.yul\":26829:26831   */\n      0x0f\n        /* \"#utility.yul\":26824:26827   */\n      dup4\n        /* \"#utility.yul\":26765:26832   */\n      tag_481\n      jump\t// in\n    tag_789:\n        /* \"#utility.yul\":26758:26832   */\n      swap2\n      pop\n        /* \"#utility.yul\":26841:26934   */\n      tag_790\n        /* \"#utility.yul\":26930:26933   */\n      dup3\n        /* \"#utility.yul\":26841:26934   */\n      tag_538\n      jump\t// in\n    tag_790:\n        /* \"#utility.yul\":26959:26961   */\n      0x20\n        /* \"#utility.yul\":26954:26957   */\n      dup3\n        /* \"#utility.yul\":26950:26962   */\n      add\n        /* \"#utility.yul\":26943:26962   */\n      swap1\n      pop\n        /* \"#utility.yul\":26602:26968   */\n      swap2\n      swap1\n      pop\n      jump\t// out\n        /* \"#utility.yul\":26974:27393   */\n    tag_357:\n        /* \"#utility.yul\":27140:27144   */\n      0x00\n        /* \"#utility.yul\":27178:27180   */\n      0x20\n        /* \"#utility.yul\":27167:27176   */\n      dup3\n        /* \"#utility.yul\":27163:27181   */\n      add\n        /* \"#utility.yul\":27155:27181   */\n      swap1\n      pop\n        /* \"#utility.yul\":27227:27236   */\n      dup2\n        /* \"#utility.yul\":27221:27225   */\n      dup2\n        /* \"#utility.yul\":27217:27237   */\n      sub\n        /* \"#utility.yul\":27213:27214   */\n      0x00\n        /* \"#utility.yul\":27202:27211   */\n      dup4\n        /* \"#utility.yul\":27198:27215   */\n      add\n        /* \"#utility.yul\":27191:27238   */\n      mstore\n        /* \"#utility.yul\":27255:27386   */\n      tag_792\n        /* \"#utility.yul\":27381:27385   */\n      dup2\n        /* \"#utility.yul\":27255:27386   */\n      tag_539\n      jump\t// in\n    tag_792:\n        /* \"#utility.yul\":27247:27386   */\n      swap1\n      pop\n        /* \"#utility.yul\":26974:27393   */\n      swap2\n      swap1\n      pop\n      jump\t// out\n        /* \"#utility.yul\":27399:27566   */\n    tag_540:\n        /* \"#utility.yul\":27539:27558   */\n      0x4e6f7420656e6f75676820736861726573000000000000000000000000000000\n        /* \"#utility.yul\":27535:27536   */\n      0x00\n        /* \"#utility.yul\":27527:27533   */\n      dup3\n        /* \"#utility.yul\":27523:27537   */\n      add\n        /* \"#utility.yul\":27516:27559   */\n      mstore\n        /* \"#utility.yul\":27399:27566   */\n      pop\n      jump\t// out\n        /* \"#utility.yul\":27572:27938   */\n    tag_541:\n        /* \"#utility.yul\":27714:27717   */\n      0x00\n        /* \"#utility.yul\":27735:27802   */\n      tag_795\n        /* \"#utility.yul\":27799:27801   */\n      0x11\n        /* \"#utility.yul\":27794:27797   */\n      dup4\n        /* \"#utility.yul\":27735:27802   */\n      tag_481\n      jump\t// in\n    tag_795:\n        /* \"#utility.yul\":27728:27802   */\n      swap2\n      pop\n        /* \"#utility.yul\":27811:27904   */\n      tag_796\n        /* \"#utility.yul\":27900:27903   */\n      dup3\n        /* \"#utility.yul\":27811:27904   */\n      tag_540\n      jump\t// in\n    tag_796:\n        /* \"#utility.yul\":27929:27931   */\n      0x20\n        /* \"#utility.yul\":27924:27927   */\n      dup3\n        /* \"#utility.yul\":27920:27932   */\n      add\n        /* \"#utility.yul\":27913:27932   */\n      swap1\n      pop\n        /* \"#utility.yul\":27572:27938   */\n      swap2\n      swap1\n      pop\n      jump\t// out\n        /* \"#utility.yul\":27944:28363   */\n    tag_368:\n        /* \"#utility.yul\":28110:28114   */\n      0x00\n        /* \"#utility.yul\":28148:28150   */\n      0x20\n        /* \"#utility.yul\":28137:28146   */\n      dup3\n        /* \"#utility.yul\":28133:28151   */\n      add\n        /* \"#utility.yul\":28125:28151   */\n      swap1\n      pop\n        /* \"#utility.yul\":28197:28206   */\n      dup2\n        /* \"#utility.yul\":28191:28195   */\n      dup2\n        /* \"#utility.yul\":28187:28207   */\n      sub\n        /* \"#utility.yul\":28183:28184   */\n      0x00\n        /* \"#utility.yul\":28172:28181   */\n      dup4\n        /* \"#utility.yul\":28168:28185   */\n      add\n        /* \"#utility.yul\":28161:28208   */\n      mstore\n        /* \"#utility.yul\":28225:28356   */\n      tag_798\n        /* \"#utility.yul\":28351:28355   */\n      dup2\n        /* \"#utility.yul\":28225:28356   */\n      tag_541\n      jump\t// in\n    tag_798:\n        /* \"#utility.yul\":28217:28356   */\n      swap1\n      pop\n        /* \"#utility.yul\":27944:28363   */\n      swap2\n      swap1\n      pop\n      jump\t// out\n        /* \"#utility.yul\":28369:28549   */\n    tag_542:\n        /* \"#utility.yul\":28509:28541   */\n      0x416d6f756e7473206d7573742062652067726561746572207468616e20300000\n        /* \"#utility.yul\":28505:28506   */\n      0x00\n        /* \"#utility.yul\":28497:28503   */\n      dup3\n        /* \"#utility.yul\":28493:28507   */\n      add\n        /* \"#utility.yul\":28486:28542   */\n      mstore\n        /* \"#utility.yul\":28369:28549   */\n      pop\n      jump\t// out\n        /* \"#utility.yul\":28555:28921   */\n    tag_543:\n        /* \"#utility.yul\":28697:28700   */\n      0x00\n        /* \"#utility.yul\":28718:28785   */\n      tag_801\n        /* \"#utility.yul\":28782:28784   */\n      0x1e\n        /* \"#utility.yul\":28777:28780   */\n      dup4\n        /* \"#utility.yul\":28718:28785   */\n      tag_481\n      jump\t// in\n    tag_801:\n        /* \"#utility.yul\":28711:28785   */\n      swap2\n      pop\n        /* \"#utility.yul\":28794:28887   */\n      tag_802\n        /* \"#utility.yul\":28883:28886   */\n      dup3\n        /* \"#utility.yul\":28794:28887   */\n      tag_542\n      jump\t// in\n    tag_802:\n        /* \"#utility.yul\":28912:28914   */\n      0x20\n        /* \"#utility.yul\":28907:28910   */\n      dup3\n        /* \"#utility.yul\":28903:28915   */\n      add\n        /* \"#utility.yul\":28896:28915   */\n      swap1\n      pop\n        /* \"#utility.yul\":28555:28921   */\n      swap2\n      swap1\n      pop\n      jump\t// out\n        /* \"#utility.yul\":28927:29346   */\n    tag_378:\n        /* \"#utility.yul\":29093:29097   */\n      0x00\n        /* \"#utility.yul\":29131:29133   */\n      0x20\n        /* \"#utility.yul\":29120:29129   */\n      dup3\n        /* \"#utility.yul\":29116:29134   */\n      add\n        /* \"#utility.yul\":29108:29134   */\n      swap1\n      pop\n        /* \"#utility.yul\":29180:29189   */\n      dup2\n        /* \"#utility.yul\":29174:29178   */\n      dup2\n        /* \"#utility.yul\":29170:29190   */\n      sub\n        /* \"#utility.yul\":29166:29167   */\n      0x00\n        /* \"#utility.yul\":29155:29164   */\n      dup4\n        /* \"#utility.yul\":29151:29168   */\n      add\n        /* \"#utility.yul\":29144:29191   */\n      mstore\n        /* \"#utility.yul\":29208:29339   */\n      tag_804\n        /* \"#utility.yul\":29334:29338   */\n      dup2\n        /* \"#utility.yul\":29208:29339   */\n      tag_543\n      jump\t// in\n    tag_804:\n        /* \"#utility.yul\":29200:29339   */\n      swap1\n      pop\n        /* \"#utility.yul\":28927:29346   */\n      swap2\n      swap1\n      pop\n      jump\t// out\n        /* \"#utility.yul\":29352:29516   */\n    tag_544:\n        /* \"#utility.yul\":29492:29508   */\n      0x4d617820747820746f6f206c6f77000000000000000000000000000000000000\n        /* \"#utility.yul\":29488:29489   */\n      0x00\n        /* \"#utility.yul\":29480:29486   */\n      dup3\n        /* \"#utility.yul\":29476:29490   */\n      add\n        /* \"#utility.yul\":29469:29509   */\n      mstore\n        /* \"#utility.yul\":29352:29516   */\n      pop\n      jump\t// out\n        /* \"#utility.yul\":29522:29888   */\n    tag_545:\n        /* \"#utility.yul\":29664:29667   */\n      0x00\n        /* \"#utility.yul\":29685:29752   */\n      tag_807\n        /* \"#utility.yul\":29749:29751   */\n      0x0e\n        /* \"#utility.yul\":29744:29747   */\n      dup4\n        /* \"#utility.yul\":29685:29752   */\n      tag_481\n      jump\t// in\n    tag_807:\n        /* \"#utility.yul\":29678:29752   */\n      swap2\n      pop\n        /* \"#utility.yul\":29761:29854   */\n      tag_808\n        /* \"#utility.yul\":29850:29853   */\n      dup3\n        /* \"#utility.yul\":29761:29854   */\n      tag_544\n      jump\t// in\n    tag_808:\n        /* \"#utility.yul\":29879:29881   */\n      0x20\n        /* \"#utility.yul\":29874:29877   */\n      dup3\n        /* \"#utility.yul\":29870:29882   */\n      add\n        /* \"#utility.yul\":29863:29882   */\n      swap1\n      pop\n        /* \"#utility.yul\":29522:29888   */\n      swap2\n      swap1\n      pop\n      jump\t// out\n        /* \"#utility.yul\":29894:30313   */\n    tag_398:\n        /* \"#utility.yul\":30060:30064   */\n      0x00\n        /* \"#utility.yul\":30098:30100   */\n      0x20\n        /* \"#utility.yul\":30087:30096   */\n      dup3\n        /* \"#utility.yul\":30083:30101   */\n      add\n        /* \"#utility.yul\":30075:30101   */\n      swap1\n      pop\n        /* \"#utility.yul\":30147:30156   */\n      dup2\n        /* \"#utility.yul\":30141:30145   */\n      dup2\n        /* \"#utility.yul\":30137:30157   */\n      sub\n        /* \"#utility.yul\":30133:30134   */\n      0x00\n        /* \"#utility.yul\":30122:30131   */\n      dup4\n        /* \"#utility.yul\":30118:30135   */\n      add\n        /* \"#utility.yul\":30111:30158   */\n      mstore\n        /* \"#utility.yul\":30175:30306   */\n      tag_810\n        /* \"#utility.yul\":30301:30305   */\n      dup2\n        /* \"#utility.yul\":30175:30306   */\n      tag_545\n      jump\t// in\n    tag_810:\n        /* \"#utility.yul\":30167:30306   */\n      swap1\n      pop\n        /* \"#utility.yul\":29894:30313   */\n      swap2\n      swap1\n      pop\n      jump\t// out\n        /* \"#utility.yul\":30319:30487   */\n    tag_546:\n        /* \"#utility.yul\":30459:30479   */\n      0x4d61782077616c6c657420746f6f206c6f770000000000000000000000000000\n        /* \"#utility.yul\":30455:30456   */\n      0x00\n        /* \"#utility.yul\":30447:30453   */\n      dup3\n        /* \"#utility.yul\":30443:30457   */\n      add\n        /* \"#utility.yul\":30436:30480   */\n      mstore\n        /* \"#utility.yul\":30319:30487   */\n      pop\n      jump\t// out\n        /* \"#utility.yul\":30493:30859   */\n    tag_547:\n        /* \"#utility.yul\":30635:30638   */\n      0x00\n        /* \"#utility.yul\":30656:30723   */\n      tag_813\n        /* \"#utility.yul\":30720:30722   */\n      0x12\n        /* \"#utility.yul\":30715:30718   */\n      dup4\n        /* \"#utility.yul\":30656:30723   */\n      tag_481\n      jump\t// in\n    tag_813:\n        /* \"#utility.yul\":30649:30723   */\n      swap2\n      pop\n        /* \"#utility.yul\":30732:30825   */\n      tag_814\n        /* \"#utility.yul\":30821:30824   */\n      dup3\n        /* \"#utility.yul\":30732:30825   */\n      tag_546\n      jump\t// in\n    tag_814:\n        /* \"#utility.yul\":30850:30852   */\n      0x20\n        /* \"#utility.yul\":30845:30848   */\n      dup3\n        /* \"#utility.yul\":30841:30853   */\n      add\n        /* \"#utility.yul\":30834:30853   */\n      swap1\n      pop\n        /* \"#utility.yul\":30493:30859   */\n      swap2\n      swap1\n      pop\n      jump\t// out\n        /* \"#utility.yul\":30865:31284   */\n    tag_402:\n        /* \"#utility.yul\":31031:31035   */\n      0x00\n        /* \"#utility.yul\":31069:31071   */\n      0x20\n        /* \"#utility.yul\":31058:31067   */\n      dup3\n        /* \"#utility.yul\":31054:31072   */\n      add\n        /* \"#utility.yul\":31046:31072   */\n      swap1\n      pop\n        /* \"#utility.yul\":31118:31127   */\n      dup2\n        /* \"#utility.yul\":31112:31116   */\n      dup2\n        /* \"#utility.yul\":31108:31128   */\n      sub\n        /* \"#utility.yul\":31104:31105   */\n      0x00\n        /* \"#utility.yul\":31093:31102   */\n      dup4\n        /* \"#utility.yul\":31089:31106   */\n      add\n        /* \"#utility.yul\":31082:31129   */\n      mstore\n        /* \"#utility.yul\":31146:31277   */\n      tag_816\n        /* \"#utility.yul\":31272:31276   */\n      dup2\n        /* \"#utility.yul\":31146:31277   */\n      tag_547\n      jump\t// in\n    tag_816:\n        /* \"#utility.yul\":31138:31277   */\n      swap1\n      pop\n        /* \"#utility.yul\":30865:31284   */\n      swap2\n      swap1\n      pop\n      jump\t// out\n        /* \"#utility.yul\":31290:31453   */\n    tag_548:\n        /* \"#utility.yul\":31430:31445   */\n      0x4d7573742073656e642045544800000000000000000000000000000000000000\n        /* \"#utility.yul\":31426:31427   */\n      0x00\n        /* \"#utility.yul\":31418:31424   */\n      dup3\n        /* \"#utility.yul\":31414:31428   */\n      add\n        /* \"#utility.yul\":31407:31446   */\n      mstore\n        /* \"#utility.yul\":31290:31453   */\n      pop\n      jump\t// out\n        /* \"#utility.yul\":31459:31825   */\n    tag_549:\n        /* \"#utility.yul\":31601:31604   */\n      0x00\n        /* \"#utility.yul\":31622:31689   */\n      tag_819\n        /* \"#utility.yul\":31686:31688   */\n      0x0d\n        /* \"#utility.yul\":31681:31684   */\n      dup4\n        /* \"#utility.yul\":31622:31689   */\n      tag_481\n      jump\t// in\n    tag_819:\n        /* \"#utility.yul\":31615:31689   */\n      swap2\n      pop\n        /* \"#utility.yul\":31698:31791   */\n      tag_820\n        /* \"#utility.yul\":31787:31790   */\n      dup3\n        /* \"#utility.yul\":31698:31791   */\n      tag_548\n      jump\t// in\n    tag_820:\n        /* \"#utility.yul\":31816:31818   */\n      0x20\n        /* \"#utility.yul\":31811:31814   */\n      dup3\n        /* \"#utility.yul\":31807:31819   */\n      add\n        /* \"#utility.yul\":31800:31819   */\n      swap1\n      pop\n        /* \"#utility.yul\":31459:31825   */\n      swap2\n      swap1\n      pop\n      jump\t// out\n        /* \"#utility.yul\":31831:32250   */\n    tag_406:\n        /* \"#utility.yul\":31997:32001   */\n      0x00\n        /* \"#utility.yul\":32035:32037   */\n      0x20\n        /* \"#utility.yul\":32024:32033   */\n      dup3\n        /* \"#utility.yul\":32020:32038   */\n      add\n        /* \"#utility.yul\":32012:32038   */\n      swap1\n      pop\n        /* \"#utility.yul\":32084:32093   */\n      dup2\n        /* \"#utility.yul\":32078:32082   */\n      dup2\n        /* \"#utility.yul\":32074:32094   */\n      sub\n        /* \"#utility.yul\":32070:32071   */\n      0x00\n        /* \"#utility.yul\":32059:32068   */\n      dup4\n        /* \"#utility.yul\":32055:32072   */\n      add\n        /* \"#utility.yul\":32048:32095   */\n      mstore\n        /* \"#utility.yul\":32112:32243   */\n      tag_822\n        /* \"#utility.yul\":32238:32242   */\n      dup2\n        /* \"#utility.yul\":32112:32243   */\n      tag_549\n      jump\t// in\n    tag_822:\n        /* \"#utility.yul\":32104:32243   */\n      swap1\n      pop\n        /* \"#utility.yul\":31831:32250   */\n      swap2\n      swap1\n      pop\n      jump\t// out\n        /* \"#utility.yul\":32256:32428   */\n    tag_550:\n        /* \"#utility.yul\":32396:32420   */\n      0x546f6b656e20616d6f756e7420746f6f20736d616c6c00000000000000000000\n        /* \"#utility.yul\":32392:32393   */\n      0x00\n        /* \"#utility.yul\":32384:32390   */\n      dup3\n        /* \"#utility.yul\":32380:32394   */\n      add\n        /* \"#utility.yul\":32373:32421   */\n      mstore\n        /* \"#utility.yul\":32256:32428   */\n      pop\n      jump\t// out\n        /* \"#utility.yul\":32434:32800   */\n    tag_551:\n        /* \"#utility.yul\":32576:32579   */\n      0x00\n        /* \"#utility.yul\":32597:32664   */\n      tag_825\n        /* \"#utility.yul\":32661:32663   */\n      0x16\n        /* \"#utility.yul\":32656:32659   */\n      dup4\n        /* \"#utility.yul\":32597:32664   */\n      tag_481\n      jump\t// in\n    tag_825:\n        /* \"#utility.yul\":32590:32664   */\n      swap2\n      pop\n        /* \"#utility.yul\":32673:32766   */\n      tag_826\n        /* \"#utility.yul\":32762:32765   */\n      dup3\n        /* \"#utility.yul\":32673:32766   */\n      tag_550\n      jump\t// in\n    tag_826:\n        /* \"#utility.yul\":32791:32793   */\n      0x20\n        /* \"#utility.yul\":32786:32789   */\n      dup3\n        /* \"#utility.yul\":32782:32794   */\n      add\n        /* \"#utility.yul\":32775:32794   */\n      swap1\n      pop\n        /* \"#utility.yul\":32434:32800   */\n      swap2\n      swap1\n      pop\n      jump\t// out\n        /* \"#utility.yul\":32806:33225   */\n    tag_419:\n        /* \"#utility.yul\":32972:32976   */\n      0x00\n        /* \"#utility.yul\":33010:33012   */\n      0x20\n        /* \"#utility.yul\":32999:33008   */\n      dup3\n        /* \"#utility.yul\":32995:33013   */\n      add\n        /* \"#utility.yul\":32987:33013   */\n      swap1\n      pop\n        /* \"#utility.yul\":33059:33068   */\n      dup2\n        /* \"#utility.yul\":33053:33057   */\n      dup2\n        /* \"#utility.yul\":33049:33069   */\n      sub\n        /* \"#utility.yul\":33045:33046   */\n      0x00\n        /* \"#utility.yul\":33034:33043   */\n      dup4\n        /* \"#utility.yul\":33030:33047   */\n      add\n        /* \"#utility.yul\":33023:33070   */\n      mstore\n        /* \"#utility.yul\":33087:33218   */\n      tag_828\n        /* \"#utility.yul\":33213:33217   */\n      dup2\n        /* \"#utility.yul\":33087:33218   */\n      tag_551\n      jump\t// in\n    tag_828:\n        /* \"#utility.yul\":33079:33218   */\n      swap1\n      pop\n        /* \"#utility.yul\":32806:33225   */\n      swap2\n      swap1\n      pop\n      jump\t// out\n        /* \"#utility.yul\":33231:33407   */\n    tag_552:\n        /* \"#utility.yul\":33371:33399   */\n      0x5472616e736665722066726f6d207a65726f2061646472657373000000000000\n        /* \"#utility.yul\":33367:33368   */\n      0x00\n        /* \"#utility.yul\":33359:33365   */\n      dup3\n        /* \"#utility.yul\":33355:33369   */\n      add\n        /* \"#utility.yul\":33348:33400   */\n      mstore\n        /* \"#utility.yul\":33231:33407   */\n      pop\n      jump\t// out\n        /* \"#utility.yul\":33413:33779   */\n    tag_553:\n        /* \"#utility.yul\":33555:33558   */\n      0x00\n        /* \"#utility.yul\":33576:33643   */\n      tag_831\n        /* \"#utility.yul\":33640:33642   */\n      0x1a\n        /* \"#utility.yul\":33635:33638   */\n      dup4\n        /* \"#utility.yul\":33576:33643   */\n      tag_481\n      jump\t// in\n    tag_831:\n        /* \"#utility.yul\":33569:33643   */\n      swap2\n      pop\n        /* \"#utility.yul\":33652:33745   */\n      tag_832\n        /* \"#utility.yul\":33741:33744   */\n      dup3\n        /* \"#utility.yul\":33652:33745   */\n      tag_552\n      jump\t// in\n    tag_832:\n        /* \"#utility.yul\":33770:33772   */\n      0x20\n        /* \"#utility.yul\":33765:33768   */\n      dup3\n        /* \"#utility.yul\":33761:33773   */\n      add\n        /* \"#utility.yul\":33754:33773   */\n      swap1\n      pop\n        /* \"#utility.yul\":33413:33779   */\n      swap2\n      swap1\n      pop\n      jump\t// out\n        /* \"#utility.yul\":33785:34204   */\n    tag_440:\n        /* \"#utility.yul\":33951:33955   */\n      0x00\n        /* \"#utility.yul\":33989:33991   */\n      0x20\n        /* \"#utility.yul\":33978:33987   */\n      dup3\n        /* \"#utility.yul\":33974:33992   */\n      add\n        /* \"#utility.yul\":33966:33992   */\n      swap1\n      pop\n        /* \"#utility.yul\":34038:34047   */\n      dup2\n        /* \"#utility.yul\":34032:34036   */\n      dup2\n        /* \"#utility.yul\":34028:34048   */\n      sub\n        /* \"#utility.yul\":34024:34025   */\n      0x00\n        /* \"#utility.yul\":34013:34022   */\n      dup4\n        /* \"#utility.yul\":34009:34026   */\n      add\n        /* \"#utility.yul\":34002:34049   */\n      mstore\n        /* \"#utility.yul\":34066:34197   */\n      tag_834\n        /* \"#utility.yul\":34192:34196   */\n      dup2\n        /* \"#utility.yul\":34066:34197   */\n      tag_553\n      jump\t// in\n    tag_834:\n        /* \"#utility.yul\":34058:34197   */\n      swap1\n      pop\n        /* \"#utility.yul\":33785:34204   */\n      swap2\n      swap1\n      pop\n      jump\t// out\n        /* \"#utility.yul\":34210:34384   */\n    tag_554:\n        /* \"#utility.yul\":34350:34376   */\n      0x5472616e7366657220746f207a65726f20616464726573730000000000000000\n        /* \"#utility.yul\":34346:34347   */\n      0x00\n        /* \"#utility.yul\":34338:34344   */\n      dup3\n        /* \"#utility.yul\":34334:34348   */\n      add\n        /* \"#utility.yul\":34327:34377   */\n      mstore\n        /* \"#utility.yul\":34210:34384   */\n      pop\n      jump\t// out\n        /* \"#utility.yul\":34390:34756   */\n    tag_555:\n        /* \"#utility.yul\":34532:34535   */\n      0x00\n        /* \"#utility.yul\":34553:34620   */\n      tag_837\n        /* \"#utility.yul\":34617:34619   */\n      0x18\n        /* \"#utility.yul\":34612:34615   */\n      dup4\n        /* \"#utility.yul\":34553:34620   */\n      tag_481\n      jump\t// in\n    tag_837:\n        /* \"#utility.yul\":34546:34620   */\n      swap2\n      pop\n        /* \"#utility.yul\":34629:34722   */\n      tag_838\n        /* \"#utility.yul\":34718:34721   */\n      dup3\n        /* \"#utility.yul\":34629:34722   */\n      tag_554\n      jump\t// in\n    tag_838:\n        /* \"#utility.yul\":34747:34749   */\n      0x20\n        /* \"#utility.yul\":34742:34745   */\n      dup3\n        /* \"#utility.yul\":34738:34750   */\n      add\n        /* \"#utility.yul\":34731:34750   */\n      swap1\n      pop\n        /* \"#utility.yul\":34390:34756   */\n      swap2\n      swap1\n      pop\n      jump\t// out\n        /* \"#utility.yul\":34762:35181   */\n    tag_443:\n        /* \"#utility.yul\":34928:34932   */\n      0x00\n        /* \"#utility.yul\":34966:34968   */\n      0x20\n        /* \"#utility.yul\":34955:34964   */\n      dup3\n        /* \"#utility.yul\":34951:34969   */\n      add\n        /* \"#utility.yul\":34943:34969   */\n      swap1\n      pop\n        /* \"#utility.yul\":35015:35024   */\n      dup2\n        /* \"#utility.yul\":35009:35013   */\n      dup2\n        /* \"#utility.yul\":35005:35025   */\n      sub\n        /* \"#utility.yul\":35001:35002   */\n      0x00\n        /* \"#utility.yul\":34990:34999   */\n      dup4\n        /* \"#utility.yul\":34986:35003   */\n      add\n        /* \"#utility.yul\":34979:35026   */\n      mstore\n        /* \"#utility.yul\":35043:35174   */\n      tag_840\n        /* \"#utility.yul\":35169:35173   */\n      dup2\n        /* \"#utility.yul\":35043:35174   */\n      tag_555\n      jump\t// in\n    tag_840:\n        /* \"#utility.yul\":35035:35174   */\n      swap1\n      pop\n        /* \"#utility.yul\":34762:35181   */\n      swap2\n      swap1\n      pop\n      jump\t// out\n        /* \"#utility.yul\":35187:35355   */\n    tag_556:\n        /* \"#utility.yul\":35327:35347   */\n      0x42616c616e6365206e6f7420656e6f7567680000000000000000000000000000\n        /* \"#utility.yul\":35323:35324   */\n      0x00\n        /* \"#utility.yul\":35315:35321   */\n      dup3\n        /* \"#utility.yul\":35311:35325   */\n      add\n        /* \"#utility.yul\":35304:35348   */\n      mstore\n        /* \"#utility.yul\":35187:35355   */\n      pop\n      jump\t// out\n        /* \"#utility.yul\":35361:35727   */\n    tag_557:\n        /* \"#utility.yul\":35503:35506   */\n      0x00\n        /* \"#utility.yul\":35524:35591   */\n      tag_843\n        /* \"#utility.yul\":35588:35590   */\n      0x12\n        /* \"#utility.yul\":35583:35586   */\n      dup4\n        /* \"#utility.yul\":35524:35591   */\n      tag_481\n      jump\t// in\n    tag_843:\n        /* \"#utility.yul\":35517:35591   */\n      swap2\n      pop\n        /* \"#utility.yul\":35600:35693   */\n      tag_844\n        /* \"#utility.yul\":35689:35692   */\n      dup3\n        /* \"#utility.yul\":35600:35693   */\n      tag_556\n      jump\t// in\n    tag_844:\n        /* \"#utility.yul\":35718:35720   */\n      0x20\n        /* \"#utility.yul\":35713:35716   */\n      dup3\n        /* \"#utility.yul\":35709:35721   */\n      add\n        /* \"#utility.yul\":35702:35721   */\n      swap1\n      pop\n        /* \"#utility.yul\":35361:35727   */\n      swap2\n      swap1\n      pop\n      jump\t// out\n        /* \"#utility.yul\":35733:36152   */\n    tag_448:\n        /* \"#utility.yul\":35899:35903   */\n      0x00\n        /* \"#utility.yul\":35937:35939   */\n      0x20\n        /* \"#utility.yul\":35926:35935   */\n      dup3\n        /* \"#utility.yul\":35922:35940   */\n      add\n        /* \"#utility.yul\":35914:35940   */\n      swap1\n      pop\n        /* \"#utility.yul\":35986:35995   */\n      dup2\n        /* \"#utility.yul\":35980:35984   */\n      dup2\n        /* \"#utility.yul\":35976:35996   */\n      sub\n        /* \"#utility.yul\":35972:35973   */\n      0x00\n        /* \"#utility.yul\":35961:35970   */\n      dup4\n        /* \"#utility.yul\":35957:35974   */\n      add\n        /* \"#utility.yul\":35950:35997   */\n      mstore\n        /* \"#utility.yul\":36014:36145   */\n      tag_846\n        /* \"#utility.yul\":36140:36144   */\n      dup2\n        /* \"#utility.yul\":36014:36145   */\n      tag_557\n      jump\t// in\n    tag_846:\n        /* \"#utility.yul\":36006:36145   */\n      swap1\n      pop\n        /* \"#utility.yul\":35733:36152   */\n      swap2\n      swap1\n      pop\n      jump\t// out\n        /* \"#utility.yul\":36158:36338   */\n    tag_558:\n        /* \"#utility.yul\":36298:36330   */\n      0x45786365656473206d6178207472616e73616374696f6e20616d6f756e740000\n        /* \"#utility.yul\":36294:36295   */\n      0x00\n        /* \"#utility.yul\":36286:36292   */\n      dup3\n        /* \"#utility.yul\":36282:36296   */\n      add\n        /* \"#utility.yul\":36275:36331   */\n      mstore\n        /* \"#utility.yul\":36158:36338   */\n      pop\n      jump\t// out\n        /* \"#utility.yul\":36344:36710   */\n    tag_559:\n        /* \"#utility.yul\":36486:36489   */\n      0x00\n        /* \"#utility.yul\":36507:36574   */\n      tag_849\n        /* \"#utility.yul\":36571:36573   */\n      0x1e\n        /* \"#utility.yul\":36566:36569   */\n      dup4\n        /* \"#utility.yul\":36507:36574   */\n      tag_481\n      jump\t// in\n    tag_849:\n        /* \"#utility.yul\":36500:36574   */\n      swap2\n      pop\n        /* \"#utility.yul\":36583:36676   */\n      tag_850\n        /* \"#utility.yul\":36672:36675   */\n      dup3\n        /* \"#utility.yul\":36583:36676   */\n      tag_558\n      jump\t// in\n    tag_850:\n        /* \"#utility.yul\":36701:36703   */\n      0x20\n        /* \"#utility.yul\":36696:36699   */\n      dup3\n        /* \"#utility.yul\":36692:36704   */\n      add\n        /* \"#utility.yul\":36685:36704   */\n      swap1\n      pop\n        /* \"#utility.yul\":36344:36710   */\n      swap2\n      swap1\n      pop\n      jump\t// out\n        /* \"#utility.yul\":36716:37135   */\n    tag_453:\n        /* \"#utility.yul\":36882:36886   */\n      0x00\n        /* \"#utility.yul\":36920:36922   */\n      0x20\n        /* \"#utility.yul\":36909:36918   */\n      dup3\n        /* \"#utility.yul\":36905:36923   */\n      add\n        /* \"#utility.yul\":36897:36923   */\n      swap1\n      pop\n        /* \"#utility.yul\":36969:36978   */\n      dup2\n        /* \"#utility.yul\":36963:36967   */\n      dup2\n        /* \"#utility.yul\":36959:36979   */\n      sub\n        /* \"#utility.yul\":36955:36956   */\n      0x00\n        /* \"#utility.yul\":36944:36953   */\n      dup4\n        /* \"#utility.yul\":36940:36957   */\n      add\n        /* \"#utility.yul\":36933:36980   */\n      mstore\n        /* \"#utility.yul\":36997:37128   */\n      tag_852\n        /* \"#utility.yul\":37123:37127   */\n      dup2\n        /* \"#utility.yul\":36997:37128   */\n      tag_559\n      jump\t// in\n    tag_852:\n        /* \"#utility.yul\":36989:37128   */\n      swap1\n      pop\n        /* \"#utility.yul\":36716:37135   */\n      swap2\n      swap1\n      pop\n      jump\t// out\n        /* \"#utility.yul\":37141:37316   */\n    tag_560:\n        /* \"#utility.yul\":37281:37308   */\n      0x45786365656473206d61782077616c6c657420616d6f756e7400000000000000\n        /* \"#utility.yul\":37277:37278   */\n      0x00\n        /* \"#utility.yul\":37269:37275   */\n      dup3\n        /* \"#utility.yul\":37265:37279   */\n      add\n        /* \"#utility.yul\":37258:37309   */\n      mstore\n        /* \"#utility.yul\":37141:37316   */\n      pop\n      jump\t// out\n        /* \"#utility.yul\":37322:37688   */\n    tag_561:\n        /* \"#utility.yul\":37464:37467   */\n      0x00\n        /* \"#utility.yul\":37485:37552   */\n      tag_855\n        /* \"#utility.yul\":37549:37551   */\n      0x19\n        /* \"#utility.yul\":37544:37547   */\n      dup4\n        /* \"#utility.yul\":37485:37552   */\n      tag_481\n      jump\t// in\n    tag_855:\n        /* \"#utility.yul\":37478:37552   */\n      swap2\n      pop\n        /* \"#utility.yul\":37561:37654   */\n      tag_856\n        /* \"#utility.yul\":37650:37653   */\n      dup3\n        /* \"#utility.yul\":37561:37654   */\n      tag_560\n      jump\t// in\n    tag_856:\n        /* \"#utility.yul\":37679:37681   */\n      0x20\n        /* \"#utility.yul\":37674:37677   */\n      dup3\n        /* \"#utility.yul\":37670:37682   */\n      add\n        /* \"#utility.yul\":37663:37682   */\n      swap1\n      pop\n        /* \"#utility.yul\":37322:37688   */\n      swap2\n      swap1\n      pop\n      jump\t// out\n        /* \"#utility.yul\":37694:38113   */\n    tag_457:\n        /* \"#utility.yul\":37860:37864   */\n      0x00\n        /* \"#utility.yul\":37898:37900   */\n      0x20\n        /* \"#utility.yul\":37887:37896   */\n      dup3\n        /* \"#utility.yul\":37883:37901   */\n      add\n        /* \"#utility.yul\":37875:37901   */\n      swap1\n      pop\n        /* \"#utility.yul\":37947:37956   */\n      dup2\n        /* \"#utility.yul\":37941:37945   */\n      dup2\n        /* \"#utility.yul\":37937:37957   */\n      sub\n        /* \"#utility.yul\":37933:37934   */\n      0x00\n        /* \"#utility.yul\":37922:37931   */\n      dup4\n        /* \"#utility.yul\":37918:37935   */\n      add\n        /* \"#utility.yul\":37911:37958   */\n      mstore\n        /* \"#utility.yul\":37975:38106   */\n      tag_858\n        /* \"#utility.yul\":38101:38105   */\n      dup2\n        /* \"#utility.yul\":37975:38106   */\n      tag_561\n      jump\t// in\n    tag_858:\n        /* \"#utility.yul\":37967:38106   */\n      swap1\n      pop\n        /* \"#utility.yul\":37694:38113   */\n      swap2\n      swap1\n      pop\n      jump\t// out\n        /* \"#utility.yul\":38119:38300   */\n    tag_562:\n        /* \"#utility.yul\":38259:38292   */\n      0x4461696c79207472616e73616374696f6e206c696d6974207265616368656400\n        /* \"#utility.yul\":38255:38256   */\n      0x00\n        /* \"#utility.yul\":38247:38253   */\n      dup3\n        /* \"#utility.yul\":38243:38257   */\n      add\n        /* \"#utility.yul\":38236:38293   */\n      mstore\n        /* \"#utility.yul\":38119:38300   */\n      pop\n      jump\t// out\n        /* \"#utility.yul\":38306:38672   */\n    tag_563:\n        /* \"#utility.yul\":38448:38451   */\n      0x00\n        /* \"#utility.yul\":38469:38536   */\n      tag_861\n        /* \"#utility.yul\":38533:38535   */\n      0x1f\n        /* \"#utility.yul\":38528:38531   */\n      dup4\n        /* \"#utility.yul\":38469:38536   */\n      tag_481\n      jump\t// in\n    tag_861:\n        /* \"#utility.yul\":38462:38536   */\n      swap2\n      pop\n        /* \"#utility.yul\":38545:38638   */\n      tag_862\n        /* \"#utility.yul\":38634:38637   */\n      dup3\n        /* \"#utility.yul\":38545:38638   */\n      tag_562\n      jump\t// in\n    tag_862:\n        /* \"#utility.yul\":38663:38665   */\n      0x20\n        /* \"#utility.yul\":38658:38661   */\n      dup3\n        /* \"#utility.yul\":38654:38666   */\n      add\n        /* \"#utility.yul\":38647:38666   */\n      swap1\n      pop\n        /* \"#utility.yul\":38306:38672   */\n      swap2\n      swap1\n      pop\n      jump\t// out\n        /* \"#utility.yul\":38678:39097   */\n    tag_477:\n        /* \"#utility.yul\":38844:38848   */\n      0x00\n        /* \"#utility.yul\":38882:38884   */\n      0x20\n        /* \"#utility.yul\":38871:38880   */\n      dup3\n        /* \"#utility.yul\":38867:38885   */\n      add\n        /* \"#utility.yul\":38859:38885   */\n      swap1\n      pop\n        /* \"#utility.yul\":38931:38940   */\n      dup2\n        /* \"#utility.yul\":38925:38929   */\n      dup2\n        /* \"#utility.yul\":38921:38941   */\n      sub\n        /* \"#utility.yul\":38917:38918   */\n      0x00\n        /* \"#utility.yul\":38906:38915   */\n      dup4\n        /* \"#utility.yul\":38902:38919   */\n      add\n        /* \"#utility.yul\":38895:38942   */\n      mstore\n        /* \"#utility.yul\":38959:39090   */\n      tag_864\n        /* \"#utility.yul\":39085:39089   */\n      dup2\n        /* \"#utility.yul\":38959:39090   */\n      tag_563\n      jump\t// in\n    tag_864:\n        /* \"#utility.yul\":38951:39090   */\n      swap1\n      pop\n        /* \"#utility.yul\":38678:39097   */\n      swap2\n      swap1\n      pop\n      jump\t// out\n        /* \"#utility.yul\":39103:39336   */\n    tag_479:\n        /* \"#utility.yul\":39142:39145   */\n      0x00\n        /* \"#utility.yul\":39165:39189   */\n      tag_866\n        /* \"#utility.yul\":39183:39188   */\n      dup3\n        /* \"#utility.yul\":39165:39189   */\n      tag_492\n      jump\t// in\n    tag_866:\n        /* \"#utility.yul\":39156:39189   */\n      swap2\n      pop\n        /* \"#utility.yul\":39211:39277   */\n      0xffffffffffffffffffffffffffffffffffffffffffffffffffffffffffffffff\n        /* \"#utility.yul\":39204:39209   */\n      dup3\n        /* \"#utility.yul\":39201:39278   */\n      sub\n        /* \"#utility.yul\":39198:39301   */\n      tag_867\n      jumpi\n        /* \"#utility.yul\":39281:39299   */\n      tag_868\n      tag_508\n      jump\t// in\n    tag_868:\n        /* \"#utility.yul\":39198:39301   */\n    tag_867:\n        /* \"#utility.yul\":39328:39329   */\n      0x01\n        /* \"#utility.yul\":39321:39326   */\n      dup3\n        /* \"#utility.yul\":39317:39330   */\n      add\n        /* \"#utility.yul\":39310:39330   */\n      swap1\n      pop\n        /* \"#utility.yul\":39103:39336   */\n      swap2\n      swap1\n      pop\n      jump\t// out\n\n    auxdata: 0xa264697066735822122093c58705367bec9407d03f369c9288a5462f50461651f223e757e5eb96fcd21564736f6c634300081e0033\n}\n",
				"bytecode": {
					"linkReferences": {},
					"object": "60806040526040518060400160405280600a81526020017f53696d706c654d656d65000000000000000000000000000000000000000000008152505f9081610047919061052b565b506040518060400160405280600581526020017f534d454d450000000000000000000000000000000000000000000000000000008152506001908161008c919061052b565b50601260025f6101000a81548160ff021916908360ff16021790555069d3c21bcecceda100000060035560056006556008600755600260085569021e19e0c9bab2400000600f5569043c33c1937564800000601055600a6013553480156100f1575f5ffd5b5060405161482f38038061482f83398181016040528101906101139190610658565b3360155f6101000a81548173ffffffffffffffffffffffffffffffffffffffff021916908373ffffffffffffffffffffffffffffffffffffffff1602179055508060095f6101000a81548173ffffffffffffffffffffffffffffffffffffffff021916908373ffffffffffffffffffffffffffffffffffffffff16021790555060035460045f3373ffffffffffffffffffffffffffffffffffffffff1673ffffffffffffffffffffffffffffffffffffffff1681526020019081526020015f2081905550600160145f3373ffffffffffffffffffffffffffffffffffffffff1673ffffffffffffffffffffffffffffffffffffffff1681526020019081526020015f205f6101000a81548160ff021916908315150217905550600160145f3073ffffffffffffffffffffffffffffffffffffffff1673ffffffffffffffffffffffffffffffffffffffff1681526020019081526020015f205f6101000a81548160ff0219169083151502179055503373ffffffffffffffffffffffffffffffffffffffff165f73ffffffffffffffffffffffffffffffffffffffff167fddf252ad1be2c89b69c2b068fc378daa952ba7f163c4a11628f55a4df523b3ef6003546040516102e09190610692565b60405180910390a3506106ab565b5f81519050919050565b7f4e487b71000000000000000000000000000000000000000000000000000000005f52604160045260245ffd5b7f4e487b71000000000000000000000000000000000000000000000000000000005f52602260045260245ffd5b5f600282049050600182168061036957607f821691505b60208210810361037c5761037b610325565b5b50919050565b5f819050815f5260205f209050919050565b5f6020601f8301049050919050565b5f82821b905092915050565b5f600883026103de7fffffffffffffffffffffffffffffffffffffffffffffffffffffffffffffffff826103a3565b6103e886836103a3565b95508019841693508086168417925050509392505050565b5f819050919050565b5f819050919050565b5f61042c61042761042284610400565b610409565b610400565b9050919050565b5f819050919050565b61044583610412565b61045961045182610433565b8484546103af565b825550505050565b5f5f905090565b610470610461565b61047b81848461043c565b505050565b5b8181101561049e576104935f82610468565b600181019050610481565b5050565b601f8211156104e3576104b481610382565b6104bd84610394565b810160208510156104cc578190505b6104e06104d885610394565b830182610480565b50505b505050565b5f82821c905092915050565b5f6105035f19846008026104e8565b1980831691505092915050565b5f61051b83836104f4565b9150826002028217905092915050565b610534826102ee565b67ffffffffffffffff81111561054d5761054c6102f8565b5b6105578254610352565b6105628282856104a2565b5f60209050601f831160018114610593575f8415610581578287015190505b61058b8582610510565b8655506105f2565b601f1984166105a186610382565b5f5b828110156105c8578489015182556001820191506020850194506020810190506105a3565b868310156105e557848901516105e1601f8916826104f4565b8355505b6001600288020188555050505b505050505050565b5f5ffd5b5f73ffffffffffffffffffffffffffffffffffffffff82169050919050565b5f610627826105fe565b9050919050565b6106378161061d565b8114610641575f5ffd5b50565b5f815190506106528161062e565b92915050565b5f6020828403121561066d5761066c6105fa565b5b5f61067a84828501610644565b91505092915050565b61068c81610400565b82525050565b5f6020820190506106a55f830184610683565b92915050565b614177806106b85f395ff3fe608060405260043610610233575f3560e01c80638c0b5e221161012d578063a9059cbb116100aa578063d0febe4c1161006e578063d0febe4c14610844578063dd62ed3e1461084e578063ef35e2ec1461088a578063f25f4b56146108c7578063f2fde38b146108f15761023a565b8063a9059cbb14610750578063aa4bde281461078c578063b65d08b0146107b6578063c4590d3f146107e0578063cba0e996146108085761023a565b806395d89b41116100f157806395d89b411461064a5780639c8f9f23146106745780639ce1a56b1461069c5780639db4aa04146106d8578063a19d9700146107145761023a565b80638c0b5e221461057a5780638da5cb5b146105a45780639003adfe146105ce57806390d49b9d146105f857806395097030146106205761023a565b8063476343ee116101bb578063691f224f1161017f578063691f224f1461049a5780636c11bcd3146104c457806370a08231146104ec5780637f055afe1461052857806387cd5b20146105505761023a565b8063476343ee146103d85780634b8ce602146103ee5780634b94f50e1461041857806351c6590a146104425780635d61451a1461045e5761023a565b806323b872dd1161020257806323b872dd146102f857806324024efd146103345780632836be241461035e578063313ce5671461038657806339253114146103b05761023a565b806306fdde031461023e578063095ea7b31461026857806318160ddd146102a457806320ecc78e146102ce5761023a565b3661023a57005b5f5ffd5b348015610249575f5ffd5b50610252610919565b60405161025f9190612f7c565b60405180910390f35b348015610273575f5ffd5b5061028e6004803603810190610289919061302d565b6109a4565b60405161029b9190613085565b60405180910390f35b3480156102af575f5ffd5b506102b8610aff565b6040516102c591906130ad565b60405180910390f35b3480156102d9575f5ffd5b506102e2610b05565b6040516102ef91906130ad565b60405180910390f35b348015610303575f5ffd5b5061031e600480360381019061031991906130c6565b610b0b565b60405161032b9190613085565b60405180910390f35b34801561033f575f5ffd5b50610348610c69565b60405161035591906130ad565b60405180910390f35b348015610369575f5ffd5b50610384600480360381019061037f9190613140565b610c6f565b005b348015610391575f5ffd5b5061039a610d56565b6040516103a79190613199565b60405180910390f35b3480156103bb575f5ffd5b506103d660048036038101906103d191906131b2565b610d68565b005b3480156103e3575f5ffd5b506103ec610edd565b005b3480156103f9575f5ffd5b5061040261117c565b60405161040f91906130ad565b60405180910390f35b348015610423575f5ffd5b5061042c611182565b60405161043991906130ad565b60405180910390f35b61045c60048036038101906104579190613202565b6111bd565b005b348015610469575f5ffd5b50610484600480360381019061047f919061322d565b611532565b60405161049191906130ad565b60405180910390f35b3480156104a5575f5ffd5b506104ae611638565b6040516104bb91906130ad565b60405180910390f35b3480156104cf575f5ffd5b506104ea60048036038101906104e59190613202565b61163e565b005b3480156104f7575f5ffd5b50610512600480360381019061050d919061322d565b611a12565b60405161051f91906130ad565b60405180910390f35b348015610533575f5ffd5b5061054e60048036038101906105499190613202565b611a27565b005b34801561055b575f5ffd5b50610564611b04565b60405161057191906130ad565b60405180910390f35b348015610585575f5ffd5b5061058e611b0a565b60405161059b91906130ad565b60405180910390f35b3480156105af575f5ffd5b506105b8611b10565b6040516105c59190613267565b60405180910390f35b3480156105d9575f5ffd5b506105e2611b35565b6040516105ef91906130ad565b60405180910390f35b348015610603575f5ffd5b5061061e6004803603810190610619919061322d565b611b3b565b005b34801561062b575f5ffd5b50610634611c7b565b60405161064191906130ad565b60405180910390f35b348015610655575f5ffd5b5061065e611c81565b60405161066b9190612f7c565b60405180910390f35b34801561067f575f5ffd5b5061069a60048036038101906106959190613202565b611d0d565b005b3480156106a7575f5ffd5b506106c260048036038101906106bd919061322d565b6120dd565b6040516106cf91906130ad565b60405180910390f35b3480156106e3575f5ffd5b506106fe60048036038101906106f9919061322d565b6120f2565b60405161070b91906130ad565b60405180910390f35b34801561071f575f5ffd5b5061073a6004803603810190610735919061322d565b612107565b60405161074791906130ad565b60405180910390f35b34801561075b575f5ffd5b506107766004803603810190610771919061302d565b61211c565b6040516107839190613085565b60405180910390f35b348015610797575f5ffd5b506107a0612130565b6040516107ad91906130ad565b60405180910390f35b3480156107c1575f5ffd5b506107ca612136565b6040516107d791906130ad565b60405180910390f35b3480156107eb575f5ffd5b5061080660048036038101906108019190613280565b61213c565b005b348015610813575f5ffd5b5061082e6004803603810190610829919061322d565b612280565b60405161083b9190613085565b60405180910390f35b61084c61229d565b005b348015610859575f5ffd5b50610874600480360381019061086f91906132be565b612569565b60405161088191906130ad565b60405180910390f35b348015610895575f5ffd5b506108b060048036038101906108ab919061322d565b612589565b6040516108be9291906132fc565b60405180910390f35b3480156108d2575f5ffd5b506108db612621565b6040516108e89190613267565b60405180910390f35b3480156108fc575f5ffd5b506109176004803603810190610912919061322d565b612646565b005b5f805461092590613350565b80601f016020809104026020016040519081016040528092919081815260200182805461095190613350565b801561099c5780601f106109735761010080835404028352916020019161099c565b820191905f5260205f20905b81548152906001019060200180831161097f57829003601f168201915b505050505081565b5f5f73ffffffffffffffffffffffffffffffffffffffff168373ffffffffffffffffffffffffffffffffffffffff1603610a13576040517f08c379a0000000000000000000000000000000000000000000000000000000008152600401610a0a906133ca565b60405180910390fd5b8160055f3373ffffffffffffffffffffffffffffffffffffffff1673ffffffffffffffffffffffffffffffffffffffff1681526020019081526020015f205f8573ffffffffffffffffffffffffffffffffffffffff1673ffffffffffffffffffffffffffffffffffffffff1681526020019081526020015f20819055508273ffffffffffffffffffffffffffffffffffffffff163373ffffffffffffffffffffffffffffffffffffffff167f8c5be1e5ebec7d5bd14f71427d1e84f3dd0314c0f7b2291e5b200ac8c7c3b92584604051610aed91906130ad565b60405180910390a36001905092915050565b60035481565b60135481565b5f8160055f8673ffffffffffffffffffffffffffffffffffffffff1673ffffffffffffffffffffffffffffffffffffffff1681526020019081526020015f205f3373ffffffffffffffffffffffffffffffffffffffff1673ffffffffffffffffffffffffffffffffffffffff1681526020019081526020015f20541015610bc7576040517f08c379a0000000000000000000000000000000000000000000000000000000008152600401610bbe90613432565b60405180910390fd5b8160055f8673ffffffffffffffffffffffffffffffffffffffff1673ffffffffffffffffffffffffffffffffffffffff1681526020019081526020015f205f3373ffffffffffffffffffffffffffffffffffffffff1673ffffffffffffffffffffffffffffffffffffffff1681526020019081526020015f205f828254610c4e919061347d565b92505081905550610c60848484612786565b90509392505050565b60075481565b60155f9054906101000a900473ffffffffffffffffffffffffffffffffffffffff1673ffffffffffffffffffffffffffffffffffffffff163373ffffffffffffffffffffffffffffffffffffffff1614610cfe576040517f08c379a0000000000000000000000000000000000000000000000000000000008152600401610cf5906134fa565b60405180910390fd5b8060145f8473ffffffffffffffffffffffffffffffffffffffff1673ffffffffffffffffffffffffffffffffffffffff1681526020019081526020015f205f6101000a81548160ff0219169083151502179055505050565b60025f9054906101000a900460ff1681565b60155f9054906101000a900473ffffffffffffffffffffffffffffffffffffffff1673ffffffffffffffffffffffffffffffffffffffff163373ffffffffffffffffffffffffffffffffffffffff1614610df7576040517f08c379a0000000000000000000000000000000000000000000000000000000008152600401610dee906134fa565b60405180910390fd5b6014831115610e3b576040517f08c379a0000000000000000000000000000000000000000000000000000000008152600401610e3290613562565b60405180910390fd5b6014821115610e7f576040517f08c379a0000000000000000000000000000000000000000000000000000000008152600401610e76906135ca565b60405180910390fd5b600a811115610ec3576040517f08c379a0000000000000000000000000000000000000000000000000000000008152600401610eba90613632565b60405180910390fd5b826006819055508160078190555080600881905550505050565b60155f9054906101000a900473ffffffffffffffffffffffffffffffffffffffff1673ffffffffffffffffffffffffffffffffffffffff163373ffffffffffffffffffffffffffffffffffffffff1614610f6c576040517f08c379a0000000000000000000000000000000000000000000000000000000008152600401610f63906134fa565b60405180910390fd5b5f600a5411610fb0576040517f08c379a0000000000000000000000000000000000000000000000000000000008152600401610fa79061369a565b60405180910390fd5b5f600a5490505f600a819055508060045f3073ffffffffffffffffffffffffffffffffffffffff1673ffffffffffffffffffffffffffffffffffffffff1681526020019081526020015f205f828254611009919061347d565b925050819055508060045f60095f9054906101000a900473ffffffffffffffffffffffffffffffffffffffff1673ffffffffffffffffffffffffffffffffffffffff1673ffffffffffffffffffffffffffffffffffffffff1681526020019081526020015f205f82825461107d91906136b8565b9250508190555060095f9054906101000a900473ffffffffffffffffffffffffffffffffffffffff1673ffffffffffffffffffffffffffffffffffffffff163073ffffffffffffffffffffffffffffffffffffffff167fddf252ad1be2c89b69c2b068fc378daa952ba7f163c4a11628f55a4df523b3ef8360405161110291906130ad565b60405180910390a360095f9054906101000a900473ffffffffffffffffffffffffffffffffffffffff1673ffffffffffffffffffffffffffffffffffffffff167fc0819c13be868895eb93e40eaceb96de976442fa1d404e5c55f14bb65a8c489a8260405161117191906130ad565b60405180910390a250565b600b5481565b5f5f600b5403611194575f90506111ba565b600b54670de0b6b3a7640000600c546111ad91906136eb565b6111b79190613759565b90505b90565b5f81116111ff576040517f08c379a00000000000000000000000000000000000000000000000000000000081526004016111f6906137f9565b60405180910390fd5b5f3411611241576040517f08c379a000000000000000000000000000000000000000000000000000000000815260040161123890613887565b60405180910390fd5b8060045f3373ffffffffffffffffffffffffffffffffffffffff1673ffffffffffffffffffffffffffffffffffffffff1681526020019081526020015f205410156112c1576040517f08c379a00000000000000000000000000000000000000000000000000000000081526004016112b8906138ef565b60405180910390fd5b5f5f90505f600e54036112d6578190506112f4565b600b54600e54836112e791906136eb565b6112f19190613759565b90505b5f8111611336576040517f08c379a000000000000000000000000000000000000000000000000000000000815260040161132d90613957565b60405180910390fd5b8160045f3373ffffffffffffffffffffffffffffffffffffffff1673ffffffffffffffffffffffffffffffffffffffff1681526020019081526020015f205f828254611382919061347d565b925050819055508160045f3073ffffffffffffffffffffffffffffffffffffffff1673ffffffffffffffffffffffffffffffffffffffff1681526020019081526020015f205f8282546113d591906136b8565b9250508190555081600b5f8282546113ed91906136b8565b9250508190555034600c5f82825461140591906136b8565b9250508190555080600d5f3373ffffffffffffffffffffffffffffffffffffffff1673ffffffffffffffffffffffffffffffffffffffff1681526020019081526020015f205f82825461145891906136b8565b9250508190555080600e5f82825461147091906136b8565b925050819055503373ffffffffffffffffffffffffffffffffffffffff167f64b83944e79c3ce8d4c297411de637c3e102d064677aac0c163976ebdcd6f50e8334846040516114c193929190613975565b60405180910390a23073ffffffffffffffffffffffffffffffffffffffff163373ffffffffffffffffffffffffffffffffffffffff167fddf252ad1be2c89b69c2b068fc378daa952ba7f163c4a11628f55a4df523b3ef8460405161152691906130ad565b60405180910390a35050565b5f5f62015180426115439190613759565b90508060125f8573ffffffffffffffffffffffffffffffffffffffff1673ffffffffffffffffffffffffffffffffffffffff1681526020019081526020015f2054101561159557601354915050611633565b60135460115f8573ffffffffffffffffffffffffffffffffffffffff1673ffffffffffffffffffffffffffffffffffffffff1681526020019081526020015f2054106115e4575f915050611633565b60115f8473ffffffffffffffffffffffffffffffffffffffff1673ffffffffffffffffffffffffffffffffffffffff1681526020019081526020015f205460135461162f919061347d565b9150505b919050565b60065481565b5f8111611680576040517f08c379a0000000000000000000000000000000000000000000000000000000008152600401611677906139f4565b60405180910390fd5b8060045f3373ffffffffffffffffffffffffffffffffffffffff1673ffffffffffffffffffffffffffffffffffffffff1681526020019081526020015f20541015611700576040517f08c379a00000000000000000000000000000000000000000000000000000000081526004016116f7906138ef565b60405180910390fd5b5f600b5411801561171257505f600c54115b611751576040517f08c379a000000000000000000000000000000000000000000000000000000000815260040161174890613a5c565b60405180910390fd5b5f60646007548361176291906136eb565b61176c9190613759565b90505f818361177b919061347d565b90505f600c54600b5461178e91906136eb565b90505f82600b5461179f91906136b8565b90505f81836117ae9190613759565b90505f81600c546117bf919061347d565b90505f8111611803576040517f08c379a00000000000000000000000000000000000000000000000000000000081526004016117fa90613ac4565b60405180910390fd5b80471015611846576040517f08c379a000000000000000000000000000000000000000000000000000000000815260040161183d90613b2c565b60405180910390fd5b82600b8190555081600c819055508660045f3373ffffffffffffffffffffffffffffffffffffffff1673ffffffffffffffffffffffffffffffffffffffff1681526020019081526020015f205f8282546118a0919061347d565b925050819055508660045f3073ffffffffffffffffffffffffffffffffffffffff1673ffffffffffffffffffffffffffffffffffffffff1681526020019081526020015f205f8282546118f391906136b8565b9250508190555085600a5f82825461190b91906136b8565b925050819055503373ffffffffffffffffffffffffffffffffffffffff166108fc8290811502906040515f60405180830381858888f19350505050158015611955573d5f5f3e3d5ffd5b503073ffffffffffffffffffffffffffffffffffffffff163373ffffffffffffffffffffffffffffffffffffffff167fddf252ad1be2c89b69c2b068fc378daa952ba7f163c4a11628f55a4df523b3ef896040516119b391906130ad565b60405180910390a33373ffffffffffffffffffffffffffffffffffffffff167f7f1b726f82f7a14636a7a5932448f1bce683188520ba3150fd8423989353ebf287604051611a0191906130ad565b60405180910390a250505050505050565b6004602052805f5260405f205f915090505481565b60155f9054906101000a900473ffffffffffffffffffffffffffffffffffffffff1673ffffffffffffffffffffffffffffffffffffffff163373ffffffffffffffffffffffffffffffffffffffff1614611ab6576040517f08c379a0000000000000000000000000000000000000000000000000000000008152600401611aad906134fa565b60405180910390fd5b6005811015611afa576040517f08c379a0000000000000000000000000000000000000000000000000000000008152600401611af190613b94565b60405180910390fd5b8060138190555050565b600e5481565b600f5481565b60155f9054906101000a900473ffffffffffffffffffffffffffffffffffffffff1681565b600a5481565b60155f9054906101000a900473ffffffffffffffffffffffffffffffffffffffff1673ffffffffffffffffffffffffffffffffffffffff163373ffffffffffffffffffffffffffffffffffffffff1614611bca576040517f08c379a0000000000000000000000000000000000000000000000000000000008152600401611bc1906134fa565b60405180910390fd5b5f73ffffffffffffffffffffffffffffffffffffffff168173ffffffffffffffffffffffffffffffffffffffff1603611c38576040517f08c379a0000000000000000000000000000000000000000000000000000000008152600401611c2f90613bfc565b60405180910390fd5b8060095f6101000a81548173ffffffffffffffffffffffffffffffffffffffff021916908373ffffffffffffffffffffffffffffffffffffffff16021790555050565b600c5481565b60018054611c8e90613350565b80601f0160208091040260200160405190810160405280929190818152602001828054611cba90613350565b8015611d055780601f10611cdc57610100808354040283529160200191611d05565b820191905f5260205f20905b815481529060010190602001808311611ce857829003601f168201915b505050505081565b5f8111611d4f576040517f08c379a0000000000000000000000000000000000000000000000000000000008152600401611d4690613957565b60405180910390fd5b80600d5f3373ffffffffffffffffffffffffffffffffffffffff1673ffffffffffffffffffffffffffffffffffffffff1681526020019081526020015f20541015611dcf576040517f08c379a0000000000000000000000000000000000000000000000000000000008152600401611dc690613c64565b60405180910390fd5b5f600e5411611e13576040517f08c379a0000000000000000000000000000000000000000000000000000000008152600401611e0a90613a5c565b60405180910390fd5b5f600e54600b5483611e2591906136eb565b611e2f9190613759565b90505f600e54600c5484611e4391906136eb565b611e4d9190613759565b90505f82118015611e5d57505f81115b611e9c576040517f08c379a0000000000000000000000000000000000000000000000000000000008152600401611e9390613ccc565b60405180910390fd5b81600b5f828254611ead919061347d565b9250508190555080600c5f828254611ec5919061347d565b9250508190555082600d5f3373ffffffffffffffffffffffffffffffffffffffff1673ffffffffffffffffffffffffffffffffffffffff1681526020019081526020015f205f828254611f18919061347d565b9250508190555082600e5f828254611f30919061347d565b925050819055508160045f3073ffffffffffffffffffffffffffffffffffffffff1673ffffffffffffffffffffffffffffffffffffffff1681526020019081526020015f205f828254611f83919061347d565b925050819055508160045f3373ffffffffffffffffffffffffffffffffffffffff1673ffffffffffffffffffffffffffffffffffffffff1681526020019081526020015f205f828254611fd691906136b8565b925050819055503373ffffffffffffffffffffffffffffffffffffffff166108fc8290811502906040515f60405180830381858888f19350505050158015612020573d5f5f3e3d5ffd5b503373ffffffffffffffffffffffffffffffffffffffff167f1dc8bb69df2b8e91fbdcbfcf93d951b3f0000f085a95fe3f7946d6161439245d83838660405161206b93929190613975565b60405180910390a23373ffffffffffffffffffffffffffffffffffffffff163073ffffffffffffffffffffffffffffffffffffffff167fddf252ad1be2c89b69c2b068fc378daa952ba7f163c4a11628f55a4df523b3ef846040516120d091906130ad565b60405180910390a3505050565b6011602052805f5260405f205f915090505481565b600d602052805f5260405f205f915090505481565b6012602052805f5260405f205f915090505481565b5f612128338484612786565b905092915050565b60105481565b60085481565b60155f9054906101000a900473ffffffffffffffffffffffffffffffffffffffff1673ffffffffffffffffffffffffffffffffffffffff163373ffffffffffffffffffffffffffffffffffffffff16146121cb576040517f08c379a00000000000000000000000000000000000000000000000000000000081526004016121c2906134fa565b60405180910390fd5b6103e86003546121db9190613759565b82101561221d576040517f08c379a000000000000000000000000000000000000000000000000000000000815260040161221490613d34565b60405180910390fd5b606460035461222c9190613759565b81101561226e576040517f08c379a000000000000000000000000000000000000000000000000000000000815260040161226590613d9c565b60405180910390fd5b81600f81905550806010819055505050565b6014602052805f5260405f205f915054906101000a900460ff1681565b5f34116122df576040517f08c379a00000000000000000000000000000000000000000000000000000000081526004016122d690613e04565b60405180910390fd5b5f600b541180156122f157505f600c54115b612330576040517f08c379a000000000000000000000000000000000000000000000000000000000815260040161232790613a5c565b60405180910390fd5b5f600c54600b5461234191906136eb565b90505f34600c5461235291906136b8565b90505f81836123619190613759565b90505f81600b54612372919061347d565b90505f60646006548361238591906136eb565b61238f9190613759565b90505f818361239e919061347d565b90505f81116123e2576040517f08c379a00000000000000000000000000000000000000000000000000000000081526004016123d990613e6c565b60405180910390fd5b83600b8190555084600c819055508260045f3073ffffffffffffffffffffffffffffffffffffffff1673ffffffffffffffffffffffffffffffffffffffff1681526020019081526020015f205f82825461243c919061347d565b925050819055508060045f3373ffffffffffffffffffffffffffffffffffffffff1673ffffffffffffffffffffffffffffffffffffffff1681526020019081526020015f205f82825461248f91906136b8565b9250508190555081600a5f8282546124a791906136b8565b925050819055503373ffffffffffffffffffffffffffffffffffffffff163073ffffffffffffffffffffffffffffffffffffffff167fddf252ad1be2c89b69c2b068fc378daa952ba7f163c4a11628f55a4df523b3ef8360405161250b91906130ad565b60405180910390a33373ffffffffffffffffffffffffffffffffffffffff167f7f1b726f82f7a14636a7a5932448f1bce683188520ba3150fd8423989353ebf28360405161255991906130ad565b60405180910390a2505050505050565b6005602052815f5260405f20602052805f5260405f205f91509150505481565b5f5f5f600e540361259f575f5f9150915061261c565b5f600d5f8573ffffffffffffffffffffffffffffffffffffffff1673ffffffffffffffffffffffffffffffffffffffff1681526020019081526020015f20549050600e54600b54826125f191906136eb565b6125fb9190613759565b9250600e54600c548261260e91906136eb565b6126189190613759565b9150505b915091565b60095f9054906101000a900473ffffffffffffffffffffffffffffffffffffffff1681565b60155f9054906101000a900473ffffffffffffffffffffffffffffffffffffffff1673ffffffffffffffffffffffffffffffffffffffff163373ffffffffffffffffffffffffffffffffffffffff16146126d5576040517f08c379a00000000000000000000000000000000000000000000000000000000081526004016126cc906134fa565b60405180910390fd5b5f73ffffffffffffffffffffffffffffffffffffffff168173ffffffffffffffffffffffffffffffffffffffff1603612743576040517f08c379a000000000000000000000000000000000000000000000000000000000815260040161273a90613bfc565b60405180910390fd5b8060155f6101000a81548173ffffffffffffffffffffffffffffffffffffffff021916908373ffffffffffffffffffffffffffffffffffffffff16021790555050565b5f5f73ffffffffffffffffffffffffffffffffffffffff168473ffffffffffffffffffffffffffffffffffffffff16036127f5576040517f08c379a00000000000000000000000000000000000000000000000000000000081526004016127ec90613ed4565b60405180910390fd5b5f73ffffffffffffffffffffffffffffffffffffffff168373ffffffffffffffffffffffffffffffffffffffff1603612863576040517f08c379a000000000000000000000000000000000000000000000000000000000815260040161285a90613f3c565b60405180910390fd5b5f82116128a5576040517f08c379a000000000000000000000000000000000000000000000000000000000815260040161289c906139f4565b60405180910390fd5b8160045f8673ffffffffffffffffffffffffffffffffffffffff1673ffffffffffffffffffffffffffffffffffffffff1681526020019081526020015f20541015612925576040517f08c379a000000000000000000000000000000000000000000000000000000000815260040161291c90613fa4565b60405180910390fd5b60145f8573ffffffffffffffffffffffffffffffffffffffff1673ffffffffffffffffffffffffffffffffffffffff1681526020019081526020015f205f9054906101000a900460ff161580156129c3575060145f8473ffffffffffffffffffffffffffffffffffffffff1673ffffffffffffffffffffffffffffffffffffffff1681526020019081526020015f205f9054906101000a900460ff16155b15612aa457600f54821115612a0d576040517f08c379a0000000000000000000000000000000000000000000000000000000008152600401612a049061400c565b60405180910390fd5b6010548260045f8673ffffffffffffffffffffffffffffffffffffffff1673ffffffffffffffffffffffffffffffffffffffff1681526020019081526020015f2054612a5991906136b8565b1115612a9a576040517f08c379a0000000000000000000000000000000000000000000000000000000008152600401612a9190614074565b60405180910390fd5b612aa384612d59565b5b5f5f90505f83905060145f8773ffffffffffffffffffffffffffffffffffffffff1673ffffffffffffffffffffffffffffffffffffffff1681526020019081526020015f205f9054906101000a900460ff16158015612b4a575060145f8673ffffffffffffffffffffffffffffffffffffffff1673ffffffffffffffffffffffffffffffffffffffff1681526020019081526020015f205f9054906101000a900460ff16155b15612c41575f600854905060648186612b6391906136eb565b612b6d9190613759565b92508285612b7b919061347d565b91505f831115612c3f578260045f3073ffffffffffffffffffffffffffffffffffffffff1673ffffffffffffffffffffffffffffffffffffffff1681526020019081526020015f205f828254612bd191906136b8565b9250508190555082600a5f828254612be991906136b8565b925050819055508673ffffffffffffffffffffffffffffffffffffffff167f7f1b726f82f7a14636a7a5932448f1bce683188520ba3150fd8423989353ebf284604051612c3691906130ad565b60405180910390a25b505b8360045f8873ffffffffffffffffffffffffffffffffffffffff1673ffffffffffffffffffffffffffffffffffffffff1681526020019081526020015f205f828254612c8d919061347d565b925050819055508060045f8773ffffffffffffffffffffffffffffffffffffffff1673ffffffffffffffffffffffffffffffffffffffff1681526020019081526020015f205f828254612ce091906136b8565b925050819055508473ffffffffffffffffffffffffffffffffffffffff168673ffffffffffffffffffffffffffffffffffffffff167fddf252ad1be2c89b69c2b068fc378daa952ba7f163c4a11628f55a4df523b3ef83604051612d4491906130ad565b60405180910390a36001925050509392505050565b5f6201518042612d699190613759565b90508060125f8473ffffffffffffffffffffffffffffffffffffffff1673ffffffffffffffffffffffffffffffffffffffff1681526020019081526020015f20541015612e35575f60115f8473ffffffffffffffffffffffffffffffffffffffff1673ffffffffffffffffffffffffffffffffffffffff1681526020019081526020015f20819055508060125f8473ffffffffffffffffffffffffffffffffffffffff1673ffffffffffffffffffffffffffffffffffffffff1681526020019081526020015f20819055505b60135460115f8473ffffffffffffffffffffffffffffffffffffffff1673ffffffffffffffffffffffffffffffffffffffff1681526020019081526020015f205410612eb6576040517f08c379a0000000000000000000000000000000000000000000000000000000008152600401612ead906140dc565b60405180910390fd5b60115f8373ffffffffffffffffffffffffffffffffffffffff1673ffffffffffffffffffffffffffffffffffffffff1681526020019081526020015f205f815480929190612f03906140fa565b91905055505050565b5f81519050919050565b5f82825260208201905092915050565b8281835e5f83830152505050565b5f601f19601f8301169050919050565b5f612f4e82612f0c565b612f588185612f16565b9350612f68818560208601612f26565b612f7181612f34565b840191505092915050565b5f6020820190508181035f830152612f948184612f44565b905092915050565b5f5ffd5b5f73ffffffffffffffffffffffffffffffffffffffff82169050919050565b5f612fc982612fa0565b9050919050565b612fd981612fbf565b8114612fe3575f5ffd5b50565b5f81359050612ff481612fd0565b92915050565b5f819050919050565b61300c81612ffa565b8114613016575f5ffd5b50565b5f8135905061302781613003565b92915050565b5f5f6040838503121561304357613042612f9c565b5b5f61305085828601612fe6565b925050602061306185828601613019565b9150509250929050565b5f8115159050919050565b61307f8161306b565b82525050565b5f6020820190506130985f830184613076565b92915050565b6130a781612ffa565b82525050565b5f6020820190506130c05f83018461309e565b92915050565b5f5f5f606084860312156130dd576130dc612f9c565b5b5f6130ea86828701612fe6565b93505060206130fb86828701612fe6565b925050604061310c86828701613019565b9150509250925092565b61311f8161306b565b8114613129575f5ffd5b50565b5f8135905061313a81613116565b92915050565b5f5f6040838503121561315657613155612f9c565b5b5f61316385828601612fe6565b92505060206131748582860161312c565b9150509250929050565b5f60ff82169050919050565b6131938161317e565b82525050565b5f6020820190506131ac5f83018461318a565b92915050565b5f5f5f606084860312156131c9576131c8612f9c565b5b5f6131d686828701613019565b93505060206131e786828701613019565b92505060406131f886828701613019565b9150509250925092565b5f6020828403121561321757613216612f9c565b5b5f61322484828501613019565b91505092915050565b5f6020828403121561324257613241612f9c565b5b5f61324f84828501612fe6565b91505092915050565b61326181612fbf565b82525050565b5f60208201905061327a5f830184613258565b92915050565b5f5f6040838503121561329657613295612f9c565b5b5f6132a385828601613019565b92505060206132b485828601613019565b9150509250929050565b5f5f604083850312156132d4576132d3612f9c565b5b5f6132e185828601612fe6565b92505060206132f285828601612fe6565b9150509250929050565b5f60408201905061330f5f83018561309e565b61331c602083018461309e565b9392505050565b7f4e487b71000000000000000000000000000000000000000000000000000000005f52602260045260245ffd5b5f600282049050600182168061336757607f821691505b60208210810361337a57613379613323565b5b50919050565b7f417070726f766520746f207a65726f20616464726573730000000000000000005f82015250565b5f6133b4601783612f16565b91506133bf82613380565b602082019050919050565b5f6020820190508181035f8301526133e1816133a8565b9050919050565b7f416c6c6f77616e6365206e6f7420656e6f7567680000000000000000000000005f82015250565b5f61341c601483612f16565b9150613427826133e8565b602082019050919050565b5f6020820190508181035f83015261344981613410565b9050919050565b7f4e487b71000000000000000000000000000000000000000000000000000000005f52601160045260245ffd5b5f61348782612ffa565b915061349283612ffa565b92508282039050818111156134aa576134a9613450565b5b92915050565b7f4f6e6c79206f776e65722063616e2063616c6c000000000000000000000000005f82015250565b5f6134e4601383612f16565b91506134ef826134b0565b602082019050919050565b5f6020820190508181035f830152613511816134d8565b9050919050565b7f4275792074617820746f6f2068696768000000000000000000000000000000005f82015250565b5f61354c601083612f16565b915061355782613518565b602082019050919050565b5f6020820190508181035f83015261357981613540565b9050919050565b7f53656c6c2074617820746f6f20686967680000000000000000000000000000005f82015250565b5f6135b4601183612f16565b91506135bf82613580565b602082019050919050565b5f6020820190508181035f8301526135e1816135a8565b9050919050565b7f5472616e736665722074617820746f6f206869676800000000000000000000005f82015250565b5f61361c601583612f16565b9150613627826135e8565b602082019050919050565b5f6020820190508181035f83015261364981613610565b9050919050565b7f4e6f206665657320746f207769746864726177000000000000000000000000005f82015250565b5f613684601383612f16565b915061368f82613650565b602082019050919050565b5f6020820190508181035f8301526136b181613678565b9050919050565b5f6136c282612ffa565b91506136cd83612ffa565b92508282019050808211156136e5576136e4613450565b5b92915050565b5f6136f582612ffa565b915061370083612ffa565b925082820261370e81612ffa565b9150828204841483151761372557613724613450565b5b5092915050565b7f4e487b71000000000000000000000000000000000000000000000000000000005f52601260045260245ffd5b5f61376382612ffa565b915061376e83612ffa565b92508261377e5761377d61372c565b5b828204905092915050565b7f546f6b656e20616d6f756e74206d7573742062652067726561746572207468615f8201527f6e20300000000000000000000000000000000000000000000000000000000000602082015250565b5f6137e3602383612f16565b91506137ee82613789565b604082019050919050565b5f6020820190508181035f830152613810816137d7565b9050919050565b7f45544820616d6f756e74206d7573742062652067726561746572207468616e205f8201527f3000000000000000000000000000000000000000000000000000000000000000602082015250565b5f613871602183612f16565b915061387c82613817565b604082019050919050565b5f6020820190508181035f83015261389e81613865565b9050919050565b7f4e6f7420656e6f75676820746f6b656e730000000000000000000000000000005f82015250565b5f6138d9601183612f16565b91506138e4826138a5565b602082019050919050565b5f6020820190508181035f830152613906816138cd565b9050919050565b7f536861726573206d7573742062652067726561746572207468616e20300000005f82015250565b5f613941601d83612f16565b915061394c8261390d565b602082019050919050565b5f6020820190508181035f83015261396e81613935565b9050919050565b5f6060820190506139885f83018661309e565b613995602083018561309e565b6139a2604083018461309e565b949350505050565b7f416d6f756e74206d7573742062652067726561746572207468616e20300000005f82015250565b5f6139de601d83612f16565b91506139e9826139aa565b602082019050919050565b5f6020820190508181035f830152613a0b816139d2565b9050919050565b7f4e6f206c697175696469747900000000000000000000000000000000000000005f82015250565b5f613a46600c83612f16565b9150613a5182613a12565b602082019050919050565b5f6020820190508181035f830152613a7381613a3a565b9050919050565b7f45544820616d6f756e7420746f6f20736d616c6c0000000000000000000000005f82015250565b5f613aae601483612f16565b9150613ab982613a7a565b602082019050919050565b5f6020820190508181035f830152613adb81613aa2565b9050919050565b7f4e6f7420656e6f7567682045544820696e20706f6f6c000000000000000000005f82015250565b5f613b16601683612f16565b9150613b2182613ae2565b602082019050919050565b5f6020820190508181035f830152613b4381613b0a565b9050919050565b7f546f6f20726573747269637469766500000000000000000000000000000000005f82015250565b5f613b7e600f83612f16565b9150613b8982613b4a565b602082019050919050565b5f6020820190508181035f830152613bab81613b72565b9050919050565b7f496e76616c6964206164647265737300000000000000000000000000000000005f82015250565b5f613be6600f83612f16565b9150613bf182613bb2565b602082019050919050565b5f6020820190508181035f830152613c1381613bda565b9050919050565b7f4e6f7420656e6f756768207368617265730000000000000000000000000000005f82015250565b5f613c4e601183612f16565b9150613c5982613c1a565b602082019050919050565b5f6020820190508181035f830152613c7b81613c42565b9050919050565b7f416d6f756e7473206d7573742062652067726561746572207468616e203000005f82015250565b5f613cb6601e83612f16565b9150613cc182613c82565b602082019050919050565b5f6020820190508181035f830152613ce381613caa565b9050919050565b7f4d617820747820746f6f206c6f770000000000000000000000000000000000005f82015250565b5f613d1e600e83612f16565b9150613d2982613cea565b602082019050919050565b5f6020820190508181035f830152613d4b81613d12565b9050919050565b7f4d61782077616c6c657420746f6f206c6f7700000000000000000000000000005f82015250565b5f613d86601283612f16565b9150613d9182613d52565b602082019050919050565b5f6020820190508181035f830152613db381613d7a565b9050919050565b7f4d7573742073656e6420455448000000000000000000000000000000000000005f82015250565b5f613dee600d83612f16565b9150613df982613dba565b602082019050919050565b5f6020820190508181035f830152613e1b81613de2565b9050919050565b7f546f6b656e20616d6f756e7420746f6f20736d616c6c000000000000000000005f82015250565b5f613e56601683612f16565b9150613e6182613e22565b602082019050919050565b5f6020820190508181035f830152613e8381613e4a565b9050919050565b7f5472616e736665722066726f6d207a65726f20616464726573730000000000005f82015250565b5f613ebe601a83612f16565b9150613ec982613e8a565b602082019050919050565b5f6020820190508181035f830152613eeb81613eb2565b9050919050565b7f5472616e7366657220746f207a65726f206164647265737300000000000000005f82015250565b5f613f26601883612f16565b9150613f3182613ef2565b602082019050919050565b5f6020820190508181035f830152613f5381613f1a565b9050919050565b7f42616c616e6365206e6f7420656e6f75676800000000000000000000000000005f82015250565b5f613f8e601283612f16565b9150613f9982613f5a565b602082019050919050565b5f6020820190508181035f830152613fbb81613f82565b9050919050565b7f45786365656473206d6178207472616e73616374696f6e20616d6f756e7400005f82015250565b5f613ff6601e83612f16565b915061400182613fc2565b602082019050919050565b5f6020820190508181035f83015261402381613fea565b9050919050565b7f45786365656473206d61782077616c6c657420616d6f756e74000000000000005f82015250565b5f61405e601983612f16565b91506140698261402a565b602082019050919050565b5f6020820190508181035f83015261408b81614052565b9050919050565b7f4461696c79207472616e73616374696f6e206c696d69742072656163686564005f82015250565b5f6140c6601f83612f16565b91506140d182614092565b602082019050919050565b5f6020820190508181035f8301526140f3816140ba565b9050919050565b5f61410482612ffa565b91507fffffffffffffffffffffffffffffffffffffffffffffffffffffffffffffffff820361413657614135613450565b5b60018201905091905056fea264697066735822122093c58705367bec9407d03f369c9288a5462f50461651f223e757e5eb96fcd21564736f6c634300081e0033",
					"opcodes": "PUSH1 0x80 PUSH1 0x40 MSTORE PUSH1 0x40 MLOAD DUP1 PUSH1 0x40 ADD PUSH1 0x40 MSTORE DUP1 PUSH1 0xA DUP2 MSTORE PUSH1 0x20 ADD PUSH32 0x53696D706C654D656D6500000000000000000000000000000000000000000000 DUP2 MSTORE POP PUSH0 SWAP1 DUP2 PUSH2 0x47 SWAP2 SWAP1 PUSH2 0x52B JUMP JUMPDEST POP PUSH1 0x40 MLOAD DUP1 PUSH1 0x40 ADD PUSH1 0x40 MSTORE DUP1 PUSH1 0x5 DUP2 MSTORE PUSH1 0x20 ADD PUSH32 0x534D454D45000000000000000000000000000000000000000000000000000000 DUP2 MSTORE POP PUSH1 0x1 SWAP1 DUP2 PUSH2 0x8C SWAP2 SWAP1 PUSH2 0x52B JUMP JUMPDEST POP PUSH1 0x12 PUSH1 0x2 PUSH0 PUSH2 0x100 EXP DUP2 SLOAD DUP2 PUSH1 0xFF MUL NOT AND SWAP1 DUP4 PUSH1 0xFF AND MUL OR SWAP1 SSTORE POP PUSH10 0xD3C21BCECCEDA1000000 PUSH1 0x3 SSTORE PUSH1 0x5 PUSH1 0x6 SSTORE PUSH1 0x8 PUSH1 0x7 SSTORE PUSH1 0x2 PUSH1 0x8 SSTORE PUSH10 0x21E19E0C9BAB2400000 PUSH1 0xF SSTORE PUSH10 0x43C33C1937564800000 PUSH1 0x10 SSTORE PUSH1 0xA PUSH1 0x13 SSTORE CALLVALUE DUP1 ISZERO PUSH2 0xF1 JUMPI PUSH0 PUSH0 REVERT JUMPDEST POP PUSH1 0x40 MLOAD PUSH2 0x482F CODESIZE SUB DUP1 PUSH2 0x482F DUP4 CODECOPY DUP2 DUP2 ADD PUSH1 0x40 MSTORE DUP2 ADD SWAP1 PUSH2 0x113 SWAP2 SWAP1 PUSH2 0x658 JUMP JUMPDEST CALLER PUSH1 0x15 PUSH0 PUSH2 0x100 EXP DUP2 SLOAD DUP2 PUSH20 0xFFFFFFFFFFFFFFFFFFFFFFFFFFFFFFFFFFFFFFFF MUL NOT AND SWAP1 DUP4 PUSH20 0xFFFFFFFFFFFFFFFFFFFFFFFFFFFFFFFFFFFFFFFF AND MUL OR SWAP1 SSTORE POP DUP1 PUSH1 0x9 PUSH0 PUSH2 0x100 EXP DUP2 SLOAD DUP2 PUSH20 0xFFFFFFFFFFFFFFFFFFFFFFFFFFFFFFFFFFFFFFFF MUL NOT AND SWAP1 DUP4 PUSH20 0xFFFFFFFFFFFFFFFFFFFFFFFFFFFFFFFFFFFFFFFF AND MUL OR SWAP1 SSTORE POP PUSH1 0x3 SLOAD PUSH1 0x4 PUSH0 CALLER PUSH20 0xFFFFFFFFFFFFFFFFFFFFFFFFFFFFFFFFFFFFFFFF AND PUSH20 0xFFFFFFFFFFFFFFFFFFFFFFFFFFFFFFFFFFFFFFFF AND DUP2 MSTORE PUSH1 0x20 ADD SWAP1 DUP2 MSTORE PUSH1 0x20 ADD PUSH0 KECCAK256 DUP2 SWAP1 SSTORE POP PUSH1 0x1 PUSH1 0x14 PUSH0 CALLER PUSH20 0xFFFFFFFFFFFFFFFFFFFFFFFFFFFFFFFFFFFFFFFF AND PUSH20 0xFFFFFFFFFFFFFFFFFFFFFFFFFFFFFFFFFFFFFFFF AND DUP2 MSTORE PUSH1 0x20 ADD SWAP1 DUP2 MSTORE PUSH1 0x20 ADD PUSH0 KECCAK256 PUSH0 PUSH2 0x100 EXP DUP2 SLOAD DUP2 PUSH1 0xFF MUL NOT AND SWAP1 DUP4 ISZERO ISZERO MUL OR SWAP1 SSTORE POP PUSH1 0x1 PUSH1 0x14 PUSH0 ADDRESS PUSH20 0xFFFFFFFFFFFFFFFFFFFFFFFFFFFFFFFFFFFFFFFF AND PUSH20 0xFFFFFFFFFFFFFFFFFFFFFFFFFFFFFFFFFFFFFFFF AND DUP2 MSTORE PUSH1 0x20 ADD SWAP1 DUP2 MSTORE PUSH1 0x20 ADD PUSH0 KECCAK256 PUSH0 PUSH2 0x100 EXP DUP2 SLOAD DUP2 PUSH1 0xFF MUL NOT AND SWAP1 DUP4 ISZERO ISZERO MUL OR SWAP1 SSTORE POP CALLER PUSH20 0xFFFFFFFFFFFFFFFFFFFFFFFFFFFFFFFFFFFFFFFF AND PUSH0 PUSH20 0xFFFFFFFFFFFFFFFFFFFFFFFFFFFFFFFFFFFFFFFF AND PUSH32 0xDDF252AD1BE2C89B69C2B068FC378DAA952BA7F163C4A11628F55A4DF523B3EF PUSH1 0x3 SLOAD PUSH1 0x40 MLOAD PUSH2 0x2E0 SWAP2 SWAP1 PUSH2 0x692 JUMP JUMPDEST PUSH1 0x40 MLOAD DUP1 SWAP2 SUB SWAP1 LOG3 POP PUSH2 0x6AB JUMP JUMPDEST PUSH0 DUP2 MLOAD SWAP1 POP SWAP2 SWAP1 POP JUMP JUMPDEST PUSH32 0x4E487B7100000000000000000000000000000000000000000000000000000000 PUSH0 MSTORE PUSH1 0x41 PUSH1 0x4 MSTORE PUSH1 0x24 PUSH0 REVERT JUMPDEST PUSH32 0x4E487B7100000000000000000000000000000000000000000000000000000000 PUSH0 MSTORE PUSH1 0x22 PUSH1 0x4 MSTORE PUSH1 0x24 PUSH0 REVERT JUMPDEST PUSH0 PUSH1 0x2 DUP3 DIV SWAP1 POP PUSH1 0x1 DUP3 AND DUP1 PUSH2 0x369 JUMPI PUSH1 0x7F DUP3 AND SWAP2 POP JUMPDEST PUSH1 0x20 DUP3 LT DUP2 SUB PUSH2 0x37C JUMPI PUSH2 0x37B PUSH2 0x325 JUMP JUMPDEST JUMPDEST POP SWAP2 SWAP1 POP JUMP JUMPDEST PUSH0 DUP2 SWAP1 POP DUP2 PUSH0 MSTORE PUSH1 0x20 PUSH0 KECCAK256 SWAP1 POP SWAP2 SWAP1 POP JUMP JUMPDEST PUSH0 PUSH1 0x20 PUSH1 0x1F DUP4 ADD DIV SWAP1 POP SWAP2 SWAP1 POP JUMP JUMPDEST PUSH0 DUP3 DUP3 SHL SWAP1 POP SWAP3 SWAP2 POP POP JUMP JUMPDEST PUSH0 PUSH1 0x8 DUP4 MUL PUSH2 0x3DE PUSH32 0xFFFFFFFFFFFFFFFFFFFFFFFFFFFFFFFFFFFFFFFFFFFFFFFFFFFFFFFFFFFFFFFF DUP3 PUSH2 0x3A3 JUMP JUMPDEST PUSH2 0x3E8 DUP7 DUP4 PUSH2 0x3A3 JUMP JUMPDEST SWAP6 POP DUP1 NOT DUP5 AND SWAP4 POP DUP1 DUP7 AND DUP5 OR SWAP3 POP POP POP SWAP4 SWAP3 POP POP POP JUMP JUMPDEST PUSH0 DUP2 SWAP1 POP SWAP2 SWAP1 POP JUMP JUMPDEST PUSH0 DUP2 SWAP1 POP SWAP2 SWAP1 POP JUMP JUMPDEST PUSH0 PUSH2 0x42C PUSH2 0x427 PUSH2 0x422 DUP5 PUSH2 0x400 JUMP JUMPDEST PUSH2 0x409 JUMP JUMPDEST PUSH2 0x400 JUMP JUMPDEST SWAP1 POP SWAP2 SWAP1 POP JUMP JUMPDEST PUSH0 DUP2 SWAP1 POP SWAP2 SWAP1 POP JUMP JUMPDEST PUSH2 0x445 DUP4 PUSH2 0x412 JUMP JUMPDEST PUSH2 0x459 PUSH2 0x451 DUP3 PUSH2 0x433 JUMP JUMPDEST DUP5 DUP5 SLOAD PUSH2 0x3AF JUMP JUMPDEST DUP3 SSTORE POP POP POP POP JUMP JUMPDEST PUSH0 PUSH0 SWAP1 POP SWAP1 JUMP JUMPDEST PUSH2 0x470 PUSH2 0x461 JUMP JUMPDEST PUSH2 0x47B DUP2 DUP5 DUP5 PUSH2 0x43C JUMP JUMPDEST POP POP POP JUMP JUMPDEST JUMPDEST DUP2 DUP2 LT ISZERO PUSH2 0x49E JUMPI PUSH2 0x493 PUSH0 DUP3 PUSH2 0x468 JUMP JUMPDEST PUSH1 0x1 DUP2 ADD SWAP1 POP PUSH2 0x481 JUMP JUMPDEST POP POP JUMP JUMPDEST PUSH1 0x1F DUP3 GT ISZERO PUSH2 0x4E3 JUMPI PUSH2 0x4B4 DUP2 PUSH2 0x382 JUMP JUMPDEST PUSH2 0x4BD DUP5 PUSH2 0x394 JUMP JUMPDEST DUP2 ADD PUSH1 0x20 DUP6 LT ISZERO PUSH2 0x4CC JUMPI DUP2 SWAP1 POP JUMPDEST PUSH2 0x4E0 PUSH2 0x4D8 DUP6 PUSH2 0x394 JUMP JUMPDEST DUP4 ADD DUP3 PUSH2 0x480 JUMP JUMPDEST POP POP JUMPDEST POP POP POP JUMP JUMPDEST PUSH0 DUP3 DUP3 SHR SWAP1 POP SWAP3 SWAP2 POP POP JUMP JUMPDEST PUSH0 PUSH2 0x503 PUSH0 NOT DUP5 PUSH1 0x8 MUL PUSH2 0x4E8 JUMP JUMPDEST NOT DUP1 DUP4 AND SWAP2 POP POP SWAP3 SWAP2 POP POP JUMP JUMPDEST PUSH0 PUSH2 0x51B DUP4 DUP4 PUSH2 0x4F4 JUMP JUMPDEST SWAP2 POP DUP3 PUSH1 0x2 MUL DUP3 OR SWAP1 POP SWAP3 SWAP2 POP POP JUMP JUMPDEST PUSH2 0x534 DUP3 PUSH2 0x2EE JUMP JUMPDEST PUSH8 0xFFFFFFFFFFFFFFFF DUP2 GT ISZERO PUSH2 0x54D JUMPI PUSH2 0x54C PUSH2 0x2F8 JUMP JUMPDEST JUMPDEST PUSH2 0x557 DUP3 SLOAD PUSH2 0x352 JUMP JUMPDEST PUSH2 0x562 DUP3 DUP3 DUP6 PUSH2 0x4A2 JUMP JUMPDEST PUSH0 PUSH1 0x20 SWAP1 POP PUSH1 0x1F DUP4 GT PUSH1 0x1 DUP2 EQ PUSH2 0x593 JUMPI PUSH0 DUP5 ISZERO PUSH2 0x581 JUMPI DUP3 DUP8 ADD MLOAD SWAP1 POP JUMPDEST PUSH2 0x58B DUP6 DUP3 PUSH2 0x510 JUMP JUMPDEST DUP7 SSTORE POP PUSH2 0x5F2 JUMP JUMPDEST PUSH1 0x1F NOT DUP5 AND PUSH2 0x5A1 DUP7 PUSH2 0x382 JUMP JUMPDEST PUSH0 JUMPDEST DUP3 DUP2 LT ISZERO PUSH2 0x5C8 JUMPI DUP5 DUP10 ADD MLOAD DUP3 SSTORE PUSH1 0x1 DUP3 ADD SWAP2 POP PUSH1 0x20 DUP6 ADD SWAP5 POP PUSH1 0x20 DUP2 ADD SWAP1 POP PUSH2 0x5A3 JUMP JUMPDEST DUP7 DUP4 LT ISZERO PUSH2 0x5E5 JUMPI DUP5 DUP10 ADD MLOAD PUSH2 0x5E1 PUSH1 0x1F DUP10 AND DUP3 PUSH2 0x4F4 JUMP JUMPDEST DUP4 SSTORE POP JUMPDEST PUSH1 0x1 PUSH1 0x2 DUP9 MUL ADD DUP9 SSTORE POP POP POP JUMPDEST POP POP POP POP POP POP JUMP JUMPDEST PUSH0 PUSH0 REVERT JUMPDEST PUSH0 PUSH20 0xFFFFFFFFFFFFFFFFFFFFFFFFFFFFFFFFFFFFFFFF DUP3 AND SWAP1 POP SWAP2 SWAP1 POP JUMP JUMPDEST PUSH0 PUSH2 0x627 DUP3 PUSH2 0x5FE JUMP JUMPDEST SWAP1 POP SWAP2 SWAP1 POP JUMP JUMPDEST PUSH2 0x637 DUP2 PUSH2 0x61D JUMP JUMPDEST DUP2 EQ PUSH2 0x641 JUMPI PUSH0 PUSH0 REVERT JUMPDEST POP JUMP JUMPDEST PUSH0 DUP2 MLOAD SWAP1 POP PUSH2 0x652 DUP2 PUSH2 0x62E JUMP JUMPDEST SWAP3 SWAP2 POP POP JUMP JUMPDEST PUSH0 PUSH1 0x20 DUP3 DUP5 SUB SLT ISZERO PUSH2 0x66D JUMPI PUSH2 0x66C PUSH2 0x5FA JUMP JUMPDEST JUMPDEST PUSH0 PUSH2 0x67A DUP5 DUP3 DUP6 ADD PUSH2 0x644 JUMP JUMPDEST SWAP2 POP POP SWAP3 SWAP2 POP POP JUMP JUMPDEST PUSH2 0x68C DUP2 PUSH2 0x400 JUMP JUMPDEST DUP3 MSTORE POP POP JUMP JUMPDEST PUSH0 PUSH1 0x20 DUP3 ADD SWAP1 POP PUSH2 0x6A5 PUSH0 DUP4 ADD DUP5 PUSH2 0x683 JUMP JUMPDEST SWAP3 SWAP2 POP POP JUMP JUMPDEST PUSH2 0x4177 DUP1 PUSH2 0x6B8 PUSH0 CODECOPY PUSH0 RETURN INVALID PUSH1 0x80 PUSH1 0x40 MSTORE PUSH1 0x4 CALLDATASIZE LT PUSH2 0x233 JUMPI PUSH0 CALLDATALOAD PUSH1 0xE0 SHR DUP1 PUSH4 0x8C0B5E22 GT PUSH2 0x12D JUMPI DUP1 PUSH4 0xA9059CBB GT PUSH2 0xAA JUMPI DUP1 PUSH4 0xD0FEBE4C GT PUSH2 0x6E JUMPI DUP1 PUSH4 0xD0FEBE4C EQ PUSH2 0x844 JUMPI DUP1 PUSH4 0xDD62ED3E EQ PUSH2 0x84E JUMPI DUP1 PUSH4 0xEF35E2EC EQ PUSH2 0x88A JUMPI DUP1 PUSH4 0xF25F4B56 EQ PUSH2 0x8C7 JUMPI DUP1 PUSH4 0xF2FDE38B EQ PUSH2 0x8F1 JUMPI PUSH2 0x23A JUMP JUMPDEST DUP1 PUSH4 0xA9059CBB EQ PUSH2 0x750 JUMPI DUP1 PUSH4 0xAA4BDE28 EQ PUSH2 0x78C JUMPI DUP1 PUSH4 0xB65D08B0 EQ PUSH2 0x7B6 JUMPI DUP1 PUSH4 0xC4590D3F EQ PUSH2 0x7E0 JUMPI DUP1 PUSH4 0xCBA0E996 EQ PUSH2 0x808 JUMPI PUSH2 0x23A JUMP JUMPDEST DUP1 PUSH4 0x95D89B41 GT PUSH2 0xF1 JUMPI DUP1 PUSH4 0x95D89B41 EQ PUSH2 0x64A JUMPI DUP1 PUSH4 0x9C8F9F23 EQ PUSH2 0x674 JUMPI DUP1 PUSH4 0x9CE1A56B EQ PUSH2 0x69C JUMPI DUP1 PUSH4 0x9DB4AA04 EQ PUSH2 0x6D8 JUMPI DUP1 PUSH4 0xA19D9700 EQ PUSH2 0x714 JUMPI PUSH2 0x23A JUMP JUMPDEST DUP1 PUSH4 0x8C0B5E22 EQ PUSH2 0x57A JUMPI DUP1 PUSH4 0x8DA5CB5B EQ PUSH2 0x5A4 JUMPI DUP1 PUSH4 0x9003ADFE EQ PUSH2 0x5CE JUMPI DUP1 PUSH4 0x90D49B9D EQ PUSH2 0x5F8 JUMPI DUP1 PUSH4 0x95097030 EQ PUSH2 0x620 JUMPI PUSH2 0x23A JUMP JUMPDEST DUP1 PUSH4 0x476343EE GT PUSH2 0x1BB JUMPI DUP1 PUSH4 0x691F224F GT PUSH2 0x17F JUMPI DUP1 PUSH4 0x691F224F EQ PUSH2 0x49A JUMPI DUP1 PUSH4 0x6C11BCD3 EQ PUSH2 0x4C4 JUMPI DUP1 PUSH4 0x70A08231 EQ PUSH2 0x4EC JUMPI DUP1 PUSH4 0x7F055AFE EQ PUSH2 0x528 JUMPI DUP1 PUSH4 0x87CD5B20 EQ PUSH2 0x550 JUMPI PUSH2 0x23A JUMP JUMPDEST DUP1 PUSH4 0x476343EE EQ PUSH2 0x3D8 JUMPI DUP1 PUSH4 0x4B8CE602 EQ PUSH2 0x3EE JUMPI DUP1 PUSH4 0x4B94F50E EQ PUSH2 0x418 JUMPI DUP1 PUSH4 0x51C6590A EQ PUSH2 0x442 JUMPI DUP1 PUSH4 0x5D61451A EQ PUSH2 0x45E JUMPI PUSH2 0x23A JUMP JUMPDEST DUP1 PUSH4 0x23B872DD GT PUSH2 0x202 JUMPI DUP1 PUSH4 0x23B872DD EQ PUSH2 0x2F8 JUMPI DUP1 PUSH4 0x24024EFD EQ PUSH2 0x334 JUMPI DUP1 PUSH4 0x2836BE24 EQ PUSH2 0x35E JUMPI DUP1 PUSH4 0x313CE567 EQ PUSH2 0x386 JUMPI DUP1 PUSH4 0x39253114 EQ PUSH2 0x3B0 JUMPI PUSH2 0x23A JUMP JUMPDEST DUP1 PUSH4 0x6FDDE03 EQ PUSH2 0x23E JUMPI DUP1 PUSH4 0x95EA7B3 EQ PUSH2 0x268 JUMPI DUP1 PUSH4 0x18160DDD EQ PUSH2 0x2A4 JUMPI DUP1 PUSH4 0x20ECC78E EQ PUSH2 0x2CE JUMPI PUSH2 0x23A JUMP JUMPDEST CALLDATASIZE PUSH2 0x23A JUMPI STOP JUMPDEST PUSH0 PUSH0 REVERT JUMPDEST CALLVALUE DUP1 ISZERO PUSH2 0x249 JUMPI PUSH0 PUSH0 REVERT JUMPDEST POP PUSH2 0x252 PUSH2 0x919 JUMP JUMPDEST PUSH1 0x40 MLOAD PUSH2 0x25F SWAP2 SWAP1 PUSH2 0x2F7C JUMP JUMPDEST PUSH1 0x40 MLOAD DUP1 SWAP2 SUB SWAP1 RETURN JUMPDEST CALLVALUE DUP1 ISZERO PUSH2 0x273 JUMPI PUSH0 PUSH0 REVERT JUMPDEST POP PUSH2 0x28E PUSH1 0x4 DUP1 CALLDATASIZE SUB DUP2 ADD SWAP1 PUSH2 0x289 SWAP2 SWAP1 PUSH2 0x302D JUMP JUMPDEST PUSH2 0x9A4 JUMP JUMPDEST PUSH1 0x40 MLOAD PUSH2 0x29B SWAP2 SWAP1 PUSH2 0x3085 JUMP JUMPDEST PUSH1 0x40 MLOAD DUP1 SWAP2 SUB SWAP1 RETURN JUMPDEST CALLVALUE DUP1 ISZERO PUSH2 0x2AF JUMPI PUSH0 PUSH0 REVERT JUMPDEST POP PUSH2 0x2B8 PUSH2 0xAFF JUMP JUMPDEST PUSH1 0x40 MLOAD PUSH2 0x2C5 SWAP2 SWAP1 PUSH2 0x30AD JUMP JUMPDEST PUSH1 0x40 MLOAD DUP1 SWAP2 SUB SWAP1 RETURN JUMPDEST CALLVALUE DUP1 ISZERO PUSH2 0x2D9 JUMPI PUSH0 PUSH0 REVERT JUMPDEST POP PUSH2 0x2E2 PUSH2 0xB05 JUMP JUMPDEST PUSH1 0x40 MLOAD PUSH2 0x2EF SWAP2 SWAP1 PUSH2 0x30AD JUMP JUMPDEST PUSH1 0x40 MLOAD DUP1 SWAP2 SUB SWAP1 RETURN JUMPDEST CALLVALUE DUP1 ISZERO PUSH2 0x303 JUMPI PUSH0 PUSH0 REVERT JUMPDEST POP PUSH2 0x31E PUSH1 0x4 DUP1 CALLDATASIZE SUB DUP2 ADD SWAP1 PUSH2 0x319 SWAP2 SWAP1 PUSH2 0x30C6 JUMP JUMPDEST PUSH2 0xB0B JUMP JUMPDEST PUSH1 0x40 MLOAD PUSH2 0x32B SWAP2 SWAP1 PUSH2 0x3085 JUMP JUMPDEST PUSH1 0x40 MLOAD DUP1 SWAP2 SUB SWAP1 RETURN JUMPDEST CALLVALUE DUP1 ISZERO PUSH2 0x33F JUMPI PUSH0 PUSH0 REVERT JUMPDEST POP PUSH2 0x348 PUSH2 0xC69 JUMP JUMPDEST PUSH1 0x40 MLOAD PUSH2 0x355 SWAP2 SWAP1 PUSH2 0x30AD JUMP JUMPDEST PUSH1 0x40 MLOAD DUP1 SWAP2 SUB SWAP1 RETURN JUMPDEST CALLVALUE DUP1 ISZERO PUSH2 0x369 JUMPI PUSH0 PUSH0 REVERT JUMPDEST POP PUSH2 0x384 PUSH1 0x4 DUP1 CALLDATASIZE SUB DUP2 ADD SWAP1 PUSH2 0x37F SWAP2 SWAP1 PUSH2 0x3140 JUMP JUMPDEST PUSH2 0xC6F JUMP JUMPDEST STOP JUMPDEST CALLVALUE DUP1 ISZERO PUSH2 0x391 JUMPI PUSH0 PUSH0 REVERT JUMPDEST POP PUSH2 0x39A PUSH2 0xD56 JUMP JUMPDEST PUSH1 0x40 MLOAD PUSH2 0x3A7 SWAP2 SWAP1 PUSH2 0x3199 JUMP JUMPDEST PUSH1 0x40 MLOAD DUP1 SWAP2 SUB SWAP1 RETURN JUMPDEST CALLVALUE DUP1 ISZERO PUSH2 0x3BB JUMPI PUSH0 PUSH0 REVERT JUMPDEST POP PUSH2 0x3D6 PUSH1 0x4 DUP1 CALLDATASIZE SUB DUP2 ADD SWAP1 PUSH2 0x3D1 SWAP2 SWAP1 PUSH2 0x31B2 JUMP JUMPDEST PUSH2 0xD68 JUMP JUMPDEST STOP JUMPDEST CALLVALUE DUP1 ISZERO PUSH2 0x3E3 JUMPI PUSH0 PUSH0 REVERT JUMPDEST POP PUSH2 0x3EC PUSH2 0xEDD JUMP JUMPDEST STOP JUMPDEST CALLVALUE DUP1 ISZERO PUSH2 0x3F9 JUMPI PUSH0 PUSH0 REVERT JUMPDEST POP PUSH2 0x402 PUSH2 0x117C JUMP JUMPDEST PUSH1 0x40 MLOAD PUSH2 0x40F SWAP2 SWAP1 PUSH2 0x30AD JUMP JUMPDEST PUSH1 0x40 MLOAD DUP1 SWAP2 SUB SWAP1 RETURN JUMPDEST CALLVALUE DUP1 ISZERO PUSH2 0x423 JUMPI PUSH0 PUSH0 REVERT JUMPDEST POP PUSH2 0x42C PUSH2 0x1182 JUMP JUMPDEST PUSH1 0x40 MLOAD PUSH2 0x439 SWAP2 SWAP1 PUSH2 0x30AD JUMP JUMPDEST PUSH1 0x40 MLOAD DUP1 SWAP2 SUB SWAP1 RETURN JUMPDEST PUSH2 0x45C PUSH1 0x4 DUP1 CALLDATASIZE SUB DUP2 ADD SWAP1 PUSH2 0x457 SWAP2 SWAP1 PUSH2 0x3202 JUMP JUMPDEST PUSH2 0x11BD JUMP JUMPDEST STOP JUMPDEST CALLVALUE DUP1 ISZERO PUSH2 0x469 JUMPI PUSH0 PUSH0 REVERT JUMPDEST POP PUSH2 0x484 PUSH1 0x4 DUP1 CALLDATASIZE SUB DUP2 ADD SWAP1 PUSH2 0x47F SWAP2 SWAP1 PUSH2 0x322D JUMP JUMPDEST PUSH2 0x1532 JUMP JUMPDEST PUSH1 0x40 MLOAD PUSH2 0x491 SWAP2 SWAP1 PUSH2 0x30AD JUMP JUMPDEST PUSH1 0x40 MLOAD DUP1 SWAP2 SUB SWAP1 RETURN JUMPDEST CALLVALUE DUP1 ISZERO PUSH2 0x4A5 JUMPI PUSH0 PUSH0 REVERT JUMPDEST POP PUSH2 0x4AE PUSH2 0x1638 JUMP JUMPDEST PUSH1 0x40 MLOAD PUSH2 0x4BB SWAP2 SWAP1 PUSH2 0x30AD JUMP JUMPDEST PUSH1 0x40 MLOAD DUP1 SWAP2 SUB SWAP1 RETURN JUMPDEST CALLVALUE DUP1 ISZERO PUSH2 0x4CF JUMPI PUSH0 PUSH0 REVERT JUMPDEST POP PUSH2 0x4EA PUSH1 0x4 DUP1 CALLDATASIZE SUB DUP2 ADD SWAP1 PUSH2 0x4E5 SWAP2 SWAP1 PUSH2 0x3202 JUMP JUMPDEST PUSH2 0x163E JUMP JUMPDEST STOP JUMPDEST CALLVALUE DUP1 ISZERO PUSH2 0x4F7 JUMPI PUSH0 PUSH0 REVERT JUMPDEST POP PUSH2 0x512 PUSH1 0x4 DUP1 CALLDATASIZE SUB DUP2 ADD SWAP1 PUSH2 0x50D SWAP2 SWAP1 PUSH2 0x322D JUMP JUMPDEST PUSH2 0x1A12 JUMP JUMPDEST PUSH1 0x40 MLOAD PUSH2 0x51F SWAP2 SWAP1 PUSH2 0x30AD JUMP JUMPDEST PUSH1 0x40 MLOAD DUP1 SWAP2 SUB SWAP1 RETURN JUMPDEST CALLVALUE DUP1 ISZERO PUSH2 0x533 JUMPI PUSH0 PUSH0 REVERT JUMPDEST POP PUSH2 0x54E PUSH1 0x4 DUP1 CALLDATASIZE SUB DUP2 ADD SWAP1 PUSH2 0x549 SWAP2 SWAP1 PUSH2 0x3202 JUMP JUMPDEST PUSH2 0x1A27 JUMP JUMPDEST STOP JUMPDEST CALLVALUE DUP1 ISZERO PUSH2 0x55B JUMPI PUSH0 PUSH0 REVERT JUMPDEST POP PUSH2 0x564 PUSH2 0x1B04 JUMP JUMPDEST PUSH1 0x40 MLOAD PUSH2 0x571 SWAP2 SWAP1 PUSH2 0x30AD JUMP JUMPDEST PUSH1 0x40 MLOAD DUP1 SWAP2 SUB SWAP1 RETURN JUMPDEST CALLVALUE DUP1 ISZERO PUSH2 0x585 JUMPI PUSH0 PUSH0 REVERT JUMPDEST POP PUSH2 0x58E PUSH2 0x1B0A JUMP JUMPDEST PUSH1 0x40 MLOAD PUSH2 0x59B SWAP2 SWAP1 PUSH2 0x30AD JUMP JUMPDEST PUSH1 0x40 MLOAD DUP1 SWAP2 SUB SWAP1 RETURN JUMPDEST CALLVALUE DUP1 ISZERO PUSH2 0x5AF JUMPI PUSH0 PUSH0 REVERT JUMPDEST POP PUSH2 0x5B8 PUSH2 0x1B10 JUMP JUMPDEST PUSH1 0x40 MLOAD PUSH2 0x5C5 SWAP2 SWAP1 PUSH2 0x3267 JUMP JUMPDEST PUSH1 0x40 MLOAD DUP1 SWAP2 SUB SWAP1 RETURN JUMPDEST CALLVALUE DUP1 ISZERO PUSH2 0x5D9 JUMPI PUSH0 PUSH0 REVERT JUMPDEST POP PUSH2 0x5E2 PUSH2 0x1B35 JUMP JUMPDEST PUSH1 0x40 MLOAD PUSH2 0x5EF SWAP2 SWAP1 PUSH2 0x30AD JUMP JUMPDEST PUSH1 0x40 MLOAD DUP1 SWAP2 SUB SWAP1 RETURN JUMPDEST CALLVALUE DUP1 ISZERO PUSH2 0x603 JUMPI PUSH0 PUSH0 REVERT JUMPDEST POP PUSH2 0x61E PUSH1 0x4 DUP1 CALLDATASIZE SUB DUP2 ADD SWAP1 PUSH2 0x619 SWAP2 SWAP1 PUSH2 0x322D JUMP JUMPDEST PUSH2 0x1B3B JUMP JUMPDEST STOP JUMPDEST CALLVALUE DUP1 ISZERO PUSH2 0x62B JUMPI PUSH0 PUSH0 REVERT JUMPDEST POP PUSH2 0x634 PUSH2 0x1C7B JUMP JUMPDEST PUSH1 0x40 MLOAD PUSH2 0x641 SWAP2 SWAP1 PUSH2 0x30AD JUMP JUMPDEST PUSH1 0x40 MLOAD DUP1 SWAP2 SUB SWAP1 RETURN JUMPDEST CALLVALUE DUP1 ISZERO PUSH2 0x655 JUMPI PUSH0 PUSH0 REVERT JUMPDEST POP PUSH2 0x65E PUSH2 0x1C81 JUMP JUMPDEST PUSH1 0x40 MLOAD PUSH2 0x66B SWAP2 SWAP1 PUSH2 0x2F7C JUMP JUMPDEST PUSH1 0x40 MLOAD DUP1 SWAP2 SUB SWAP1 RETURN JUMPDEST CALLVALUE DUP1 ISZERO PUSH2 0x67F JUMPI PUSH0 PUSH0 REVERT JUMPDEST POP PUSH2 0x69A PUSH1 0x4 DUP1 CALLDATASIZE SUB DUP2 ADD SWAP1 PUSH2 0x695 SWAP2 SWAP1 PUSH2 0x3202 JUMP JUMPDEST PUSH2 0x1D0D JUMP JUMPDEST STOP JUMPDEST CALLVALUE DUP1 ISZERO PUSH2 0x6A7 JUMPI PUSH0 PUSH0 REVERT JUMPDEST POP PUSH2 0x6C2 PUSH1 0x4 DUP1 CALLDATASIZE SUB DUP2 ADD SWAP1 PUSH2 0x6BD SWAP2 SWAP1 PUSH2 0x322D JUMP JUMPDEST PUSH2 0x20DD JUMP JUMPDEST PUSH1 0x40 MLOAD PUSH2 0x6CF SWAP2 SWAP1 PUSH2 0x30AD JUMP JUMPDEST PUSH1 0x40 MLOAD DUP1 SWAP2 SUB SWAP1 RETURN JUMPDEST CALLVALUE DUP1 ISZERO PUSH2 0x6E3 JUMPI PUSH0 PUSH0 REVERT JUMPDEST POP PUSH2 0x6FE PUSH1 0x4 DUP1 CALLDATASIZE SUB DUP2 ADD SWAP1 PUSH2 0x6F9 SWAP2 SWAP1 PUSH2 0x322D JUMP JUMPDEST PUSH2 0x20F2 JUMP JUMPDEST PUSH1 0x40 MLOAD PUSH2 0x70B SWAP2 SWAP1 PUSH2 0x30AD JUMP JUMPDEST PUSH1 0x40 MLOAD DUP1 SWAP2 SUB SWAP1 RETURN JUMPDEST CALLVALUE DUP1 ISZERO PUSH2 0x71F JUMPI PUSH0 PUSH0 REVERT JUMPDEST POP PUSH2 0x73A PUSH1 0x4 DUP1 CALLDATASIZE SUB DUP2 ADD SWAP1 PUSH2 0x735 SWAP2 SWAP1 PUSH2 0x322D JUMP JUMPDEST PUSH2 0x2107 JUMP JUMPDEST PUSH1 0x40 MLOAD PUSH2 0x747 SWAP2 SWAP1 PUSH2 0x30AD JUMP JUMPDEST PUSH1 0x40 MLOAD DUP1 SWAP2 SUB SWAP1 RETURN JUMPDEST CALLVALUE DUP1 ISZERO PUSH2 0x75B JUMPI PUSH0 PUSH0 REVERT JUMPDEST POP PUSH2 0x776 PUSH1 0x4 DUP1 CALLDATASIZE SUB DUP2 ADD SWAP1 PUSH2 0x771 SWAP2 SWAP1 PUSH2 0x302D JUMP JUMPDEST PUSH2 0x211C JUMP JUMPDEST PUSH1 0x40 MLOAD PUSH2 0x783 SWAP2 SWAP1 PUSH2 0x3085 JUMP JUMPDEST PUSH1 0x40 MLOAD DUP1 SWAP2 SUB SWAP1 RETURN JUMPDEST CALLVALUE DUP1 ISZERO PUSH2 0x797 JUMPI PUSH0 PUSH0 REVERT JUMPDEST POP PUSH2 0x7A0 PUSH2 0x2130 JUMP JUMPDEST PUSH1 0x40 MLOAD PUSH2 0x7AD SWAP2 SWAP1 PUSH2 0x30AD JUMP JUMPDEST PUSH1 0x40 MLOAD DUP1 SWAP2 SUB SWAP1 RETURN JUMPDEST CALLVALUE DUP1 ISZERO PUSH2 0x7C1 JUMPI PUSH0 PUSH0 REVERT JUMPDEST POP PUSH2 0x7CA PUSH2 0x2136 JUMP JUMPDEST PUSH1 0x40 MLOAD PUSH2 0x7D7 SWAP2 SWAP1 PUSH2 0x30AD JUMP JUMPDEST PUSH1 0x40 MLOAD DUP1 SWAP2 SUB SWAP1 RETURN JUMPDEST CALLVALUE DUP1 ISZERO PUSH2 0x7EB JUMPI PUSH0 PUSH0 REVERT JUMPDEST POP PUSH2 0x806 PUSH1 0x4 DUP1 CALLDATASIZE SUB DUP2 ADD SWAP1 PUSH2 0x801 SWAP2 SWAP1 PUSH2 0x3280 JUMP JUMPDEST PUSH2 0x213C JUMP JUMPDEST STOP JUMPDEST CALLVALUE DUP1 ISZERO PUSH2 0x813 JUMPI PUSH0 PUSH0 REVERT JUMPDEST POP PUSH2 0x82E PUSH1 0x4 DUP1 CALLDATASIZE SUB DUP2 ADD SWAP1 PUSH2 0x829 SWAP2 SWAP1 PUSH2 0x322D JUMP JUMPDEST PUSH2 0x2280 JUMP JUMPDEST PUSH1 0x40 MLOAD PUSH2 0x83B SWAP2 SWAP1 PUSH2 0x3085 JUMP JUMPDEST PUSH1 0x40 MLOAD DUP1 SWAP2 SUB SWAP1 RETURN JUMPDEST PUSH2 0x84C PUSH2 0x229D JUMP JUMPDEST STOP JUMPDEST CALLVALUE DUP1 ISZERO PUSH2 0x859 JUMPI PUSH0 PUSH0 REVERT JUMPDEST POP PUSH2 0x874 PUSH1 0x4 DUP1 CALLDATASIZE SUB DUP2 ADD SWAP1 PUSH2 0x86F SWAP2 SWAP1 PUSH2 0x32BE JUMP JUMPDEST PUSH2 0x2569 JUMP JUMPDEST PUSH1 0x40 MLOAD PUSH2 0x881 SWAP2 SWAP1 PUSH2 0x30AD JUMP JUMPDEST PUSH1 0x40 MLOAD DUP1 SWAP2 SUB SWAP1 RETURN JUMPDEST CALLVALUE DUP1 ISZERO PUSH2 0x895 JUMPI PUSH0 PUSH0 REVERT JUMPDEST POP PUSH2 0x8B0 PUSH1 0x4 DUP1 CALLDATASIZE SUB DUP2 ADD SWAP1 PUSH2 0x8AB SWAP2 SWAP1 PUSH2 0x322D JUMP JUMPDEST PUSH2 0x2589 JUMP JUMPDEST PUSH1 0x40 MLOAD PUSH2 0x8BE SWAP3 SWAP2 SWAP1 PUSH2 0x32FC JUMP JUMPDEST PUSH1 0x40 MLOAD DUP1 SWAP2 SUB SWAP1 RETURN JUMPDEST CALLVALUE DUP1 ISZERO PUSH2 0x8D2 JUMPI PUSH0 PUSH0 REVERT JUMPDEST POP PUSH2 0x8DB PUSH2 0x2621 JUMP JUMPDEST PUSH1 0x40 MLOAD PUSH2 0x8E8 SWAP2 SWAP1 PUSH2 0x3267 JUMP JUMPDEST PUSH1 0x40 MLOAD DUP1 SWAP2 SUB SWAP1 RETURN JUMPDEST CALLVALUE DUP1 ISZERO PUSH2 0x8FC JUMPI PUSH0 PUSH0 REVERT JUMPDEST POP PUSH2 0x917 PUSH1 0x4 DUP1 CALLDATASIZE SUB DUP2 ADD SWAP1 PUSH2 0x912 SWAP2 SWAP1 PUSH2 0x322D JUMP JUMPDEST PUSH2 0x2646 JUMP JUMPDEST STOP JUMPDEST PUSH0 DUP1 SLOAD PUSH2 0x925 SWAP1 PUSH2 0x3350 JUMP JUMPDEST DUP1 PUSH1 0x1F ADD PUSH1 0x20 DUP1 SWAP2 DIV MUL PUSH1 0x20 ADD PUSH1 0x40 MLOAD SWAP1 DUP2 ADD PUSH1 0x40 MSTORE DUP1 SWAP3 SWAP2 SWAP1 DUP2 DUP2 MSTORE PUSH1 0x20 ADD DUP3 DUP1 SLOAD PUSH2 0x951 SWAP1 PUSH2 0x3350 JUMP JUMPDEST DUP1 ISZERO PUSH2 0x99C JUMPI DUP1 PUSH1 0x1F LT PUSH2 0x973 JUMPI PUSH2 0x100 DUP1 DUP4 SLOAD DIV MUL DUP4 MSTORE SWAP2 PUSH1 0x20 ADD SWAP2 PUSH2 0x99C JUMP JUMPDEST DUP3 ADD SWAP2 SWAP1 PUSH0 MSTORE PUSH1 0x20 PUSH0 KECCAK256 SWAP1 JUMPDEST DUP2 SLOAD DUP2 MSTORE SWAP1 PUSH1 0x1 ADD SWAP1 PUSH1 0x20 ADD DUP1 DUP4 GT PUSH2 0x97F JUMPI DUP3 SWAP1 SUB PUSH1 0x1F AND DUP3 ADD SWAP2 JUMPDEST POP POP POP POP POP DUP2 JUMP JUMPDEST PUSH0 PUSH0 PUSH20 0xFFFFFFFFFFFFFFFFFFFFFFFFFFFFFFFFFFFFFFFF AND DUP4 PUSH20 0xFFFFFFFFFFFFFFFFFFFFFFFFFFFFFFFFFFFFFFFF AND SUB PUSH2 0xA13 JUMPI PUSH1 0x40 MLOAD PUSH32 0x8C379A000000000000000000000000000000000000000000000000000000000 DUP2 MSTORE PUSH1 0x4 ADD PUSH2 0xA0A SWAP1 PUSH2 0x33CA JUMP JUMPDEST PUSH1 0x40 MLOAD DUP1 SWAP2 SUB SWAP1 REVERT JUMPDEST DUP2 PUSH1 0x5 PUSH0 CALLER PUSH20 0xFFFFFFFFFFFFFFFFFFFFFFFFFFFFFFFFFFFFFFFF AND PUSH20 0xFFFFFFFFFFFFFFFFFFFFFFFFFFFFFFFFFFFFFFFF AND DUP2 MSTORE PUSH1 0x20 ADD SWAP1 DUP2 MSTORE PUSH1 0x20 ADD PUSH0 KECCAK256 PUSH0 DUP6 PUSH20 0xFFFFFFFFFFFFFFFFFFFFFFFFFFFFFFFFFFFFFFFF AND PUSH20 0xFFFFFFFFFFFFFFFFFFFFFFFFFFFFFFFFFFFFFFFF AND DUP2 MSTORE PUSH1 0x20 ADD SWAP1 DUP2 MSTORE PUSH1 0x20 ADD PUSH0 KECCAK256 DUP2 SWAP1 SSTORE POP DUP3 PUSH20 0xFFFFFFFFFFFFFFFFFFFFFFFFFFFFFFFFFFFFFFFF AND CALLER PUSH20 0xFFFFFFFFFFFFFFFFFFFFFFFFFFFFFFFFFFFFFFFF AND PUSH32 0x8C5BE1E5EBEC7D5BD14F71427D1E84F3DD0314C0F7B2291E5B200AC8C7C3B925 DUP5 PUSH1 0x40 MLOAD PUSH2 0xAED SWAP2 SWAP1 PUSH2 0x30AD JUMP JUMPDEST PUSH1 0x40 MLOAD DUP1 SWAP2 SUB SWAP1 LOG3 PUSH1 0x1 SWAP1 POP SWAP3 SWAP2 POP POP JUMP JUMPDEST PUSH1 0x3 SLOAD DUP2 JUMP JUMPDEST PUSH1 0x13 SLOAD DUP2 JUMP JUMPDEST PUSH0 DUP2 PUSH1 0x5 PUSH0 DUP7 PUSH20 0xFFFFFFFFFFFFFFFFFFFFFFFFFFFFFFFFFFFFFFFF AND PUSH20 0xFFFFFFFFFFFFFFFFFFFFFFFFFFFFFFFFFFFFFFFF AND DUP2 MSTORE PUSH1 0x20 ADD SWAP1 DUP2 MSTORE PUSH1 0x20 ADD PUSH0 KECCAK256 PUSH0 CALLER PUSH20 0xFFFFFFFFFFFFFFFFFFFFFFFFFFFFFFFFFFFFFFFF AND PUSH20 0xFFFFFFFFFFFFFFFFFFFFFFFFFFFFFFFFFFFFFFFF AND DUP2 MSTORE PUSH1 0x20 ADD SWAP1 DUP2 MSTORE PUSH1 0x20 ADD PUSH0 KECCAK256 SLOAD LT ISZERO PUSH2 0xBC7 JUMPI PUSH1 0x40 MLOAD PUSH32 0x8C379A000000000000000000000000000000000000000000000000000000000 DUP2 MSTORE PUSH1 0x4 ADD PUSH2 0xBBE SWAP1 PUSH2 0x3432 JUMP JUMPDEST PUSH1 0x40 MLOAD DUP1 SWAP2 SUB SWAP1 REVERT JUMPDEST DUP2 PUSH1 0x5 PUSH0 DUP7 PUSH20 0xFFFFFFFFFFFFFFFFFFFFFFFFFFFFFFFFFFFFFFFF AND PUSH20 0xFFFFFFFFFFFFFFFFFFFFFFFFFFFFFFFFFFFFFFFF AND DUP2 MSTORE PUSH1 0x20 ADD SWAP1 DUP2 MSTORE PUSH1 0x20 ADD PUSH0 KECCAK256 PUSH0 CALLER PUSH20 0xFFFFFFFFFFFFFFFFFFFFFFFFFFFFFFFFFFFFFFFF AND PUSH20 0xFFFFFFFFFFFFFFFFFFFFFFFFFFFFFFFFFFFFFFFF AND DUP2 MSTORE PUSH1 0x20 ADD SWAP1 DUP2 MSTORE PUSH1 0x20 ADD PUSH0 KECCAK256 PUSH0 DUP3 DUP3 SLOAD PUSH2 0xC4E SWAP2 SWAP1 PUSH2 0x347D JUMP JUMPDEST SWAP3 POP POP DUP2 SWAP1 SSTORE POP PUSH2 0xC60 DUP5 DUP5 DUP5 PUSH2 0x2786 JUMP JUMPDEST SWAP1 POP SWAP4 SWAP3 POP POP POP JUMP JUMPDEST PUSH1 0x7 SLOAD DUP2 JUMP JUMPDEST PUSH1 0x15 PUSH0 SWAP1 SLOAD SWAP1 PUSH2 0x100 EXP SWAP1 DIV PUSH20 0xFFFFFFFFFFFFFFFFFFFFFFFFFFFFFFFFFFFFFFFF AND PUSH20 0xFFFFFFFFFFFFFFFFFFFFFFFFFFFFFFFFFFFFFFFF AND CALLER PUSH20 0xFFFFFFFFFFFFFFFFFFFFFFFFFFFFFFFFFFFFFFFF AND EQ PUSH2 0xCFE JUMPI PUSH1 0x40 MLOAD PUSH32 0x8C379A000000000000000000000000000000000000000000000000000000000 DUP2 MSTORE PUSH1 0x4 ADD PUSH2 0xCF5 SWAP1 PUSH2 0x34FA JUMP JUMPDEST PUSH1 0x40 MLOAD DUP1 SWAP2 SUB SWAP1 REVERT JUMPDEST DUP1 PUSH1 0x14 PUSH0 DUP5 PUSH20 0xFFFFFFFFFFFFFFFFFFFFFFFFFFFFFFFFFFFFFFFF AND PUSH20 0xFFFFFFFFFFFFFFFFFFFFFFFFFFFFFFFFFFFFFFFF AND DUP2 MSTORE PUSH1 0x20 ADD SWAP1 DUP2 MSTORE PUSH1 0x20 ADD PUSH0 KECCAK256 PUSH0 PUSH2 0x100 EXP DUP2 SLOAD DUP2 PUSH1 0xFF MUL NOT AND SWAP1 DUP4 ISZERO ISZERO MUL OR SWAP1 SSTORE POP POP POP JUMP JUMPDEST PUSH1 0x2 PUSH0 SWAP1 SLOAD SWAP1 PUSH2 0x100 EXP SWAP1 DIV PUSH1 0xFF AND DUP2 JUMP JUMPDEST PUSH1 0x15 PUSH0 SWAP1 SLOAD SWAP1 PUSH2 0x100 EXP SWAP1 DIV PUSH20 0xFFFFFFFFFFFFFFFFFFFFFFFFFFFFFFFFFFFFFFFF AND PUSH20 0xFFFFFFFFFFFFFFFFFFFFFFFFFFFFFFFFFFFFFFFF AND CALLER PUSH20 0xFFFFFFFFFFFFFFFFFFFFFFFFFFFFFFFFFFFFFFFF AND EQ PUSH2 0xDF7 JUMPI PUSH1 0x40 MLOAD PUSH32 0x8C379A000000000000000000000000000000000000000000000000000000000 DUP2 MSTORE PUSH1 0x4 ADD PUSH2 0xDEE SWAP1 PUSH2 0x34FA JUMP JUMPDEST PUSH1 0x40 MLOAD DUP1 SWAP2 SUB SWAP1 REVERT JUMPDEST PUSH1 0x14 DUP4 GT ISZERO PUSH2 0xE3B JUMPI PUSH1 0x40 MLOAD PUSH32 0x8C379A000000000000000000000000000000000000000000000000000000000 DUP2 MSTORE PUSH1 0x4 ADD PUSH2 0xE32 SWAP1 PUSH2 0x3562 JUMP JUMPDEST PUSH1 0x40 MLOAD DUP1 SWAP2 SUB SWAP1 REVERT JUMPDEST PUSH1 0x14 DUP3 GT ISZERO PUSH2 0xE7F JUMPI PUSH1 0x40 MLOAD PUSH32 0x8C379A000000000000000000000000000000000000000000000000000000000 DUP2 MSTORE PUSH1 0x4 ADD PUSH2 0xE76 SWAP1 PUSH2 0x35CA JUMP JUMPDEST PUSH1 0x40 MLOAD DUP1 SWAP2 SUB SWAP1 REVERT JUMPDEST PUSH1 0xA DUP2 GT ISZERO PUSH2 0xEC3 JUMPI PUSH1 0x40 MLOAD PUSH32 0x8C379A000000000000000000000000000000000000000000000000000000000 DUP2 MSTORE PUSH1 0x4 ADD PUSH2 0xEBA SWAP1 PUSH2 0x3632 JUMP JUMPDEST PUSH1 0x40 MLOAD DUP1 SWAP2 SUB SWAP1 REVERT JUMPDEST DUP3 PUSH1 0x6 DUP2 SWAP1 SSTORE POP DUP2 PUSH1 0x7 DUP2 SWAP1 SSTORE POP DUP1 PUSH1 0x8 DUP2 SWAP1 SSTORE POP POP POP POP JUMP JUMPDEST PUSH1 0x15 PUSH0 SWAP1 SLOAD SWAP1 PUSH2 0x100 EXP SWAP1 DIV PUSH20 0xFFFFFFFFFFFFFFFFFFFFFFFFFFFFFFFFFFFFFFFF AND PUSH20 0xFFFFFFFFFFFFFFFFFFFFFFFFFFFFFFFFFFFFFFFF AND CALLER PUSH20 0xFFFFFFFFFFFFFFFFFFFFFFFFFFFFFFFFFFFFFFFF AND EQ PUSH2 0xF6C JUMPI PUSH1 0x40 MLOAD PUSH32 0x8C379A000000000000000000000000000000000000000000000000000000000 DUP2 MSTORE PUSH1 0x4 ADD PUSH2 0xF63 SWAP1 PUSH2 0x34FA JUMP JUMPDEST PUSH1 0x40 MLOAD DUP1 SWAP2 SUB SWAP1 REVERT JUMPDEST PUSH0 PUSH1 0xA SLOAD GT PUSH2 0xFB0 JUMPI PUSH1 0x40 MLOAD PUSH32 0x8C379A000000000000000000000000000000000000000000000000000000000 DUP2 MSTORE PUSH1 0x4 ADD PUSH2 0xFA7 SWAP1 PUSH2 0x369A JUMP JUMPDEST PUSH1 0x40 MLOAD DUP1 SWAP2 SUB SWAP1 REVERT JUMPDEST PUSH0 PUSH1 0xA SLOAD SWAP1 POP PUSH0 PUSH1 0xA DUP2 SWAP1 SSTORE POP DUP1 PUSH1 0x4 PUSH0 ADDRESS PUSH20 0xFFFFFFFFFFFFFFFFFFFFFFFFFFFFFFFFFFFFFFFF AND PUSH20 0xFFFFFFFFFFFFFFFFFFFFFFFFFFFFFFFFFFFFFFFF AND DUP2 MSTORE PUSH1 0x20 ADD SWAP1 DUP2 MSTORE PUSH1 0x20 ADD PUSH0 KECCAK256 PUSH0 DUP3 DUP3 SLOAD PUSH2 0x1009 SWAP2 SWAP1 PUSH2 0x347D JUMP JUMPDEST SWAP3 POP POP DUP2 SWAP1 SSTORE POP DUP1 PUSH1 0x4 PUSH0 PUSH1 0x9 PUSH0 SWAP1 SLOAD SWAP1 PUSH2 0x100 EXP SWAP1 DIV PUSH20 0xFFFFFFFFFFFFFFFFFFFFFFFFFFFFFFFFFFFFFFFF AND PUSH20 0xFFFFFFFFFFFFFFFFFFFFFFFFFFFFFFFFFFFFFFFF AND PUSH20 0xFFFFFFFFFFFFFFFFFFFFFFFFFFFFFFFFFFFFFFFF AND DUP2 MSTORE PUSH1 0x20 ADD SWAP1 DUP2 MSTORE PUSH1 0x20 ADD PUSH0 KECCAK256 PUSH0 DUP3 DUP3 SLOAD PUSH2 0x107D SWAP2 SWAP1 PUSH2 0x36B8 JUMP JUMPDEST SWAP3 POP POP DUP2 SWAP1 SSTORE POP PUSH1 0x9 PUSH0 SWAP1 SLOAD SWAP1 PUSH2 0x100 EXP SWAP1 DIV PUSH20 0xFFFFFFFFFFFFFFFFFFFFFFFFFFFFFFFFFFFFFFFF AND PUSH20 0xFFFFFFFFFFFFFFFFFFFFFFFFFFFFFFFFFFFFFFFF AND ADDRESS PUSH20 0xFFFFFFFFFFFFFFFFFFFFFFFFFFFFFFFFFFFFFFFF AND PUSH32 0xDDF252AD1BE2C89B69C2B068FC378DAA952BA7F163C4A11628F55A4DF523B3EF DUP4 PUSH1 0x40 MLOAD PUSH2 0x1102 SWAP2 SWAP1 PUSH2 0x30AD JUMP JUMPDEST PUSH1 0x40 MLOAD DUP1 SWAP2 SUB SWAP1 LOG3 PUSH1 0x9 PUSH0 SWAP1 SLOAD SWAP1 PUSH2 0x100 EXP SWAP1 DIV PUSH20 0xFFFFFFFFFFFFFFFFFFFFFFFFFFFFFFFFFFFFFFFF AND PUSH20 0xFFFFFFFFFFFFFFFFFFFFFFFFFFFFFFFFFFFFFFFF AND PUSH32 0xC0819C13BE868895EB93E40EACEB96DE976442FA1D404E5C55F14BB65A8C489A DUP3 PUSH1 0x40 MLOAD PUSH2 0x1171 SWAP2 SWAP1 PUSH2 0x30AD JUMP JUMPDEST PUSH1 0x40 MLOAD DUP1 SWAP2 SUB SWAP1 LOG2 POP JUMP JUMPDEST PUSH1 0xB SLOAD DUP2 JUMP JUMPDEST PUSH0 PUSH0 PUSH1 0xB SLOAD SUB PUSH2 0x1194 JUMPI PUSH0 SWAP1 POP PUSH2 0x11BA JUMP JUMPDEST PUSH1 0xB SLOAD PUSH8 0xDE0B6B3A7640000 PUSH1 0xC SLOAD PUSH2 0x11AD SWAP2 SWAP1 PUSH2 0x36EB JUMP JUMPDEST PUSH2 0x11B7 SWAP2 SWAP1 PUSH2 0x3759 JUMP JUMPDEST SWAP1 POP JUMPDEST SWAP1 JUMP JUMPDEST PUSH0 DUP2 GT PUSH2 0x11FF JUMPI PUSH1 0x40 MLOAD PUSH32 0x8C379A000000000000000000000000000000000000000000000000000000000 DUP2 MSTORE PUSH1 0x4 ADD PUSH2 0x11F6 SWAP1 PUSH2 0x37F9 JUMP JUMPDEST PUSH1 0x40 MLOAD DUP1 SWAP2 SUB SWAP1 REVERT JUMPDEST PUSH0 CALLVALUE GT PUSH2 0x1241 JUMPI PUSH1 0x40 MLOAD PUSH32 0x8C379A000000000000000000000000000000000000000000000000000000000 DUP2 MSTORE PUSH1 0x4 ADD PUSH2 0x1238 SWAP1 PUSH2 0x3887 JUMP JUMPDEST PUSH1 0x40 MLOAD DUP1 SWAP2 SUB SWAP1 REVERT JUMPDEST DUP1 PUSH1 0x4 PUSH0 CALLER PUSH20 0xFFFFFFFFFFFFFFFFFFFFFFFFFFFFFFFFFFFFFFFF AND PUSH20 0xFFFFFFFFFFFFFFFFFFFFFFFFFFFFFFFFFFFFFFFF AND DUP2 MSTORE PUSH1 0x20 ADD SWAP1 DUP2 MSTORE PUSH1 0x20 ADD PUSH0 KECCAK256 SLOAD LT ISZERO PUSH2 0x12C1 JUMPI PUSH1 0x40 MLOAD PUSH32 0x8C379A000000000000000000000000000000000000000000000000000000000 DUP2 MSTORE PUSH1 0x4 ADD PUSH2 0x12B8 SWAP1 PUSH2 0x38EF JUMP JUMPDEST PUSH1 0x40 MLOAD DUP1 SWAP2 SUB SWAP1 REVERT JUMPDEST PUSH0 PUSH0 SWAP1 POP PUSH0 PUSH1 0xE SLOAD SUB PUSH2 0x12D6 JUMPI DUP2 SWAP1 POP PUSH2 0x12F4 JUMP JUMPDEST PUSH1 0xB SLOAD PUSH1 0xE SLOAD DUP4 PUSH2 0x12E7 SWAP2 SWAP1 PUSH2 0x36EB JUMP JUMPDEST PUSH2 0x12F1 SWAP2 SWAP1 PUSH2 0x3759 JUMP JUMPDEST SWAP1 POP JUMPDEST PUSH0 DUP2 GT PUSH2 0x1336 JUMPI PUSH1 0x40 MLOAD PUSH32 0x8C379A000000000000000000000000000000000000000000000000000000000 DUP2 MSTORE PUSH1 0x4 ADD PUSH2 0x132D SWAP1 PUSH2 0x3957 JUMP JUMPDEST PUSH1 0x40 MLOAD DUP1 SWAP2 SUB SWAP1 REVERT JUMPDEST DUP2 PUSH1 0x4 PUSH0 CALLER PUSH20 0xFFFFFFFFFFFFFFFFFFFFFFFFFFFFFFFFFFFFFFFF AND PUSH20 0xFFFFFFFFFFFFFFFFFFFFFFFFFFFFFFFFFFFFFFFF AND DUP2 MSTORE PUSH1 0x20 ADD SWAP1 DUP2 MSTORE PUSH1 0x20 ADD PUSH0 KECCAK256 PUSH0 DUP3 DUP3 SLOAD PUSH2 0x1382 SWAP2 SWAP1 PUSH2 0x347D JUMP JUMPDEST SWAP3 POP POP DUP2 SWAP1 SSTORE POP DUP2 PUSH1 0x4 PUSH0 ADDRESS PUSH20 0xFFFFFFFFFFFFFFFFFFFFFFFFFFFFFFFFFFFFFFFF AND PUSH20 0xFFFFFFFFFFFFFFFFFFFFFFFFFFFFFFFFFFFFFFFF AND DUP2 MSTORE PUSH1 0x20 ADD SWAP1 DUP2 MSTORE PUSH1 0x20 ADD PUSH0 KECCAK256 PUSH0 DUP3 DUP3 SLOAD PUSH2 0x13D5 SWAP2 SWAP1 PUSH2 0x36B8 JUMP JUMPDEST SWAP3 POP POP DUP2 SWAP1 SSTORE POP DUP2 PUSH1 0xB PUSH0 DUP3 DUP3 SLOAD PUSH2 0x13ED SWAP2 SWAP1 PUSH2 0x36B8 JUMP JUMPDEST SWAP3 POP POP DUP2 SWAP1 SSTORE POP CALLVALUE PUSH1 0xC PUSH0 DUP3 DUP3 SLOAD PUSH2 0x1405 SWAP2 SWAP1 PUSH2 0x36B8 JUMP JUMPDEST SWAP3 POP POP DUP2 SWAP1 SSTORE POP DUP1 PUSH1 0xD PUSH0 CALLER PUSH20 0xFFFFFFFFFFFFFFFFFFFFFFFFFFFFFFFFFFFFFFFF AND PUSH20 0xFFFFFFFFFFFFFFFFFFFFFFFFFFFFFFFFFFFFFFFF AND DUP2 MSTORE PUSH1 0x20 ADD SWAP1 DUP2 MSTORE PUSH1 0x20 ADD PUSH0 KECCAK256 PUSH0 DUP3 DUP3 SLOAD PUSH2 0x1458 SWAP2 SWAP1 PUSH2 0x36B8 JUMP JUMPDEST SWAP3 POP POP DUP2 SWAP1 SSTORE POP DUP1 PUSH1 0xE PUSH0 DUP3 DUP3 SLOAD PUSH2 0x1470 SWAP2 SWAP1 PUSH2 0x36B8 JUMP JUMPDEST SWAP3 POP POP DUP2 SWAP1 SSTORE POP CALLER PUSH20 0xFFFFFFFFFFFFFFFFFFFFFFFFFFFFFFFFFFFFFFFF AND PUSH32 0x64B83944E79C3CE8D4C297411DE637C3E102D064677AAC0C163976EBDCD6F50E DUP4 CALLVALUE DUP5 PUSH1 0x40 MLOAD PUSH2 0x14C1 SWAP4 SWAP3 SWAP2 SWAP1 PUSH2 0x3975 JUMP JUMPDEST PUSH1 0x40 MLOAD DUP1 SWAP2 SUB SWAP1 LOG2 ADDRESS PUSH20 0xFFFFFFFFFFFFFFFFFFFFFFFFFFFFFFFFFFFFFFFF AND CALLER PUSH20 0xFFFFFFFFFFFFFFFFFFFFFFFFFFFFFFFFFFFFFFFF AND PUSH32 0xDDF252AD1BE2C89B69C2B068FC378DAA952BA7F163C4A11628F55A4DF523B3EF DUP5 PUSH1 0x40 MLOAD PUSH2 0x1526 SWAP2 SWAP1 PUSH2 0x30AD JUMP JUMPDEST PUSH1 0x40 MLOAD DUP1 SWAP2 SUB SWAP1 LOG3 POP POP JUMP JUMPDEST PUSH0 PUSH0 PUSH3 0x15180 TIMESTAMP PUSH2 0x1543 SWAP2 SWAP1 PUSH2 0x3759 JUMP JUMPDEST SWAP1 POP DUP1 PUSH1 0x12 PUSH0 DUP6 PUSH20 0xFFFFFFFFFFFFFFFFFFFFFFFFFFFFFFFFFFFFFFFF AND PUSH20 0xFFFFFFFFFFFFFFFFFFFFFFFFFFFFFFFFFFFFFFFF AND DUP2 MSTORE PUSH1 0x20 ADD SWAP1 DUP2 MSTORE PUSH1 0x20 ADD PUSH0 KECCAK256 SLOAD LT ISZERO PUSH2 0x1595 JUMPI PUSH1 0x13 SLOAD SWAP2 POP POP PUSH2 0x1633 JUMP JUMPDEST PUSH1 0x13 SLOAD PUSH1 0x11 PUSH0 DUP6 PUSH20 0xFFFFFFFFFFFFFFFFFFFFFFFFFFFFFFFFFFFFFFFF AND PUSH20 0xFFFFFFFFFFFFFFFFFFFFFFFFFFFFFFFFFFFFFFFF AND DUP2 MSTORE PUSH1 0x20 ADD SWAP1 DUP2 MSTORE PUSH1 0x20 ADD PUSH0 KECCAK256 SLOAD LT PUSH2 0x15E4 JUMPI PUSH0 SWAP2 POP POP PUSH2 0x1633 JUMP JUMPDEST PUSH1 0x11 PUSH0 DUP5 PUSH20 0xFFFFFFFFFFFFFFFFFFFFFFFFFFFFFFFFFFFFFFFF AND PUSH20 0xFFFFFFFFFFFFFFFFFFFFFFFFFFFFFFFFFFFFFFFF AND DUP2 MSTORE PUSH1 0x20 ADD SWAP1 DUP2 MSTORE PUSH1 0x20 ADD PUSH0 KECCAK256 SLOAD PUSH1 0x13 SLOAD PUSH2 0x162F SWAP2 SWAP1 PUSH2 0x347D JUMP JUMPDEST SWAP2 POP POP JUMPDEST SWAP2 SWAP1 POP JUMP JUMPDEST PUSH1 0x6 SLOAD DUP2 JUMP JUMPDEST PUSH0 DUP2 GT PUSH2 0x1680 JUMPI PUSH1 0x40 MLOAD PUSH32 0x8C379A000000000000000000000000000000000000000000000000000000000 DUP2 MSTORE PUSH1 0x4 ADD PUSH2 0x1677 SWAP1 PUSH2 0x39F4 JUMP JUMPDEST PUSH1 0x40 MLOAD DUP1 SWAP2 SUB SWAP1 REVERT JUMPDEST DUP1 PUSH1 0x4 PUSH0 CALLER PUSH20 0xFFFFFFFFFFFFFFFFFFFFFFFFFFFFFFFFFFFFFFFF AND PUSH20 0xFFFFFFFFFFFFFFFFFFFFFFFFFFFFFFFFFFFFFFFF AND DUP2 MSTORE PUSH1 0x20 ADD SWAP1 DUP2 MSTORE PUSH1 0x20 ADD PUSH0 KECCAK256 SLOAD LT ISZERO PUSH2 0x1700 JUMPI PUSH1 0x40 MLOAD PUSH32 0x8C379A000000000000000000000000000000000000000000000000000000000 DUP2 MSTORE PUSH1 0x4 ADD PUSH2 0x16F7 SWAP1 PUSH2 0x38EF JUMP JUMPDEST PUSH1 0x40 MLOAD DUP1 SWAP2 SUB SWAP1 REVERT JUMPDEST PUSH0 PUSH1 0xB SLOAD GT DUP1 ISZERO PUSH2 0x1712 JUMPI POP PUSH0 PUSH1 0xC SLOAD GT JUMPDEST PUSH2 0x1751 JUMPI PUSH1 0x40 MLOAD PUSH32 0x8C379A000000000000000000000000000000000000000000000000000000000 DUP2 MSTORE PUSH1 0x4 ADD PUSH2 0x1748 SWAP1 PUSH2 0x3A5C JUMP JUMPDEST PUSH1 0x40 MLOAD DUP1 SWAP2 SUB SWAP1 REVERT JUMPDEST PUSH0 PUSH1 0x64 PUSH1 0x7 SLOAD DUP4 PUSH2 0x1762 SWAP2 SWAP1 PUSH2 0x36EB JUMP JUMPDEST PUSH2 0x176C SWAP2 SWAP1 PUSH2 0x3759 JUMP JUMPDEST SWAP1 POP PUSH0 DUP2 DUP4 PUSH2 0x177B SWAP2 SWAP1 PUSH2 0x347D JUMP JUMPDEST SWAP1 POP PUSH0 PUSH1 0xC SLOAD PUSH1 0xB SLOAD PUSH2 0x178E SWAP2 SWAP1 PUSH2 0x36EB JUMP JUMPDEST SWAP1 POP PUSH0 DUP3 PUSH1 0xB SLOAD PUSH2 0x179F SWAP2 SWAP1 PUSH2 0x36B8 JUMP JUMPDEST SWAP1 POP PUSH0 DUP2 DUP4 PUSH2 0x17AE SWAP2 SWAP1 PUSH2 0x3759 JUMP JUMPDEST SWAP1 POP PUSH0 DUP2 PUSH1 0xC SLOAD PUSH2 0x17BF SWAP2 SWAP1 PUSH2 0x347D JUMP JUMPDEST SWAP1 POP PUSH0 DUP2 GT PUSH2 0x1803 JUMPI PUSH1 0x40 MLOAD PUSH32 0x8C379A000000000000000000000000000000000000000000000000000000000 DUP2 MSTORE PUSH1 0x4 ADD PUSH2 0x17FA SWAP1 PUSH2 0x3AC4 JUMP JUMPDEST PUSH1 0x40 MLOAD DUP1 SWAP2 SUB SWAP1 REVERT JUMPDEST DUP1 SELFBALANCE LT ISZERO PUSH2 0x1846 JUMPI PUSH1 0x40 MLOAD PUSH32 0x8C379A000000000000000000000000000000000000000000000000000000000 DUP2 MSTORE PUSH1 0x4 ADD PUSH2 0x183D SWAP1 PUSH2 0x3B2C JUMP JUMPDEST PUSH1 0x40 MLOAD DUP1 SWAP2 SUB SWAP1 REVERT JUMPDEST DUP3 PUSH1 0xB DUP2 SWAP1 SSTORE POP DUP2 PUSH1 0xC DUP2 SWAP1 SSTORE POP DUP7 PUSH1 0x4 PUSH0 CALLER PUSH20 0xFFFFFFFFFFFFFFFFFFFFFFFFFFFFFFFFFFFFFFFF AND PUSH20 0xFFFFFFFFFFFFFFFFFFFFFFFFFFFFFFFFFFFFFFFF AND DUP2 MSTORE PUSH1 0x20 ADD SWAP1 DUP2 MSTORE PUSH1 0x20 ADD PUSH0 KECCAK256 PUSH0 DUP3 DUP3 SLOAD PUSH2 0x18A0 SWAP2 SWAP1 PUSH2 0x347D JUMP JUMPDEST SWAP3 POP POP DUP2 SWAP1 SSTORE POP DUP7 PUSH1 0x4 PUSH0 ADDRESS PUSH20 0xFFFFFFFFFFFFFFFFFFFFFFFFFFFFFFFFFFFFFFFF AND PUSH20 0xFFFFFFFFFFFFFFFFFFFFFFFFFFFFFFFFFFFFFFFF AND DUP2 MSTORE PUSH1 0x20 ADD SWAP1 DUP2 MSTORE PUSH1 0x20 ADD PUSH0 KECCAK256 PUSH0 DUP3 DUP3 SLOAD PUSH2 0x18F3 SWAP2 SWAP1 PUSH2 0x36B8 JUMP JUMPDEST SWAP3 POP POP DUP2 SWAP1 SSTORE POP DUP6 PUSH1 0xA PUSH0 DUP3 DUP3 SLOAD PUSH2 0x190B SWAP2 SWAP1 PUSH2 0x36B8 JUMP JUMPDEST SWAP3 POP POP DUP2 SWAP1 SSTORE POP CALLER PUSH20 0xFFFFFFFFFFFFFFFFFFFFFFFFFFFFFFFFFFFFFFFF AND PUSH2 0x8FC DUP3 SWAP1 DUP2 ISZERO MUL SWAP1 PUSH1 0x40 MLOAD PUSH0 PUSH1 0x40 MLOAD DUP1 DUP4 SUB DUP2 DUP6 DUP9 DUP9 CALL SWAP4 POP POP POP POP ISZERO DUP1 ISZERO PUSH2 0x1955 JUMPI RETURNDATASIZE PUSH0 PUSH0 RETURNDATACOPY RETURNDATASIZE PUSH0 REVERT JUMPDEST POP ADDRESS PUSH20 0xFFFFFFFFFFFFFFFFFFFFFFFFFFFFFFFFFFFFFFFF AND CALLER PUSH20 0xFFFFFFFFFFFFFFFFFFFFFFFFFFFFFFFFFFFFFFFF AND PUSH32 0xDDF252AD1BE2C89B69C2B068FC378DAA952BA7F163C4A11628F55A4DF523B3EF DUP10 PUSH1 0x40 MLOAD PUSH2 0x19B3 SWAP2 SWAP1 PUSH2 0x30AD JUMP JUMPDEST PUSH1 0x40 MLOAD DUP1 SWAP2 SUB SWAP1 LOG3 CALLER PUSH20 0xFFFFFFFFFFFFFFFFFFFFFFFFFFFFFFFFFFFFFFFF AND PUSH32 0x7F1B726F82F7A14636A7A5932448F1BCE683188520BA3150FD8423989353EBF2 DUP8 PUSH1 0x40 MLOAD PUSH2 0x1A01 SWAP2 SWAP1 PUSH2 0x30AD JUMP JUMPDEST PUSH1 0x40 MLOAD DUP1 SWAP2 SUB SWAP1 LOG2 POP POP POP POP POP POP POP JUMP JUMPDEST PUSH1 0x4 PUSH1 0x20 MSTORE DUP1 PUSH0 MSTORE PUSH1 0x40 PUSH0 KECCAK256 PUSH0 SWAP2 POP SWAP1 POP SLOAD DUP2 JUMP JUMPDEST PUSH1 0x15 PUSH0 SWAP1 SLOAD SWAP1 PUSH2 0x100 EXP SWAP1 DIV PUSH20 0xFFFFFFFFFFFFFFFFFFFFFFFFFFFFFFFFFFFFFFFF AND PUSH20 0xFFFFFFFFFFFFFFFFFFFFFFFFFFFFFFFFFFFFFFFF AND CALLER PUSH20 0xFFFFFFFFFFFFFFFFFFFFFFFFFFFFFFFFFFFFFFFF AND EQ PUSH2 0x1AB6 JUMPI PUSH1 0x40 MLOAD PUSH32 0x8C379A000000000000000000000000000000000000000000000000000000000 DUP2 MSTORE PUSH1 0x4 ADD PUSH2 0x1AAD SWAP1 PUSH2 0x34FA JUMP JUMPDEST PUSH1 0x40 MLOAD DUP1 SWAP2 SUB SWAP1 REVERT JUMPDEST PUSH1 0x5 DUP2 LT ISZERO PUSH2 0x1AFA JUMPI PUSH1 0x40 MLOAD PUSH32 0x8C379A000000000000000000000000000000000000000000000000000000000 DUP2 MSTORE PUSH1 0x4 ADD PUSH2 0x1AF1 SWAP1 PUSH2 0x3B94 JUMP JUMPDEST PUSH1 0x40 MLOAD DUP1 SWAP2 SUB SWAP1 REVERT JUMPDEST DUP1 PUSH1 0x13 DUP2 SWAP1 SSTORE POP POP JUMP JUMPDEST PUSH1 0xE SLOAD DUP2 JUMP JUMPDEST PUSH1 0xF SLOAD DUP2 JUMP JUMPDEST PUSH1 0x15 PUSH0 SWAP1 SLOAD SWAP1 PUSH2 0x100 EXP SWAP1 DIV PUSH20 0xFFFFFFFFFFFFFFFFFFFFFFFFFFFFFFFFFFFFFFFF AND DUP2 JUMP JUMPDEST PUSH1 0xA SLOAD DUP2 JUMP JUMPDEST PUSH1 0x15 PUSH0 SWAP1 SLOAD SWAP1 PUSH2 0x100 EXP SWAP1 DIV PUSH20 0xFFFFFFFFFFFFFFFFFFFFFFFFFFFFFFFFFFFFFFFF AND PUSH20 0xFFFFFFFFFFFFFFFFFFFFFFFFFFFFFFFFFFFFFFFF AND CALLER PUSH20 0xFFFFFFFFFFFFFFFFFFFFFFFFFFFFFFFFFFFFFFFF AND EQ PUSH2 0x1BCA JUMPI PUSH1 0x40 MLOAD PUSH32 0x8C379A000000000000000000000000000000000000000000000000000000000 DUP2 MSTORE PUSH1 0x4 ADD PUSH2 0x1BC1 SWAP1 PUSH2 0x34FA JUMP JUMPDEST PUSH1 0x40 MLOAD DUP1 SWAP2 SUB SWAP1 REVERT JUMPDEST PUSH0 PUSH20 0xFFFFFFFFFFFFFFFFFFFFFFFFFFFFFFFFFFFFFFFF AND DUP2 PUSH20 0xFFFFFFFFFFFFFFFFFFFFFFFFFFFFFFFFFFFFFFFF AND SUB PUSH2 0x1C38 JUMPI PUSH1 0x40 MLOAD PUSH32 0x8C379A000000000000000000000000000000000000000000000000000000000 DUP2 MSTORE PUSH1 0x4 ADD PUSH2 0x1C2F SWAP1 PUSH2 0x3BFC JUMP JUMPDEST PUSH1 0x40 MLOAD DUP1 SWAP2 SUB SWAP1 REVERT JUMPDEST DUP1 PUSH1 0x9 PUSH0 PUSH2 0x100 EXP DUP2 SLOAD DUP2 PUSH20 0xFFFFFFFFFFFFFFFFFFFFFFFFFFFFFFFFFFFFFFFF MUL NOT AND SWAP1 DUP4 PUSH20 0xFFFFFFFFFFFFFFFFFFFFFFFFFFFFFFFFFFFFFFFF AND MUL OR SWAP1 SSTORE POP POP JUMP JUMPDEST PUSH1 0xC SLOAD DUP2 JUMP JUMPDEST PUSH1 0x1 DUP1 SLOAD PUSH2 0x1C8E SWAP1 PUSH2 0x3350 JUMP JUMPDEST DUP1 PUSH1 0x1F ADD PUSH1 0x20 DUP1 SWAP2 DIV MUL PUSH1 0x20 ADD PUSH1 0x40 MLOAD SWAP1 DUP2 ADD PUSH1 0x40 MSTORE DUP1 SWAP3 SWAP2 SWAP1 DUP2 DUP2 MSTORE PUSH1 0x20 ADD DUP3 DUP1 SLOAD PUSH2 0x1CBA SWAP1 PUSH2 0x3350 JUMP JUMPDEST DUP1 ISZERO PUSH2 0x1D05 JUMPI DUP1 PUSH1 0x1F LT PUSH2 0x1CDC JUMPI PUSH2 0x100 DUP1 DUP4 SLOAD DIV MUL DUP4 MSTORE SWAP2 PUSH1 0x20 ADD SWAP2 PUSH2 0x1D05 JUMP JUMPDEST DUP3 ADD SWAP2 SWAP1 PUSH0 MSTORE PUSH1 0x20 PUSH0 KECCAK256 SWAP1 JUMPDEST DUP2 SLOAD DUP2 MSTORE SWAP1 PUSH1 0x1 ADD SWAP1 PUSH1 0x20 ADD DUP1 DUP4 GT PUSH2 0x1CE8 JUMPI DUP3 SWAP1 SUB PUSH1 0x1F AND DUP3 ADD SWAP2 JUMPDEST POP POP POP POP POP DUP2 JUMP JUMPDEST PUSH0 DUP2 GT PUSH2 0x1D4F JUMPI PUSH1 0x40 MLOAD PUSH32 0x8C379A000000000000000000000000000000000000000000000000000000000 DUP2 MSTORE PUSH1 0x4 ADD PUSH2 0x1D46 SWAP1 PUSH2 0x3957 JUMP JUMPDEST PUSH1 0x40 MLOAD DUP1 SWAP2 SUB SWAP1 REVERT JUMPDEST DUP1 PUSH1 0xD PUSH0 CALLER PUSH20 0xFFFFFFFFFFFFFFFFFFFFFFFFFFFFFFFFFFFFFFFF AND PUSH20 0xFFFFFFFFFFFFFFFFFFFFFFFFFFFFFFFFFFFFFFFF AND DUP2 MSTORE PUSH1 0x20 ADD SWAP1 DUP2 MSTORE PUSH1 0x20 ADD PUSH0 KECCAK256 SLOAD LT ISZERO PUSH2 0x1DCF JUMPI PUSH1 0x40 MLOAD PUSH32 0x8C379A000000000000000000000000000000000000000000000000000000000 DUP2 MSTORE PUSH1 0x4 ADD PUSH2 0x1DC6 SWAP1 PUSH2 0x3C64 JUMP JUMPDEST PUSH1 0x40 MLOAD DUP1 SWAP2 SUB SWAP1 REVERT JUMPDEST PUSH0 PUSH1 0xE SLOAD GT PUSH2 0x1E13 JUMPI PUSH1 0x40 MLOAD PUSH32 0x8C379A000000000000000000000000000000000000000000000000000000000 DUP2 MSTORE PUSH1 0x4 ADD PUSH2 0x1E0A SWAP1 PUSH2 0x3A5C JUMP JUMPDEST PUSH1 0x40 MLOAD DUP1 SWAP2 SUB SWAP1 REVERT JUMPDEST PUSH0 PUSH1 0xE SLOAD PUSH1 0xB SLOAD DUP4 PUSH2 0x1E25 SWAP2 SWAP1 PUSH2 0x36EB JUMP JUMPDEST PUSH2 0x1E2F SWAP2 SWAP1 PUSH2 0x3759 JUMP JUMPDEST SWAP1 POP PUSH0 PUSH1 0xE SLOAD PUSH1 0xC SLOAD DUP5 PUSH2 0x1E43 SWAP2 SWAP1 PUSH2 0x36EB JUMP JUMPDEST PUSH2 0x1E4D SWAP2 SWAP1 PUSH2 0x3759 JUMP JUMPDEST SWAP1 POP PUSH0 DUP3 GT DUP1 ISZERO PUSH2 0x1E5D JUMPI POP PUSH0 DUP2 GT JUMPDEST PUSH2 0x1E9C JUMPI PUSH1 0x40 MLOAD PUSH32 0x8C379A000000000000000000000000000000000000000000000000000000000 DUP2 MSTORE PUSH1 0x4 ADD PUSH2 0x1E93 SWAP1 PUSH2 0x3CCC JUMP JUMPDEST PUSH1 0x40 MLOAD DUP1 SWAP2 SUB SWAP1 REVERT JUMPDEST DUP2 PUSH1 0xB PUSH0 DUP3 DUP3 SLOAD PUSH2 0x1EAD SWAP2 SWAP1 PUSH2 0x347D JUMP JUMPDEST SWAP3 POP POP DUP2 SWAP1 SSTORE POP DUP1 PUSH1 0xC PUSH0 DUP3 DUP3 SLOAD PUSH2 0x1EC5 SWAP2 SWAP1 PUSH2 0x347D JUMP JUMPDEST SWAP3 POP POP DUP2 SWAP1 SSTORE POP DUP3 PUSH1 0xD PUSH0 CALLER PUSH20 0xFFFFFFFFFFFFFFFFFFFFFFFFFFFFFFFFFFFFFFFF AND PUSH20 0xFFFFFFFFFFFFFFFFFFFFFFFFFFFFFFFFFFFFFFFF AND DUP2 MSTORE PUSH1 0x20 ADD SWAP1 DUP2 MSTORE PUSH1 0x20 ADD PUSH0 KECCAK256 PUSH0 DUP3 DUP3 SLOAD PUSH2 0x1F18 SWAP2 SWAP1 PUSH2 0x347D JUMP JUMPDEST SWAP3 POP POP DUP2 SWAP1 SSTORE POP DUP3 PUSH1 0xE PUSH0 DUP3 DUP3 SLOAD PUSH2 0x1F30 SWAP2 SWAP1 PUSH2 0x347D JUMP JUMPDEST SWAP3 POP POP DUP2 SWAP1 SSTORE POP DUP2 PUSH1 0x4 PUSH0 ADDRESS PUSH20 0xFFFFFFFFFFFFFFFFFFFFFFFFFFFFFFFFFFFFFFFF AND PUSH20 0xFFFFFFFFFFFFFFFFFFFFFFFFFFFFFFFFFFFFFFFF AND DUP2 MSTORE PUSH1 0x20 ADD SWAP1 DUP2 MSTORE PUSH1 0x20 ADD PUSH0 KECCAK256 PUSH0 DUP3 DUP3 SLOAD PUSH2 0x1F83 SWAP2 SWAP1 PUSH2 0x347D JUMP JUMPDEST SWAP3 POP POP DUP2 SWAP1 SSTORE POP DUP2 PUSH1 0x4 PUSH0 CALLER PUSH20 0xFFFFFFFFFFFFFFFFFFFFFFFFFFFFFFFFFFFFFFFF AND PUSH20 0xFFFFFFFFFFFFFFFFFFFFFFFFFFFFFFFFFFFFFFFF AND DUP2 MSTORE PUSH1 0x20 ADD SWAP1 DUP2 MSTORE PUSH1 0x20 ADD PUSH0 KECCAK256 PUSH0 DUP3 DUP3 SLOAD PUSH2 0x1FD6 SWAP2 SWAP1 PUSH2 0x36B8 JUMP JUMPDEST SWAP3 POP POP DUP2 SWAP1 SSTORE POP CALLER PUSH20 0xFFFFFFFFFFFFFFFFFFFFFFFFFFFFFFFFFFFFFFFF AND PUSH2 0x8FC DUP3 SWAP1 DUP2 ISZERO MUL SWAP1 PUSH1 0x40 MLOAD PUSH0 PUSH1 0x40 MLOAD DUP1 DUP4 SUB DUP2 DUP6 DUP9 DUP9 CALL SWAP4 POP POP POP POP ISZERO DUP1 ISZERO PUSH2 0x2020 JUMPI RETURNDATASIZE PUSH0 PUSH0 RETURNDATACOPY RETURNDATASIZE PUSH0 REVERT JUMPDEST POP CALLER PUSH20 0xFFFFFFFFFFFFFFFFFFFFFFFFFFFFFFFFFFFFFFFF AND PUSH32 0x1DC8BB69DF2B8E91FBDCBFCF93D951B3F0000F085A95FE3F7946D6161439245D DUP4 DUP4 DUP7 PUSH1 0x40 MLOAD PUSH2 0x206B SWAP4 SWAP3 SWAP2 SWAP1 PUSH2 0x3975 JUMP JUMPDEST PUSH1 0x40 MLOAD DUP1 SWAP2 SUB SWAP1 LOG2 CALLER PUSH20 0xFFFFFFFFFFFFFFFFFFFFFFFFFFFFFFFFFFFFFFFF AND ADDRESS PUSH20 0xFFFFFFFFFFFFFFFFFFFFFFFFFFFFFFFFFFFFFFFF AND PUSH32 0xDDF252AD1BE2C89B69C2B068FC378DAA952BA7F163C4A11628F55A4DF523B3EF DUP5 PUSH1 0x40 MLOAD PUSH2 0x20D0 SWAP2 SWAP1 PUSH2 0x30AD JUMP JUMPDEST PUSH1 0x40 MLOAD DUP1 SWAP2 SUB SWAP1 LOG3 POP POP POP JUMP JUMPDEST PUSH1 0x11 PUSH1 0x20 MSTORE DUP1 PUSH0 MSTORE PUSH1 0x40 PUSH0 KECCAK256 PUSH0 SWAP2 POP SWAP1 POP SLOAD DUP2 JUMP JUMPDEST PUSH1 0xD PUSH1 0x20 MSTORE DUP1 PUSH0 MSTORE PUSH1 0x40 PUSH0 KECCAK256 PUSH0 SWAP2 POP SWAP1 POP SLOAD DUP2 JUMP JUMPDEST PUSH1 0x12 PUSH1 0x20 MSTORE DUP1 PUSH0 MSTORE PUSH1 0x40 PUSH0 KECCAK256 PUSH0 SWAP2 POP SWAP1 POP SLOAD DUP2 JUMP JUMPDEST PUSH0 PUSH2 0x2128 CALLER DUP5 DUP5 PUSH2 0x2786 JUMP JUMPDEST SWAP1 POP SWAP3 SWAP2 POP POP JUMP JUMPDEST PUSH1 0x10 SLOAD DUP2 JUMP JUMPDEST PUSH1 0x8 SLOAD DUP2 JUMP JUMPDEST PUSH1 0x15 PUSH0 SWAP1 SLOAD SWAP1 PUSH2 0x100 EXP SWAP1 DIV PUSH20 0xFFFFFFFFFFFFFFFFFFFFFFFFFFFFFFFFFFFFFFFF AND PUSH20 0xFFFFFFFFFFFFFFFFFFFFFFFFFFFFFFFFFFFFFFFF AND CALLER PUSH20 0xFFFFFFFFFFFFFFFFFFFFFFFFFFFFFFFFFFFFFFFF AND EQ PUSH2 0x21CB JUMPI PUSH1 0x40 MLOAD PUSH32 0x8C379A000000000000000000000000000000000000000000000000000000000 DUP2 MSTORE PUSH1 0x4 ADD PUSH2 0x21C2 SWAP1 PUSH2 0x34FA JUMP JUMPDEST PUSH1 0x40 MLOAD DUP1 SWAP2 SUB SWAP1 REVERT JUMPDEST PUSH2 0x3E8 PUSH1 0x3 SLOAD PUSH2 0x21DB SWAP2 SWAP1 PUSH2 0x3759 JUMP JUMPDEST DUP3 LT ISZERO PUSH2 0x221D JUMPI PUSH1 0x40 MLOAD PUSH32 0x8C379A000000000000000000000000000000000000000000000000000000000 DUP2 MSTORE PUSH1 0x4 ADD PUSH2 0x2214 SWAP1 PUSH2 0x3D34 JUMP JUMPDEST PUSH1 0x40 MLOAD DUP1 SWAP2 SUB SWAP1 REVERT JUMPDEST PUSH1 0x64 PUSH1 0x3 SLOAD PUSH2 0x222C SWAP2 SWAP1 PUSH2 0x3759 JUMP JUMPDEST DUP2 LT ISZERO PUSH2 0x226E JUMPI PUSH1 0x40 MLOAD PUSH32 0x8C379A000000000000000000000000000000000000000000000000000000000 DUP2 MSTORE PUSH1 0x4 ADD PUSH2 0x2265 SWAP1 PUSH2 0x3D9C JUMP JUMPDEST PUSH1 0x40 MLOAD DUP1 SWAP2 SUB SWAP1 REVERT JUMPDEST DUP2 PUSH1 0xF DUP2 SWAP1 SSTORE POP DUP1 PUSH1 0x10 DUP2 SWAP1 SSTORE POP POP POP JUMP JUMPDEST PUSH1 0x14 PUSH1 0x20 MSTORE DUP1 PUSH0 MSTORE PUSH1 0x40 PUSH0 KECCAK256 PUSH0 SWAP2 POP SLOAD SWAP1 PUSH2 0x100 EXP SWAP1 DIV PUSH1 0xFF AND DUP2 JUMP JUMPDEST PUSH0 CALLVALUE GT PUSH2 0x22DF JUMPI PUSH1 0x40 MLOAD PUSH32 0x8C379A000000000000000000000000000000000000000000000000000000000 DUP2 MSTORE PUSH1 0x4 ADD PUSH2 0x22D6 SWAP1 PUSH2 0x3E04 JUMP JUMPDEST PUSH1 0x40 MLOAD DUP1 SWAP2 SUB SWAP1 REVERT JUMPDEST PUSH0 PUSH1 0xB SLOAD GT DUP1 ISZERO PUSH2 0x22F1 JUMPI POP PUSH0 PUSH1 0xC SLOAD GT JUMPDEST PUSH2 0x2330 JUMPI PUSH1 0x40 MLOAD PUSH32 0x8C379A000000000000000000000000000000000000000000000000000000000 DUP2 MSTORE PUSH1 0x4 ADD PUSH2 0x2327 SWAP1 PUSH2 0x3A5C JUMP JUMPDEST PUSH1 0x40 MLOAD DUP1 SWAP2 SUB SWAP1 REVERT JUMPDEST PUSH0 PUSH1 0xC SLOAD PUSH1 0xB SLOAD PUSH2 0x2341 SWAP2 SWAP1 PUSH2 0x36EB JUMP JUMPDEST SWAP1 POP PUSH0 CALLVALUE PUSH1 0xC SLOAD PUSH2 0x2352 SWAP2 SWAP1 PUSH2 0x36B8 JUMP JUMPDEST SWAP1 POP PUSH0 DUP2 DUP4 PUSH2 0x2361 SWAP2 SWAP1 PUSH2 0x3759 JUMP JUMPDEST SWAP1 POP PUSH0 DUP2 PUSH1 0xB SLOAD PUSH2 0x2372 SWAP2 SWAP1 PUSH2 0x347D JUMP JUMPDEST SWAP1 POP PUSH0 PUSH1 0x64 PUSH1 0x6 SLOAD DUP4 PUSH2 0x2385 SWAP2 SWAP1 PUSH2 0x36EB JUMP JUMPDEST PUSH2 0x238F SWAP2 SWAP1 PUSH2 0x3759 JUMP JUMPDEST SWAP1 POP PUSH0 DUP2 DUP4 PUSH2 0x239E SWAP2 SWAP1 PUSH2 0x347D JUMP JUMPDEST SWAP1 POP PUSH0 DUP2 GT PUSH2 0x23E2 JUMPI PUSH1 0x40 MLOAD PUSH32 0x8C379A000000000000000000000000000000000000000000000000000000000 DUP2 MSTORE PUSH1 0x4 ADD PUSH2 0x23D9 SWAP1 PUSH2 0x3E6C JUMP JUMPDEST PUSH1 0x40 MLOAD DUP1 SWAP2 SUB SWAP1 REVERT JUMPDEST DUP4 PUSH1 0xB DUP2 SWAP1 SSTORE POP DUP5 PUSH1 0xC DUP2 SWAP1 SSTORE POP DUP3 PUSH1 0x4 PUSH0 ADDRESS PUSH20 0xFFFFFFFFFFFFFFFFFFFFFFFFFFFFFFFFFFFFFFFF AND PUSH20 0xFFFFFFFFFFFFFFFFFFFFFFFFFFFFFFFFFFFFFFFF AND DUP2 MSTORE PUSH1 0x20 ADD SWAP1 DUP2 MSTORE PUSH1 0x20 ADD PUSH0 KECCAK256 PUSH0 DUP3 DUP3 SLOAD PUSH2 0x243C SWAP2 SWAP1 PUSH2 0x347D JUMP JUMPDEST SWAP3 POP POP DUP2 SWAP1 SSTORE POP DUP1 PUSH1 0x4 PUSH0 CALLER PUSH20 0xFFFFFFFFFFFFFFFFFFFFFFFFFFFFFFFFFFFFFFFF AND PUSH20 0xFFFFFFFFFFFFFFFFFFFFFFFFFFFFFFFFFFFFFFFF AND DUP2 MSTORE PUSH1 0x20 ADD SWAP1 DUP2 MSTORE PUSH1 0x20 ADD PUSH0 KECCAK256 PUSH0 DUP3 DUP3 SLOAD PUSH2 0x248F SWAP2 SWAP1 PUSH2 0x36B8 JUMP JUMPDEST SWAP3 POP POP DUP2 SWAP1 SSTORE POP DUP2 PUSH1 0xA PUSH0 DUP3 DUP3 SLOAD PUSH2 0x24A7 SWAP2 SWAP1 PUSH2 0x36B8 JUMP JUMPDEST SWAP3 POP POP DUP2 SWAP1 SSTORE POP CALLER PUSH20 0xFFFFFFFFFFFFFFFFFFFFFFFFFFFFFFFFFFFFFFFF AND ADDRESS PUSH20 0xFFFFFFFFFFFFFFFFFFFFFFFFFFFFFFFFFFFFFFFF AND PUSH32 0xDDF252AD1BE2C89B69C2B068FC378DAA952BA7F163C4A11628F55A4DF523B3EF DUP4 PUSH1 0x40 MLOAD PUSH2 0x250B SWAP2 SWAP1 PUSH2 0x30AD JUMP JUMPDEST PUSH1 0x40 MLOAD DUP1 SWAP2 SUB SWAP1 LOG3 CALLER PUSH20 0xFFFFFFFFFFFFFFFFFFFFFFFFFFFFFFFFFFFFFFFF AND PUSH32 0x7F1B726F82F7A14636A7A5932448F1BCE683188520BA3150FD8423989353EBF2 DUP4 PUSH1 0x40 MLOAD PUSH2 0x2559 SWAP2 SWAP1 PUSH2 0x30AD JUMP JUMPDEST PUSH1 0x40 MLOAD DUP1 SWAP2 SUB SWAP1 LOG2 POP POP POP POP POP POP JUMP JUMPDEST PUSH1 0x5 PUSH1 0x20 MSTORE DUP2 PUSH0 MSTORE PUSH1 0x40 PUSH0 KECCAK256 PUSH1 0x20 MSTORE DUP1 PUSH0 MSTORE PUSH1 0x40 PUSH0 KECCAK256 PUSH0 SWAP2 POP SWAP2 POP POP SLOAD DUP2 JUMP JUMPDEST PUSH0 PUSH0 PUSH0 PUSH1 0xE SLOAD SUB PUSH2 0x259F JUMPI PUSH0 PUSH0 SWAP2 POP SWAP2 POP PUSH2 0x261C JUMP JUMPDEST PUSH0 PUSH1 0xD PUSH0 DUP6 PUSH20 0xFFFFFFFFFFFFFFFFFFFFFFFFFFFFFFFFFFFFFFFF AND PUSH20 0xFFFFFFFFFFFFFFFFFFFFFFFFFFFFFFFFFFFFFFFF AND DUP2 MSTORE PUSH1 0x20 ADD SWAP1 DUP2 MSTORE PUSH1 0x20 ADD PUSH0 KECCAK256 SLOAD SWAP1 POP PUSH1 0xE SLOAD PUSH1 0xB SLOAD DUP3 PUSH2 0x25F1 SWAP2 SWAP1 PUSH2 0x36EB JUMP JUMPDEST PUSH2 0x25FB SWAP2 SWAP1 PUSH2 0x3759 JUMP JUMPDEST SWAP3 POP PUSH1 0xE SLOAD PUSH1 0xC SLOAD DUP3 PUSH2 0x260E SWAP2 SWAP1 PUSH2 0x36EB JUMP JUMPDEST PUSH2 0x2618 SWAP2 SWAP1 PUSH2 0x3759 JUMP JUMPDEST SWAP2 POP POP JUMPDEST SWAP2 POP SWAP2 JUMP JUMPDEST PUSH1 0x9 PUSH0 SWAP1 SLOAD SWAP1 PUSH2 0x100 EXP SWAP1 DIV PUSH20 0xFFFFFFFFFFFFFFFFFFFFFFFFFFFFFFFFFFFFFFFF AND DUP2 JUMP JUMPDEST PUSH1 0x15 PUSH0 SWAP1 SLOAD SWAP1 PUSH2 0x100 EXP SWAP1 DIV PUSH20 0xFFFFFFFFFFFFFFFFFFFFFFFFFFFFFFFFFFFFFFFF AND PUSH20 0xFFFFFFFFFFFFFFFFFFFFFFFFFFFFFFFFFFFFFFFF AND CALLER PUSH20 0xFFFFFFFFFFFFFFFFFFFFFFFFFFFFFFFFFFFFFFFF AND EQ PUSH2 0x26D5 JUMPI PUSH1 0x40 MLOAD PUSH32 0x8C379A000000000000000000000000000000000000000000000000000000000 DUP2 MSTORE PUSH1 0x4 ADD PUSH2 0x26CC SWAP1 PUSH2 0x34FA JUMP JUMPDEST PUSH1 0x40 MLOAD DUP1 SWAP2 SUB SWAP1 REVERT JUMPDEST PUSH0 PUSH20 0xFFFFFFFFFFFFFFFFFFFFFFFFFFFFFFFFFFFFFFFF AND DUP2 PUSH20 0xFFFFFFFFFFFFFFFFFFFFFFFFFFFFFFFFFFFFFFFF AND SUB PUSH2 0x2743 JUMPI PUSH1 0x40 MLOAD PUSH32 0x8C379A000000000000000000000000000000000000000000000000000000000 DUP2 MSTORE PUSH1 0x4 ADD PUSH2 0x273A SWAP1 PUSH2 0x3BFC JUMP JUMPDEST PUSH1 0x40 MLOAD DUP1 SWAP2 SUB SWAP1 REVERT JUMPDEST DUP1 PUSH1 0x15 PUSH0 PUSH2 0x100 EXP DUP2 SLOAD DUP2 PUSH20 0xFFFFFFFFFFFFFFFFFFFFFFFFFFFFFFFFFFFFFFFF MUL NOT AND SWAP1 DUP4 PUSH20 0xFFFFFFFFFFFFFFFFFFFFFFFFFFFFFFFFFFFFFFFF AND MUL OR SWAP1 SSTORE POP POP JUMP JUMPDEST PUSH0 PUSH0 PUSH20 0xFFFFFFFFFFFFFFFFFFFFFFFFFFFFFFFFFFFFFFFF AND DUP5 PUSH20 0xFFFFFFFFFFFFFFFFFFFFFFFFFFFFFFFFFFFFFFFF AND SUB PUSH2 0x27F5 JUMPI PUSH1 0x40 MLOAD PUSH32 0x8C379A000000000000000000000000000000000000000000000000000000000 DUP2 MSTORE PUSH1 0x4 ADD PUSH2 0x27EC SWAP1 PUSH2 0x3ED4 JUMP JUMPDEST PUSH1 0x40 MLOAD DUP1 SWAP2 SUB SWAP1 REVERT JUMPDEST PUSH0 PUSH20 0xFFFFFFFFFFFFFFFFFFFFFFFFFFFFFFFFFFFFFFFF AND DUP4 PUSH20 0xFFFFFFFFFFFFFFFFFFFFFFFFFFFFFFFFFFFFFFFF AND SUB PUSH2 0x2863 JUMPI PUSH1 0x40 MLOAD PUSH32 0x8C379A000000000000000000000000000000000000000000000000000000000 DUP2 MSTORE PUSH1 0x4 ADD PUSH2 0x285A SWAP1 PUSH2 0x3F3C JUMP JUMPDEST PUSH1 0x40 MLOAD DUP1 SWAP2 SUB SWAP1 REVERT JUMPDEST PUSH0 DUP3 GT PUSH2 0x28A5 JUMPI PUSH1 0x40 MLOAD PUSH32 0x8C379A000000000000000000000000000000000000000000000000000000000 DUP2 MSTORE PUSH1 0x4 ADD PUSH2 0x289C SWAP1 PUSH2 0x39F4 JUMP JUMPDEST PUSH1 0x40 MLOAD DUP1 SWAP2 SUB SWAP1 REVERT JUMPDEST DUP2 PUSH1 0x4 PUSH0 DUP7 PUSH20 0xFFFFFFFFFFFFFFFFFFFFFFFFFFFFFFFFFFFFFFFF AND PUSH20 0xFFFFFFFFFFFFFFFFFFFFFFFFFFFFFFFFFFFFFFFF AND DUP2 MSTORE PUSH1 0x20 ADD SWAP1 DUP2 MSTORE PUSH1 0x20 ADD PUSH0 KECCAK256 SLOAD LT ISZERO PUSH2 0x2925 JUMPI PUSH1 0x40 MLOAD PUSH32 0x8C379A000000000000000000000000000000000000000000000000000000000 DUP2 MSTORE PUSH1 0x4 ADD PUSH2 0x291C SWAP1 PUSH2 0x3FA4 JUMP JUMPDEST PUSH1 0x40 MLOAD DUP1 SWAP2 SUB SWAP1 REVERT JUMPDEST PUSH1 0x14 PUSH0 DUP6 PUSH20 0xFFFFFFFFFFFFFFFFFFFFFFFFFFFFFFFFFFFFFFFF AND PUSH20 0xFFFFFFFFFFFFFFFFFFFFFFFFFFFFFFFFFFFFFFFF AND DUP2 MSTORE PUSH1 0x20 ADD SWAP1 DUP2 MSTORE PUSH1 0x20 ADD PUSH0 KECCAK256 PUSH0 SWAP1 SLOAD SWAP1 PUSH2 0x100 EXP SWAP1 DIV PUSH1 0xFF AND ISZERO DUP1 ISZERO PUSH2 0x29C3 JUMPI POP PUSH1 0x14 PUSH0 DUP5 PUSH20 0xFFFFFFFFFFFFFFFFFFFFFFFFFFFFFFFFFFFFFFFF AND PUSH20 0xFFFFFFFFFFFFFFFFFFFFFFFFFFFFFFFFFFFFFFFF AND DUP2 MSTORE PUSH1 0x20 ADD SWAP1 DUP2 MSTORE PUSH1 0x20 ADD PUSH0 KECCAK256 PUSH0 SWAP1 SLOAD SWAP1 PUSH2 0x100 EXP SWAP1 DIV PUSH1 0xFF AND ISZERO JUMPDEST ISZERO PUSH2 0x2AA4 JUMPI PUSH1 0xF SLOAD DUP3 GT ISZERO PUSH2 0x2A0D JUMPI PUSH1 0x40 MLOAD PUSH32 0x8C379A000000000000000000000000000000000000000000000000000000000 DUP2 MSTORE PUSH1 0x4 ADD PUSH2 0x2A04 SWAP1 PUSH2 0x400C JUMP JUMPDEST PUSH1 0x40 MLOAD DUP1 SWAP2 SUB SWAP1 REVERT JUMPDEST PUSH1 0x10 SLOAD DUP3 PUSH1 0x4 PUSH0 DUP7 PUSH20 0xFFFFFFFFFFFFFFFFFFFFFFFFFFFFFFFFFFFFFFFF AND PUSH20 0xFFFFFFFFFFFFFFFFFFFFFFFFFFFFFFFFFFFFFFFF AND DUP2 MSTORE PUSH1 0x20 ADD SWAP1 DUP2 MSTORE PUSH1 0x20 ADD PUSH0 KECCAK256 SLOAD PUSH2 0x2A59 SWAP2 SWAP1 PUSH2 0x36B8 JUMP JUMPDEST GT ISZERO PUSH2 0x2A9A JUMPI PUSH1 0x40 MLOAD PUSH32 0x8C379A000000000000000000000000000000000000000000000000000000000 DUP2 MSTORE PUSH1 0x4 ADD PUSH2 0x2A91 SWAP1 PUSH2 0x4074 JUMP JUMPDEST PUSH1 0x40 MLOAD DUP1 SWAP2 SUB SWAP1 REVERT JUMPDEST PUSH2 0x2AA3 DUP5 PUSH2 0x2D59 JUMP JUMPDEST JUMPDEST PUSH0 PUSH0 SWAP1 POP PUSH0 DUP4 SWAP1 POP PUSH1 0x14 PUSH0 DUP8 PUSH20 0xFFFFFFFFFFFFFFFFFFFFFFFFFFFFFFFFFFFFFFFF AND PUSH20 0xFFFFFFFFFFFFFFFFFFFFFFFFFFFFFFFFFFFFFFFF AND DUP2 MSTORE PUSH1 0x20 ADD SWAP1 DUP2 MSTORE PUSH1 0x20 ADD PUSH0 KECCAK256 PUSH0 SWAP1 SLOAD SWAP1 PUSH2 0x100 EXP SWAP1 DIV PUSH1 0xFF AND ISZERO DUP1 ISZERO PUSH2 0x2B4A JUMPI POP PUSH1 0x14 PUSH0 DUP7 PUSH20 0xFFFFFFFFFFFFFFFFFFFFFFFFFFFFFFFFFFFFFFFF AND PUSH20 0xFFFFFFFFFFFFFFFFFFFFFFFFFFFFFFFFFFFFFFFF AND DUP2 MSTORE PUSH1 0x20 ADD SWAP1 DUP2 MSTORE PUSH1 0x20 ADD PUSH0 KECCAK256 PUSH0 SWAP1 SLOAD SWAP1 PUSH2 0x100 EXP SWAP1 DIV PUSH1 0xFF AND ISZERO JUMPDEST ISZERO PUSH2 0x2C41 JUMPI PUSH0 PUSH1 0x8 SLOAD SWAP1 POP PUSH1 0x64 DUP2 DUP7 PUSH2 0x2B63 SWAP2 SWAP1 PUSH2 0x36EB JUMP JUMPDEST PUSH2 0x2B6D SWAP2 SWAP1 PUSH2 0x3759 JUMP JUMPDEST SWAP3 POP DUP3 DUP6 PUSH2 0x2B7B SWAP2 SWAP1 PUSH2 0x347D JUMP JUMPDEST SWAP2 POP PUSH0 DUP4 GT ISZERO PUSH2 0x2C3F JUMPI DUP3 PUSH1 0x4 PUSH0 ADDRESS PUSH20 0xFFFFFFFFFFFFFFFFFFFFFFFFFFFFFFFFFFFFFFFF AND PUSH20 0xFFFFFFFFFFFFFFFFFFFFFFFFFFFFFFFFFFFFFFFF AND DUP2 MSTORE PUSH1 0x20 ADD SWAP1 DUP2 MSTORE PUSH1 0x20 ADD PUSH0 KECCAK256 PUSH0 DUP3 DUP3 SLOAD PUSH2 0x2BD1 SWAP2 SWAP1 PUSH2 0x36B8 JUMP JUMPDEST SWAP3 POP POP DUP2 SWAP1 SSTORE POP DUP3 PUSH1 0xA PUSH0 DUP3 DUP3 SLOAD PUSH2 0x2BE9 SWAP2 SWAP1 PUSH2 0x36B8 JUMP JUMPDEST SWAP3 POP POP DUP2 SWAP1 SSTORE POP DUP7 PUSH20 0xFFFFFFFFFFFFFFFFFFFFFFFFFFFFFFFFFFFFFFFF AND PUSH32 0x7F1B726F82F7A14636A7A5932448F1BCE683188520BA3150FD8423989353EBF2 DUP5 PUSH1 0x40 MLOAD PUSH2 0x2C36 SWAP2 SWAP1 PUSH2 0x30AD JUMP JUMPDEST PUSH1 0x40 MLOAD DUP1 SWAP2 SUB SWAP1 LOG2 JUMPDEST POP JUMPDEST DUP4 PUSH1 0x4 PUSH0 DUP9 PUSH20 0xFFFFFFFFFFFFFFFFFFFFFFFFFFFFFFFFFFFFFFFF AND PUSH20 0xFFFFFFFFFFFFFFFFFFFFFFFFFFFFFFFFFFFFFFFF AND DUP2 MSTORE PUSH1 0x20 ADD SWAP1 DUP2 MSTORE PUSH1 0x20 ADD PUSH0 KECCAK256 PUSH0 DUP3 DUP3 SLOAD PUSH2 0x2C8D SWAP2 SWAP1 PUSH2 0x347D JUMP JUMPDEST SWAP3 POP POP DUP2 SWAP1 SSTORE POP DUP1 PUSH1 0x4 PUSH0 DUP8 PUSH20 0xFFFFFFFFFFFFFFFFFFFFFFFFFFFFFFFFFFFFFFFF AND PUSH20 0xFFFFFFFFFFFFFFFFFFFFFFFFFFFFFFFFFFFFFFFF AND DUP2 MSTORE PUSH1 0x20 ADD SWAP1 DUP2 MSTORE PUSH1 0x20 ADD PUSH0 KECCAK256 PUSH0 DUP3 DUP3 SLOAD PUSH2 0x2CE0 SWAP2 SWAP1 PUSH2 0x36B8 JUMP JUMPDEST SWAP3 POP POP DUP2 SWAP1 SSTORE POP DUP5 PUSH20 0xFFFFFFFFFFFFFFFFFFFFFFFFFFFFFFFFFFFFFFFF AND DUP7 PUSH20 0xFFFFFFFFFFFFFFFFFFFFFFFFFFFFFFFFFFFFFFFF AND PUSH32 0xDDF252AD1BE2C89B69C2B068FC378DAA952BA7F163C4A11628F55A4DF523B3EF DUP4 PUSH1 0x40 MLOAD PUSH2 0x2D44 SWAP2 SWAP1 PUSH2 0x30AD JUMP JUMPDEST PUSH1 0x40 MLOAD DUP1 SWAP2 SUB SWAP1 LOG3 PUSH1 0x1 SWAP3 POP POP POP SWAP4 SWAP3 POP POP POP JUMP JUMPDEST PUSH0 PUSH3 0x15180 TIMESTAMP PUSH2 0x2D69 SWAP2 SWAP1 PUSH2 0x3759 JUMP JUMPDEST SWAP1 POP DUP1 PUSH1 0x12 PUSH0 DUP5 PUSH20 0xFFFFFFFFFFFFFFFFFFFFFFFFFFFFFFFFFFFFFFFF AND PUSH20 0xFFFFFFFFFFFFFFFFFFFFFFFFFFFFFFFFFFFFFFFF AND DUP2 MSTORE PUSH1 0x20 ADD SWAP1 DUP2 MSTORE PUSH1 0x20 ADD PUSH0 KECCAK256 SLOAD LT ISZERO PUSH2 0x2E35 JUMPI PUSH0 PUSH1 0x11 PUSH0 DUP5 PUSH20 0xFFFFFFFFFFFFFFFFFFFFFFFFFFFFFFFFFFFFFFFF AND PUSH20 0xFFFFFFFFFFFFFFFFFFFFFFFFFFFFFFFFFFFFFFFF AND DUP2 MSTORE PUSH1 0x20 ADD SWAP1 DUP2 MSTORE PUSH1 0x20 ADD PUSH0 KECCAK256 DUP2 SWAP1 SSTORE POP DUP1 PUSH1 0x12 PUSH0 DUP5 PUSH20 0xFFFFFFFFFFFFFFFFFFFFFFFFFFFFFFFFFFFFFFFF AND PUSH20 0xFFFFFFFFFFFFFFFFFFFFFFFFFFFFFFFFFFFFFFFF AND DUP2 MSTORE PUSH1 0x20 ADD SWAP1 DUP2 MSTORE PUSH1 0x20 ADD PUSH0 KECCAK256 DUP2 SWAP1 SSTORE POP JUMPDEST PUSH1 0x13 SLOAD PUSH1 0x11 PUSH0 DUP5 PUSH20 0xFFFFFFFFFFFFFFFFFFFFFFFFFFFFFFFFFFFFFFFF AND PUSH20 0xFFFFFFFFFFFFFFFFFFFFFFFFFFFFFFFFFFFFFFFF AND DUP2 MSTORE PUSH1 0x20 ADD SWAP1 DUP2 MSTORE PUSH1 0x20 ADD PUSH0 KECCAK256 SLOAD LT PUSH2 0x2EB6 JUMPI PUSH1 0x40 MLOAD PUSH32 0x8C379A000000000000000000000000000000000000000000000000000000000 DUP2 MSTORE PUSH1 0x4 ADD PUSH2 0x2EAD SWAP1 PUSH2 0x40DC JUMP JUMPDEST PUSH1 0x40 MLOAD DUP1 SWAP2 SUB SWAP1 REVERT JUMPDEST PUSH1 0x11 PUSH0 DUP4 PUSH20 0xFFFFFFFFFFFFFFFFFFFFFFFFFFFFFFFFFFFFFFFF AND PUSH20 0xFFFFFFFFFFFFFFFFFFFFFFFFFFFFFFFFFFFFFFFF AND DUP2 MSTORE PUSH1 0x20 ADD SWAP1 DUP2 MSTORE PUSH1 0x20 ADD PUSH0 KECCAK256 PUSH0 DUP2 SLOAD DUP1 SWAP3 SWAP2 SWAP1 PUSH2 0x2F03 SWAP1 PUSH2 0x40FA JUMP JUMPDEST SWAP2 SWAP1 POP SSTORE POP POP POP JUMP JUMPDEST PUSH0 DUP2 MLOAD SWAP1 POP SWAP2 SWAP1 POP JUMP JUMPDEST PUSH0 DUP3 DUP3 MSTORE PUSH1 0x20 DUP3 ADD SWAP1 POP SWAP3 SWAP2 POP POP JUMP JUMPDEST DUP3 DUP2 DUP4 MCOPY PUSH0 DUP4 DUP4 ADD MSTORE POP POP POP JUMP JUMPDEST PUSH0 PUSH1 0x1F NOT PUSH1 0x1F DUP4 ADD AND SWAP1 POP SWAP2 SWAP1 POP JUMP JUMPDEST PUSH0 PUSH2 0x2F4E DUP3 PUSH2 0x2F0C JUMP JUMPDEST PUSH2 0x2F58 DUP2 DUP6 PUSH2 0x2F16 JUMP JUMPDEST SWAP4 POP PUSH2 0x2F68 DUP2 DUP6 PUSH1 0x20 DUP7 ADD PUSH2 0x2F26 JUMP JUMPDEST PUSH2 0x2F71 DUP2 PUSH2 0x2F34 JUMP JUMPDEST DUP5 ADD SWAP2 POP POP SWAP3 SWAP2 POP POP JUMP JUMPDEST PUSH0 PUSH1 0x20 DUP3 ADD SWAP1 POP DUP2 DUP2 SUB PUSH0 DUP4 ADD MSTORE PUSH2 0x2F94 DUP2 DUP5 PUSH2 0x2F44 JUMP JUMPDEST SWAP1 POP SWAP3 SWAP2 POP POP JUMP JUMPDEST PUSH0 PUSH0 REVERT JUMPDEST PUSH0 PUSH20 0xFFFFFFFFFFFFFFFFFFFFFFFFFFFFFFFFFFFFFFFF DUP3 AND SWAP1 POP SWAP2 SWAP1 POP JUMP JUMPDEST PUSH0 PUSH2 0x2FC9 DUP3 PUSH2 0x2FA0 JUMP JUMPDEST SWAP1 POP SWAP2 SWAP1 POP JUMP JUMPDEST PUSH2 0x2FD9 DUP2 PUSH2 0x2FBF JUMP JUMPDEST DUP2 EQ PUSH2 0x2FE3 JUMPI PUSH0 PUSH0 REVERT JUMPDEST POP JUMP JUMPDEST PUSH0 DUP2 CALLDATALOAD SWAP1 POP PUSH2 0x2FF4 DUP2 PUSH2 0x2FD0 JUMP JUMPDEST SWAP3 SWAP2 POP POP JUMP JUMPDEST PUSH0 DUP2 SWAP1 POP SWAP2 SWAP1 POP JUMP JUMPDEST PUSH2 0x300C DUP2 PUSH2 0x2FFA JUMP JUMPDEST DUP2 EQ PUSH2 0x3016 JUMPI PUSH0 PUSH0 REVERT JUMPDEST POP JUMP JUMPDEST PUSH0 DUP2 CALLDATALOAD SWAP1 POP PUSH2 0x3027 DUP2 PUSH2 0x3003 JUMP JUMPDEST SWAP3 SWAP2 POP POP JUMP JUMPDEST PUSH0 PUSH0 PUSH1 0x40 DUP4 DUP6 SUB SLT ISZERO PUSH2 0x3043 JUMPI PUSH2 0x3042 PUSH2 0x2F9C JUMP JUMPDEST JUMPDEST PUSH0 PUSH2 0x3050 DUP6 DUP3 DUP7 ADD PUSH2 0x2FE6 JUMP JUMPDEST SWAP3 POP POP PUSH1 0x20 PUSH2 0x3061 DUP6 DUP3 DUP7 ADD PUSH2 0x3019 JUMP JUMPDEST SWAP2 POP POP SWAP3 POP SWAP3 SWAP1 POP JUMP JUMPDEST PUSH0 DUP2 ISZERO ISZERO SWAP1 POP SWAP2 SWAP1 POP JUMP JUMPDEST PUSH2 0x307F DUP2 PUSH2 0x306B JUMP JUMPDEST DUP3 MSTORE POP POP JUMP JUMPDEST PUSH0 PUSH1 0x20 DUP3 ADD SWAP1 POP PUSH2 0x3098 PUSH0 DUP4 ADD DUP5 PUSH2 0x3076 JUMP JUMPDEST SWAP3 SWAP2 POP POP JUMP JUMPDEST PUSH2 0x30A7 DUP2 PUSH2 0x2FFA JUMP JUMPDEST DUP3 MSTORE POP POP JUMP JUMPDEST PUSH0 PUSH1 0x20 DUP3 ADD SWAP1 POP PUSH2 0x30C0 PUSH0 DUP4 ADD DUP5 PUSH2 0x309E JUMP JUMPDEST SWAP3 SWAP2 POP POP JUMP JUMPDEST PUSH0 PUSH0 PUSH0 PUSH1 0x60 DUP5 DUP7 SUB SLT ISZERO PUSH2 0x30DD JUMPI PUSH2 0x30DC PUSH2 0x2F9C JUMP JUMPDEST JUMPDEST PUSH0 PUSH2 0x30EA DUP7 DUP3 DUP8 ADD PUSH2 0x2FE6 JUMP JUMPDEST SWAP4 POP POP PUSH1 0x20 PUSH2 0x30FB DUP7 DUP3 DUP8 ADD PUSH2 0x2FE6 JUMP JUMPDEST SWAP3 POP POP PUSH1 0x40 PUSH2 0x310C DUP7 DUP3 DUP8 ADD PUSH2 0x3019 JUMP JUMPDEST SWAP2 POP POP SWAP3 POP SWAP3 POP SWAP3 JUMP JUMPDEST PUSH2 0x311F DUP2 PUSH2 0x306B JUMP JUMPDEST DUP2 EQ PUSH2 0x3129 JUMPI PUSH0 PUSH0 REVERT JUMPDEST POP JUMP JUMPDEST PUSH0 DUP2 CALLDATALOAD SWAP1 POP PUSH2 0x313A DUP2 PUSH2 0x3116 JUMP JUMPDEST SWAP3 SWAP2 POP POP JUMP JUMPDEST PUSH0 PUSH0 PUSH1 0x40 DUP4 DUP6 SUB SLT ISZERO PUSH2 0x3156 JUMPI PUSH2 0x3155 PUSH2 0x2F9C JUMP JUMPDEST JUMPDEST PUSH0 PUSH2 0x3163 DUP6 DUP3 DUP7 ADD PUSH2 0x2FE6 JUMP JUMPDEST SWAP3 POP POP PUSH1 0x20 PUSH2 0x3174 DUP6 DUP3 DUP7 ADD PUSH2 0x312C JUMP JUMPDEST SWAP2 POP POP SWAP3 POP SWAP3 SWAP1 POP JUMP JUMPDEST PUSH0 PUSH1 0xFF DUP3 AND SWAP1 POP SWAP2 SWAP1 POP JUMP JUMPDEST PUSH2 0x3193 DUP2 PUSH2 0x317E JUMP JUMPDEST DUP3 MSTORE POP POP JUMP JUMPDEST PUSH0 PUSH1 0x20 DUP3 ADD SWAP1 POP PUSH2 0x31AC PUSH0 DUP4 ADD DUP5 PUSH2 0x318A JUMP JUMPDEST SWAP3 SWAP2 POP POP JUMP JUMPDEST PUSH0 PUSH0 PUSH0 PUSH1 0x60 DUP5 DUP7 SUB SLT ISZERO PUSH2 0x31C9 JUMPI PUSH2 0x31C8 PUSH2 0x2F9C JUMP JUMPDEST JUMPDEST PUSH0 PUSH2 0x31D6 DUP7 DUP3 DUP8 ADD PUSH2 0x3019 JUMP JUMPDEST SWAP4 POP POP PUSH1 0x20 PUSH2 0x31E7 DUP7 DUP3 DUP8 ADD PUSH2 0x3019 JUMP JUMPDEST SWAP3 POP POP PUSH1 0x40 PUSH2 0x31F8 DUP7 DUP3 DUP8 ADD PUSH2 0x3019 JUMP JUMPDEST SWAP2 POP POP SWAP3 POP SWAP3 POP SWAP3 JUMP JUMPDEST PUSH0 PUSH1 0x20 DUP3 DUP5 SUB SLT ISZERO PUSH2 0x3217 JUMPI PUSH2 0x3216 PUSH2 0x2F9C JUMP JUMPDEST JUMPDEST PUSH0 PUSH2 0x3224 DUP5 DUP3 DUP6 ADD PUSH2 0x3019 JUMP JUMPDEST SWAP2 POP POP SWAP3 SWAP2 POP POP JUMP JUMPDEST PUSH0 PUSH1 0x20 DUP3 DUP5 SUB SLT ISZERO PUSH2 0x3242 JUMPI PUSH2 0x3241 PUSH2 0x2F9C JUMP JUMPDEST JUMPDEST PUSH0 PUSH2 0x324F DUP5 DUP3 DUP6 ADD PUSH2 0x2FE6 JUMP JUMPDEST SWAP2 POP POP SWAP3 SWAP2 POP POP JUMP JUMPDEST PUSH2 0x3261 DUP2 PUSH2 0x2FBF JUMP JUMPDEST DUP3 MSTORE POP POP JUMP JUMPDEST PUSH0 PUSH1 0x20 DUP3 ADD SWAP1 POP PUSH2 0x327A PUSH0 DUP4 ADD DUP5 PUSH2 0x3258 JUMP JUMPDEST SWAP3 SWAP2 POP POP JUMP JUMPDEST PUSH0 PUSH0 PUSH1 0x40 DUP4 DUP6 SUB SLT ISZERO PUSH2 0x3296 JUMPI PUSH2 0x3295 PUSH2 0x2F9C JUMP JUMPDEST JUMPDEST PUSH0 PUSH2 0x32A3 DUP6 DUP3 DUP7 ADD PUSH2 0x3019 JUMP JUMPDEST SWAP3 POP POP PUSH1 0x20 PUSH2 0x32B4 DUP6 DUP3 DUP7 ADD PUSH2 0x3019 JUMP JUMPDEST SWAP2 POP POP SWAP3 POP SWAP3 SWAP1 POP JUMP JUMPDEST PUSH0 PUSH0 PUSH1 0x40 DUP4 DUP6 SUB SLT ISZERO PUSH2 0x32D4 JUMPI PUSH2 0x32D3 PUSH2 0x2F9C JUMP JUMPDEST JUMPDEST PUSH0 PUSH2 0x32E1 DUP6 DUP3 DUP7 ADD PUSH2 0x2FE6 JUMP JUMPDEST SWAP3 POP POP PUSH1 0x20 PUSH2 0x32F2 DUP6 DUP3 DUP7 ADD PUSH2 0x2FE6 JUMP JUMPDEST SWAP2 POP POP SWAP3 POP SWAP3 SWAP1 POP JUMP JUMPDEST PUSH0 PUSH1 0x40 DUP3 ADD SWAP1 POP PUSH2 0x330F PUSH0 DUP4 ADD DUP6 PUSH2 0x309E JUMP JUMPDEST PUSH2 0x331C PUSH1 0x20 DUP4 ADD DUP5 PUSH2 0x309E JUMP JUMPDEST SWAP4 SWAP3 POP POP POP JUMP JUMPDEST PUSH32 0x4E487B7100000000000000000000000000000000000000000000000000000000 PUSH0 MSTORE PUSH1 0x22 PUSH1 0x4 MSTORE PUSH1 0x24 PUSH0 REVERT JUMPDEST PUSH0 PUSH1 0x2 DUP3 DIV SWAP1 POP PUSH1 0x1 DUP3 AND DUP1 PUSH2 0x3367 JUMPI PUSH1 0x7F DUP3 AND SWAP2 POP JUMPDEST PUSH1 0x20 DUP3 LT DUP2 SUB PUSH2 0x337A JUMPI PUSH2 0x3379 PUSH2 0x3323 JUMP JUMPDEST JUMPDEST POP SWAP2 SWAP1 POP JUMP JUMPDEST PUSH32 0x417070726F766520746F207A65726F2061646472657373000000000000000000 PUSH0 DUP3 ADD MSTORE POP JUMP JUMPDEST PUSH0 PUSH2 0x33B4 PUSH1 0x17 DUP4 PUSH2 0x2F16 JUMP JUMPDEST SWAP2 POP PUSH2 0x33BF DUP3 PUSH2 0x3380 JUMP JUMPDEST PUSH1 0x20 DUP3 ADD SWAP1 POP SWAP2 SWAP1 POP JUMP JUMPDEST PUSH0 PUSH1 0x20 DUP3 ADD SWAP1 POP DUP2 DUP2 SUB PUSH0 DUP4 ADD MSTORE PUSH2 0x33E1 DUP2 PUSH2 0x33A8 JUMP JUMPDEST SWAP1 POP SWAP2 SWAP1 POP JUMP JUMPDEST PUSH32 0x416C6C6F77616E6365206E6F7420656E6F756768000000000000000000000000 PUSH0 DUP3 ADD MSTORE POP JUMP JUMPDEST PUSH0 PUSH2 0x341C PUSH1 0x14 DUP4 PUSH2 0x2F16 JUMP JUMPDEST SWAP2 POP PUSH2 0x3427 DUP3 PUSH2 0x33E8 JUMP JUMPDEST PUSH1 0x20 DUP3 ADD SWAP1 POP SWAP2 SWAP1 POP JUMP JUMPDEST PUSH0 PUSH1 0x20 DUP3 ADD SWAP1 POP DUP2 DUP2 SUB PUSH0 DUP4 ADD MSTORE PUSH2 0x3449 DUP2 PUSH2 0x3410 JUMP JUMPDEST SWAP1 POP SWAP2 SWAP1 POP JUMP JUMPDEST PUSH32 0x4E487B7100000000000000000000000000000000000000000000000000000000 PUSH0 MSTORE PUSH1 0x11 PUSH1 0x4 MSTORE PUSH1 0x24 PUSH0 REVERT JUMPDEST PUSH0 PUSH2 0x3487 DUP3 PUSH2 0x2FFA JUMP JUMPDEST SWAP2 POP PUSH2 0x3492 DUP4 PUSH2 0x2FFA JUMP JUMPDEST SWAP3 POP DUP3 DUP3 SUB SWAP1 POP DUP2 DUP2 GT ISZERO PUSH2 0x34AA JUMPI PUSH2 0x34A9 PUSH2 0x3450 JUMP JUMPDEST JUMPDEST SWAP3 SWAP2 POP POP JUMP JUMPDEST PUSH32 0x4F6E6C79206F776E65722063616E2063616C6C00000000000000000000000000 PUSH0 DUP3 ADD MSTORE POP JUMP JUMPDEST PUSH0 PUSH2 0x34E4 PUSH1 0x13 DUP4 PUSH2 0x2F16 JUMP JUMPDEST SWAP2 POP PUSH2 0x34EF DUP3 PUSH2 0x34B0 JUMP JUMPDEST PUSH1 0x20 DUP3 ADD SWAP1 POP SWAP2 SWAP1 POP JUMP JUMPDEST PUSH0 PUSH1 0x20 DUP3 ADD SWAP1 POP DUP2 DUP2 SUB PUSH0 DUP4 ADD MSTORE PUSH2 0x3511 DUP2 PUSH2 0x34D8 JUMP JUMPDEST SWAP1 POP SWAP2 SWAP1 POP JUMP JUMPDEST PUSH32 0x4275792074617820746F6F206869676800000000000000000000000000000000 PUSH0 DUP3 ADD MSTORE POP JUMP JUMPDEST PUSH0 PUSH2 0x354C PUSH1 0x10 DUP4 PUSH2 0x2F16 JUMP JUMPDEST SWAP2 POP PUSH2 0x3557 DUP3 PUSH2 0x3518 JUMP JUMPDEST PUSH1 0x20 DUP3 ADD SWAP1 POP SWAP2 SWAP1 POP JUMP JUMPDEST PUSH0 PUSH1 0x20 DUP3 ADD SWAP1 POP DUP2 DUP2 SUB PUSH0 DUP4 ADD MSTORE PUSH2 0x3579 DUP2 PUSH2 0x3540 JUMP JUMPDEST SWAP1 POP SWAP2 SWAP1 POP JUMP JUMPDEST PUSH32 0x53656C6C2074617820746F6F2068696768000000000000000000000000000000 PUSH0 DUP3 ADD MSTORE POP JUMP JUMPDEST PUSH0 PUSH2 0x35B4 PUSH1 0x11 DUP4 PUSH2 0x2F16 JUMP JUMPDEST SWAP2 POP PUSH2 0x35BF DUP3 PUSH2 0x3580 JUMP JUMPDEST PUSH1 0x20 DUP3 ADD SWAP1 POP SWAP2 SWAP1 POP JUMP JUMPDEST PUSH0 PUSH1 0x20 DUP3 ADD SWAP1 POP DUP2 DUP2 SUB PUSH0 DUP4 ADD MSTORE PUSH2 0x35E1 DUP2 PUSH2 0x35A8 JUMP JUMPDEST SWAP1 POP SWAP2 SWAP1 POP JUMP JUMPDEST PUSH32 0x5472616E736665722074617820746F6F20686967680000000000000000000000 PUSH0 DUP3 ADD MSTORE POP JUMP JUMPDEST PUSH0 PUSH2 0x361C PUSH1 0x15 DUP4 PUSH2 0x2F16 JUMP JUMPDEST SWAP2 POP PUSH2 0x3627 DUP3 PUSH2 0x35E8 JUMP JUMPDEST PUSH1 0x20 DUP3 ADD SWAP1 POP SWAP2 SWAP1 POP JUMP JUMPDEST PUSH0 PUSH1 0x20 DUP3 ADD SWAP1 POP DUP2 DUP2 SUB PUSH0 DUP4 ADD MSTORE PUSH2 0x3649 DUP2 PUSH2 0x3610 JUMP JUMPDEST SWAP1 POP SWAP2 SWAP1 POP JUMP JUMPDEST PUSH32 0x4E6F206665657320746F20776974686472617700000000000000000000000000 PUSH0 DUP3 ADD MSTORE POP JUMP JUMPDEST PUSH0 PUSH2 0x3684 PUSH1 0x13 DUP4 PUSH2 0x2F16 JUMP JUMPDEST SWAP2 POP PUSH2 0x368F DUP3 PUSH2 0x3650 JUMP JUMPDEST PUSH1 0x20 DUP3 ADD SWAP1 POP SWAP2 SWAP1 POP JUMP JUMPDEST PUSH0 PUSH1 0x20 DUP3 ADD SWAP1 POP DUP2 DUP2 SUB PUSH0 DUP4 ADD MSTORE PUSH2 0x36B1 DUP2 PUSH2 0x3678 JUMP JUMPDEST SWAP1 POP SWAP2 SWAP1 POP JUMP JUMPDEST PUSH0 PUSH2 0x36C2 DUP3 PUSH2 0x2FFA JUMP JUMPDEST SWAP2 POP PUSH2 0x36CD DUP4 PUSH2 0x2FFA JUMP JUMPDEST SWAP3 POP DUP3 DUP3 ADD SWAP1 POP DUP1 DUP3 GT ISZERO PUSH2 0x36E5 JUMPI PUSH2 0x36E4 PUSH2 0x3450 JUMP JUMPDEST JUMPDEST SWAP3 SWAP2 POP POP JUMP JUMPDEST PUSH0 PUSH2 0x36F5 DUP3 PUSH2 0x2FFA JUMP JUMPDEST SWAP2 POP PUSH2 0x3700 DUP4 PUSH2 0x2FFA JUMP JUMPDEST SWAP3 POP DUP3 DUP3 MUL PUSH2 0x370E DUP2 PUSH2 0x2FFA JUMP JUMPDEST SWAP2 POP DUP3 DUP3 DIV DUP5 EQ DUP4 ISZERO OR PUSH2 0x3725 JUMPI PUSH2 0x3724 PUSH2 0x3450 JUMP JUMPDEST JUMPDEST POP SWAP3 SWAP2 POP POP JUMP JUMPDEST PUSH32 0x4E487B7100000000000000000000000000000000000000000000000000000000 PUSH0 MSTORE PUSH1 0x12 PUSH1 0x4 MSTORE PUSH1 0x24 PUSH0 REVERT JUMPDEST PUSH0 PUSH2 0x3763 DUP3 PUSH2 0x2FFA JUMP JUMPDEST SWAP2 POP PUSH2 0x376E DUP4 PUSH2 0x2FFA JUMP JUMPDEST SWAP3 POP DUP3 PUSH2 0x377E JUMPI PUSH2 0x377D PUSH2 0x372C JUMP JUMPDEST JUMPDEST DUP3 DUP3 DIV SWAP1 POP SWAP3 SWAP2 POP POP JUMP JUMPDEST PUSH32 0x546F6B656E20616D6F756E74206D757374206265206772656174657220746861 PUSH0 DUP3 ADD MSTORE PUSH32 0x6E20300000000000000000000000000000000000000000000000000000000000 PUSH1 0x20 DUP3 ADD MSTORE POP JUMP JUMPDEST PUSH0 PUSH2 0x37E3 PUSH1 0x23 DUP4 PUSH2 0x2F16 JUMP JUMPDEST SWAP2 POP PUSH2 0x37EE DUP3 PUSH2 0x3789 JUMP JUMPDEST PUSH1 0x40 DUP3 ADD SWAP1 POP SWAP2 SWAP1 POP JUMP JUMPDEST PUSH0 PUSH1 0x20 DUP3 ADD SWAP1 POP DUP2 DUP2 SUB PUSH0 DUP4 ADD MSTORE PUSH2 0x3810 DUP2 PUSH2 0x37D7 JUMP JUMPDEST SWAP1 POP SWAP2 SWAP1 POP JUMP JUMPDEST PUSH32 0x45544820616D6F756E74206D7573742062652067726561746572207468616E20 PUSH0 DUP3 ADD MSTORE PUSH32 0x3000000000000000000000000000000000000000000000000000000000000000 PUSH1 0x20 DUP3 ADD MSTORE POP JUMP JUMPDEST PUSH0 PUSH2 0x3871 PUSH1 0x21 DUP4 PUSH2 0x2F16 JUMP JUMPDEST SWAP2 POP PUSH2 0x387C DUP3 PUSH2 0x3817 JUMP JUMPDEST PUSH1 0x40 DUP3 ADD SWAP1 POP SWAP2 SWAP1 POP JUMP JUMPDEST PUSH0 PUSH1 0x20 DUP3 ADD SWAP1 POP DUP2 DUP2 SUB PUSH0 DUP4 ADD MSTORE PUSH2 0x389E DUP2 PUSH2 0x3865 JUMP JUMPDEST SWAP1 POP SWAP2 SWAP1 POP JUMP JUMPDEST PUSH32 0x4E6F7420656E6F75676820746F6B656E73000000000000000000000000000000 PUSH0 DUP3 ADD MSTORE POP JUMP JUMPDEST PUSH0 PUSH2 0x38D9 PUSH1 0x11 DUP4 PUSH2 0x2F16 JUMP JUMPDEST SWAP2 POP PUSH2 0x38E4 DUP3 PUSH2 0x38A5 JUMP JUMPDEST PUSH1 0x20 DUP3 ADD SWAP1 POP SWAP2 SWAP1 POP JUMP JUMPDEST PUSH0 PUSH1 0x20 DUP3 ADD SWAP1 POP DUP2 DUP2 SUB PUSH0 DUP4 ADD MSTORE PUSH2 0x3906 DUP2 PUSH2 0x38CD JUMP JUMPDEST SWAP1 POP SWAP2 SWAP1 POP JUMP JUMPDEST PUSH32 0x536861726573206D7573742062652067726561746572207468616E2030000000 PUSH0 DUP3 ADD MSTORE POP JUMP JUMPDEST PUSH0 PUSH2 0x3941 PUSH1 0x1D DUP4 PUSH2 0x2F16 JUMP JUMPDEST SWAP2 POP PUSH2 0x394C DUP3 PUSH2 0x390D JUMP JUMPDEST PUSH1 0x20 DUP3 ADD SWAP1 POP SWAP2 SWAP1 POP JUMP JUMPDEST PUSH0 PUSH1 0x20 DUP3 ADD SWAP1 POP DUP2 DUP2 SUB PUSH0 DUP4 ADD MSTORE PUSH2 0x396E DUP2 PUSH2 0x3935 JUMP JUMPDEST SWAP1 POP SWAP2 SWAP1 POP JUMP JUMPDEST PUSH0 PUSH1 0x60 DUP3 ADD SWAP1 POP PUSH2 0x3988 PUSH0 DUP4 ADD DUP7 PUSH2 0x309E JUMP JUMPDEST PUSH2 0x3995 PUSH1 0x20 DUP4 ADD DUP6 PUSH2 0x309E JUMP JUMPDEST PUSH2 0x39A2 PUSH1 0x40 DUP4 ADD DUP5 PUSH2 0x309E JUMP JUMPDEST SWAP5 SWAP4 POP POP POP POP JUMP JUMPDEST PUSH32 0x416D6F756E74206D7573742062652067726561746572207468616E2030000000 PUSH0 DUP3 ADD MSTORE POP JUMP JUMPDEST PUSH0 PUSH2 0x39DE PUSH1 0x1D DUP4 PUSH2 0x2F16 JUMP JUMPDEST SWAP2 POP PUSH2 0x39E9 DUP3 PUSH2 0x39AA JUMP JUMPDEST PUSH1 0x20 DUP3 ADD SWAP1 POP SWAP2 SWAP1 POP JUMP JUMPDEST PUSH0 PUSH1 0x20 DUP3 ADD SWAP1 POP DUP2 DUP2 SUB PUSH0 DUP4 ADD MSTORE PUSH2 0x3A0B DUP2 PUSH2 0x39D2 JUMP JUMPDEST SWAP1 POP SWAP2 SWAP1 POP JUMP JUMPDEST PUSH32 0x4E6F206C69717569646974790000000000000000000000000000000000000000 PUSH0 DUP3 ADD MSTORE POP JUMP JUMPDEST PUSH0 PUSH2 0x3A46 PUSH1 0xC DUP4 PUSH2 0x2F16 JUMP JUMPDEST SWAP2 POP PUSH2 0x3A51 DUP3 PUSH2 0x3A12 JUMP JUMPDEST PUSH1 0x20 DUP3 ADD SWAP1 POP SWAP2 SWAP1 POP JUMP JUMPDEST PUSH0 PUSH1 0x20 DUP3 ADD SWAP1 POP DUP2 DUP2 SUB PUSH0 DUP4 ADD MSTORE PUSH2 0x3A73 DUP2 PUSH2 0x3A3A JUMP JUMPDEST SWAP1 POP SWAP2 SWAP1 POP JUMP JUMPDEST PUSH32 0x45544820616D6F756E7420746F6F20736D616C6C000000000000000000000000 PUSH0 DUP3 ADD MSTORE POP JUMP JUMPDEST PUSH0 PUSH2 0x3AAE PUSH1 0x14 DUP4 PUSH2 0x2F16 JUMP JUMPDEST SWAP2 POP PUSH2 0x3AB9 DUP3 PUSH2 0x3A7A JUMP JUMPDEST PUSH1 0x20 DUP3 ADD SWAP1 POP SWAP2 SWAP1 POP JUMP JUMPDEST PUSH0 PUSH1 0x20 DUP3 ADD SWAP1 POP DUP2 DUP2 SUB PUSH0 DUP4 ADD MSTORE PUSH2 0x3ADB DUP2 PUSH2 0x3AA2 JUMP JUMPDEST SWAP1 POP SWAP2 SWAP1 POP JUMP JUMPDEST PUSH32 0x4E6F7420656E6F7567682045544820696E20706F6F6C00000000000000000000 PUSH0 DUP3 ADD MSTORE POP JUMP JUMPDEST PUSH0 PUSH2 0x3B16 PUSH1 0x16 DUP4 PUSH2 0x2F16 JUMP JUMPDEST SWAP2 POP PUSH2 0x3B21 DUP3 PUSH2 0x3AE2 JUMP JUMPDEST PUSH1 0x20 DUP3 ADD SWAP1 POP SWAP2 SWAP1 POP JUMP JUMPDEST PUSH0 PUSH1 0x20 DUP3 ADD SWAP1 POP DUP2 DUP2 SUB PUSH0 DUP4 ADD MSTORE PUSH2 0x3B43 DUP2 PUSH2 0x3B0A JUMP JUMPDEST SWAP1 POP SWAP2 SWAP1 POP JUMP JUMPDEST PUSH32 0x546F6F2072657374726963746976650000000000000000000000000000000000 PUSH0 DUP3 ADD MSTORE POP JUMP JUMPDEST PUSH0 PUSH2 0x3B7E PUSH1 0xF DUP4 PUSH2 0x2F16 JUMP JUMPDEST SWAP2 POP PUSH2 0x3B89 DUP3 PUSH2 0x3B4A JUMP JUMPDEST PUSH1 0x20 DUP3 ADD SWAP1 POP SWAP2 SWAP1 POP JUMP JUMPDEST PUSH0 PUSH1 0x20 DUP3 ADD SWAP1 POP DUP2 DUP2 SUB PUSH0 DUP4 ADD MSTORE PUSH2 0x3BAB DUP2 PUSH2 0x3B72 JUMP JUMPDEST SWAP1 POP SWAP2 SWAP1 POP JUMP JUMPDEST PUSH32 0x496E76616C696420616464726573730000000000000000000000000000000000 PUSH0 DUP3 ADD MSTORE POP JUMP JUMPDEST PUSH0 PUSH2 0x3BE6 PUSH1 0xF DUP4 PUSH2 0x2F16 JUMP JUMPDEST SWAP2 POP PUSH2 0x3BF1 DUP3 PUSH2 0x3BB2 JUMP JUMPDEST PUSH1 0x20 DUP3 ADD SWAP1 POP SWAP2 SWAP1 POP JUMP JUMPDEST PUSH0 PUSH1 0x20 DUP3 ADD SWAP1 POP DUP2 DUP2 SUB PUSH0 DUP4 ADD MSTORE PUSH2 0x3C13 DUP2 PUSH2 0x3BDA JUMP JUMPDEST SWAP1 POP SWAP2 SWAP1 POP JUMP JUMPDEST PUSH32 0x4E6F7420656E6F75676820736861726573000000000000000000000000000000 PUSH0 DUP3 ADD MSTORE POP JUMP JUMPDEST PUSH0 PUSH2 0x3C4E PUSH1 0x11 DUP4 PUSH2 0x2F16 JUMP JUMPDEST SWAP2 POP PUSH2 0x3C59 DUP3 PUSH2 0x3C1A JUMP JUMPDEST PUSH1 0x20 DUP3 ADD SWAP1 POP SWAP2 SWAP1 POP JUMP JUMPDEST PUSH0 PUSH1 0x20 DUP3 ADD SWAP1 POP DUP2 DUP2 SUB PUSH0 DUP4 ADD MSTORE PUSH2 0x3C7B DUP2 PUSH2 0x3C42 JUMP JUMPDEST SWAP1 POP SWAP2 SWAP1 POP JUMP JUMPDEST PUSH32 0x416D6F756E7473206D7573742062652067726561746572207468616E20300000 PUSH0 DUP3 ADD MSTORE POP JUMP JUMPDEST PUSH0 PUSH2 0x3CB6 PUSH1 0x1E DUP4 PUSH2 0x2F16 JUMP JUMPDEST SWAP2 POP PUSH2 0x3CC1 DUP3 PUSH2 0x3C82 JUMP JUMPDEST PUSH1 0x20 DUP3 ADD SWAP1 POP SWAP2 SWAP1 POP JUMP JUMPDEST PUSH0 PUSH1 0x20 DUP3 ADD SWAP1 POP DUP2 DUP2 SUB PUSH0 DUP4 ADD MSTORE PUSH2 0x3CE3 DUP2 PUSH2 0x3CAA JUMP JUMPDEST SWAP1 POP SWAP2 SWAP1 POP JUMP JUMPDEST PUSH32 0x4D617820747820746F6F206C6F77000000000000000000000000000000000000 PUSH0 DUP3 ADD MSTORE POP JUMP JUMPDEST PUSH0 PUSH2 0x3D1E PUSH1 0xE DUP4 PUSH2 0x2F16 JUMP JUMPDEST SWAP2 POP PUSH2 0x3D29 DUP3 PUSH2 0x3CEA JUMP JUMPDEST PUSH1 0x20 DUP3 ADD SWAP1 POP SWAP2 SWAP1 POP JUMP JUMPDEST PUSH0 PUSH1 0x20 DUP3 ADD SWAP1 POP DUP2 DUP2 SUB PUSH0 DUP4 ADD MSTORE PUSH2 0x3D4B DUP2 PUSH2 0x3D12 JUMP JUMPDEST SWAP1 POP SWAP2 SWAP1 POP JUMP JUMPDEST PUSH32 0x4D61782077616C6C657420746F6F206C6F770000000000000000000000000000 PUSH0 DUP3 ADD MSTORE POP JUMP JUMPDEST PUSH0 PUSH2 0x3D86 PUSH1 0x12 DUP4 PUSH2 0x2F16 JUMP JUMPDEST SWAP2 POP PUSH2 0x3D91 DUP3 PUSH2 0x3D52 JUMP JUMPDEST PUSH1 0x20 DUP3 ADD SWAP1 POP SWAP2 SWAP1 POP JUMP JUMPDEST PUSH0 PUSH1 0x20 DUP3 ADD SWAP1 POP DUP2 DUP2 SUB PUSH0 DUP4 ADD MSTORE PUSH2 0x3DB3 DUP2 PUSH2 0x3D7A JUMP JUMPDEST SWAP1 POP SWAP2 SWAP1 POP JUMP JUMPDEST PUSH32 0x4D7573742073656E642045544800000000000000000000000000000000000000 PUSH0 DUP3 ADD MSTORE POP JUMP JUMPDEST PUSH0 PUSH2 0x3DEE PUSH1 0xD DUP4 PUSH2 0x2F16 JUMP JUMPDEST SWAP2 POP PUSH2 0x3DF9 DUP3 PUSH2 0x3DBA JUMP JUMPDEST PUSH1 0x20 DUP3 ADD SWAP1 POP SWAP2 SWAP1 POP JUMP JUMPDEST PUSH0 PUSH1 0x20 DUP3 ADD SWAP1 POP DUP2 DUP2 SUB PUSH0 DUP4 ADD MSTORE PUSH2 0x3E1B DUP2 PUSH2 0x3DE2 JUMP JUMPDEST SWAP1 POP SWAP2 SWAP1 POP JUMP JUMPDEST PUSH32 0x546F6B656E20616D6F756E7420746F6F20736D616C6C00000000000000000000 PUSH0 DUP3 ADD MSTORE POP JUMP JUMPDEST PUSH0 PUSH2 0x3E56 PUSH1 0x16 DUP4 PUSH2 0x2F16 JUMP JUMPDEST SWAP2 POP PUSH2 0x3E61 DUP3 PUSH2 0x3E22 JUMP JUMPDEST PUSH1 0x20 DUP3 ADD SWAP1 POP SWAP2 SWAP1 POP JUMP JUMPDEST PUSH0 PUSH1 0x20 DUP3 ADD SWAP1 POP DUP2 DUP2 SUB PUSH0 DUP4 ADD MSTORE PUSH2 0x3E83 DUP2 PUSH2 0x3E4A JUMP JUMPDEST SWAP1 POP SWAP2 SWAP1 POP JUMP JUMPDEST PUSH32 0x5472616E736665722066726F6D207A65726F2061646472657373000000000000 PUSH0 DUP3 ADD MSTORE POP JUMP JUMPDEST PUSH0 PUSH2 0x3EBE PUSH1 0x1A DUP4 PUSH2 0x2F16 JUMP JUMPDEST SWAP2 POP PUSH2 0x3EC9 DUP3 PUSH2 0x3E8A JUMP JUMPDEST PUSH1 0x20 DUP3 ADD SWAP1 POP SWAP2 SWAP1 POP JUMP JUMPDEST PUSH0 PUSH1 0x20 DUP3 ADD SWAP1 POP DUP2 DUP2 SUB PUSH0 DUP4 ADD MSTORE PUSH2 0x3EEB DUP2 PUSH2 0x3EB2 JUMP JUMPDEST SWAP1 POP SWAP2 SWAP1 POP JUMP JUMPDEST PUSH32 0x5472616E7366657220746F207A65726F20616464726573730000000000000000 PUSH0 DUP3 ADD MSTORE POP JUMP JUMPDEST PUSH0 PUSH2 0x3F26 PUSH1 0x18 DUP4 PUSH2 0x2F16 JUMP JUMPDEST SWAP2 POP PUSH2 0x3F31 DUP3 PUSH2 0x3EF2 JUMP JUMPDEST PUSH1 0x20 DUP3 ADD SWAP1 POP SWAP2 SWAP1 POP JUMP JUMPDEST PUSH0 PUSH1 0x20 DUP3 ADD SWAP1 POP DUP2 DUP2 SUB PUSH0 DUP4 ADD MSTORE PUSH2 0x3F53 DUP2 PUSH2 0x3F1A JUMP JUMPDEST SWAP1 POP SWAP2 SWAP1 POP JUMP JUMPDEST PUSH32 0x42616C616E6365206E6F7420656E6F7567680000000000000000000000000000 PUSH0 DUP3 ADD MSTORE POP JUMP JUMPDEST PUSH0 PUSH2 0x3F8E PUSH1 0x12 DUP4 PUSH2 0x2F16 JUMP JUMPDEST SWAP2 POP PUSH2 0x3F99 DUP3 PUSH2 0x3F5A JUMP JUMPDEST PUSH1 0x20 DUP3 ADD SWAP1 POP SWAP2 SWAP1 POP JUMP JUMPDEST PUSH0 PUSH1 0x20 DUP3 ADD SWAP1 POP DUP2 DUP2 SUB PUSH0 DUP4 ADD MSTORE PUSH2 0x3FBB DUP2 PUSH2 0x3F82 JUMP JUMPDEST SWAP1 POP SWAP2 SWAP1 POP JUMP JUMPDEST PUSH32 0x45786365656473206D6178207472616E73616374696F6E20616D6F756E740000 PUSH0 DUP3 ADD MSTORE POP JUMP JUMPDEST PUSH0 PUSH2 0x3FF6 PUSH1 0x1E DUP4 PUSH2 0x2F16 JUMP JUMPDEST SWAP2 POP PUSH2 0x4001 DUP3 PUSH2 0x3FC2 JUMP JUMPDEST PUSH1 0x20 DUP3 ADD SWAP1 POP SWAP2 SWAP1 POP JUMP JUMPDEST PUSH0 PUSH1 0x20 DUP3 ADD SWAP1 POP DUP2 DUP2 SUB PUSH0 DUP4 ADD MSTORE PUSH2 0x4023 DUP2 PUSH2 0x3FEA JUMP JUMPDEST SWAP1 POP SWAP2 SWAP1 POP JUMP JUMPDEST PUSH32 0x45786365656473206D61782077616C6C657420616D6F756E7400000000000000 PUSH0 DUP3 ADD MSTORE POP JUMP JUMPDEST PUSH0 PUSH2 0x405E PUSH1 0x19 DUP4 PUSH2 0x2F16 JUMP JUMPDEST SWAP2 POP PUSH2 0x4069 DUP3 PUSH2 0x402A JUMP JUMPDEST PUSH1 0x20 DUP3 ADD SWAP1 POP SWAP2 SWAP1 POP JUMP JUMPDEST PUSH0 PUSH1 0x20 DUP3 ADD SWAP1 POP DUP2 DUP2 SUB PUSH0 DUP4 ADD MSTORE PUSH2 0x408B DUP2 PUSH2 0x4052 JUMP JUMPDEST SWAP1 POP SWAP2 SWAP1 POP JUMP JUMPDEST PUSH32 0x4461696C79207472616E73616374696F6E206C696D6974207265616368656400 PUSH0 DUP3 ADD MSTORE POP JUMP JUMPDEST PUSH0 PUSH2 0x40C6 PUSH1 0x1F DUP4 PUSH2 0x2F16 JUMP JUMPDEST SWAP2 POP PUSH2 0x40D1 DUP3 PUSH2 0x4092 JUMP JUMPDEST PUSH1 0x20 DUP3 ADD SWAP1 POP SWAP2 SWAP1 POP JUMP JUMPDEST PUSH0 PUSH1 0x20 DUP3 ADD SWAP1 POP DUP2 DUP2 SUB PUSH0 DUP4 ADD MSTORE PUSH2 0x40F3 DUP2 PUSH2 0x40BA JUMP JUMPDEST SWAP1 POP SWAP2 SWAP1 POP JUMP JUMPDEST PUSH0 PUSH2 0x4104 DUP3 PUSH2 0x2FFA JUMP JUMPDEST SWAP2 POP PUSH32 0xFFFFFFFFFFFFFFFFFFFFFFFFFFFFFFFFFFFFFFFFFFFFFFFFFFFFFFFFFFFFFFFF DUP3 SUB PUSH2 0x4136 JUMPI PUSH2 0x4135 PUSH2 0x3450 JUMP JUMPDEST JUMPDEST PUSH1 0x1 DUP3 ADD SWAP1 POP SWAP2 SWAP1 POP JUMP INVALID LOG2 PUSH5 0x6970667358 0x22 SLT KECCAK256 SWAP4 0xC5 DUP8 SDIV CALLDATASIZE PUSH28 0xEC9407D03F369C9288A5462F50461651F223E757E5EB96FCD2156473 PUSH16 0x6C634300081E00330000000000000000 "
				},
				"gasEstimates": {
					"creation": {
						"codeDepositCost": "3351800",
						"executionCost": "infinite",
						"totalCost": "infinite"
					},
					"external": {
						"addLiquidity(uint256)": "infinite",
						"allowance(address,address)": "infinite",
						"approve(address,uint256)": "infinite",
						"balanceOf(address)": "2891",
						"buyTaxRate()": "2470",
						"buyTokens()": "infinite",
						"collectedFees()": "2515",
						"dailyTxCount(address)": "2891",
						"decimals()": "2578",
						"feeWallet()": "2618",
						"getRemainingDailyTx(address)": "infinite",
						"getTokenPrice()": "infinite",
						"getUserLiquidityValue(address)": "infinite",
						"isExcluded(address)": "2966",
						"lastTxDate(address)": "2935",
						"liquidityETH()": "2559",
						"liquidityShares(address)": "2913",
						"liquidityTokens()": "2493",
						"maxDailyTx()": "2538",
						"maxTxAmount()": "2471",
						"maxWalletAmount()": "2492",
						"name()": "infinite",
						"owner()": "2576",
						"removeLiquidity(uint256)": "infinite",
						"sellTaxRate()": "2493",
						"sellTokens(uint256)": "infinite",
						"setExcluded(address,bool)": "27238",
						"setFeeWallet(address)": "27030",
						"setLimits(uint256,uint256)": "infinite",
						"setMaxDailyTx(uint256)": "24821",
						"setTaxRates(uint256,uint256,uint256)": "infinite",
						"symbol()": "infinite",
						"totalLiquidityShares()": "2558",
						"totalSupply()": "2516",
						"transfer(address,uint256)": "infinite",
						"transferFrom(address,address,uint256)": "infinite",
						"transferOwnership(address)": "27050",
						"transferTaxRate()": "2514",
						"withdrawFees()": "infinite"
					},
					"internal": {
						"_checkDailyLimit(address)": "infinite",
						"_transfer(address,address,uint256)": "infinite"
					}
				},
				"methodIdentifiers": {
					"addLiquidity(uint256)": "51c6590a",
					"allowance(address,address)": "dd62ed3e",
					"approve(address,uint256)": "095ea7b3",
					"balanceOf(address)": "70a08231",
					"buyTaxRate()": "691f224f",
					"buyTokens()": "d0febe4c",
					"collectedFees()": "9003adfe",
					"dailyTxCount(address)": "9ce1a56b",
					"decimals()": "313ce567",
					"feeWallet()": "f25f4b56",
					"getRemainingDailyTx(address)": "5d61451a",
					"getTokenPrice()": "4b94f50e",
					"getUserLiquidityValue(address)": "ef35e2ec",
					"isExcluded(address)": "cba0e996",
					"lastTxDate(address)": "a19d9700",
					"liquidityETH()": "95097030",
					"liquidityShares(address)": "9db4aa04",
					"liquidityTokens()": "4b8ce602",
					"maxDailyTx()": "20ecc78e",
					"maxTxAmount()": "8c0b5e22",
					"maxWalletAmount()": "aa4bde28",
					"name()": "06fdde03",
					"owner()": "8da5cb5b",
					"removeLiquidity(uint256)": "9c8f9f23",
					"sellTaxRate()": "24024efd",
					"sellTokens(uint256)": "6c11bcd3",
					"setExcluded(address,bool)": "2836be24",
					"setFeeWallet(address)": "90d49b9d",
					"setLimits(uint256,uint256)": "c4590d3f",
					"setMaxDailyTx(uint256)": "7f055afe",
					"setTaxRates(uint256,uint256,uint256)": "39253114",
					"symbol()": "95d89b41",
					"totalLiquidityShares()": "87cd5b20",
					"totalSupply()": "18160ddd",
					"transfer(address,uint256)": "a9059cbb",
					"transferFrom(address,address,uint256)": "23b872dd",
					"transferOwnership(address)": "f2fde38b",
					"transferTaxRate()": "b65d08b0",
					"withdrawFees()": "476343ee"
				}
			},
			"storageLayout": {
				"storage": [
					{
						"astId": 5,
						"contract": "contracts/SimpleMemeToken.sol:SimpleMemeToken",
						"label": "name",
						"offset": 0,
						"slot": "0",
						"type": "t_string_storage"
					},
					{
						"astId": 8,
						"contract": "contracts/SimpleMemeToken.sol:SimpleMemeToken",
						"label": "symbol",
						"offset": 0,
						"slot": "1",
						"type": "t_string_storage"
					},
					{
						"astId": 11,
						"contract": "contracts/SimpleMemeToken.sol:SimpleMemeToken",
						"label": "decimals",
						"offset": 0,
						"slot": "2",
						"type": "t_uint8"
					},
					{
						"astId": 18,
						"contract": "contracts/SimpleMemeToken.sol:SimpleMemeToken",
						"label": "totalSupply",
						"offset": 0,
						"slot": "3",
						"type": "t_uint256"
					},
					{
						"astId": 22,
						"contract": "contracts/SimpleMemeToken.sol:SimpleMemeToken",
						"label": "balanceOf",
						"offset": 0,
						"slot": "4",
						"type": "t_mapping(t_address,t_uint256)"
					},
					{
						"astId": 28,
						"contract": "contracts/SimpleMemeToken.sol:SimpleMemeToken",
						"label": "allowance",
						"offset": 0,
						"slot": "5",
						"type": "t_mapping(t_address,t_mapping(t_address,t_uint256))"
					},
					{
						"astId": 31,
						"contract": "contracts/SimpleMemeToken.sol:SimpleMemeToken",
						"label": "buyTaxRate",
						"offset": 0,
						"slot": "6",
						"type": "t_uint256"
					},
					{
						"astId": 34,
						"contract": "contracts/SimpleMemeToken.sol:SimpleMemeToken",
						"label": "sellTaxRate",
						"offset": 0,
						"slot": "7",
						"type": "t_uint256"
					},
					{
						"astId": 37,
						"contract": "contracts/SimpleMemeToken.sol:SimpleMemeToken",
						"label": "transferTaxRate",
						"offset": 0,
						"slot": "8",
						"type": "t_uint256"
					},
					{
						"astId": 39,
						"contract": "contracts/SimpleMemeToken.sol:SimpleMemeToken",
						"label": "feeWallet",
						"offset": 0,
						"slot": "9",
						"type": "t_address"
					},
					{
						"astId": 41,
						"contract": "contracts/SimpleMemeToken.sol:SimpleMemeToken",
						"label": "collectedFees",
						"offset": 0,
						"slot": "10",
						"type": "t_uint256"
					},
					{
						"astId": 43,
						"contract": "contracts/SimpleMemeToken.sol:SimpleMemeToken",
						"label": "liquidityTokens",
						"offset": 0,
						"slot": "11",
						"type": "t_uint256"
					},
					{
						"astId": 45,
						"contract": "contracts/SimpleMemeToken.sol:SimpleMemeToken",
						"label": "liquidityETH",
						"offset": 0,
						"slot": "12",
						"type": "t_uint256"
					},
					{
						"astId": 49,
						"contract": "contracts/SimpleMemeToken.sol:SimpleMemeToken",
						"label": "liquidityShares",
						"offset": 0,
						"slot": "13",
						"type": "t_mapping(t_address,t_uint256)"
					},
					{
						"astId": 51,
						"contract": "contracts/SimpleMemeToken.sol:SimpleMemeToken",
						"label": "totalLiquidityShares",
						"offset": 0,
						"slot": "14",
						"type": "t_uint256"
					},
					{
						"astId": 58,
						"contract": "contracts/SimpleMemeToken.sol:SimpleMemeToken",
						"label": "maxTxAmount",
						"offset": 0,
						"slot": "15",
						"type": "t_uint256"
					},
					{
						"astId": 65,
						"contract": "contracts/SimpleMemeToken.sol:SimpleMemeToken",
						"label": "maxWalletAmount",
						"offset": 0,
						"slot": "16",
						"type": "t_uint256"
					},
					{
						"astId": 69,
						"contract": "contracts/SimpleMemeToken.sol:SimpleMemeToken",
						"label": "dailyTxCount",
						"offset": 0,
						"slot": "17",
						"type": "t_mapping(t_address,t_uint256)"
					},
					{
						"astId": 73,
						"contract": "contracts/SimpleMemeToken.sol:SimpleMemeToken",
						"label": "lastTxDate",
						"offset": 0,
						"slot": "18",
						"type": "t_mapping(t_address,t_uint256)"
					},
					{
						"astId": 76,
						"contract": "contracts/SimpleMemeToken.sol:SimpleMemeToken",
						"label": "maxDailyTx",
						"offset": 0,
						"slot": "19",
						"type": "t_uint256"
					},
					{
						"astId": 80,
						"contract": "contracts/SimpleMemeToken.sol:SimpleMemeToken",
						"label": "isExcluded",
						"offset": 0,
						"slot": "20",
						"type": "t_mapping(t_address,t_bool)"
					},
					{
						"astId": 82,
						"contract": "contracts/SimpleMemeToken.sol:SimpleMemeToken",
						"label": "owner",
						"offset": 0,
						"slot": "21",
						"type": "t_address"
					}
				],
				"types": {
					"t_address": {
						"encoding": "inplace",
						"label": "address",
						"numberOfBytes": "20"
					},
					"t_bool": {
						"encoding": "inplace",
						"label": "bool",
						"numberOfBytes": "1"
					},
					"t_mapping(t_address,t_bool)": {
						"encoding": "mapping",
						"key": "t_address",
						"label": "mapping(address => bool)",
						"numberOfBytes": "32",
						"value": "t_bool"
					},
					"t_mapping(t_address,t_mapping(t_address,t_uint256))": {
						"encoding": "mapping",
						"key": "t_address",
						"label": "mapping(address => mapping(address => uint256))",
						"numberOfBytes": "32",
						"value": "t_mapping(t_address,t_uint256)"
					},
					"t_mapping(t_address,t_uint256)": {
						"encoding": "mapping",
						"key": "t_address",
						"label": "mapping(address => uint256)",
						"numberOfBytes": "32",
						"value": "t_uint256"
					},
					"t_string_storage": {
						"encoding": "bytes",
						"label": "string",
						"numberOfBytes": "32"
					},
					"t_uint256": {
						"encoding": "inplace",
						"label": "uint256",
						"numberOfBytes": "32"
					},
					"t_uint8": {
						"encoding": "inplace",
						"label": "uint8",
						"numberOfBytes": "1"
					}
				}
			},
			"userdoc": {
				"kind": "user",
				"methods": {
					"addLiquidity(uint256)": {
						"notice": "添加流动性"
					},
					"approve(address,uint256)": {
						"notice": "授权其他地址使用自己的代币"
					},
					"buyTokens()": {
						"notice": "通过流动性池买入代币"
					},
					"constructor": {
						"notice": "初始化代币合约"
					},
					"getRemainingDailyTx(address)": {
						"notice": "查询用户今日剩余交易次数"
					},
					"getTokenPrice()": {
						"notice": "查询代币价格(1个代币值多少ETH)"
					},
					"getUserLiquidityValue(address)": {
						"notice": "查询用户的流动性份额价值"
					},
					"removeLiquidity(uint256)": {
						"notice": "移除流动性"
					},
					"sellTokens(uint256)": {
						"notice": "通过流动性池卖出代币"
					},
					"setExcluded(address,bool)": {
						"notice": "设置白名单"
					},
					"setFeeWallet(address)": {
						"notice": "更新税费钱包地址"
					},
					"setLimits(uint256,uint256)": {
						"notice": "设置交易限制"
					},
					"setMaxDailyTx(uint256)": {
						"notice": "设置每日交易次数限制"
					},
					"setTaxRates(uint256,uint256,uint256)": {
						"notice": "设置税率"
					},
					"transfer(address,uint256)": {
						"notice": "转账代币给其他地址"
					},
					"transferFrom(address,address,uint256)": {
						"notice": "从授权额度中转账"
					},
					"transferOwnership(address)": {
						"notice": "转移所有权"
					},
					"withdrawFees()": {
						"notice": "提取收集的税费"
					}
				},
				"notice": "实现了基本的交易税、简单流动性池和交易限制功能",
				"version": 1
			}
		}
	}
}